{
	"contracts/BS_ERC721.sol": {
		"BlueSurgeNFT": {
			"abi": [
				{
					"inputs": [],
					"stateMutability": "nonpayable",
					"type": "constructor"
				},
				{
					"anonymous": false,
					"inputs": [
						{
							"indexed": true,
							"internalType": "address",
							"name": "from",
							"type": "address"
						},
						{
							"indexed": true,
							"internalType": "address",
							"name": "to",
							"type": "address"
						},
						{
							"indexed": true,
							"internalType": "uint256",
							"name": "tokenId",
							"type": "uint256"
						}
					],
					"name": "Transfer",
					"type": "event"
				},
				{
					"inputs": [
						{
							"internalType": "address",
							"name": "owner",
							"type": "address"
						}
					],
					"name": "balanceOf",
					"outputs": [
						{
							"internalType": "uint256",
							"name": "",
							"type": "uint256"
						}
					],
					"stateMutability": "view",
					"type": "function"
				},
				{
					"inputs": [
						{
							"internalType": "address",
							"name": "_to",
							"type": "address"
						},
						{
							"internalType": "uint256",
							"name": "_tokenId",
							"type": "uint256"
						}
					],
					"name": "mint",
					"outputs": [],
					"stateMutability": "nonpayable",
					"type": "function"
				},
				{
					"inputs": [],
					"name": "name",
					"outputs": [
						{
							"internalType": "string",
							"name": "",
							"type": "string"
						}
					],
					"stateMutability": "view",
					"type": "function"
				},
				{
					"inputs": [
						{
							"internalType": "uint256",
							"name": "tokenId",
							"type": "uint256"
						}
					],
					"name": "ownerOf",
					"outputs": [
						{
							"internalType": "address",
							"name": "",
							"type": "address"
						}
					],
					"stateMutability": "view",
					"type": "function"
				},
				{
					"inputs": [],
					"name": "symbol",
					"outputs": [
						{
							"internalType": "string",
							"name": "",
							"type": "string"
						}
					],
					"stateMutability": "view",
					"type": "function"
				}
			],
			"devdoc": {
				"kind": "dev",
				"methods": {},
				"version": 1
			},
			"evm": {
				"assembly": "    /* \"contracts/BS_ERC721.sol\":63:1949  contract BlueSurgeNFT{\r... */\n  mstore(0x40, 0x80)\n    /* \"contracts/BS_ERC721.sol\":271:352  constructor() {\r... */\n  callvalue\n  dup1\n  iszero\n  tag_1\n  jumpi\n  0x00\n  dup1\n  revert\ntag_1:\n  pop\n    /* \"contracts/BS_ERC721.sol\":296:319  name = \"BlueSurgeToken\" */\n  mload(0x40)\n  dup1\n  0x40\n  add\n  0x40\n  mstore\n  dup1\n  0x0e\n  dup2\n  mstore\n  0x20\n  add\n  0x426c75655375726765546f6b656e000000000000000000000000000000000000\n  dup2\n  mstore\n  pop\n    /* \"contracts/BS_ERC721.sol\":296:300  name */\n  0x00\n    /* \"contracts/BS_ERC721.sol\":296:319  name = \"BlueSurgeToken\" */\n  swap1\n  dup1\n  mload\n  swap1\n  0x20\n  add\n  swap1\n  tag_4\n  swap3\n  swap2\n  swap1\n  tag_5\n  jump\t// in\ntag_4:\n  pop\n    /* \"contracts/BS_ERC721.sol\":330:344  symbol = \"BST\" */\n  mload(0x40)\n  dup1\n  0x40\n  add\n  0x40\n  mstore\n  dup1\n  0x03\n  dup2\n  mstore\n  0x20\n  add\n  0x4253540000000000000000000000000000000000000000000000000000000000\n  dup2\n  mstore\n  pop\n    /* \"contracts/BS_ERC721.sol\":330:336  symbol */\n  0x01\n    /* \"contracts/BS_ERC721.sol\":330:344  symbol = \"BST\" */\n  swap1\n  dup1\n  mload\n  swap1\n  0x20\n  add\n  swap1\n  tag_6\n  swap3\n  swap2\n  swap1\n  tag_5\n  jump\t// in\ntag_6:\n  pop\n    /* \"contracts/BS_ERC721.sol\":63:1949  contract BlueSurgeNFT{\r... */\n  jump(tag_7)\ntag_5:\n  dup3\n  dup1\n  sload\n  tag_8\n  swap1\n  tag_9\n  jump\t// in\ntag_8:\n  swap1\n  0x00\n  mstore\n  keccak256(0x00, 0x20)\n  swap1\n  0x1f\n  add\n  0x20\n  swap1\n  div\n  dup2\n  add\n  swap3\n  dup3\n  tag_11\n  jumpi\n  0x00\n  dup6\n  sstore\n  jump(tag_10)\ntag_11:\n  dup3\n  0x1f\n  lt\n  tag_12\n  jumpi\n  dup1\n  mload\n  not(0xff)\n  and\n  dup4\n  dup1\n  add\n  or\n  dup6\n  sstore\n  jump(tag_10)\ntag_12:\n  dup3\n  dup1\n  add\n  0x01\n  add\n  dup6\n  sstore\n  dup3\n  iszero\n  tag_10\n  jumpi\n  swap2\n  dup3\n  add\ntag_13:\n  dup3\n  dup2\n  gt\n  iszero\n  tag_14\n  jumpi\n  dup3\n  mload\n  dup3\n  sstore\n  swap2\n  0x20\n  add\n  swap2\n  swap1\n  0x01\n  add\n  swap1\n  jump(tag_13)\ntag_14:\ntag_10:\n  pop\n  swap1\n  pop\n  tag_15\n  swap2\n  swap1\n  tag_16\n  jump\t// in\ntag_15:\n  pop\n  swap1\n  jump\t// out\ntag_16:\ntag_17:\n  dup1\n  dup3\n  gt\n  iszero\n  tag_18\n  jumpi\n  0x00\n  dup2\n  0x00\n  swap1\n  sstore\n  pop\n  0x01\n  add\n  jump(tag_17)\ntag_18:\n  pop\n  swap1\n  jump\t// out\n    /* \"#utility.yul\":7:327   */\ntag_9:\n    /* \"#utility.yul\":51:57   */\n  0x00\n    /* \"#utility.yul\":88:89   */\n  0x02\n    /* \"#utility.yul\":82:86   */\n  dup3\n    /* \"#utility.yul\":78:90   */\n  div\n    /* \"#utility.yul\":68:90   */\n  swap1\n  pop\n    /* \"#utility.yul\":135:136   */\n  0x01\n    /* \"#utility.yul\":129:133   */\n  dup3\n    /* \"#utility.yul\":125:137   */\n  and\n    /* \"#utility.yul\":156:174   */\n  dup1\n    /* \"#utility.yul\":146:227   */\n  tag_21\n  jumpi\n    /* \"#utility.yul\":212:216   */\n  0x7f\n    /* \"#utility.yul\":204:210   */\n  dup3\n    /* \"#utility.yul\":200:217   */\n  and\n    /* \"#utility.yul\":190:217   */\n  swap2\n  pop\n    /* \"#utility.yul\":146:227   */\ntag_21:\n    /* \"#utility.yul\":274:276   */\n  0x20\n    /* \"#utility.yul\":266:272   */\n  dup3\n    /* \"#utility.yul\":263:277   */\n  lt\n    /* \"#utility.yul\":243:261   */\n  dup2\n    /* \"#utility.yul\":240:278   */\n  eq\n    /* \"#utility.yul\":237:321   */\n  iszero\n  tag_22\n  jumpi\n    /* \"#utility.yul\":293:311   */\n  tag_23\n  tag_24\n  jump\t// in\ntag_23:\n    /* \"#utility.yul\":237:321   */\ntag_22:\n    /* \"#utility.yul\":58:327   */\n  pop\n    /* \"#utility.yul\":7:327   */\n  swap2\n  swap1\n  pop\n  jump\t// out\n    /* \"#utility.yul\":333:513   */\ntag_24:\n    /* \"#utility.yul\":381:458   */\n  0x4e487b7100000000000000000000000000000000000000000000000000000000\n    /* \"#utility.yul\":378:379   */\n  0x00\n    /* \"#utility.yul\":371:459   */\n  mstore\n    /* \"#utility.yul\":478:482   */\n  0x22\n    /* \"#utility.yul\":475:476   */\n  0x04\n    /* \"#utility.yul\":468:483   */\n  mstore\n    /* \"#utility.yul\":502:506   */\n  0x24\n    /* \"#utility.yul\":499:500   */\n  0x00\n    /* \"#utility.yul\":492:507   */\n  revert\n    /* \"contracts/BS_ERC721.sol\":63:1949  contract BlueSurgeNFT{\r... */\ntag_7:\n  dataSize(sub_0)\n  dup1\n  dataOffset(sub_0)\n  0x00\n  codecopy\n  0x00\n  return\nstop\n\nsub_0: assembly {\n        /* \"contracts/BS_ERC721.sol\":63:1949  contract BlueSurgeNFT{\r... */\n      mstore(0x40, 0x80)\n      callvalue\n      dup1\n      iszero\n      tag_1\n      jumpi\n      0x00\n      dup1\n      revert\n    tag_1:\n      pop\n      jumpi(tag_2, lt(calldatasize, 0x04))\n      shr(0xe0, calldataload(0x00))\n      dup1\n      0x06fdde03\n      eq\n      tag_3\n      jumpi\n      dup1\n      0x40c10f19\n      eq\n      tag_4\n      jumpi\n      dup1\n      0x6352211e\n      eq\n      tag_5\n      jumpi\n      dup1\n      0x70a08231\n      eq\n      tag_6\n      jumpi\n      dup1\n      0x95d89b41\n      eq\n      tag_7\n      jumpi\n    tag_2:\n      0x00\n      dup1\n      revert\n        /* \"contracts/BS_ERC721.sol\":113:131  string public name */\n    tag_3:\n      tag_8\n      tag_9\n      jump\t// in\n    tag_8:\n      mload(0x40)\n      tag_10\n      swap2\n      swap1\n      tag_11\n      jump\t// in\n    tag_10:\n      mload(0x40)\n      dup1\n      swap2\n      sub\n      swap1\n      return\n        /* \"contracts/BS_ERC721.sol\":365:452  function mint(address _to, uint256 _tokenId) external {\r... */\n    tag_4:\n      tag_12\n      0x04\n      dup1\n      calldatasize\n      sub\n      dup2\n      add\n      swap1\n      tag_13\n      swap2\n      swap1\n      tag_14\n      jump\t// in\n    tag_13:\n      tag_15\n      jump\t// in\n    tag_12:\n      stop\n        /* \"contracts/BS_ERC721.sol\":568:798  function ownerOf(uint256 tokenId) public view virtual returns (address) {\r... */\n    tag_5:\n      tag_16\n      0x04\n      dup1\n      calldatasize\n      sub\n      dup2\n      add\n      swap1\n      tag_17\n      swap2\n      swap1\n      tag_18\n      jump\t// in\n    tag_17:\n      tag_19\n      jump\t// in\n    tag_16:\n      mload(0x40)\n      tag_20\n      swap2\n      swap1\n      tag_21\n      jump\t// in\n    tag_20:\n      mload(0x40)\n      dup1\n      swap2\n      sub\n      swap1\n      return\n        /* \"contracts/BS_ERC721.sol\":806:1005  function balanceOf(address owner) public view virtual returns (uint256) {\r... */\n    tag_6:\n      tag_22\n      0x04\n      dup1\n      calldatasize\n      sub\n      dup2\n      add\n      swap1\n      tag_23\n      swap2\n      swap1\n      tag_24\n      jump\t// in\n    tag_23:\n      tag_25\n      jump\t// in\n    tag_22:\n      mload(0x40)\n      tag_26\n      swap2\n      swap1\n      tag_27\n      jump\t// in\n    tag_26:\n      mload(0x40)\n      dup1\n      swap2\n      sub\n      swap1\n      return\n        /* \"contracts/BS_ERC721.sol\":138:158  string public symbol */\n    tag_7:\n      tag_28\n      tag_29\n      jump\t// in\n    tag_28:\n      mload(0x40)\n      tag_30\n      swap2\n      swap1\n      tag_11\n      jump\t// in\n    tag_30:\n      mload(0x40)\n      dup1\n      swap2\n      sub\n      swap1\n      return\n        /* \"contracts/BS_ERC721.sol\":113:131  string public name */\n    tag_9:\n      0x00\n      dup1\n      sload\n      tag_31\n      swap1\n      tag_32\n      jump\t// in\n    tag_31:\n      dup1\n      0x1f\n      add\n      0x20\n      dup1\n      swap2\n      div\n      mul\n      0x20\n      add\n      mload(0x40)\n      swap1\n      dup2\n      add\n      0x40\n      mstore\n      dup1\n      swap3\n      swap2\n      swap1\n      dup2\n      dup2\n      mstore\n      0x20\n      add\n      dup3\n      dup1\n      sload\n      tag_33\n      swap1\n      tag_32\n      jump\t// in\n    tag_33:\n      dup1\n      iszero\n      tag_34\n      jumpi\n      dup1\n      0x1f\n      lt\n      tag_35\n      jumpi\n      0x0100\n      dup1\n      dup4\n      sload\n      div\n      mul\n      dup4\n      mstore\n      swap2\n      0x20\n      add\n      swap2\n      jump(tag_34)\n    tag_35:\n      dup3\n      add\n      swap2\n      swap1\n      0x00\n      mstore\n      keccak256(0x00, 0x20)\n      swap1\n    tag_36:\n      dup2\n      sload\n      dup2\n      mstore\n      swap1\n      0x01\n      add\n      swap1\n      0x20\n      add\n      dup1\n      dup4\n      gt\n      tag_36\n      jumpi\n      dup3\n      swap1\n      sub\n      0x1f\n      and\n      dup3\n      add\n      swap2\n    tag_34:\n      pop\n      pop\n      pop\n      pop\n      pop\n      dup2\n      jump\t// out\n        /* \"contracts/BS_ERC721.sol\":365:452  function mint(address _to, uint256 _tokenId) external {\r... */\n    tag_15:\n        /* \"contracts/BS_ERC721.sol\":426:446  _mint(_to, _tokenId) */\n      tag_38\n        /* \"contracts/BS_ERC721.sol\":432:435  _to */\n      dup3\n        /* \"contracts/BS_ERC721.sol\":437:445  _tokenId */\n      dup3\n        /* \"contracts/BS_ERC721.sol\":426:431  _mint */\n      tag_39\n        /* \"contracts/BS_ERC721.sol\":426:446  _mint(_to, _tokenId) */\n      jump\t// in\n    tag_38:\n        /* \"contracts/BS_ERC721.sol\":365:452  function mint(address _to, uint256 _tokenId) external {\r... */\n      pop\n      pop\n      jump\t// out\n        /* \"contracts/BS_ERC721.sol\":568:798  function ownerOf(uint256 tokenId) public view virtual returns (address) {\r... */\n    tag_19:\n        /* \"contracts/BS_ERC721.sol\":631:638  address */\n      0x00\n        /* \"contracts/BS_ERC721.sol\":651:664  address owner */\n      dup1\n        /* \"contracts/BS_ERC721.sol\":667:674  _owners */\n      0x02\n        /* \"contracts/BS_ERC721.sol\":667:683  _owners[tokenId] */\n      0x00\n        /* \"contracts/BS_ERC721.sol\":675:682  tokenId */\n      dup5\n        /* \"contracts/BS_ERC721.sol\":667:683  _owners[tokenId] */\n      dup2\n      mstore\n      0x20\n      add\n      swap1\n      dup2\n      mstore\n      0x20\n      add\n      0x00\n      keccak256\n      0x00\n      swap1\n      sload\n      swap1\n      0x0100\n      exp\n      swap1\n      div\n      0xffffffffffffffffffffffffffffffffffffffff\n      and\n        /* \"contracts/BS_ERC721.sol\":651:683  address owner = _owners[tokenId] */\n      swap1\n      pop\n        /* \"contracts/BS_ERC721.sol\":719:720  0 */\n      0x00\n        /* \"contracts/BS_ERC721.sol\":702:721  owner != address(0) */\n      0xffffffffffffffffffffffffffffffffffffffff\n      and\n        /* \"contracts/BS_ERC721.sol\":702:707  owner */\n      dup2\n        /* \"contracts/BS_ERC721.sol\":702:721  owner != address(0) */\n      0xffffffffffffffffffffffffffffffffffffffff\n      and\n      eq\n      iszero\n        /* \"contracts/BS_ERC721.sol\":694:767  require(owner != address(0), \"ERC721: owner query for nonexistent token\") */\n      tag_41\n      jumpi\n      mload(0x40)\n      0x08c379a000000000000000000000000000000000000000000000000000000000\n      dup2\n      mstore\n      0x04\n      add\n      tag_42\n      swap1\n      tag_43\n      jump\t// in\n    tag_42:\n      mload(0x40)\n      dup1\n      swap2\n      sub\n      swap1\n      revert\n    tag_41:\n        /* \"contracts/BS_ERC721.sol\":785:790  owner */\n      dup1\n        /* \"contracts/BS_ERC721.sol\":778:790  return owner */\n      swap2\n      pop\n      pop\n        /* \"contracts/BS_ERC721.sol\":568:798  function ownerOf(uint256 tokenId) public view virtual returns (address) {\r... */\n      swap2\n      swap1\n      pop\n      jump\t// out\n        /* \"contracts/BS_ERC721.sol\":806:1005  function balanceOf(address owner) public view virtual returns (uint256) {\r... */\n    tag_25:\n        /* \"contracts/BS_ERC721.sol\":869:876  uint256 */\n      0x00\n        /* \"contracts/BS_ERC721.sol\":914:915  0 */\n      dup1\n        /* \"contracts/BS_ERC721.sol\":897:916  owner != address(0) */\n      0xffffffffffffffffffffffffffffffffffffffff\n      and\n        /* \"contracts/BS_ERC721.sol\":897:902  owner */\n      dup3\n        /* \"contracts/BS_ERC721.sol\":897:916  owner != address(0) */\n      0xffffffffffffffffffffffffffffffffffffffff\n      and\n      eq\n      iszero\n        /* \"contracts/BS_ERC721.sol\":889:963  require(owner != address(0), \"ERC721: balance query for the zero address\") */\n      tag_45\n      jumpi\n      mload(0x40)\n      0x08c379a000000000000000000000000000000000000000000000000000000000\n      dup2\n      mstore\n      0x04\n      add\n      tag_46\n      swap1\n      tag_47\n      jump\t// in\n    tag_46:\n      mload(0x40)\n      dup1\n      swap2\n      sub\n      swap1\n      revert\n    tag_45:\n        /* \"contracts/BS_ERC721.sol\":981:990  _balances */\n      0x03\n        /* \"contracts/BS_ERC721.sol\":981:997  _balances[owner] */\n      0x00\n        /* \"contracts/BS_ERC721.sol\":991:996  owner */\n      dup4\n        /* \"contracts/BS_ERC721.sol\":981:997  _balances[owner] */\n      0xffffffffffffffffffffffffffffffffffffffff\n      and\n      0xffffffffffffffffffffffffffffffffffffffff\n      and\n      dup2\n      mstore\n      0x20\n      add\n      swap1\n      dup2\n      mstore\n      0x20\n      add\n      0x00\n      keccak256\n      sload\n        /* \"contracts/BS_ERC721.sol\":974:997  return _balances[owner] */\n      swap1\n      pop\n        /* \"contracts/BS_ERC721.sol\":806:1005  function balanceOf(address owner) public view virtual returns (uint256) {\r... */\n      swap2\n      swap1\n      pop\n      jump\t// out\n        /* \"contracts/BS_ERC721.sol\":138:158  string public symbol */\n    tag_29:\n      0x01\n      dup1\n      sload\n      tag_48\n      swap1\n      tag_32\n      jump\t// in\n    tag_48:\n      dup1\n      0x1f\n      add\n      0x20\n      dup1\n      swap2\n      div\n      mul\n      0x20\n      add\n      mload(0x40)\n      swap1\n      dup2\n      add\n      0x40\n      mstore\n      dup1\n      swap3\n      swap2\n      swap1\n      dup2\n      dup2\n      mstore\n      0x20\n      add\n      dup3\n      dup1\n      sload\n      tag_49\n      swap1\n      tag_32\n      jump\t// in\n    tag_49:\n      dup1\n      iszero\n      tag_50\n      jumpi\n      dup1\n      0x1f\n      lt\n      tag_51\n      jumpi\n      0x0100\n      dup1\n      dup4\n      sload\n      div\n      mul\n      dup4\n      mstore\n      swap2\n      0x20\n      add\n      swap2\n      jump(tag_50)\n    tag_51:\n      dup3\n      add\n      swap2\n      swap1\n      0x00\n      mstore\n      keccak256(0x00, 0x20)\n      swap1\n    tag_52:\n      dup2\n      sload\n      dup2\n      mstore\n      swap1\n      0x01\n      add\n      swap1\n      0x20\n      add\n      dup1\n      dup4\n      gt\n      tag_52\n      jumpi\n      dup3\n      swap1\n      sub\n      0x1f\n      and\n      dup3\n      add\n      swap2\n    tag_50:\n      pop\n      pop\n      pop\n      pop\n      pop\n      dup2\n      jump\t// out\n        /* \"contracts/BS_ERC721.sol\":1238:1677  function _mint(address to, uint256 tokenId) internal virtual {\r... */\n    tag_39:\n        /* \"contracts/BS_ERC721.sol\":1332:1333  0 */\n      0x00\n        /* \"contracts/BS_ERC721.sol\":1318:1334  to != address(0) */\n      0xffffffffffffffffffffffffffffffffffffffff\n      and\n        /* \"contracts/BS_ERC721.sol\":1318:1320  to */\n      dup3\n        /* \"contracts/BS_ERC721.sol\":1318:1334  to != address(0) */\n      0xffffffffffffffffffffffffffffffffffffffff\n      and\n      eq\n      iszero\n        /* \"contracts/BS_ERC721.sol\":1310:1371  require(to != address(0), \"ERC721: mint to the zero address\") */\n      tag_54\n      jumpi\n      mload(0x40)\n      0x08c379a000000000000000000000000000000000000000000000000000000000\n      dup2\n      mstore\n      0x04\n      add\n      tag_55\n      swap1\n      tag_56\n      jump\t// in\n    tag_55:\n      mload(0x40)\n      dup1\n      swap2\n      sub\n      swap1\n      revert\n    tag_54:\n        /* \"contracts/BS_ERC721.sol\":1391:1407  _exists(tokenId) */\n      tag_57\n        /* \"contracts/BS_ERC721.sol\":1399:1406  tokenId */\n      dup2\n        /* \"contracts/BS_ERC721.sol\":1391:1398  _exists */\n      tag_58\n        /* \"contracts/BS_ERC721.sol\":1391:1407  _exists(tokenId) */\n      jump\t// in\n    tag_57:\n        /* \"contracts/BS_ERC721.sol\":1390:1407  !_exists(tokenId) */\n      iszero\n        /* \"contracts/BS_ERC721.sol\":1382:1440  require(!_exists(tokenId), \"ERC721: token already minted\") */\n      tag_59\n      jumpi\n      mload(0x40)\n      0x08c379a000000000000000000000000000000000000000000000000000000000\n      dup2\n      mstore\n      0x04\n      add\n      tag_60\n      swap1\n      tag_61\n      jump\t// in\n    tag_60:\n      mload(0x40)\n      dup1\n      swap2\n      sub\n      swap1\n      revert\n    tag_59:\n        /* \"contracts/BS_ERC721.sol\":1453:1498  _beforeTokenTransfer(address(0), to, tokenId) */\n      tag_62\n        /* \"contracts/BS_ERC721.sol\":1482:1483  0 */\n      0x00\n        /* \"contracts/BS_ERC721.sol\":1486:1488  to */\n      dup4\n        /* \"contracts/BS_ERC721.sol\":1490:1497  tokenId */\n      dup4\n        /* \"contracts/BS_ERC721.sol\":1453:1473  _beforeTokenTransfer */\n      tag_63\n        /* \"contracts/BS_ERC721.sol\":1453:1498  _beforeTokenTransfer(address(0), to, tokenId) */\n      jump\t// in\n    tag_62:\n        /* \"contracts/BS_ERC721.sol\":1528:1529  2 */\n      0x02\n        /* \"contracts/BS_ERC721.sol\":1511:1520  _balances */\n      0x03\n        /* \"contracts/BS_ERC721.sol\":1511:1524  _balances[to] */\n      0x00\n        /* \"contracts/BS_ERC721.sol\":1521:1523  to */\n      dup5\n        /* \"contracts/BS_ERC721.sol\":1511:1524  _balances[to] */\n      0xffffffffffffffffffffffffffffffffffffffff\n      and\n      0xffffffffffffffffffffffffffffffffffffffff\n      and\n      dup2\n      mstore\n      0x20\n      add\n      swap1\n      dup2\n      mstore\n      0x20\n      add\n      0x00\n      keccak256\n      0x00\n        /* \"contracts/BS_ERC721.sol\":1511:1529  _balances[to] += 2 */\n      dup3\n      dup3\n      sload\n      tag_64\n      swap2\n      swap1\n      tag_65\n      jump\t// in\n    tag_64:\n      swap3\n      pop\n      pop\n      dup2\n      swap1\n      sstore\n      pop\n        /* \"contracts/BS_ERC721.sol\":1559:1561  to */\n      dup2\n        /* \"contracts/BS_ERC721.sol\":1540:1547  _owners */\n      0x02\n        /* \"contracts/BS_ERC721.sol\":1540:1556  _owners[tokenId] */\n      0x00\n        /* \"contracts/BS_ERC721.sol\":1548:1555  tokenId */\n      dup4\n        /* \"contracts/BS_ERC721.sol\":1540:1556  _owners[tokenId] */\n      dup2\n      mstore\n      0x20\n      add\n      swap1\n      dup2\n      mstore\n      0x20\n      add\n      0x00\n      keccak256\n      0x00\n        /* \"contracts/BS_ERC721.sol\":1540:1561  _owners[tokenId] = to */\n      0x0100\n      exp\n      dup2\n      sload\n      dup2\n      0xffffffffffffffffffffffffffffffffffffffff\n      mul\n      not\n      and\n      swap1\n      dup4\n      0xffffffffffffffffffffffffffffffffffffffff\n      and\n      mul\n      or\n      swap1\n      sstore\n      pop\n        /* \"contracts/BS_ERC721.sol\":1604:1611  tokenId */\n      dup1\n        /* \"contracts/BS_ERC721.sol\":1600:1602  to */\n      dup3\n        /* \"contracts/BS_ERC721.sol\":1579:1612  Transfer(address(0), to, tokenId) */\n      0xffffffffffffffffffffffffffffffffffffffff\n      and\n        /* \"contracts/BS_ERC721.sol\":1596:1597  0 */\n      0x00\n        /* \"contracts/BS_ERC721.sol\":1579:1612  Transfer(address(0), to, tokenId) */\n      0xffffffffffffffffffffffffffffffffffffffff\n      and\n      0xddf252ad1be2c89b69c2b068fc378daa952ba7f163c4a11628f55a4df523b3ef\n      mload(0x40)\n      mload(0x40)\n      dup1\n      swap2\n      sub\n      swap1\n      log4\n        /* \"contracts/BS_ERC721.sol\":1625:1669  _afterTokenTransfer(address(0), to, tokenId) */\n      tag_66\n        /* \"contracts/BS_ERC721.sol\":1653:1654  0 */\n      0x00\n        /* \"contracts/BS_ERC721.sol\":1657:1659  to */\n      dup4\n        /* \"contracts/BS_ERC721.sol\":1661:1668  tokenId */\n      dup4\n        /* \"contracts/BS_ERC721.sol\":1625:1644  _afterTokenTransfer */\n      tag_67\n        /* \"contracts/BS_ERC721.sol\":1625:1669  _afterTokenTransfer(address(0), to, tokenId) */\n      jump\t// in\n    tag_66:\n        /* \"contracts/BS_ERC721.sol\":1238:1677  function _mint(address to, uint256 tokenId) internal virtual {\r... */\n      pop\n      pop\n      jump\t// out\n        /* \"contracts/BS_ERC721.sol\":1013:1140  function _exists(uint256 tokenId) internal view virtual returns (bool) {\r... */\n    tag_58:\n        /* \"contracts/BS_ERC721.sol\":1078:1082  bool */\n      0x00\n        /* \"contracts/BS_ERC721.sol\":1130:1131  0 */\n      dup1\n        /* \"contracts/BS_ERC721.sol\":1102:1132  _owners[tokenId] != address(0) */\n      0xffffffffffffffffffffffffffffffffffffffff\n      and\n        /* \"contracts/BS_ERC721.sol\":1102:1109  _owners */\n      0x02\n        /* \"contracts/BS_ERC721.sol\":1102:1118  _owners[tokenId] */\n      0x00\n        /* \"contracts/BS_ERC721.sol\":1110:1117  tokenId */\n      dup5\n        /* \"contracts/BS_ERC721.sol\":1102:1118  _owners[tokenId] */\n      dup2\n      mstore\n      0x20\n      add\n      swap1\n      dup2\n      mstore\n      0x20\n      add\n      0x00\n      keccak256\n      0x00\n      swap1\n      sload\n      swap1\n      0x0100\n      exp\n      swap1\n      div\n      0xffffffffffffffffffffffffffffffffffffffff\n      and\n        /* \"contracts/BS_ERC721.sol\":1102:1132  _owners[tokenId] != address(0) */\n      0xffffffffffffffffffffffffffffffffffffffff\n      and\n      eq\n      iszero\n        /* \"contracts/BS_ERC721.sol\":1095:1132  return _owners[tokenId] != address(0) */\n      swap1\n      pop\n        /* \"contracts/BS_ERC721.sol\":1013:1140  function _exists(uint256 tokenId) internal view virtual returns (bool) {\r... */\n      swap2\n      swap1\n      pop\n      jump\t// out\n        /* \"contracts/BS_ERC721.sol\":1685:1811  function _beforeTokenTransfer(\r... */\n    tag_63:\n      pop\n      pop\n      pop\n      jump\t// out\n        /* \"contracts/BS_ERC721.sol\":1819:1944  function _afterTokenTransfer(\r... */\n    tag_67:\n      pop\n      pop\n      pop\n      jump\t// out\n        /* \"#utility.yul\":7:146   */\n    tag_72:\n        /* \"#utility.yul\":53:58   */\n      0x00\n        /* \"#utility.yul\":91:97   */\n      dup2\n        /* \"#utility.yul\":78:98   */\n      calldataload\n        /* \"#utility.yul\":69:98   */\n      swap1\n      pop\n        /* \"#utility.yul\":107:140   */\n      tag_74\n        /* \"#utility.yul\":134:139   */\n      dup2\n        /* \"#utility.yul\":107:140   */\n      tag_75\n      jump\t// in\n    tag_74:\n        /* \"#utility.yul\":7:146   */\n      swap3\n      swap2\n      pop\n      pop\n      jump\t// out\n        /* \"#utility.yul\":152:291   */\n    tag_76:\n        /* \"#utility.yul\":198:203   */\n      0x00\n        /* \"#utility.yul\":236:242   */\n      dup2\n        /* \"#utility.yul\":223:243   */\n      calldataload\n        /* \"#utility.yul\":214:243   */\n      swap1\n      pop\n        /* \"#utility.yul\":252:285   */\n      tag_78\n        /* \"#utility.yul\":279:284   */\n      dup2\n        /* \"#utility.yul\":252:285   */\n      tag_79\n      jump\t// in\n    tag_78:\n        /* \"#utility.yul\":152:291   */\n      swap3\n      swap2\n      pop\n      pop\n      jump\t// out\n        /* \"#utility.yul\":297:626   */\n    tag_24:\n        /* \"#utility.yul\":356:362   */\n      0x00\n        /* \"#utility.yul\":405:407   */\n      0x20\n        /* \"#utility.yul\":393:402   */\n      dup3\n        /* \"#utility.yul\":384:391   */\n      dup5\n        /* \"#utility.yul\":380:403   */\n      sub\n        /* \"#utility.yul\":376:408   */\n      slt\n        /* \"#utility.yul\":373:492   */\n      iszero\n      tag_81\n      jumpi\n        /* \"#utility.yul\":411:490   */\n      tag_82\n      tag_83\n      jump\t// in\n    tag_82:\n        /* \"#utility.yul\":373:492   */\n    tag_81:\n        /* \"#utility.yul\":531:532   */\n      0x00\n        /* \"#utility.yul\":556:609   */\n      tag_84\n        /* \"#utility.yul\":601:608   */\n      dup5\n        /* \"#utility.yul\":592:598   */\n      dup3\n        /* \"#utility.yul\":581:590   */\n      dup6\n        /* \"#utility.yul\":577:599   */\n      add\n        /* \"#utility.yul\":556:609   */\n      tag_72\n      jump\t// in\n    tag_84:\n        /* \"#utility.yul\":546:609   */\n      swap2\n      pop\n        /* \"#utility.yul\":502:619   */\n      pop\n        /* \"#utility.yul\":297:626   */\n      swap3\n      swap2\n      pop\n      pop\n      jump\t// out\n        /* \"#utility.yul\":632:1106   */\n    tag_14:\n        /* \"#utility.yul\":700:706   */\n      0x00\n        /* \"#utility.yul\":708:714   */\n      dup1\n        /* \"#utility.yul\":757:759   */\n      0x40\n        /* \"#utility.yul\":745:754   */\n      dup4\n        /* \"#utility.yul\":736:743   */\n      dup6\n        /* \"#utility.yul\":732:755   */\n      sub\n        /* \"#utility.yul\":728:760   */\n      slt\n        /* \"#utility.yul\":725:844   */\n      iszero\n      tag_86\n      jumpi\n        /* \"#utility.yul\":763:842   */\n      tag_87\n      tag_83\n      jump\t// in\n    tag_87:\n        /* \"#utility.yul\":725:844   */\n    tag_86:\n        /* \"#utility.yul\":883:884   */\n      0x00\n        /* \"#utility.yul\":908:961   */\n      tag_88\n        /* \"#utility.yul\":953:960   */\n      dup6\n        /* \"#utility.yul\":944:950   */\n      dup3\n        /* \"#utility.yul\":933:942   */\n      dup7\n        /* \"#utility.yul\":929:951   */\n      add\n        /* \"#utility.yul\":908:961   */\n      tag_72\n      jump\t// in\n    tag_88:\n        /* \"#utility.yul\":898:961   */\n      swap3\n      pop\n        /* \"#utility.yul\":854:971   */\n      pop\n        /* \"#utility.yul\":1010:1012   */\n      0x20\n        /* \"#utility.yul\":1036:1089   */\n      tag_89\n        /* \"#utility.yul\":1081:1088   */\n      dup6\n        /* \"#utility.yul\":1072:1078   */\n      dup3\n        /* \"#utility.yul\":1061:1070   */\n      dup7\n        /* \"#utility.yul\":1057:1079   */\n      add\n        /* \"#utility.yul\":1036:1089   */\n      tag_76\n      jump\t// in\n    tag_89:\n        /* \"#utility.yul\":1026:1089   */\n      swap2\n      pop\n        /* \"#utility.yul\":981:1099   */\n      pop\n        /* \"#utility.yul\":632:1106   */\n      swap3\n      pop\n      swap3\n      swap1\n      pop\n      jump\t// out\n        /* \"#utility.yul\":1112:1441   */\n    tag_18:\n        /* \"#utility.yul\":1171:1177   */\n      0x00\n        /* \"#utility.yul\":1220:1222   */\n      0x20\n        /* \"#utility.yul\":1208:1217   */\n      dup3\n        /* \"#utility.yul\":1199:1206   */\n      dup5\n        /* \"#utility.yul\":1195:1218   */\n      sub\n        /* \"#utility.yul\":1191:1223   */\n      slt\n        /* \"#utility.yul\":1188:1307   */\n      iszero\n      tag_91\n      jumpi\n        /* \"#utility.yul\":1226:1305   */\n      tag_92\n      tag_83\n      jump\t// in\n    tag_92:\n        /* \"#utility.yul\":1188:1307   */\n    tag_91:\n        /* \"#utility.yul\":1346:1347   */\n      0x00\n        /* \"#utility.yul\":1371:1424   */\n      tag_93\n        /* \"#utility.yul\":1416:1423   */\n      dup5\n        /* \"#utility.yul\":1407:1413   */\n      dup3\n        /* \"#utility.yul\":1396:1405   */\n      dup6\n        /* \"#utility.yul\":1392:1414   */\n      add\n        /* \"#utility.yul\":1371:1424   */\n      tag_76\n      jump\t// in\n    tag_93:\n        /* \"#utility.yul\":1361:1424   */\n      swap2\n      pop\n        /* \"#utility.yul\":1317:1434   */\n      pop\n        /* \"#utility.yul\":1112:1441   */\n      swap3\n      swap2\n      pop\n      pop\n      jump\t// out\n        /* \"#utility.yul\":1447:1565   */\n    tag_94:\n        /* \"#utility.yul\":1534:1558   */\n      tag_96\n        /* \"#utility.yul\":1552:1557   */\n      dup2\n        /* \"#utility.yul\":1534:1558   */\n      tag_97\n      jump\t// in\n    tag_96:\n        /* \"#utility.yul\":1529:1532   */\n      dup3\n        /* \"#utility.yul\":1522:1559   */\n      mstore\n        /* \"#utility.yul\":1447:1565   */\n      pop\n      pop\n      jump\t// out\n        /* \"#utility.yul\":1571:1935   */\n    tag_98:\n        /* \"#utility.yul\":1659:1662   */\n      0x00\n        /* \"#utility.yul\":1687:1726   */\n      tag_100\n        /* \"#utility.yul\":1720:1725   */\n      dup3\n        /* \"#utility.yul\":1687:1726   */\n      tag_101\n      jump\t// in\n    tag_100:\n        /* \"#utility.yul\":1742:1813   */\n      tag_102\n        /* \"#utility.yul\":1806:1812   */\n      dup2\n        /* \"#utility.yul\":1801:1804   */\n      dup6\n        /* \"#utility.yul\":1742:1813   */\n      tag_103\n      jump\t// in\n    tag_102:\n        /* \"#utility.yul\":1735:1813   */\n      swap4\n      pop\n        /* \"#utility.yul\":1822:1874   */\n      tag_104\n        /* \"#utility.yul\":1867:1873   */\n      dup2\n        /* \"#utility.yul\":1862:1865   */\n      dup6\n        /* \"#utility.yul\":1855:1859   */\n      0x20\n        /* \"#utility.yul\":1848:1853   */\n      dup7\n        /* \"#utility.yul\":1844:1860   */\n      add\n        /* \"#utility.yul\":1822:1874   */\n      tag_105\n      jump\t// in\n    tag_104:\n        /* \"#utility.yul\":1899:1928   */\n      tag_106\n        /* \"#utility.yul\":1921:1927   */\n      dup2\n        /* \"#utility.yul\":1899:1928   */\n      tag_107\n      jump\t// in\n    tag_106:\n        /* \"#utility.yul\":1894:1897   */\n      dup5\n        /* \"#utility.yul\":1890:1929   */\n      add\n        /* \"#utility.yul\":1883:1929   */\n      swap2\n      pop\n        /* \"#utility.yul\":1663:1935   */\n      pop\n        /* \"#utility.yul\":1571:1935   */\n      swap3\n      swap2\n      pop\n      pop\n      jump\t// out\n        /* \"#utility.yul\":1941:2307   */\n    tag_108:\n        /* \"#utility.yul\":2083:2086   */\n      0x00\n        /* \"#utility.yul\":2104:2171   */\n      tag_110\n        /* \"#utility.yul\":2168:2170   */\n      0x1c\n        /* \"#utility.yul\":2163:2166   */\n      dup4\n        /* \"#utility.yul\":2104:2171   */\n      tag_103\n      jump\t// in\n    tag_110:\n        /* \"#utility.yul\":2097:2171   */\n      swap2\n      pop\n        /* \"#utility.yul\":2180:2273   */\n      tag_111\n        /* \"#utility.yul\":2269:2272   */\n      dup3\n        /* \"#utility.yul\":2180:2273   */\n      tag_112\n      jump\t// in\n    tag_111:\n        /* \"#utility.yul\":2298:2300   */\n      0x20\n        /* \"#utility.yul\":2293:2296   */\n      dup3\n        /* \"#utility.yul\":2289:2301   */\n      add\n        /* \"#utility.yul\":2282:2301   */\n      swap1\n      pop\n        /* \"#utility.yul\":1941:2307   */\n      swap2\n      swap1\n      pop\n      jump\t// out\n        /* \"#utility.yul\":2313:2679   */\n    tag_113:\n        /* \"#utility.yul\":2455:2458   */\n      0x00\n        /* \"#utility.yul\":2476:2543   */\n      tag_115\n        /* \"#utility.yul\":2540:2542   */\n      0x2a\n        /* \"#utility.yul\":2535:2538   */\n      dup4\n        /* \"#utility.yul\":2476:2543   */\n      tag_103\n      jump\t// in\n    tag_115:\n        /* \"#utility.yul\":2469:2543   */\n      swap2\n      pop\n        /* \"#utility.yul\":2552:2645   */\n      tag_116\n        /* \"#utility.yul\":2641:2644   */\n      dup3\n        /* \"#utility.yul\":2552:2645   */\n      tag_117\n      jump\t// in\n    tag_116:\n        /* \"#utility.yul\":2670:2672   */\n      0x40\n        /* \"#utility.yul\":2665:2668   */\n      dup3\n        /* \"#utility.yul\":2661:2673   */\n      add\n        /* \"#utility.yul\":2654:2673   */\n      swap1\n      pop\n        /* \"#utility.yul\":2313:2679   */\n      swap2\n      swap1\n      pop\n      jump\t// out\n        /* \"#utility.yul\":2685:3051   */\n    tag_118:\n        /* \"#utility.yul\":2827:2830   */\n      0x00\n        /* \"#utility.yul\":2848:2915   */\n      tag_120\n        /* \"#utility.yul\":2912:2914   */\n      0x29\n        /* \"#utility.yul\":2907:2910   */\n      dup4\n        /* \"#utility.yul\":2848:2915   */\n      tag_103\n      jump\t// in\n    tag_120:\n        /* \"#utility.yul\":2841:2915   */\n      swap2\n      pop\n        /* \"#utility.yul\":2924:3017   */\n      tag_121\n        /* \"#utility.yul\":3013:3016   */\n      dup3\n        /* \"#utility.yul\":2924:3017   */\n      tag_122\n      jump\t// in\n    tag_121:\n        /* \"#utility.yul\":3042:3044   */\n      0x40\n        /* \"#utility.yul\":3037:3040   */\n      dup3\n        /* \"#utility.yul\":3033:3045   */\n      add\n        /* \"#utility.yul\":3026:3045   */\n      swap1\n      pop\n        /* \"#utility.yul\":2685:3051   */\n      swap2\n      swap1\n      pop\n      jump\t// out\n        /* \"#utility.yul\":3057:3423   */\n    tag_123:\n        /* \"#utility.yul\":3199:3202   */\n      0x00\n        /* \"#utility.yul\":3220:3287   */\n      tag_125\n        /* \"#utility.yul\":3284:3286   */\n      0x20\n        /* \"#utility.yul\":3279:3282   */\n      dup4\n        /* \"#utility.yul\":3220:3287   */\n      tag_103\n      jump\t// in\n    tag_125:\n        /* \"#utility.yul\":3213:3287   */\n      swap2\n      pop\n        /* \"#utility.yul\":3296:3389   */\n      tag_126\n        /* \"#utility.yul\":3385:3388   */\n      dup3\n        /* \"#utility.yul\":3296:3389   */\n      tag_127\n      jump\t// in\n    tag_126:\n        /* \"#utility.yul\":3414:3416   */\n      0x20\n        /* \"#utility.yul\":3409:3412   */\n      dup3\n        /* \"#utility.yul\":3405:3417   */\n      add\n        /* \"#utility.yul\":3398:3417   */\n      swap1\n      pop\n        /* \"#utility.yul\":3057:3423   */\n      swap2\n      swap1\n      pop\n      jump\t// out\n        /* \"#utility.yul\":3429:3547   */\n    tag_128:\n        /* \"#utility.yul\":3516:3540   */\n      tag_130\n        /* \"#utility.yul\":3534:3539   */\n      dup2\n        /* \"#utility.yul\":3516:3540   */\n      tag_131\n      jump\t// in\n    tag_130:\n        /* \"#utility.yul\":3511:3514   */\n      dup3\n        /* \"#utility.yul\":3504:3541   */\n      mstore\n        /* \"#utility.yul\":3429:3547   */\n      pop\n      pop\n      jump\t// out\n        /* \"#utility.yul\":3553:3775   */\n    tag_21:\n        /* \"#utility.yul\":3646:3650   */\n      0x00\n        /* \"#utility.yul\":3684:3686   */\n      0x20\n        /* \"#utility.yul\":3673:3682   */\n      dup3\n        /* \"#utility.yul\":3669:3687   */\n      add\n        /* \"#utility.yul\":3661:3687   */\n      swap1\n      pop\n        /* \"#utility.yul\":3697:3768   */\n      tag_133\n        /* \"#utility.yul\":3765:3766   */\n      0x00\n        /* \"#utility.yul\":3754:3763   */\n      dup4\n        /* \"#utility.yul\":3750:3767   */\n      add\n        /* \"#utility.yul\":3741:3747   */\n      dup5\n        /* \"#utility.yul\":3697:3768   */\n      tag_94\n      jump\t// in\n    tag_133:\n        /* \"#utility.yul\":3553:3775   */\n      swap3\n      swap2\n      pop\n      pop\n      jump\t// out\n        /* \"#utility.yul\":3781:4094   */\n    tag_11:\n        /* \"#utility.yul\":3894:3898   */\n      0x00\n        /* \"#utility.yul\":3932:3934   */\n      0x20\n        /* \"#utility.yul\":3921:3930   */\n      dup3\n        /* \"#utility.yul\":3917:3935   */\n      add\n        /* \"#utility.yul\":3909:3935   */\n      swap1\n      pop\n        /* \"#utility.yul\":3981:3990   */\n      dup2\n        /* \"#utility.yul\":3975:3979   */\n      dup2\n        /* \"#utility.yul\":3971:3991   */\n      sub\n        /* \"#utility.yul\":3967:3968   */\n      0x00\n        /* \"#utility.yul\":3956:3965   */\n      dup4\n        /* \"#utility.yul\":3952:3969   */\n      add\n        /* \"#utility.yul\":3945:3992   */\n      mstore\n        /* \"#utility.yul\":4009:4087   */\n      tag_135\n        /* \"#utility.yul\":4082:4086   */\n      dup2\n        /* \"#utility.yul\":4073:4079   */\n      dup5\n        /* \"#utility.yul\":4009:4087   */\n      tag_98\n      jump\t// in\n    tag_135:\n        /* \"#utility.yul\":4001:4087   */\n      swap1\n      pop\n        /* \"#utility.yul\":3781:4094   */\n      swap3\n      swap2\n      pop\n      pop\n      jump\t// out\n        /* \"#utility.yul\":4100:4519   */\n    tag_61:\n        /* \"#utility.yul\":4266:4270   */\n      0x00\n        /* \"#utility.yul\":4304:4306   */\n      0x20\n        /* \"#utility.yul\":4293:4302   */\n      dup3\n        /* \"#utility.yul\":4289:4307   */\n      add\n        /* \"#utility.yul\":4281:4307   */\n      swap1\n      pop\n        /* \"#utility.yul\":4353:4362   */\n      dup2\n        /* \"#utility.yul\":4347:4351   */\n      dup2\n        /* \"#utility.yul\":4343:4363   */\n      sub\n        /* \"#utility.yul\":4339:4340   */\n      0x00\n        /* \"#utility.yul\":4328:4337   */\n      dup4\n        /* \"#utility.yul\":4324:4341   */\n      add\n        /* \"#utility.yul\":4317:4364   */\n      mstore\n        /* \"#utility.yul\":4381:4512   */\n      tag_137\n        /* \"#utility.yul\":4507:4511   */\n      dup2\n        /* \"#utility.yul\":4381:4512   */\n      tag_108\n      jump\t// in\n    tag_137:\n        /* \"#utility.yul\":4373:4512   */\n      swap1\n      pop\n        /* \"#utility.yul\":4100:4519   */\n      swap2\n      swap1\n      pop\n      jump\t// out\n        /* \"#utility.yul\":4525:4944   */\n    tag_47:\n        /* \"#utility.yul\":4691:4695   */\n      0x00\n        /* \"#utility.yul\":4729:4731   */\n      0x20\n        /* \"#utility.yul\":4718:4727   */\n      dup3\n        /* \"#utility.yul\":4714:4732   */\n      add\n        /* \"#utility.yul\":4706:4732   */\n      swap1\n      pop\n        /* \"#utility.yul\":4778:4787   */\n      dup2\n        /* \"#utility.yul\":4772:4776   */\n      dup2\n        /* \"#utility.yul\":4768:4788   */\n      sub\n        /* \"#utility.yul\":4764:4765   */\n      0x00\n        /* \"#utility.yul\":4753:4762   */\n      dup4\n        /* \"#utility.yul\":4749:4766   */\n      add\n        /* \"#utility.yul\":4742:4789   */\n      mstore\n        /* \"#utility.yul\":4806:4937   */\n      tag_139\n        /* \"#utility.yul\":4932:4936   */\n      dup2\n        /* \"#utility.yul\":4806:4937   */\n      tag_113\n      jump\t// in\n    tag_139:\n        /* \"#utility.yul\":4798:4937   */\n      swap1\n      pop\n        /* \"#utility.yul\":4525:4944   */\n      swap2\n      swap1\n      pop\n      jump\t// out\n        /* \"#utility.yul\":4950:5369   */\n    tag_43:\n        /* \"#utility.yul\":5116:5120   */\n      0x00\n        /* \"#utility.yul\":5154:5156   */\n      0x20\n        /* \"#utility.yul\":5143:5152   */\n      dup3\n        /* \"#utility.yul\":5139:5157   */\n      add\n        /* \"#utility.yul\":5131:5157   */\n      swap1\n      pop\n        /* \"#utility.yul\":5203:5212   */\n      dup2\n        /* \"#utility.yul\":5197:5201   */\n      dup2\n        /* \"#utility.yul\":5193:5213   */\n      sub\n        /* \"#utility.yul\":5189:5190   */\n      0x00\n        /* \"#utility.yul\":5178:5187   */\n      dup4\n        /* \"#utility.yul\":5174:5191   */\n      add\n        /* \"#utility.yul\":5167:5214   */\n      mstore\n        /* \"#utility.yul\":5231:5362   */\n      tag_141\n        /* \"#utility.yul\":5357:5361   */\n      dup2\n        /* \"#utility.yul\":5231:5362   */\n      tag_118\n      jump\t// in\n    tag_141:\n        /* \"#utility.yul\":5223:5362   */\n      swap1\n      pop\n        /* \"#utility.yul\":4950:5369   */\n      swap2\n      swap1\n      pop\n      jump\t// out\n        /* \"#utility.yul\":5375:5794   */\n    tag_56:\n        /* \"#utility.yul\":5541:5545   */\n      0x00\n        /* \"#utility.yul\":5579:5581   */\n      0x20\n        /* \"#utility.yul\":5568:5577   */\n      dup3\n        /* \"#utility.yul\":5564:5582   */\n      add\n        /* \"#utility.yul\":5556:5582   */\n      swap1\n      pop\n        /* \"#utility.yul\":5628:5637   */\n      dup2\n        /* \"#utility.yul\":5622:5626   */\n      dup2\n        /* \"#utility.yul\":5618:5638   */\n      sub\n        /* \"#utility.yul\":5614:5615   */\n      0x00\n        /* \"#utility.yul\":5603:5612   */\n      dup4\n        /* \"#utility.yul\":5599:5616   */\n      add\n        /* \"#utility.yul\":5592:5639   */\n      mstore\n        /* \"#utility.yul\":5656:5787   */\n      tag_143\n        /* \"#utility.yul\":5782:5786   */\n      dup2\n        /* \"#utility.yul\":5656:5787   */\n      tag_123\n      jump\t// in\n    tag_143:\n        /* \"#utility.yul\":5648:5787   */\n      swap1\n      pop\n        /* \"#utility.yul\":5375:5794   */\n      swap2\n      swap1\n      pop\n      jump\t// out\n        /* \"#utility.yul\":5800:6022   */\n    tag_27:\n        /* \"#utility.yul\":5893:5897   */\n      0x00\n        /* \"#utility.yul\":5931:5933   */\n      0x20\n        /* \"#utility.yul\":5920:5929   */\n      dup3\n        /* \"#utility.yul\":5916:5934   */\n      add\n        /* \"#utility.yul\":5908:5934   */\n      swap1\n      pop\n        /* \"#utility.yul\":5944:6015   */\n      tag_145\n        /* \"#utility.yul\":6012:6013   */\n      0x00\n        /* \"#utility.yul\":6001:6010   */\n      dup4\n        /* \"#utility.yul\":5997:6014   */\n      add\n        /* \"#utility.yul\":5988:5994   */\n      dup5\n        /* \"#utility.yul\":5944:6015   */\n      tag_128\n      jump\t// in\n    tag_145:\n        /* \"#utility.yul\":5800:6022   */\n      swap3\n      swap2\n      pop\n      pop\n      jump\t// out\n        /* \"#utility.yul\":6109:6208   */\n    tag_101:\n        /* \"#utility.yul\":6161:6167   */\n      0x00\n        /* \"#utility.yul\":6195:6200   */\n      dup2\n        /* \"#utility.yul\":6189:6201   */\n      mload\n        /* \"#utility.yul\":6179:6201   */\n      swap1\n      pop\n        /* \"#utility.yul\":6109:6208   */\n      swap2\n      swap1\n      pop\n      jump\t// out\n        /* \"#utility.yul\":6214:6383   */\n    tag_103:\n        /* \"#utility.yul\":6298:6309   */\n      0x00\n        /* \"#utility.yul\":6332:6338   */\n      dup3\n        /* \"#utility.yul\":6327:6330   */\n      dup3\n        /* \"#utility.yul\":6320:6339   */\n      mstore\n        /* \"#utility.yul\":6372:6376   */\n      0x20\n        /* \"#utility.yul\":6367:6370   */\n      dup3\n        /* \"#utility.yul\":6363:6377   */\n      add\n        /* \"#utility.yul\":6348:6377   */\n      swap1\n      pop\n        /* \"#utility.yul\":6214:6383   */\n      swap3\n      swap2\n      pop\n      pop\n      jump\t// out\n        /* \"#utility.yul\":6389:6694   */\n    tag_65:\n        /* \"#utility.yul\":6429:6432   */\n      0x00\n        /* \"#utility.yul\":6448:6468   */\n      tag_151\n        /* \"#utility.yul\":6466:6467   */\n      dup3\n        /* \"#utility.yul\":6448:6468   */\n      tag_131\n      jump\t// in\n    tag_151:\n        /* \"#utility.yul\":6443:6468   */\n      swap2\n      pop\n        /* \"#utility.yul\":6482:6502   */\n      tag_152\n        /* \"#utility.yul\":6500:6501   */\n      dup4\n        /* \"#utility.yul\":6482:6502   */\n      tag_131\n      jump\t// in\n    tag_152:\n        /* \"#utility.yul\":6477:6502   */\n      swap3\n      pop\n        /* \"#utility.yul\":6636:6637   */\n      dup3\n        /* \"#utility.yul\":6568:6634   */\n      0xffffffffffffffffffffffffffffffffffffffffffffffffffffffffffffffff\n        /* \"#utility.yul\":6564:6638   */\n      sub\n        /* \"#utility.yul\":6561:6562   */\n      dup3\n        /* \"#utility.yul\":6558:6639   */\n      gt\n        /* \"#utility.yul\":6555:6662   */\n      iszero\n      tag_153\n      jumpi\n        /* \"#utility.yul\":6642:6660   */\n      tag_154\n      tag_155\n      jump\t// in\n    tag_154:\n        /* \"#utility.yul\":6555:6662   */\n    tag_153:\n        /* \"#utility.yul\":6686:6687   */\n      dup3\n        /* \"#utility.yul\":6683:6684   */\n      dup3\n        /* \"#utility.yul\":6679:6688   */\n      add\n        /* \"#utility.yul\":6672:6688   */\n      swap1\n      pop\n        /* \"#utility.yul\":6389:6694   */\n      swap3\n      swap2\n      pop\n      pop\n      jump\t// out\n        /* \"#utility.yul\":6700:6796   */\n    tag_97:\n        /* \"#utility.yul\":6737:6744   */\n      0x00\n        /* \"#utility.yul\":6766:6790   */\n      tag_157\n        /* \"#utility.yul\":6784:6789   */\n      dup3\n        /* \"#utility.yul\":6766:6790   */\n      tag_158\n      jump\t// in\n    tag_157:\n        /* \"#utility.yul\":6755:6790   */\n      swap1\n      pop\n        /* \"#utility.yul\":6700:6796   */\n      swap2\n      swap1\n      pop\n      jump\t// out\n        /* \"#utility.yul\":6802:6928   */\n    tag_158:\n        /* \"#utility.yul\":6839:6846   */\n      0x00\n        /* \"#utility.yul\":6879:6921   */\n      0xffffffffffffffffffffffffffffffffffffffff\n        /* \"#utility.yul\":6872:6877   */\n      dup3\n        /* \"#utility.yul\":6868:6922   */\n      and\n        /* \"#utility.yul\":6857:6922   */\n      swap1\n      pop\n        /* \"#utility.yul\":6802:6928   */\n      swap2\n      swap1\n      pop\n      jump\t// out\n        /* \"#utility.yul\":6934:7011   */\n    tag_131:\n        /* \"#utility.yul\":6971:6978   */\n      0x00\n        /* \"#utility.yul\":7000:7005   */\n      dup2\n        /* \"#utility.yul\":6989:7005   */\n      swap1\n      pop\n        /* \"#utility.yul\":6934:7011   */\n      swap2\n      swap1\n      pop\n      jump\t// out\n        /* \"#utility.yul\":7017:7324   */\n    tag_105:\n        /* \"#utility.yul\":7085:7086   */\n      0x00\n        /* \"#utility.yul\":7095:7208   */\n    tag_162:\n        /* \"#utility.yul\":7109:7115   */\n      dup4\n        /* \"#utility.yul\":7106:7107   */\n      dup2\n        /* \"#utility.yul\":7103:7116   */\n      lt\n        /* \"#utility.yul\":7095:7208   */\n      iszero\n      tag_164\n      jumpi\n        /* \"#utility.yul\":7194:7195   */\n      dup1\n        /* \"#utility.yul\":7189:7192   */\n      dup3\n        /* \"#utility.yul\":7185:7196   */\n      add\n        /* \"#utility.yul\":7179:7197   */\n      mload\n        /* \"#utility.yul\":7175:7176   */\n      dup2\n        /* \"#utility.yul\":7170:7173   */\n      dup5\n        /* \"#utility.yul\":7166:7177   */\n      add\n        /* \"#utility.yul\":7159:7198   */\n      mstore\n        /* \"#utility.yul\":7131:7133   */\n      0x20\n        /* \"#utility.yul\":7128:7129   */\n      dup2\n        /* \"#utility.yul\":7124:7134   */\n      add\n        /* \"#utility.yul\":7119:7134   */\n      swap1\n      pop\n        /* \"#utility.yul\":7095:7208   */\n      jump(tag_162)\n    tag_164:\n        /* \"#utility.yul\":7226:7232   */\n      dup4\n        /* \"#utility.yul\":7223:7224   */\n      dup2\n        /* \"#utility.yul\":7220:7233   */\n      gt\n        /* \"#utility.yul\":7217:7318   */\n      iszero\n      tag_165\n      jumpi\n        /* \"#utility.yul\":7306:7307   */\n      0x00\n        /* \"#utility.yul\":7297:7303   */\n      dup5\n        /* \"#utility.yul\":7292:7295   */\n      dup5\n        /* \"#utility.yul\":7288:7304   */\n      add\n        /* \"#utility.yul\":7281:7308   */\n      mstore\n        /* \"#utility.yul\":7217:7318   */\n    tag_165:\n        /* \"#utility.yul\":7066:7324   */\n      pop\n        /* \"#utility.yul\":7017:7324   */\n      pop\n      pop\n      pop\n      jump\t// out\n        /* \"#utility.yul\":7330:7650   */\n    tag_32:\n        /* \"#utility.yul\":7374:7380   */\n      0x00\n        /* \"#utility.yul\":7411:7412   */\n      0x02\n        /* \"#utility.yul\":7405:7409   */\n      dup3\n        /* \"#utility.yul\":7401:7413   */\n      div\n        /* \"#utility.yul\":7391:7413   */\n      swap1\n      pop\n        /* \"#utility.yul\":7458:7459   */\n      0x01\n        /* \"#utility.yul\":7452:7456   */\n      dup3\n        /* \"#utility.yul\":7448:7460   */\n      and\n        /* \"#utility.yul\":7479:7497   */\n      dup1\n        /* \"#utility.yul\":7469:7550   */\n      tag_167\n      jumpi\n        /* \"#utility.yul\":7535:7539   */\n      0x7f\n        /* \"#utility.yul\":7527:7533   */\n      dup3\n        /* \"#utility.yul\":7523:7540   */\n      and\n        /* \"#utility.yul\":7513:7540   */\n      swap2\n      pop\n        /* \"#utility.yul\":7469:7550   */\n    tag_167:\n        /* \"#utility.yul\":7597:7599   */\n      0x20\n        /* \"#utility.yul\":7589:7595   */\n      dup3\n        /* \"#utility.yul\":7586:7600   */\n      lt\n        /* \"#utility.yul\":7566:7584   */\n      dup2\n        /* \"#utility.yul\":7563:7601   */\n      eq\n        /* \"#utility.yul\":7560:7644   */\n      iszero\n      tag_168\n      jumpi\n        /* \"#utility.yul\":7616:7634   */\n      tag_169\n      tag_170\n      jump\t// in\n    tag_169:\n        /* \"#utility.yul\":7560:7644   */\n    tag_168:\n        /* \"#utility.yul\":7381:7650   */\n      pop\n        /* \"#utility.yul\":7330:7650   */\n      swap2\n      swap1\n      pop\n      jump\t// out\n        /* \"#utility.yul\":7656:7836   */\n    tag_155:\n        /* \"#utility.yul\":7704:7781   */\n      0x4e487b7100000000000000000000000000000000000000000000000000000000\n        /* \"#utility.yul\":7701:7702   */\n      0x00\n        /* \"#utility.yul\":7694:7782   */\n      mstore\n        /* \"#utility.yul\":7801:7805   */\n      0x11\n        /* \"#utility.yul\":7798:7799   */\n      0x04\n        /* \"#utility.yul\":7791:7806   */\n      mstore\n        /* \"#utility.yul\":7825:7829   */\n      0x24\n        /* \"#utility.yul\":7822:7823   */\n      0x00\n        /* \"#utility.yul\":7815:7830   */\n      revert\n        /* \"#utility.yul\":7842:8022   */\n    tag_170:\n        /* \"#utility.yul\":7890:7967   */\n      0x4e487b7100000000000000000000000000000000000000000000000000000000\n        /* \"#utility.yul\":7887:7888   */\n      0x00\n        /* \"#utility.yul\":7880:7968   */\n      mstore\n        /* \"#utility.yul\":7987:7991   */\n      0x22\n        /* \"#utility.yul\":7984:7985   */\n      0x04\n        /* \"#utility.yul\":7977:7992   */\n      mstore\n        /* \"#utility.yul\":8011:8015   */\n      0x24\n        /* \"#utility.yul\":8008:8009   */\n      0x00\n        /* \"#utility.yul\":8001:8016   */\n      revert\n        /* \"#utility.yul\":8151:8268   */\n    tag_83:\n        /* \"#utility.yul\":8260:8261   */\n      0x00\n        /* \"#utility.yul\":8257:8258   */\n      dup1\n        /* \"#utility.yul\":8250:8262   */\n      revert\n        /* \"#utility.yul\":8274:8376   */\n    tag_107:\n        /* \"#utility.yul\":8315:8321   */\n      0x00\n        /* \"#utility.yul\":8366:8368   */\n      0x1f\n        /* \"#utility.yul\":8362:8369   */\n      not\n        /* \"#utility.yul\":8357:8359   */\n      0x1f\n        /* \"#utility.yul\":8350:8355   */\n      dup4\n        /* \"#utility.yul\":8346:8360   */\n      add\n        /* \"#utility.yul\":8342:8370   */\n      and\n        /* \"#utility.yul\":8332:8370   */\n      swap1\n      pop\n        /* \"#utility.yul\":8274:8376   */\n      swap2\n      swap1\n      pop\n      jump\t// out\n        /* \"#utility.yul\":8382:8560   */\n    tag_112:\n        /* \"#utility.yul\":8522:8552   */\n      0x4552433732313a20746f6b656e20616c7265616479206d696e74656400000000\n        /* \"#utility.yul\":8518:8519   */\n      0x00\n        /* \"#utility.yul\":8510:8516   */\n      dup3\n        /* \"#utility.yul\":8506:8520   */\n      add\n        /* \"#utility.yul\":8499:8553   */\n      mstore\n        /* \"#utility.yul\":8382:8560   */\n      pop\n      jump\t// out\n        /* \"#utility.yul\":8566:8795   */\n    tag_117:\n        /* \"#utility.yul\":8706:8740   */\n      0x4552433732313a2062616c616e636520717565727920666f7220746865207a65\n        /* \"#utility.yul\":8702:8703   */\n      0x00\n        /* \"#utility.yul\":8694:8700   */\n      dup3\n        /* \"#utility.yul\":8690:8704   */\n      add\n        /* \"#utility.yul\":8683:8741   */\n      mstore\n        /* \"#utility.yul\":8775:8787   */\n      0x726f206164647265737300000000000000000000000000000000000000000000\n        /* \"#utility.yul\":8770:8772   */\n      0x20\n        /* \"#utility.yul\":8762:8768   */\n      dup3\n        /* \"#utility.yul\":8758:8773   */\n      add\n        /* \"#utility.yul\":8751:8788   */\n      mstore\n        /* \"#utility.yul\":8566:8795   */\n      pop\n      jump\t// out\n        /* \"#utility.yul\":8801:9029   */\n    tag_122:\n        /* \"#utility.yul\":8941:8975   */\n      0x4552433732313a206f776e657220717565727920666f72206e6f6e6578697374\n        /* \"#utility.yul\":8937:8938   */\n      0x00\n        /* \"#utility.yul\":8929:8935   */\n      dup3\n        /* \"#utility.yul\":8925:8939   */\n      add\n        /* \"#utility.yul\":8918:8976   */\n      mstore\n        /* \"#utility.yul\":9010:9021   */\n      0x656e7420746f6b656e0000000000000000000000000000000000000000000000\n        /* \"#utility.yul\":9005:9007   */\n      0x20\n        /* \"#utility.yul\":8997:9003   */\n      dup3\n        /* \"#utility.yul\":8993:9008   */\n      add\n        /* \"#utility.yul\":8986:9022   */\n      mstore\n        /* \"#utility.yul\":8801:9029   */\n      pop\n      jump\t// out\n        /* \"#utility.yul\":9035:9217   */\n    tag_127:\n        /* \"#utility.yul\":9175:9209   */\n      0x4552433732313a206d696e7420746f20746865207a65726f2061646472657373\n        /* \"#utility.yul\":9171:9172   */\n      0x00\n        /* \"#utility.yul\":9163:9169   */\n      dup3\n        /* \"#utility.yul\":9159:9173   */\n      add\n        /* \"#utility.yul\":9152:9210   */\n      mstore\n        /* \"#utility.yul\":9035:9217   */\n      pop\n      jump\t// out\n        /* \"#utility.yul\":9223:9345   */\n    tag_75:\n        /* \"#utility.yul\":9296:9320   */\n      tag_182\n        /* \"#utility.yul\":9314:9319   */\n      dup2\n        /* \"#utility.yul\":9296:9320   */\n      tag_97\n      jump\t// in\n    tag_182:\n        /* \"#utility.yul\":9289:9294   */\n      dup2\n        /* \"#utility.yul\":9286:9321   */\n      eq\n        /* \"#utility.yul\":9276:9339   */\n      tag_183\n      jumpi\n        /* \"#utility.yul\":9335:9336   */\n      0x00\n        /* \"#utility.yul\":9332:9333   */\n      dup1\n        /* \"#utility.yul\":9325:9337   */\n      revert\n        /* \"#utility.yul\":9276:9339   */\n    tag_183:\n        /* \"#utility.yul\":9223:9345   */\n      pop\n      jump\t// out\n        /* \"#utility.yul\":9351:9473   */\n    tag_79:\n        /* \"#utility.yul\":9424:9448   */\n      tag_185\n        /* \"#utility.yul\":9442:9447   */\n      dup2\n        /* \"#utility.yul\":9424:9448   */\n      tag_131\n      jump\t// in\n    tag_185:\n        /* \"#utility.yul\":9417:9422   */\n      dup2\n        /* \"#utility.yul\":9414:9449   */\n      eq\n        /* \"#utility.yul\":9404:9467   */\n      tag_186\n      jumpi\n        /* \"#utility.yul\":9463:9464   */\n      0x00\n        /* \"#utility.yul\":9460:9461   */\n      dup1\n        /* \"#utility.yul\":9453:9465   */\n      revert\n        /* \"#utility.yul\":9404:9467   */\n    tag_186:\n        /* \"#utility.yul\":9351:9473   */\n      pop\n      jump\t// out\n\n    auxdata: 0xa2646970667358221220ac45fbc69313491c5e4a2080fe47e46a724a4e0301f4916cf20c897d64977bb864736f6c63430008070033\n}\n",
				"bytecode": {
					"linkReferences": {},
					"object": "60806040523480156200001157600080fd5b506040518060400160405280600e81526020017f426c75655375726765546f6b656e000000000000000000000000000000000000815250600090805190602001906200005f929190620000b4565b506040518060400160405280600381526020017f425354000000000000000000000000000000000000000000000000000000000081525060019080519060200190620000ad929190620000b4565b50620001c9565b828054620000c29062000164565b90600052602060002090601f016020900481019282620000e6576000855562000132565b82601f106200010157805160ff191683800117855562000132565b8280016001018555821562000132579182015b828111156200013157825182559160200191906001019062000114565b5b50905062000141919062000145565b5090565b5b808211156200016057600081600090555060010162000146565b5090565b600060028204905060018216806200017d57607f821691505b602082108114156200019457620001936200019a565b5b50919050565b7f4e487b7100000000000000000000000000000000000000000000000000000000600052602260045260246000fd5b610b5280620001d96000396000f3fe608060405234801561001057600080fd5b50600436106100575760003560e01c806306fdde031461005c57806340c10f191461007a5780636352211e1461009657806370a08231146100c657806395d89b41146100f6575b600080fd5b610064610114565b60405161007191906107ba565b60405180910390f35b610094600480360381019061008f919061064f565b6101a2565b005b6100b060048036038101906100ab919061068f565b6101b0565b6040516100bd919061079f565b60405180910390f35b6100e060048036038101906100db9190610622565b610262565b6040516100ed919061085c565b60405180910390f35b6100fe61031a565b60405161010b91906107ba565b60405180910390f35b6000805461012190610958565b80601f016020809104026020016040519081016040528092919081815260200182805461014d90610958565b801561019a5780601f1061016f5761010080835404028352916020019161019a565b820191906000526020600020905b81548152906001019060200180831161017d57829003601f168201915b505050505081565b6101ac82826103a8565b5050565b6000806002600084815260200190815260200160002060009054906101000a900473ffffffffffffffffffffffffffffffffffffffff169050600073ffffffffffffffffffffffffffffffffffffffff168173ffffffffffffffffffffffffffffffffffffffff161415610259576040517f08c379a00000000000000000000000000000000000000000000000000000000081526004016102509061081c565b60405180910390fd5b80915050919050565b60008073ffffffffffffffffffffffffffffffffffffffff168273ffffffffffffffffffffffffffffffffffffffff1614156102d3576040517f08c379a00000000000000000000000000000000000000000000000000000000081526004016102ca906107fc565b60405180910390fd5b600360008373ffffffffffffffffffffffffffffffffffffffff1673ffffffffffffffffffffffffffffffffffffffff168152602001908152602001600020549050919050565b6001805461032790610958565b80601f016020809104026020016040519081016040528092919081815260200182805461035390610958565b80156103a05780601f10610375576101008083540402835291602001916103a0565b820191906000526020600020905b81548152906001019060200180831161038357829003601f168201915b505050505081565b600073ffffffffffffffffffffffffffffffffffffffff168273ffffffffffffffffffffffffffffffffffffffff161415610418576040517f08c379a000000000000000000000000000000000000000000000000000000000815260040161040f9061083c565b60405180910390fd5b61042181610582565b15610461576040517f08c379a0000000000000000000000000000000000000000000000000000000008152600401610458906107dc565b60405180910390fd5b61046d600083836105ee565b6002600360008473ffffffffffffffffffffffffffffffffffffffff1673ffffffffffffffffffffffffffffffffffffffff16815260200190815260200160002060008282546104bd9190610893565b92505081905550816002600083815260200190815260200160002060006101000a81548173ffffffffffffffffffffffffffffffffffffffff021916908373ffffffffffffffffffffffffffffffffffffffff160217905550808273ffffffffffffffffffffffffffffffffffffffff16600073ffffffffffffffffffffffffffffffffffffffff167fddf252ad1be2c89b69c2b068fc378daa952ba7f163c4a11628f55a4df523b3ef60405160405180910390a461057e600083836105f3565b5050565b60008073ffffffffffffffffffffffffffffffffffffffff166002600084815260200190815260200160002060009054906101000a900473ffffffffffffffffffffffffffffffffffffffff1673ffffffffffffffffffffffffffffffffffffffff1614159050919050565b505050565b505050565b60008135905061060781610aee565b92915050565b60008135905061061c81610b05565b92915050565b600060208284031215610638576106376109e8565b5b6000610646848285016105f8565b91505092915050565b60008060408385031215610666576106656109e8565b5b6000610674858286016105f8565b92505060206106858582860161060d565b9150509250929050565b6000602082840312156106a5576106a46109e8565b5b60006106b38482850161060d565b91505092915050565b6106c5816108e9565b82525050565b60006106d682610877565b6106e08185610882565b93506106f0818560208601610925565b6106f9816109ed565b840191505092915050565b6000610711601c83610882565b915061071c826109fe565b602082019050919050565b6000610734602a83610882565b915061073f82610a27565b604082019050919050565b6000610757602983610882565b915061076282610a76565b604082019050919050565b600061077a602083610882565b915061078582610ac5565b602082019050919050565b6107998161091b565b82525050565b60006020820190506107b460008301846106bc565b92915050565b600060208201905081810360008301526107d481846106cb565b905092915050565b600060208201905081810360008301526107f581610704565b9050919050565b6000602082019050818103600083015261081581610727565b9050919050565b600060208201905081810360008301526108358161074a565b9050919050565b600060208201905081810360008301526108558161076d565b9050919050565b60006020820190506108716000830184610790565b92915050565b600081519050919050565b600082825260208201905092915050565b600061089e8261091b565b91506108a98361091b565b9250827fffffffffffffffffffffffffffffffffffffffffffffffffffffffffffffffff038211156108de576108dd61098a565b5b828201905092915050565b60006108f4826108fb565b9050919050565b600073ffffffffffffffffffffffffffffffffffffffff82169050919050565b6000819050919050565b60005b83811015610943578082015181840152602081019050610928565b83811115610952576000848401525b50505050565b6000600282049050600182168061097057607f821691505b60208210811415610984576109836109b9565b5b50919050565b7f4e487b7100000000000000000000000000000000000000000000000000000000600052601160045260246000fd5b7f4e487b7100000000000000000000000000000000000000000000000000000000600052602260045260246000fd5b600080fd5b6000601f19601f8301169050919050565b7f4552433732313a20746f6b656e20616c7265616479206d696e74656400000000600082015250565b7f4552433732313a2062616c616e636520717565727920666f7220746865207a6560008201527f726f206164647265737300000000000000000000000000000000000000000000602082015250565b7f4552433732313a206f776e657220717565727920666f72206e6f6e657869737460008201527f656e7420746f6b656e0000000000000000000000000000000000000000000000602082015250565b7f4552433732313a206d696e7420746f20746865207a65726f2061646472657373600082015250565b610af7816108e9565b8114610b0257600080fd5b50565b610b0e8161091b565b8114610b1957600080fd5b5056fea2646970667358221220ac45fbc69313491c5e4a2080fe47e46a724a4e0301f4916cf20c897d64977bb864736f6c63430008070033",
					"opcodes": "PUSH1 0x80 PUSH1 0x40 MSTORE CALLVALUE DUP1 ISZERO PUSH3 0x11 JUMPI PUSH1 0x0 DUP1 REVERT JUMPDEST POP PUSH1 0x40 MLOAD DUP1 PUSH1 0x40 ADD PUSH1 0x40 MSTORE DUP1 PUSH1 0xE DUP2 MSTORE PUSH1 0x20 ADD PUSH32 0x426C75655375726765546F6B656E000000000000000000000000000000000000 DUP2 MSTORE POP PUSH1 0x0 SWAP1 DUP1 MLOAD SWAP1 PUSH1 0x20 ADD SWAP1 PUSH3 0x5F SWAP3 SWAP2 SWAP1 PUSH3 0xB4 JUMP JUMPDEST POP PUSH1 0x40 MLOAD DUP1 PUSH1 0x40 ADD PUSH1 0x40 MSTORE DUP1 PUSH1 0x3 DUP2 MSTORE PUSH1 0x20 ADD PUSH32 0x4253540000000000000000000000000000000000000000000000000000000000 DUP2 MSTORE POP PUSH1 0x1 SWAP1 DUP1 MLOAD SWAP1 PUSH1 0x20 ADD SWAP1 PUSH3 0xAD SWAP3 SWAP2 SWAP1 PUSH3 0xB4 JUMP JUMPDEST POP PUSH3 0x1C9 JUMP JUMPDEST DUP3 DUP1 SLOAD PUSH3 0xC2 SWAP1 PUSH3 0x164 JUMP JUMPDEST SWAP1 PUSH1 0x0 MSTORE PUSH1 0x20 PUSH1 0x0 KECCAK256 SWAP1 PUSH1 0x1F ADD PUSH1 0x20 SWAP1 DIV DUP2 ADD SWAP3 DUP3 PUSH3 0xE6 JUMPI PUSH1 0x0 DUP6 SSTORE PUSH3 0x132 JUMP JUMPDEST DUP3 PUSH1 0x1F LT PUSH3 0x101 JUMPI DUP1 MLOAD PUSH1 0xFF NOT AND DUP4 DUP1 ADD OR DUP6 SSTORE PUSH3 0x132 JUMP JUMPDEST DUP3 DUP1 ADD PUSH1 0x1 ADD DUP6 SSTORE DUP3 ISZERO PUSH3 0x132 JUMPI SWAP2 DUP3 ADD JUMPDEST DUP3 DUP2 GT ISZERO PUSH3 0x131 JUMPI DUP3 MLOAD DUP3 SSTORE SWAP2 PUSH1 0x20 ADD SWAP2 SWAP1 PUSH1 0x1 ADD SWAP1 PUSH3 0x114 JUMP JUMPDEST JUMPDEST POP SWAP1 POP PUSH3 0x141 SWAP2 SWAP1 PUSH3 0x145 JUMP JUMPDEST POP SWAP1 JUMP JUMPDEST JUMPDEST DUP1 DUP3 GT ISZERO PUSH3 0x160 JUMPI PUSH1 0x0 DUP2 PUSH1 0x0 SWAP1 SSTORE POP PUSH1 0x1 ADD PUSH3 0x146 JUMP JUMPDEST POP SWAP1 JUMP JUMPDEST PUSH1 0x0 PUSH1 0x2 DUP3 DIV SWAP1 POP PUSH1 0x1 DUP3 AND DUP1 PUSH3 0x17D JUMPI PUSH1 0x7F DUP3 AND SWAP2 POP JUMPDEST PUSH1 0x20 DUP3 LT DUP2 EQ ISZERO PUSH3 0x194 JUMPI PUSH3 0x193 PUSH3 0x19A JUMP JUMPDEST JUMPDEST POP SWAP2 SWAP1 POP JUMP JUMPDEST PUSH32 0x4E487B7100000000000000000000000000000000000000000000000000000000 PUSH1 0x0 MSTORE PUSH1 0x22 PUSH1 0x4 MSTORE PUSH1 0x24 PUSH1 0x0 REVERT JUMPDEST PUSH2 0xB52 DUP1 PUSH3 0x1D9 PUSH1 0x0 CODECOPY PUSH1 0x0 RETURN INVALID PUSH1 0x80 PUSH1 0x40 MSTORE CALLVALUE DUP1 ISZERO PUSH2 0x10 JUMPI PUSH1 0x0 DUP1 REVERT JUMPDEST POP PUSH1 0x4 CALLDATASIZE LT PUSH2 0x57 JUMPI PUSH1 0x0 CALLDATALOAD PUSH1 0xE0 SHR DUP1 PUSH4 0x6FDDE03 EQ PUSH2 0x5C JUMPI DUP1 PUSH4 0x40C10F19 EQ PUSH2 0x7A JUMPI DUP1 PUSH4 0x6352211E EQ PUSH2 0x96 JUMPI DUP1 PUSH4 0x70A08231 EQ PUSH2 0xC6 JUMPI DUP1 PUSH4 0x95D89B41 EQ PUSH2 0xF6 JUMPI JUMPDEST PUSH1 0x0 DUP1 REVERT JUMPDEST PUSH2 0x64 PUSH2 0x114 JUMP JUMPDEST PUSH1 0x40 MLOAD PUSH2 0x71 SWAP2 SWAP1 PUSH2 0x7BA JUMP JUMPDEST PUSH1 0x40 MLOAD DUP1 SWAP2 SUB SWAP1 RETURN JUMPDEST PUSH2 0x94 PUSH1 0x4 DUP1 CALLDATASIZE SUB DUP2 ADD SWAP1 PUSH2 0x8F SWAP2 SWAP1 PUSH2 0x64F JUMP JUMPDEST PUSH2 0x1A2 JUMP JUMPDEST STOP JUMPDEST PUSH2 0xB0 PUSH1 0x4 DUP1 CALLDATASIZE SUB DUP2 ADD SWAP1 PUSH2 0xAB SWAP2 SWAP1 PUSH2 0x68F JUMP JUMPDEST PUSH2 0x1B0 JUMP JUMPDEST PUSH1 0x40 MLOAD PUSH2 0xBD SWAP2 SWAP1 PUSH2 0x79F JUMP JUMPDEST PUSH1 0x40 MLOAD DUP1 SWAP2 SUB SWAP1 RETURN JUMPDEST PUSH2 0xE0 PUSH1 0x4 DUP1 CALLDATASIZE SUB DUP2 ADD SWAP1 PUSH2 0xDB SWAP2 SWAP1 PUSH2 0x622 JUMP JUMPDEST PUSH2 0x262 JUMP JUMPDEST PUSH1 0x40 MLOAD PUSH2 0xED SWAP2 SWAP1 PUSH2 0x85C JUMP JUMPDEST PUSH1 0x40 MLOAD DUP1 SWAP2 SUB SWAP1 RETURN JUMPDEST PUSH2 0xFE PUSH2 0x31A JUMP JUMPDEST PUSH1 0x40 MLOAD PUSH2 0x10B SWAP2 SWAP1 PUSH2 0x7BA JUMP JUMPDEST PUSH1 0x40 MLOAD DUP1 SWAP2 SUB SWAP1 RETURN JUMPDEST PUSH1 0x0 DUP1 SLOAD PUSH2 0x121 SWAP1 PUSH2 0x958 JUMP JUMPDEST DUP1 PUSH1 0x1F ADD PUSH1 0x20 DUP1 SWAP2 DIV MUL PUSH1 0x20 ADD PUSH1 0x40 MLOAD SWAP1 DUP2 ADD PUSH1 0x40 MSTORE DUP1 SWAP3 SWAP2 SWAP1 DUP2 DUP2 MSTORE PUSH1 0x20 ADD DUP3 DUP1 SLOAD PUSH2 0x14D SWAP1 PUSH2 0x958 JUMP JUMPDEST DUP1 ISZERO PUSH2 0x19A JUMPI DUP1 PUSH1 0x1F LT PUSH2 0x16F JUMPI PUSH2 0x100 DUP1 DUP4 SLOAD DIV MUL DUP4 MSTORE SWAP2 PUSH1 0x20 ADD SWAP2 PUSH2 0x19A JUMP JUMPDEST DUP3 ADD SWAP2 SWAP1 PUSH1 0x0 MSTORE PUSH1 0x20 PUSH1 0x0 KECCAK256 SWAP1 JUMPDEST DUP2 SLOAD DUP2 MSTORE SWAP1 PUSH1 0x1 ADD SWAP1 PUSH1 0x20 ADD DUP1 DUP4 GT PUSH2 0x17D JUMPI DUP3 SWAP1 SUB PUSH1 0x1F AND DUP3 ADD SWAP2 JUMPDEST POP POP POP POP POP DUP2 JUMP JUMPDEST PUSH2 0x1AC DUP3 DUP3 PUSH2 0x3A8 JUMP JUMPDEST POP POP JUMP JUMPDEST PUSH1 0x0 DUP1 PUSH1 0x2 PUSH1 0x0 DUP5 DUP2 MSTORE PUSH1 0x20 ADD SWAP1 DUP2 MSTORE PUSH1 0x20 ADD PUSH1 0x0 KECCAK256 PUSH1 0x0 SWAP1 SLOAD SWAP1 PUSH2 0x100 EXP SWAP1 DIV PUSH20 0xFFFFFFFFFFFFFFFFFFFFFFFFFFFFFFFFFFFFFFFF AND SWAP1 POP PUSH1 0x0 PUSH20 0xFFFFFFFFFFFFFFFFFFFFFFFFFFFFFFFFFFFFFFFF AND DUP2 PUSH20 0xFFFFFFFFFFFFFFFFFFFFFFFFFFFFFFFFFFFFFFFF AND EQ ISZERO PUSH2 0x259 JUMPI PUSH1 0x40 MLOAD PUSH32 0x8C379A000000000000000000000000000000000000000000000000000000000 DUP2 MSTORE PUSH1 0x4 ADD PUSH2 0x250 SWAP1 PUSH2 0x81C JUMP JUMPDEST PUSH1 0x40 MLOAD DUP1 SWAP2 SUB SWAP1 REVERT JUMPDEST DUP1 SWAP2 POP POP SWAP2 SWAP1 POP JUMP JUMPDEST PUSH1 0x0 DUP1 PUSH20 0xFFFFFFFFFFFFFFFFFFFFFFFFFFFFFFFFFFFFFFFF AND DUP3 PUSH20 0xFFFFFFFFFFFFFFFFFFFFFFFFFFFFFFFFFFFFFFFF AND EQ ISZERO PUSH2 0x2D3 JUMPI PUSH1 0x40 MLOAD PUSH32 0x8C379A000000000000000000000000000000000000000000000000000000000 DUP2 MSTORE PUSH1 0x4 ADD PUSH2 0x2CA SWAP1 PUSH2 0x7FC JUMP JUMPDEST PUSH1 0x40 MLOAD DUP1 SWAP2 SUB SWAP1 REVERT JUMPDEST PUSH1 0x3 PUSH1 0x0 DUP4 PUSH20 0xFFFFFFFFFFFFFFFFFFFFFFFFFFFFFFFFFFFFFFFF AND PUSH20 0xFFFFFFFFFFFFFFFFFFFFFFFFFFFFFFFFFFFFFFFF AND DUP2 MSTORE PUSH1 0x20 ADD SWAP1 DUP2 MSTORE PUSH1 0x20 ADD PUSH1 0x0 KECCAK256 SLOAD SWAP1 POP SWAP2 SWAP1 POP JUMP JUMPDEST PUSH1 0x1 DUP1 SLOAD PUSH2 0x327 SWAP1 PUSH2 0x958 JUMP JUMPDEST DUP1 PUSH1 0x1F ADD PUSH1 0x20 DUP1 SWAP2 DIV MUL PUSH1 0x20 ADD PUSH1 0x40 MLOAD SWAP1 DUP2 ADD PUSH1 0x40 MSTORE DUP1 SWAP3 SWAP2 SWAP1 DUP2 DUP2 MSTORE PUSH1 0x20 ADD DUP3 DUP1 SLOAD PUSH2 0x353 SWAP1 PUSH2 0x958 JUMP JUMPDEST DUP1 ISZERO PUSH2 0x3A0 JUMPI DUP1 PUSH1 0x1F LT PUSH2 0x375 JUMPI PUSH2 0x100 DUP1 DUP4 SLOAD DIV MUL DUP4 MSTORE SWAP2 PUSH1 0x20 ADD SWAP2 PUSH2 0x3A0 JUMP JUMPDEST DUP3 ADD SWAP2 SWAP1 PUSH1 0x0 MSTORE PUSH1 0x20 PUSH1 0x0 KECCAK256 SWAP1 JUMPDEST DUP2 SLOAD DUP2 MSTORE SWAP1 PUSH1 0x1 ADD SWAP1 PUSH1 0x20 ADD DUP1 DUP4 GT PUSH2 0x383 JUMPI DUP3 SWAP1 SUB PUSH1 0x1F AND DUP3 ADD SWAP2 JUMPDEST POP POP POP POP POP DUP2 JUMP JUMPDEST PUSH1 0x0 PUSH20 0xFFFFFFFFFFFFFFFFFFFFFFFFFFFFFFFFFFFFFFFF AND DUP3 PUSH20 0xFFFFFFFFFFFFFFFFFFFFFFFFFFFFFFFFFFFFFFFF AND EQ ISZERO PUSH2 0x418 JUMPI PUSH1 0x40 MLOAD PUSH32 0x8C379A000000000000000000000000000000000000000000000000000000000 DUP2 MSTORE PUSH1 0x4 ADD PUSH2 0x40F SWAP1 PUSH2 0x83C JUMP JUMPDEST PUSH1 0x40 MLOAD DUP1 SWAP2 SUB SWAP1 REVERT JUMPDEST PUSH2 0x421 DUP2 PUSH2 0x582 JUMP JUMPDEST ISZERO PUSH2 0x461 JUMPI PUSH1 0x40 MLOAD PUSH32 0x8C379A000000000000000000000000000000000000000000000000000000000 DUP2 MSTORE PUSH1 0x4 ADD PUSH2 0x458 SWAP1 PUSH2 0x7DC JUMP JUMPDEST PUSH1 0x40 MLOAD DUP1 SWAP2 SUB SWAP1 REVERT JUMPDEST PUSH2 0x46D PUSH1 0x0 DUP4 DUP4 PUSH2 0x5EE JUMP JUMPDEST PUSH1 0x2 PUSH1 0x3 PUSH1 0x0 DUP5 PUSH20 0xFFFFFFFFFFFFFFFFFFFFFFFFFFFFFFFFFFFFFFFF AND PUSH20 0xFFFFFFFFFFFFFFFFFFFFFFFFFFFFFFFFFFFFFFFF AND DUP2 MSTORE PUSH1 0x20 ADD SWAP1 DUP2 MSTORE PUSH1 0x20 ADD PUSH1 0x0 KECCAK256 PUSH1 0x0 DUP3 DUP3 SLOAD PUSH2 0x4BD SWAP2 SWAP1 PUSH2 0x893 JUMP JUMPDEST SWAP3 POP POP DUP2 SWAP1 SSTORE POP DUP2 PUSH1 0x2 PUSH1 0x0 DUP4 DUP2 MSTORE PUSH1 0x20 ADD SWAP1 DUP2 MSTORE PUSH1 0x20 ADD PUSH1 0x0 KECCAK256 PUSH1 0x0 PUSH2 0x100 EXP DUP2 SLOAD DUP2 PUSH20 0xFFFFFFFFFFFFFFFFFFFFFFFFFFFFFFFFFFFFFFFF MUL NOT AND SWAP1 DUP4 PUSH20 0xFFFFFFFFFFFFFFFFFFFFFFFFFFFFFFFFFFFFFFFF AND MUL OR SWAP1 SSTORE POP DUP1 DUP3 PUSH20 0xFFFFFFFFFFFFFFFFFFFFFFFFFFFFFFFFFFFFFFFF AND PUSH1 0x0 PUSH20 0xFFFFFFFFFFFFFFFFFFFFFFFFFFFFFFFFFFFFFFFF AND PUSH32 0xDDF252AD1BE2C89B69C2B068FC378DAA952BA7F163C4A11628F55A4DF523B3EF PUSH1 0x40 MLOAD PUSH1 0x40 MLOAD DUP1 SWAP2 SUB SWAP1 LOG4 PUSH2 0x57E PUSH1 0x0 DUP4 DUP4 PUSH2 0x5F3 JUMP JUMPDEST POP POP JUMP JUMPDEST PUSH1 0x0 DUP1 PUSH20 0xFFFFFFFFFFFFFFFFFFFFFFFFFFFFFFFFFFFFFFFF AND PUSH1 0x2 PUSH1 0x0 DUP5 DUP2 MSTORE PUSH1 0x20 ADD SWAP1 DUP2 MSTORE PUSH1 0x20 ADD PUSH1 0x0 KECCAK256 PUSH1 0x0 SWAP1 SLOAD SWAP1 PUSH2 0x100 EXP SWAP1 DIV PUSH20 0xFFFFFFFFFFFFFFFFFFFFFFFFFFFFFFFFFFFFFFFF AND PUSH20 0xFFFFFFFFFFFFFFFFFFFFFFFFFFFFFFFFFFFFFFFF AND EQ ISZERO SWAP1 POP SWAP2 SWAP1 POP JUMP JUMPDEST POP POP POP JUMP JUMPDEST POP POP POP JUMP JUMPDEST PUSH1 0x0 DUP2 CALLDATALOAD SWAP1 POP PUSH2 0x607 DUP2 PUSH2 0xAEE JUMP JUMPDEST SWAP3 SWAP2 POP POP JUMP JUMPDEST PUSH1 0x0 DUP2 CALLDATALOAD SWAP1 POP PUSH2 0x61C DUP2 PUSH2 0xB05 JUMP JUMPDEST SWAP3 SWAP2 POP POP JUMP JUMPDEST PUSH1 0x0 PUSH1 0x20 DUP3 DUP5 SUB SLT ISZERO PUSH2 0x638 JUMPI PUSH2 0x637 PUSH2 0x9E8 JUMP JUMPDEST JUMPDEST PUSH1 0x0 PUSH2 0x646 DUP5 DUP3 DUP6 ADD PUSH2 0x5F8 JUMP JUMPDEST SWAP2 POP POP SWAP3 SWAP2 POP POP JUMP JUMPDEST PUSH1 0x0 DUP1 PUSH1 0x40 DUP4 DUP6 SUB SLT ISZERO PUSH2 0x666 JUMPI PUSH2 0x665 PUSH2 0x9E8 JUMP JUMPDEST JUMPDEST PUSH1 0x0 PUSH2 0x674 DUP6 DUP3 DUP7 ADD PUSH2 0x5F8 JUMP JUMPDEST SWAP3 POP POP PUSH1 0x20 PUSH2 0x685 DUP6 DUP3 DUP7 ADD PUSH2 0x60D JUMP JUMPDEST SWAP2 POP POP SWAP3 POP SWAP3 SWAP1 POP JUMP JUMPDEST PUSH1 0x0 PUSH1 0x20 DUP3 DUP5 SUB SLT ISZERO PUSH2 0x6A5 JUMPI PUSH2 0x6A4 PUSH2 0x9E8 JUMP JUMPDEST JUMPDEST PUSH1 0x0 PUSH2 0x6B3 DUP5 DUP3 DUP6 ADD PUSH2 0x60D JUMP JUMPDEST SWAP2 POP POP SWAP3 SWAP2 POP POP JUMP JUMPDEST PUSH2 0x6C5 DUP2 PUSH2 0x8E9 JUMP JUMPDEST DUP3 MSTORE POP POP JUMP JUMPDEST PUSH1 0x0 PUSH2 0x6D6 DUP3 PUSH2 0x877 JUMP JUMPDEST PUSH2 0x6E0 DUP2 DUP6 PUSH2 0x882 JUMP JUMPDEST SWAP4 POP PUSH2 0x6F0 DUP2 DUP6 PUSH1 0x20 DUP7 ADD PUSH2 0x925 JUMP JUMPDEST PUSH2 0x6F9 DUP2 PUSH2 0x9ED JUMP JUMPDEST DUP5 ADD SWAP2 POP POP SWAP3 SWAP2 POP POP JUMP JUMPDEST PUSH1 0x0 PUSH2 0x711 PUSH1 0x1C DUP4 PUSH2 0x882 JUMP JUMPDEST SWAP2 POP PUSH2 0x71C DUP3 PUSH2 0x9FE JUMP JUMPDEST PUSH1 0x20 DUP3 ADD SWAP1 POP SWAP2 SWAP1 POP JUMP JUMPDEST PUSH1 0x0 PUSH2 0x734 PUSH1 0x2A DUP4 PUSH2 0x882 JUMP JUMPDEST SWAP2 POP PUSH2 0x73F DUP3 PUSH2 0xA27 JUMP JUMPDEST PUSH1 0x40 DUP3 ADD SWAP1 POP SWAP2 SWAP1 POP JUMP JUMPDEST PUSH1 0x0 PUSH2 0x757 PUSH1 0x29 DUP4 PUSH2 0x882 JUMP JUMPDEST SWAP2 POP PUSH2 0x762 DUP3 PUSH2 0xA76 JUMP JUMPDEST PUSH1 0x40 DUP3 ADD SWAP1 POP SWAP2 SWAP1 POP JUMP JUMPDEST PUSH1 0x0 PUSH2 0x77A PUSH1 0x20 DUP4 PUSH2 0x882 JUMP JUMPDEST SWAP2 POP PUSH2 0x785 DUP3 PUSH2 0xAC5 JUMP JUMPDEST PUSH1 0x20 DUP3 ADD SWAP1 POP SWAP2 SWAP1 POP JUMP JUMPDEST PUSH2 0x799 DUP2 PUSH2 0x91B JUMP JUMPDEST DUP3 MSTORE POP POP JUMP JUMPDEST PUSH1 0x0 PUSH1 0x20 DUP3 ADD SWAP1 POP PUSH2 0x7B4 PUSH1 0x0 DUP4 ADD DUP5 PUSH2 0x6BC JUMP JUMPDEST SWAP3 SWAP2 POP POP JUMP JUMPDEST PUSH1 0x0 PUSH1 0x20 DUP3 ADD SWAP1 POP DUP2 DUP2 SUB PUSH1 0x0 DUP4 ADD MSTORE PUSH2 0x7D4 DUP2 DUP5 PUSH2 0x6CB JUMP JUMPDEST SWAP1 POP SWAP3 SWAP2 POP POP JUMP JUMPDEST PUSH1 0x0 PUSH1 0x20 DUP3 ADD SWAP1 POP DUP2 DUP2 SUB PUSH1 0x0 DUP4 ADD MSTORE PUSH2 0x7F5 DUP2 PUSH2 0x704 JUMP JUMPDEST SWAP1 POP SWAP2 SWAP1 POP JUMP JUMPDEST PUSH1 0x0 PUSH1 0x20 DUP3 ADD SWAP1 POP DUP2 DUP2 SUB PUSH1 0x0 DUP4 ADD MSTORE PUSH2 0x815 DUP2 PUSH2 0x727 JUMP JUMPDEST SWAP1 POP SWAP2 SWAP1 POP JUMP JUMPDEST PUSH1 0x0 PUSH1 0x20 DUP3 ADD SWAP1 POP DUP2 DUP2 SUB PUSH1 0x0 DUP4 ADD MSTORE PUSH2 0x835 DUP2 PUSH2 0x74A JUMP JUMPDEST SWAP1 POP SWAP2 SWAP1 POP JUMP JUMPDEST PUSH1 0x0 PUSH1 0x20 DUP3 ADD SWAP1 POP DUP2 DUP2 SUB PUSH1 0x0 DUP4 ADD MSTORE PUSH2 0x855 DUP2 PUSH2 0x76D JUMP JUMPDEST SWAP1 POP SWAP2 SWAP1 POP JUMP JUMPDEST PUSH1 0x0 PUSH1 0x20 DUP3 ADD SWAP1 POP PUSH2 0x871 PUSH1 0x0 DUP4 ADD DUP5 PUSH2 0x790 JUMP JUMPDEST SWAP3 SWAP2 POP POP JUMP JUMPDEST PUSH1 0x0 DUP2 MLOAD SWAP1 POP SWAP2 SWAP1 POP JUMP JUMPDEST PUSH1 0x0 DUP3 DUP3 MSTORE PUSH1 0x20 DUP3 ADD SWAP1 POP SWAP3 SWAP2 POP POP JUMP JUMPDEST PUSH1 0x0 PUSH2 0x89E DUP3 PUSH2 0x91B JUMP JUMPDEST SWAP2 POP PUSH2 0x8A9 DUP4 PUSH2 0x91B JUMP JUMPDEST SWAP3 POP DUP3 PUSH32 0xFFFFFFFFFFFFFFFFFFFFFFFFFFFFFFFFFFFFFFFFFFFFFFFFFFFFFFFFFFFFFFFF SUB DUP3 GT ISZERO PUSH2 0x8DE JUMPI PUSH2 0x8DD PUSH2 0x98A JUMP JUMPDEST JUMPDEST DUP3 DUP3 ADD SWAP1 POP SWAP3 SWAP2 POP POP JUMP JUMPDEST PUSH1 0x0 PUSH2 0x8F4 DUP3 PUSH2 0x8FB JUMP JUMPDEST SWAP1 POP SWAP2 SWAP1 POP JUMP JUMPDEST PUSH1 0x0 PUSH20 0xFFFFFFFFFFFFFFFFFFFFFFFFFFFFFFFFFFFFFFFF DUP3 AND SWAP1 POP SWAP2 SWAP1 POP JUMP JUMPDEST PUSH1 0x0 DUP2 SWAP1 POP SWAP2 SWAP1 POP JUMP JUMPDEST PUSH1 0x0 JUMPDEST DUP4 DUP2 LT ISZERO PUSH2 0x943 JUMPI DUP1 DUP3 ADD MLOAD DUP2 DUP5 ADD MSTORE PUSH1 0x20 DUP2 ADD SWAP1 POP PUSH2 0x928 JUMP JUMPDEST DUP4 DUP2 GT ISZERO PUSH2 0x952 JUMPI PUSH1 0x0 DUP5 DUP5 ADD MSTORE JUMPDEST POP POP POP POP JUMP JUMPDEST PUSH1 0x0 PUSH1 0x2 DUP3 DIV SWAP1 POP PUSH1 0x1 DUP3 AND DUP1 PUSH2 0x970 JUMPI PUSH1 0x7F DUP3 AND SWAP2 POP JUMPDEST PUSH1 0x20 DUP3 LT DUP2 EQ ISZERO PUSH2 0x984 JUMPI PUSH2 0x983 PUSH2 0x9B9 JUMP JUMPDEST JUMPDEST POP SWAP2 SWAP1 POP JUMP JUMPDEST PUSH32 0x4E487B7100000000000000000000000000000000000000000000000000000000 PUSH1 0x0 MSTORE PUSH1 0x11 PUSH1 0x4 MSTORE PUSH1 0x24 PUSH1 0x0 REVERT JUMPDEST PUSH32 0x4E487B7100000000000000000000000000000000000000000000000000000000 PUSH1 0x0 MSTORE PUSH1 0x22 PUSH1 0x4 MSTORE PUSH1 0x24 PUSH1 0x0 REVERT JUMPDEST PUSH1 0x0 DUP1 REVERT JUMPDEST PUSH1 0x0 PUSH1 0x1F NOT PUSH1 0x1F DUP4 ADD AND SWAP1 POP SWAP2 SWAP1 POP JUMP JUMPDEST PUSH32 0x4552433732313A20746F6B656E20616C7265616479206D696E74656400000000 PUSH1 0x0 DUP3 ADD MSTORE POP JUMP JUMPDEST PUSH32 0x4552433732313A2062616C616E636520717565727920666F7220746865207A65 PUSH1 0x0 DUP3 ADD MSTORE PUSH32 0x726F206164647265737300000000000000000000000000000000000000000000 PUSH1 0x20 DUP3 ADD MSTORE POP JUMP JUMPDEST PUSH32 0x4552433732313A206F776E657220717565727920666F72206E6F6E6578697374 PUSH1 0x0 DUP3 ADD MSTORE PUSH32 0x656E7420746F6B656E0000000000000000000000000000000000000000000000 PUSH1 0x20 DUP3 ADD MSTORE POP JUMP JUMPDEST PUSH32 0x4552433732313A206D696E7420746F20746865207A65726F2061646472657373 PUSH1 0x0 DUP3 ADD MSTORE POP JUMP JUMPDEST PUSH2 0xAF7 DUP2 PUSH2 0x8E9 JUMP JUMPDEST DUP2 EQ PUSH2 0xB02 JUMPI PUSH1 0x0 DUP1 REVERT JUMPDEST POP JUMP JUMPDEST PUSH2 0xB0E DUP2 PUSH2 0x91B JUMP JUMPDEST DUP2 EQ PUSH2 0xB19 JUMPI PUSH1 0x0 DUP1 REVERT JUMPDEST POP JUMP INVALID LOG2 PUSH5 0x6970667358 0x22 SLT KECCAK256 0xAC GASLIMIT 0xFB 0xC6 SWAP4 SGT 0x49 SHR 0x5E 0x4A KECCAK256 DUP1 INVALID SELFBALANCE 0xE4 PUSH11 0x724A4E0301F4916CF20C89 PUSH30 0x64977BB864736F6C63430008070033000000000000000000000000000000 "
				},
				"gasEstimates": {
					"creation": {
						"codeDepositCost": "579600",
						"executionCost": "infinite",
						"totalCost": "infinite"
					},
					"external": {
						"balanceOf(address)": "2923",
						"mint(address,uint256)": "infinite",
						"name()": "infinite",
						"ownerOf(uint256)": "2999",
						"symbol()": "infinite"
					},
					"internal": {
						"_afterTokenTransfer(address,address,uint256)": "15",
						"_baseURI()": "infinite",
						"_beforeTokenTransfer(address,address,uint256)": "15",
						"_exists(uint256)": "2269",
						"_mint(address,uint256)": "infinite"
					}
				},
				"methodIdentifiers": {
					"balanceOf(address)": "70a08231",
					"mint(address,uint256)": "40c10f19",
					"name()": "06fdde03",
					"ownerOf(uint256)": "6352211e",
					"symbol()": "95d89b41"
				}
			},
			"userdoc": {
				"kind": "user",
				"methods": {},
				"version": 1
			}
		}
	}
}