{
	"contracts/BS_ERC721.sol": {
		"BlueSurgeNFT": {
			"abi": [
				{
					"inputs": [],
					"stateMutability": "nonpayable",
					"type": "constructor"
				},
				{
					"anonymous": false,
					"inputs": [
						{
							"indexed": true,
							"internalType": "address",
							"name": "from",
							"type": "address"
						},
						{
							"indexed": true,
							"internalType": "address",
							"name": "to",
							"type": "address"
						},
						{
							"indexed": true,
							"internalType": "uint256",
							"name": "tokenId",
							"type": "uint256"
						}
					],
					"name": "Transfer",
					"type": "event"
				},
				{
					"inputs": [
						{
							"internalType": "address",
							"name": "owner",
							"type": "address"
						}
					],
					"name": "balanceOf",
					"outputs": [
						{
							"internalType": "uint256",
							"name": "",
							"type": "uint256"
						}
					],
					"stateMutability": "view",
					"type": "function"
				},
				{
					"inputs": [
						{
							"internalType": "address",
							"name": "_to",
							"type": "address"
						},
						{
							"internalType": "uint256",
							"name": "_tokenId",
							"type": "uint256"
						},
						{
							"internalType": "uint256",
							"name": "_tokenNo",
							"type": "uint256"
						}
					],
					"name": "mint",
					"outputs": [],
					"stateMutability": "nonpayable",
					"type": "function"
				},
				{
					"inputs": [],
					"name": "name",
					"outputs": [
						{
							"internalType": "string",
							"name": "",
							"type": "string"
						}
					],
					"stateMutability": "view",
					"type": "function"
				},
				{
					"inputs": [
						{
							"internalType": "uint256",
							"name": "tokenId",
							"type": "uint256"
						}
					],
					"name": "ownerOf",
					"outputs": [
						{
							"internalType": "address",
							"name": "",
							"type": "address"
						}
					],
					"stateMutability": "view",
					"type": "function"
				},
				{
					"inputs": [],
					"name": "symbol",
					"outputs": [
						{
							"internalType": "string",
							"name": "",
							"type": "string"
						}
					],
					"stateMutability": "view",
					"type": "function"
				}
			],
			"devdoc": {
				"kind": "dev",
				"methods": {},
				"version": 1
			},
			"evm": {
				"assembly": "    /* \"contracts/BS_ERC721.sol\":63:1925  contract BlueSurgeNFT{\r... */\n  mstore(0x40, 0x80)\n    /* \"contracts/BS_ERC721.sol\":271:352  constructor() {\r... */\n  callvalue\n  dup1\n  iszero\n  tag_1\n  jumpi\n  0x00\n  dup1\n  revert\ntag_1:\n  pop\n    /* \"contracts/BS_ERC721.sol\":296:319  name = \"BlueSurgeToken\" */\n  mload(0x40)\n  dup1\n  0x40\n  add\n  0x40\n  mstore\n  dup1\n  0x0e\n  dup2\n  mstore\n  0x20\n  add\n  0x426c75655375726765546f6b656e000000000000000000000000000000000000\n  dup2\n  mstore\n  pop\n    /* \"contracts/BS_ERC721.sol\":296:300  name */\n  0x00\n    /* \"contracts/BS_ERC721.sol\":296:319  name = \"BlueSurgeToken\" */\n  swap1\n  dup1\n  mload\n  swap1\n  0x20\n  add\n  swap1\n  tag_4\n  swap3\n  swap2\n  swap1\n  tag_5\n  jump\t// in\ntag_4:\n  pop\n    /* \"contracts/BS_ERC721.sol\":330:344  symbol = \"BST\" */\n  mload(0x40)\n  dup1\n  0x40\n  add\n  0x40\n  mstore\n  dup1\n  0x03\n  dup2\n  mstore\n  0x20\n  add\n  0x4253540000000000000000000000000000000000000000000000000000000000\n  dup2\n  mstore\n  pop\n    /* \"contracts/BS_ERC721.sol\":330:336  symbol */\n  0x01\n    /* \"contracts/BS_ERC721.sol\":330:344  symbol = \"BST\" */\n  swap1\n  dup1\n  mload\n  swap1\n  0x20\n  add\n  swap1\n  tag_6\n  swap3\n  swap2\n  swap1\n  tag_5\n  jump\t// in\ntag_6:\n  pop\n    /* \"contracts/BS_ERC721.sol\":63:1925  contract BlueSurgeNFT{\r... */\n  jump(tag_7)\ntag_5:\n  dup3\n  dup1\n  sload\n  tag_8\n  swap1\n  tag_9\n  jump\t// in\ntag_8:\n  swap1\n  0x00\n  mstore\n  keccak256(0x00, 0x20)\n  swap1\n  0x1f\n  add\n  0x20\n  swap1\n  div\n  dup2\n  add\n  swap3\n  dup3\n  tag_11\n  jumpi\n  0x00\n  dup6\n  sstore\n  jump(tag_10)\ntag_11:\n  dup3\n  0x1f\n  lt\n  tag_12\n  jumpi\n  dup1\n  mload\n  not(0xff)\n  and\n  dup4\n  dup1\n  add\n  or\n  dup6\n  sstore\n  jump(tag_10)\ntag_12:\n  dup3\n  dup1\n  add\n  0x01\n  add\n  dup6\n  sstore\n  dup3\n  iszero\n  tag_10\n  jumpi\n  swap2\n  dup3\n  add\ntag_13:\n  dup3\n  dup2\n  gt\n  iszero\n  tag_14\n  jumpi\n  dup3\n  mload\n  dup3\n  sstore\n  swap2\n  0x20\n  add\n  swap2\n  swap1\n  0x01\n  add\n  swap1\n  jump(tag_13)\ntag_14:\ntag_10:\n  pop\n  swap1\n  pop\n  tag_15\n  swap2\n  swap1\n  tag_16\n  jump\t// in\ntag_15:\n  pop\n  swap1\n  jump\t// out\ntag_16:\ntag_17:\n  dup1\n  dup3\n  gt\n  iszero\n  tag_18\n  jumpi\n  0x00\n  dup2\n  0x00\n  swap1\n  sstore\n  pop\n  0x01\n  add\n  jump(tag_17)\ntag_18:\n  pop\n  swap1\n  jump\t// out\n    /* \"#utility.yul\":7:327   */\ntag_9:\n    /* \"#utility.yul\":51:57   */\n  0x00\n    /* \"#utility.yul\":88:89   */\n  0x02\n    /* \"#utility.yul\":82:86   */\n  dup3\n    /* \"#utility.yul\":78:90   */\n  div\n    /* \"#utility.yul\":68:90   */\n  swap1\n  pop\n    /* \"#utility.yul\":135:136   */\n  0x01\n    /* \"#utility.yul\":129:133   */\n  dup3\n    /* \"#utility.yul\":125:137   */\n  and\n    /* \"#utility.yul\":156:174   */\n  dup1\n    /* \"#utility.yul\":146:227   */\n  tag_21\n  jumpi\n    /* \"#utility.yul\":212:216   */\n  0x7f\n    /* \"#utility.yul\":204:210   */\n  dup3\n    /* \"#utility.yul\":200:217   */\n  and\n    /* \"#utility.yul\":190:217   */\n  swap2\n  pop\n    /* \"#utility.yul\":146:227   */\ntag_21:\n    /* \"#utility.yul\":274:276   */\n  0x20\n    /* \"#utility.yul\":266:272   */\n  dup3\n    /* \"#utility.yul\":263:277   */\n  lt\n    /* \"#utility.yul\":243:261   */\n  dup2\n    /* \"#utility.yul\":240:278   */\n  eq\n    /* \"#utility.yul\":237:321   */\n  iszero\n  tag_22\n  jumpi\n    /* \"#utility.yul\":293:311   */\n  tag_23\n  tag_24\n  jump\t// in\ntag_23:\n    /* \"#utility.yul\":237:321   */\ntag_22:\n    /* \"#utility.yul\":58:327   */\n  pop\n    /* \"#utility.yul\":7:327   */\n  swap2\n  swap1\n  pop\n  jump\t// out\n    /* \"#utility.yul\":333:513   */\ntag_24:\n    /* \"#utility.yul\":381:458   */\n  0x4e487b7100000000000000000000000000000000000000000000000000000000\n    /* \"#utility.yul\":378:379   */\n  0x00\n    /* \"#utility.yul\":371:459   */\n  mstore\n    /* \"#utility.yul\":478:482   */\n  0x22\n    /* \"#utility.yul\":475:476   */\n  0x04\n    /* \"#utility.yul\":468:483   */\n  mstore\n    /* \"#utility.yul\":502:506   */\n  0x24\n    /* \"#utility.yul\":499:500   */\n  0x00\n    /* \"#utility.yul\":492:507   */\n  revert\n    /* \"contracts/BS_ERC721.sol\":63:1925  contract BlueSurgeNFT{\r... */\ntag_7:\n  dataSize(sub_0)\n  dup1\n  dataOffset(sub_0)\n  0x00\n  codecopy\n  0x00\n  return\nstop\n\nsub_0: assembly {\n        /* \"contracts/BS_ERC721.sol\":63:1925  contract BlueSurgeNFT{\r... */\n      mstore(0x40, 0x80)\n      callvalue\n      dup1\n      iszero\n      tag_1\n      jumpi\n      0x00\n      dup1\n      revert\n    tag_1:\n      pop\n      jumpi(tag_2, lt(calldatasize, 0x04))\n      shr(0xe0, calldataload(0x00))\n      dup1\n      0x06fdde03\n      eq\n      tag_3\n      jumpi\n      dup1\n      0x156e29f6\n      eq\n      tag_4\n      jumpi\n      dup1\n      0x6352211e\n      eq\n      tag_5\n      jumpi\n      dup1\n      0x70a08231\n      eq\n      tag_6\n      jumpi\n      dup1\n      0x95d89b41\n      eq\n      tag_7\n      jumpi\n    tag_2:\n      0x00\n      dup1\n      revert\n        /* \"contracts/BS_ERC721.sol\":113:131  string public name */\n    tag_3:\n      tag_8\n      tag_9\n      jump\t// in\n    tag_8:\n      mload(0x40)\n      tag_10\n      swap2\n      swap1\n      tag_11\n      jump\t// in\n    tag_10:\n      mload(0x40)\n      dup1\n      swap2\n      sub\n      swap1\n      return\n        /* \"contracts/BS_ERC721.sol\":365:477  function mint(address _to, uint256 _tokenId, uint _tokenNo) external {\r... */\n    tag_4:\n      tag_12\n      0x04\n      dup1\n      calldatasize\n      sub\n      dup2\n      add\n      swap1\n      tag_13\n      swap2\n      swap1\n      tag_14\n      jump\t// in\n    tag_13:\n      tag_15\n      jump\t// in\n    tag_12:\n      stop\n        /* \"contracts/BS_ERC721.sol\":593:823  function ownerOf(uint256 tokenId) public view virtual returns (address) {\r... */\n    tag_5:\n      tag_16\n      0x04\n      dup1\n      calldatasize\n      sub\n      dup2\n      add\n      swap1\n      tag_17\n      swap2\n      swap1\n      tag_18\n      jump\t// in\n    tag_17:\n      tag_19\n      jump\t// in\n    tag_16:\n      mload(0x40)\n      tag_20\n      swap2\n      swap1\n      tag_21\n      jump\t// in\n    tag_20:\n      mload(0x40)\n      dup1\n      swap2\n      sub\n      swap1\n      return\n        /* \"contracts/BS_ERC721.sol\":831:1030  function balanceOf(address owner) public view virtual returns (uint256) {\r... */\n    tag_6:\n      tag_22\n      0x04\n      dup1\n      calldatasize\n      sub\n      dup2\n      add\n      swap1\n      tag_23\n      swap2\n      swap1\n      tag_24\n      jump\t// in\n    tag_23:\n      tag_25\n      jump\t// in\n    tag_22:\n      mload(0x40)\n      tag_26\n      swap2\n      swap1\n      tag_27\n      jump\t// in\n    tag_26:\n      mload(0x40)\n      dup1\n      swap2\n      sub\n      swap1\n      return\n        /* \"contracts/BS_ERC721.sol\":138:158  string public symbol */\n    tag_7:\n      tag_28\n      tag_29\n      jump\t// in\n    tag_28:\n      mload(0x40)\n      tag_30\n      swap2\n      swap1\n      tag_11\n      jump\t// in\n    tag_30:\n      mload(0x40)\n      dup1\n      swap2\n      sub\n      swap1\n      return\n        /* \"contracts/BS_ERC721.sol\":113:131  string public name */\n    tag_9:\n      0x00\n      dup1\n      sload\n      tag_31\n      swap1\n      tag_32\n      jump\t// in\n    tag_31:\n      dup1\n      0x1f\n      add\n      0x20\n      dup1\n      swap2\n      div\n      mul\n      0x20\n      add\n      mload(0x40)\n      swap1\n      dup2\n      add\n      0x40\n      mstore\n      dup1\n      swap3\n      swap2\n      swap1\n      dup2\n      dup2\n      mstore\n      0x20\n      add\n      dup3\n      dup1\n      sload\n      tag_33\n      swap1\n      tag_32\n      jump\t// in\n    tag_33:\n      dup1\n      iszero\n      tag_34\n      jumpi\n      dup1\n      0x1f\n      lt\n      tag_35\n      jumpi\n      0x0100\n      dup1\n      dup4\n      sload\n      div\n      mul\n      dup4\n      mstore\n      swap2\n      0x20\n      add\n      swap2\n      jump(tag_34)\n    tag_35:\n      dup3\n      add\n      swap2\n      swap1\n      0x00\n      mstore\n      keccak256(0x00, 0x20)\n      swap1\n    tag_36:\n      dup2\n      sload\n      dup2\n      mstore\n      swap1\n      0x01\n      add\n      swap1\n      0x20\n      add\n      dup1\n      dup4\n      gt\n      tag_36\n      jumpi\n      dup3\n      swap1\n      sub\n      0x1f\n      and\n      dup3\n      add\n      swap2\n    tag_34:\n      pop\n      pop\n      pop\n      pop\n      pop\n      dup2\n      jump\t// out\n        /* \"contracts/BS_ERC721.sol\":365:477  function mint(address _to, uint256 _tokenId, uint _tokenNo) external {\r... */\n    tag_15:\n        /* \"contracts/BS_ERC721.sol\":441:471  _mint(_to, _tokenId, _tokenNo) */\n      tag_38\n        /* \"contracts/BS_ERC721.sol\":447:450  _to */\n      dup4\n        /* \"contracts/BS_ERC721.sol\":452:460  _tokenId */\n      dup4\n        /* \"contracts/BS_ERC721.sol\":462:470  _tokenNo */\n      dup4\n        /* \"contracts/BS_ERC721.sol\":441:446  _mint */\n      tag_39\n        /* \"contracts/BS_ERC721.sol\":441:471  _mint(_to, _tokenId, _tokenNo) */\n      jump\t// in\n    tag_38:\n        /* \"contracts/BS_ERC721.sol\":365:477  function mint(address _to, uint256 _tokenId, uint _tokenNo) external {\r... */\n      pop\n      pop\n      pop\n      jump\t// out\n        /* \"contracts/BS_ERC721.sol\":593:823  function ownerOf(uint256 tokenId) public view virtual returns (address) {\r... */\n    tag_19:\n        /* \"contracts/BS_ERC721.sol\":656:663  address */\n      0x00\n        /* \"contracts/BS_ERC721.sol\":676:689  address owner */\n      dup1\n        /* \"contracts/BS_ERC721.sol\":692:699  _owners */\n      0x02\n        /* \"contracts/BS_ERC721.sol\":692:708  _owners[tokenId] */\n      0x00\n        /* \"contracts/BS_ERC721.sol\":700:707  tokenId */\n      dup5\n        /* \"contracts/BS_ERC721.sol\":692:708  _owners[tokenId] */\n      dup2\n      mstore\n      0x20\n      add\n      swap1\n      dup2\n      mstore\n      0x20\n      add\n      0x00\n      keccak256\n      0x00\n      swap1\n      sload\n      swap1\n      0x0100\n      exp\n      swap1\n      div\n      0xffffffffffffffffffffffffffffffffffffffff\n      and\n        /* \"contracts/BS_ERC721.sol\":676:708  address owner = _owners[tokenId] */\n      swap1\n      pop\n        /* \"contracts/BS_ERC721.sol\":744:745  0 */\n      0x00\n        /* \"contracts/BS_ERC721.sol\":727:746  owner != address(0) */\n      0xffffffffffffffffffffffffffffffffffffffff\n      and\n        /* \"contracts/BS_ERC721.sol\":727:732  owner */\n      dup2\n        /* \"contracts/BS_ERC721.sol\":727:746  owner != address(0) */\n      0xffffffffffffffffffffffffffffffffffffffff\n      and\n      eq\n      iszero\n        /* \"contracts/BS_ERC721.sol\":719:792  require(owner != address(0), \"ERC721: owner query for nonexistent token\") */\n      tag_41\n      jumpi\n      mload(0x40)\n      0x08c379a000000000000000000000000000000000000000000000000000000000\n      dup2\n      mstore\n      0x04\n      add\n      tag_42\n      swap1\n      tag_43\n      jump\t// in\n    tag_42:\n      mload(0x40)\n      dup1\n      swap2\n      sub\n      swap1\n      revert\n    tag_41:\n        /* \"contracts/BS_ERC721.sol\":810:815  owner */\n      dup1\n        /* \"contracts/BS_ERC721.sol\":803:815  return owner */\n      swap2\n      pop\n      pop\n        /* \"contracts/BS_ERC721.sol\":593:823  function ownerOf(uint256 tokenId) public view virtual returns (address) {\r... */\n      swap2\n      swap1\n      pop\n      jump\t// out\n        /* \"contracts/BS_ERC721.sol\":831:1030  function balanceOf(address owner) public view virtual returns (uint256) {\r... */\n    tag_25:\n        /* \"contracts/BS_ERC721.sol\":894:901  uint256 */\n      0x00\n        /* \"contracts/BS_ERC721.sol\":939:940  0 */\n      dup1\n        /* \"contracts/BS_ERC721.sol\":922:941  owner != address(0) */\n      0xffffffffffffffffffffffffffffffffffffffff\n      and\n        /* \"contracts/BS_ERC721.sol\":922:927  owner */\n      dup3\n        /* \"contracts/BS_ERC721.sol\":922:941  owner != address(0) */\n      0xffffffffffffffffffffffffffffffffffffffff\n      and\n      eq\n      iszero\n        /* \"contracts/BS_ERC721.sol\":914:988  require(owner != address(0), \"ERC721: balance query for the zero address\") */\n      tag_45\n      jumpi\n      mload(0x40)\n      0x08c379a000000000000000000000000000000000000000000000000000000000\n      dup2\n      mstore\n      0x04\n      add\n      tag_46\n      swap1\n      tag_47\n      jump\t// in\n    tag_46:\n      mload(0x40)\n      dup1\n      swap2\n      sub\n      swap1\n      revert\n    tag_45:\n        /* \"contracts/BS_ERC721.sol\":1006:1015  _balances */\n      0x03\n        /* \"contracts/BS_ERC721.sol\":1006:1022  _balances[owner] */\n      0x00\n        /* \"contracts/BS_ERC721.sol\":1016:1021  owner */\n      dup4\n        /* \"contracts/BS_ERC721.sol\":1006:1022  _balances[owner] */\n      0xffffffffffffffffffffffffffffffffffffffff\n      and\n      0xffffffffffffffffffffffffffffffffffffffff\n      and\n      dup2\n      mstore\n      0x20\n      add\n      swap1\n      dup2\n      mstore\n      0x20\n      add\n      0x00\n      keccak256\n      sload\n        /* \"contracts/BS_ERC721.sol\":999:1022  return _balances[owner] */\n      swap1\n      pop\n        /* \"contracts/BS_ERC721.sol\":831:1030  function balanceOf(address owner) public view virtual returns (uint256) {\r... */\n      swap2\n      swap1\n      pop\n      jump\t// out\n        /* \"contracts/BS_ERC721.sol\":138:158  string public symbol */\n    tag_29:\n      0x01\n      dup1\n      sload\n      tag_48\n      swap1\n      tag_32\n      jump\t// in\n    tag_48:\n      dup1\n      0x1f\n      add\n      0x20\n      dup1\n      swap2\n      div\n      mul\n      0x20\n      add\n      mload(0x40)\n      swap1\n      dup2\n      add\n      0x40\n      mstore\n      dup1\n      swap3\n      swap2\n      swap1\n      dup2\n      dup2\n      mstore\n      0x20\n      add\n      dup3\n      dup1\n      sload\n      tag_49\n      swap1\n      tag_32\n      jump\t// in\n    tag_49:\n      dup1\n      iszero\n      tag_50\n      jumpi\n      dup1\n      0x1f\n      lt\n      tag_51\n      jumpi\n      0x0100\n      dup1\n      dup4\n      sload\n      div\n      mul\n      dup4\n      mstore\n      swap2\n      0x20\n      add\n      swap2\n      jump(tag_50)\n    tag_51:\n      dup3\n      add\n      swap2\n      swap1\n      0x00\n      mstore\n      keccak256(0x00, 0x20)\n      swap1\n    tag_52:\n      dup2\n      sload\n      dup2\n      mstore\n      swap1\n      0x01\n      add\n      swap1\n      0x20\n      add\n      dup1\n      dup4\n      gt\n      tag_52\n      jumpi\n      dup3\n      swap1\n      sub\n      0x1f\n      and\n      dup3\n      add\n      swap2\n    tag_50:\n      pop\n      pop\n      pop\n      pop\n      pop\n      dup2\n      jump\t// out\n        /* \"contracts/BS_ERC721.sol\":1263:1653  function _mint(address to, uint256 tokenId, uint tokenNo) internal virtual {\r... */\n    tag_39:\n        /* \"contracts/BS_ERC721.sol\":1371:1372  0 */\n      0x00\n        /* \"contracts/BS_ERC721.sol\":1357:1373  to != address(0) */\n      0xffffffffffffffffffffffffffffffffffffffff\n      and\n        /* \"contracts/BS_ERC721.sol\":1357:1359  to */\n      dup4\n        /* \"contracts/BS_ERC721.sol\":1357:1373  to != address(0) */\n      0xffffffffffffffffffffffffffffffffffffffff\n      and\n      eq\n      iszero\n        /* \"contracts/BS_ERC721.sol\":1349:1410  require(to != address(0), \"ERC721: mint to the zero address\") */\n      tag_54\n      jumpi\n      mload(0x40)\n      0x08c379a000000000000000000000000000000000000000000000000000000000\n      dup2\n      mstore\n      0x04\n      add\n      tag_55\n      swap1\n      tag_56\n      jump\t// in\n    tag_55:\n      mload(0x40)\n      dup1\n      swap2\n      sub\n      swap1\n      revert\n    tag_54:\n        /* \"contracts/BS_ERC721.sol\":1423:1468  _beforeTokenTransfer(address(0), to, tokenId) */\n      tag_57\n        /* \"contracts/BS_ERC721.sol\":1452:1453  0 */\n      0x00\n        /* \"contracts/BS_ERC721.sol\":1456:1458  to */\n      dup5\n        /* \"contracts/BS_ERC721.sol\":1460:1467  tokenId */\n      dup5\n        /* \"contracts/BS_ERC721.sol\":1423:1443  _beforeTokenTransfer */\n      tag_58\n        /* \"contracts/BS_ERC721.sol\":1423:1468  _beforeTokenTransfer(address(0), to, tokenId) */\n      jump\t// in\n    tag_57:\n        /* \"contracts/BS_ERC721.sol\":1498:1505  tokenNo */\n      dup1\n        /* \"contracts/BS_ERC721.sol\":1481:1490  _balances */\n      0x03\n        /* \"contracts/BS_ERC721.sol\":1481:1494  _balances[to] */\n      0x00\n        /* \"contracts/BS_ERC721.sol\":1491:1493  to */\n      dup6\n        /* \"contracts/BS_ERC721.sol\":1481:1494  _balances[to] */\n      0xffffffffffffffffffffffffffffffffffffffff\n      and\n      0xffffffffffffffffffffffffffffffffffffffff\n      and\n      dup2\n      mstore\n      0x20\n      add\n      swap1\n      dup2\n      mstore\n      0x20\n      add\n      0x00\n      keccak256\n      0x00\n        /* \"contracts/BS_ERC721.sol\":1481:1505  _balances[to] += tokenNo */\n      dup3\n      dup3\n      sload\n      tag_59\n      swap2\n      swap1\n      tag_60\n      jump\t// in\n    tag_59:\n      swap3\n      pop\n      pop\n      dup2\n      swap1\n      sstore\n      pop\n        /* \"contracts/BS_ERC721.sol\":1535:1537  to */\n      dup3\n        /* \"contracts/BS_ERC721.sol\":1516:1523  _owners */\n      0x02\n        /* \"contracts/BS_ERC721.sol\":1516:1532  _owners[tokenId] */\n      0x00\n        /* \"contracts/BS_ERC721.sol\":1524:1531  tokenId */\n      dup5\n        /* \"contracts/BS_ERC721.sol\":1516:1532  _owners[tokenId] */\n      dup2\n      mstore\n      0x20\n      add\n      swap1\n      dup2\n      mstore\n      0x20\n      add\n      0x00\n      keccak256\n      0x00\n        /* \"contracts/BS_ERC721.sol\":1516:1537  _owners[tokenId] = to */\n      0x0100\n      exp\n      dup2\n      sload\n      dup2\n      0xffffffffffffffffffffffffffffffffffffffff\n      mul\n      not\n      and\n      swap1\n      dup4\n      0xffffffffffffffffffffffffffffffffffffffff\n      and\n      mul\n      or\n      swap1\n      sstore\n      pop\n        /* \"contracts/BS_ERC721.sol\":1580:1587  tokenId */\n      dup2\n        /* \"contracts/BS_ERC721.sol\":1576:1578  to */\n      dup4\n        /* \"contracts/BS_ERC721.sol\":1555:1588  Transfer(address(0), to, tokenId) */\n      0xffffffffffffffffffffffffffffffffffffffff\n      and\n        /* \"contracts/BS_ERC721.sol\":1572:1573  0 */\n      0x00\n        /* \"contracts/BS_ERC721.sol\":1555:1588  Transfer(address(0), to, tokenId) */\n      0xffffffffffffffffffffffffffffffffffffffff\n      and\n      0xddf252ad1be2c89b69c2b068fc378daa952ba7f163c4a11628f55a4df523b3ef\n      mload(0x40)\n      mload(0x40)\n      dup1\n      swap2\n      sub\n      swap1\n      log4\n        /* \"contracts/BS_ERC721.sol\":1601:1645  _afterTokenTransfer(address(0), to, tokenId) */\n      tag_61\n        /* \"contracts/BS_ERC721.sol\":1629:1630  0 */\n      0x00\n        /* \"contracts/BS_ERC721.sol\":1633:1635  to */\n      dup5\n        /* \"contracts/BS_ERC721.sol\":1637:1644  tokenId */\n      dup5\n        /* \"contracts/BS_ERC721.sol\":1601:1620  _afterTokenTransfer */\n      tag_62\n        /* \"contracts/BS_ERC721.sol\":1601:1645  _afterTokenTransfer(address(0), to, tokenId) */\n      jump\t// in\n    tag_61:\n        /* \"contracts/BS_ERC721.sol\":1263:1653  function _mint(address to, uint256 tokenId, uint tokenNo) internal virtual {\r... */\n      pop\n      pop\n      pop\n      jump\t// out\n        /* \"contracts/BS_ERC721.sol\":1661:1787  function _beforeTokenTransfer(\r... */\n    tag_58:\n      pop\n      pop\n      pop\n      jump\t// out\n        /* \"contracts/BS_ERC721.sol\":1795:1920  function _afterTokenTransfer(\r... */\n    tag_62:\n      pop\n      pop\n      pop\n      jump\t// out\n        /* \"#utility.yul\":7:146   */\n    tag_66:\n        /* \"#utility.yul\":53:58   */\n      0x00\n        /* \"#utility.yul\":91:97   */\n      dup2\n        /* \"#utility.yul\":78:98   */\n      calldataload\n        /* \"#utility.yul\":69:98   */\n      swap1\n      pop\n        /* \"#utility.yul\":107:140   */\n      tag_68\n        /* \"#utility.yul\":134:139   */\n      dup2\n        /* \"#utility.yul\":107:140   */\n      tag_69\n      jump\t// in\n    tag_68:\n        /* \"#utility.yul\":7:146   */\n      swap3\n      swap2\n      pop\n      pop\n      jump\t// out\n        /* \"#utility.yul\":152:291   */\n    tag_70:\n        /* \"#utility.yul\":198:203   */\n      0x00\n        /* \"#utility.yul\":236:242   */\n      dup2\n        /* \"#utility.yul\":223:243   */\n      calldataload\n        /* \"#utility.yul\":214:243   */\n      swap1\n      pop\n        /* \"#utility.yul\":252:285   */\n      tag_72\n        /* \"#utility.yul\":279:284   */\n      dup2\n        /* \"#utility.yul\":252:285   */\n      tag_73\n      jump\t// in\n    tag_72:\n        /* \"#utility.yul\":152:291   */\n      swap3\n      swap2\n      pop\n      pop\n      jump\t// out\n        /* \"#utility.yul\":297:626   */\n    tag_24:\n        /* \"#utility.yul\":356:362   */\n      0x00\n        /* \"#utility.yul\":405:407   */\n      0x20\n        /* \"#utility.yul\":393:402   */\n      dup3\n        /* \"#utility.yul\":384:391   */\n      dup5\n        /* \"#utility.yul\":380:403   */\n      sub\n        /* \"#utility.yul\":376:408   */\n      slt\n        /* \"#utility.yul\":373:492   */\n      iszero\n      tag_75\n      jumpi\n        /* \"#utility.yul\":411:490   */\n      tag_76\n      tag_77\n      jump\t// in\n    tag_76:\n        /* \"#utility.yul\":373:492   */\n    tag_75:\n        /* \"#utility.yul\":531:532   */\n      0x00\n        /* \"#utility.yul\":556:609   */\n      tag_78\n        /* \"#utility.yul\":601:608   */\n      dup5\n        /* \"#utility.yul\":592:598   */\n      dup3\n        /* \"#utility.yul\":581:590   */\n      dup6\n        /* \"#utility.yul\":577:599   */\n      add\n        /* \"#utility.yul\":556:609   */\n      tag_66\n      jump\t// in\n    tag_78:\n        /* \"#utility.yul\":546:609   */\n      swap2\n      pop\n        /* \"#utility.yul\":502:619   */\n      pop\n        /* \"#utility.yul\":297:626   */\n      swap3\n      swap2\n      pop\n      pop\n      jump\t// out\n        /* \"#utility.yul\":632:1251   */\n    tag_14:\n        /* \"#utility.yul\":709:715   */\n      0x00\n        /* \"#utility.yul\":717:723   */\n      dup1\n        /* \"#utility.yul\":725:731   */\n      0x00\n        /* \"#utility.yul\":774:776   */\n      0x60\n        /* \"#utility.yul\":762:771   */\n      dup5\n        /* \"#utility.yul\":753:760   */\n      dup7\n        /* \"#utility.yul\":749:772   */\n      sub\n        /* \"#utility.yul\":745:777   */\n      slt\n        /* \"#utility.yul\":742:861   */\n      iszero\n      tag_80\n      jumpi\n        /* \"#utility.yul\":780:859   */\n      tag_81\n      tag_77\n      jump\t// in\n    tag_81:\n        /* \"#utility.yul\":742:861   */\n    tag_80:\n        /* \"#utility.yul\":900:901   */\n      0x00\n        /* \"#utility.yul\":925:978   */\n      tag_82\n        /* \"#utility.yul\":970:977   */\n      dup7\n        /* \"#utility.yul\":961:967   */\n      dup3\n        /* \"#utility.yul\":950:959   */\n      dup8\n        /* \"#utility.yul\":946:968   */\n      add\n        /* \"#utility.yul\":925:978   */\n      tag_66\n      jump\t// in\n    tag_82:\n        /* \"#utility.yul\":915:978   */\n      swap4\n      pop\n        /* \"#utility.yul\":871:988   */\n      pop\n        /* \"#utility.yul\":1027:1029   */\n      0x20\n        /* \"#utility.yul\":1053:1106   */\n      tag_83\n        /* \"#utility.yul\":1098:1105   */\n      dup7\n        /* \"#utility.yul\":1089:1095   */\n      dup3\n        /* \"#utility.yul\":1078:1087   */\n      dup8\n        /* \"#utility.yul\":1074:1096   */\n      add\n        /* \"#utility.yul\":1053:1106   */\n      tag_70\n      jump\t// in\n    tag_83:\n        /* \"#utility.yul\":1043:1106   */\n      swap3\n      pop\n        /* \"#utility.yul\":998:1116   */\n      pop\n        /* \"#utility.yul\":1155:1157   */\n      0x40\n        /* \"#utility.yul\":1181:1234   */\n      tag_84\n        /* \"#utility.yul\":1226:1233   */\n      dup7\n        /* \"#utility.yul\":1217:1223   */\n      dup3\n        /* \"#utility.yul\":1206:1215   */\n      dup8\n        /* \"#utility.yul\":1202:1224   */\n      add\n        /* \"#utility.yul\":1181:1234   */\n      tag_70\n      jump\t// in\n    tag_84:\n        /* \"#utility.yul\":1171:1234   */\n      swap2\n      pop\n        /* \"#utility.yul\":1126:1244   */\n      pop\n        /* \"#utility.yul\":632:1251   */\n      swap3\n      pop\n      swap3\n      pop\n      swap3\n      jump\t// out\n        /* \"#utility.yul\":1257:1586   */\n    tag_18:\n        /* \"#utility.yul\":1316:1322   */\n      0x00\n        /* \"#utility.yul\":1365:1367   */\n      0x20\n        /* \"#utility.yul\":1353:1362   */\n      dup3\n        /* \"#utility.yul\":1344:1351   */\n      dup5\n        /* \"#utility.yul\":1340:1363   */\n      sub\n        /* \"#utility.yul\":1336:1368   */\n      slt\n        /* \"#utility.yul\":1333:1452   */\n      iszero\n      tag_86\n      jumpi\n        /* \"#utility.yul\":1371:1450   */\n      tag_87\n      tag_77\n      jump\t// in\n    tag_87:\n        /* \"#utility.yul\":1333:1452   */\n    tag_86:\n        /* \"#utility.yul\":1491:1492   */\n      0x00\n        /* \"#utility.yul\":1516:1569   */\n      tag_88\n        /* \"#utility.yul\":1561:1568   */\n      dup5\n        /* \"#utility.yul\":1552:1558   */\n      dup3\n        /* \"#utility.yul\":1541:1550   */\n      dup6\n        /* \"#utility.yul\":1537:1559   */\n      add\n        /* \"#utility.yul\":1516:1569   */\n      tag_70\n      jump\t// in\n    tag_88:\n        /* \"#utility.yul\":1506:1569   */\n      swap2\n      pop\n        /* \"#utility.yul\":1462:1579   */\n      pop\n        /* \"#utility.yul\":1257:1586   */\n      swap3\n      swap2\n      pop\n      pop\n      jump\t// out\n        /* \"#utility.yul\":1592:1710   */\n    tag_89:\n        /* \"#utility.yul\":1679:1703   */\n      tag_91\n        /* \"#utility.yul\":1697:1702   */\n      dup2\n        /* \"#utility.yul\":1679:1703   */\n      tag_92\n      jump\t// in\n    tag_91:\n        /* \"#utility.yul\":1674:1677   */\n      dup3\n        /* \"#utility.yul\":1667:1704   */\n      mstore\n        /* \"#utility.yul\":1592:1710   */\n      pop\n      pop\n      jump\t// out\n        /* \"#utility.yul\":1716:2080   */\n    tag_93:\n        /* \"#utility.yul\":1804:1807   */\n      0x00\n        /* \"#utility.yul\":1832:1871   */\n      tag_95\n        /* \"#utility.yul\":1865:1870   */\n      dup3\n        /* \"#utility.yul\":1832:1871   */\n      tag_96\n      jump\t// in\n    tag_95:\n        /* \"#utility.yul\":1887:1958   */\n      tag_97\n        /* \"#utility.yul\":1951:1957   */\n      dup2\n        /* \"#utility.yul\":1946:1949   */\n      dup6\n        /* \"#utility.yul\":1887:1958   */\n      tag_98\n      jump\t// in\n    tag_97:\n        /* \"#utility.yul\":1880:1958   */\n      swap4\n      pop\n        /* \"#utility.yul\":1967:2019   */\n      tag_99\n        /* \"#utility.yul\":2012:2018   */\n      dup2\n        /* \"#utility.yul\":2007:2010   */\n      dup6\n        /* \"#utility.yul\":2000:2004   */\n      0x20\n        /* \"#utility.yul\":1993:1998   */\n      dup7\n        /* \"#utility.yul\":1989:2005   */\n      add\n        /* \"#utility.yul\":1967:2019   */\n      tag_100\n      jump\t// in\n    tag_99:\n        /* \"#utility.yul\":2044:2073   */\n      tag_101\n        /* \"#utility.yul\":2066:2072   */\n      dup2\n        /* \"#utility.yul\":2044:2073   */\n      tag_102\n      jump\t// in\n    tag_101:\n        /* \"#utility.yul\":2039:2042   */\n      dup5\n        /* \"#utility.yul\":2035:2074   */\n      add\n        /* \"#utility.yul\":2028:2074   */\n      swap2\n      pop\n        /* \"#utility.yul\":1808:2080   */\n      pop\n        /* \"#utility.yul\":1716:2080   */\n      swap3\n      swap2\n      pop\n      pop\n      jump\t// out\n        /* \"#utility.yul\":2086:2452   */\n    tag_103:\n        /* \"#utility.yul\":2228:2231   */\n      0x00\n        /* \"#utility.yul\":2249:2316   */\n      tag_105\n        /* \"#utility.yul\":2313:2315   */\n      0x2a\n        /* \"#utility.yul\":2308:2311   */\n      dup4\n        /* \"#utility.yul\":2249:2316   */\n      tag_98\n      jump\t// in\n    tag_105:\n        /* \"#utility.yul\":2242:2316   */\n      swap2\n      pop\n        /* \"#utility.yul\":2325:2418   */\n      tag_106\n        /* \"#utility.yul\":2414:2417   */\n      dup3\n        /* \"#utility.yul\":2325:2418   */\n      tag_107\n      jump\t// in\n    tag_106:\n        /* \"#utility.yul\":2443:2445   */\n      0x40\n        /* \"#utility.yul\":2438:2441   */\n      dup3\n        /* \"#utility.yul\":2434:2446   */\n      add\n        /* \"#utility.yul\":2427:2446   */\n      swap1\n      pop\n        /* \"#utility.yul\":2086:2452   */\n      swap2\n      swap1\n      pop\n      jump\t// out\n        /* \"#utility.yul\":2458:2824   */\n    tag_108:\n        /* \"#utility.yul\":2600:2603   */\n      0x00\n        /* \"#utility.yul\":2621:2688   */\n      tag_110\n        /* \"#utility.yul\":2685:2687   */\n      0x29\n        /* \"#utility.yul\":2680:2683   */\n      dup4\n        /* \"#utility.yul\":2621:2688   */\n      tag_98\n      jump\t// in\n    tag_110:\n        /* \"#utility.yul\":2614:2688   */\n      swap2\n      pop\n        /* \"#utility.yul\":2697:2790   */\n      tag_111\n        /* \"#utility.yul\":2786:2789   */\n      dup3\n        /* \"#utility.yul\":2697:2790   */\n      tag_112\n      jump\t// in\n    tag_111:\n        /* \"#utility.yul\":2815:2817   */\n      0x40\n        /* \"#utility.yul\":2810:2813   */\n      dup3\n        /* \"#utility.yul\":2806:2818   */\n      add\n        /* \"#utility.yul\":2799:2818   */\n      swap1\n      pop\n        /* \"#utility.yul\":2458:2824   */\n      swap2\n      swap1\n      pop\n      jump\t// out\n        /* \"#utility.yul\":2830:3196   */\n    tag_113:\n        /* \"#utility.yul\":2972:2975   */\n      0x00\n        /* \"#utility.yul\":2993:3060   */\n      tag_115\n        /* \"#utility.yul\":3057:3059   */\n      0x20\n        /* \"#utility.yul\":3052:3055   */\n      dup4\n        /* \"#utility.yul\":2993:3060   */\n      tag_98\n      jump\t// in\n    tag_115:\n        /* \"#utility.yul\":2986:3060   */\n      swap2\n      pop\n        /* \"#utility.yul\":3069:3162   */\n      tag_116\n        /* \"#utility.yul\":3158:3161   */\n      dup3\n        /* \"#utility.yul\":3069:3162   */\n      tag_117\n      jump\t// in\n    tag_116:\n        /* \"#utility.yul\":3187:3189   */\n      0x20\n        /* \"#utility.yul\":3182:3185   */\n      dup3\n        /* \"#utility.yul\":3178:3190   */\n      add\n        /* \"#utility.yul\":3171:3190   */\n      swap1\n      pop\n        /* \"#utility.yul\":2830:3196   */\n      swap2\n      swap1\n      pop\n      jump\t// out\n        /* \"#utility.yul\":3202:3320   */\n    tag_118:\n        /* \"#utility.yul\":3289:3313   */\n      tag_120\n        /* \"#utility.yul\":3307:3312   */\n      dup2\n        /* \"#utility.yul\":3289:3313   */\n      tag_121\n      jump\t// in\n    tag_120:\n        /* \"#utility.yul\":3284:3287   */\n      dup3\n        /* \"#utility.yul\":3277:3314   */\n      mstore\n        /* \"#utility.yul\":3202:3320   */\n      pop\n      pop\n      jump\t// out\n        /* \"#utility.yul\":3326:3548   */\n    tag_21:\n        /* \"#utility.yul\":3419:3423   */\n      0x00\n        /* \"#utility.yul\":3457:3459   */\n      0x20\n        /* \"#utility.yul\":3446:3455   */\n      dup3\n        /* \"#utility.yul\":3442:3460   */\n      add\n        /* \"#utility.yul\":3434:3460   */\n      swap1\n      pop\n        /* \"#utility.yul\":3470:3541   */\n      tag_123\n        /* \"#utility.yul\":3538:3539   */\n      0x00\n        /* \"#utility.yul\":3527:3536   */\n      dup4\n        /* \"#utility.yul\":3523:3540   */\n      add\n        /* \"#utility.yul\":3514:3520   */\n      dup5\n        /* \"#utility.yul\":3470:3541   */\n      tag_89\n      jump\t// in\n    tag_123:\n        /* \"#utility.yul\":3326:3548   */\n      swap3\n      swap2\n      pop\n      pop\n      jump\t// out\n        /* \"#utility.yul\":3554:3867   */\n    tag_11:\n        /* \"#utility.yul\":3667:3671   */\n      0x00\n        /* \"#utility.yul\":3705:3707   */\n      0x20\n        /* \"#utility.yul\":3694:3703   */\n      dup3\n        /* \"#utility.yul\":3690:3708   */\n      add\n        /* \"#utility.yul\":3682:3708   */\n      swap1\n      pop\n        /* \"#utility.yul\":3754:3763   */\n      dup2\n        /* \"#utility.yul\":3748:3752   */\n      dup2\n        /* \"#utility.yul\":3744:3764   */\n      sub\n        /* \"#utility.yul\":3740:3741   */\n      0x00\n        /* \"#utility.yul\":3729:3738   */\n      dup4\n        /* \"#utility.yul\":3725:3742   */\n      add\n        /* \"#utility.yul\":3718:3765   */\n      mstore\n        /* \"#utility.yul\":3782:3860   */\n      tag_125\n        /* \"#utility.yul\":3855:3859   */\n      dup2\n        /* \"#utility.yul\":3846:3852   */\n      dup5\n        /* \"#utility.yul\":3782:3860   */\n      tag_93\n      jump\t// in\n    tag_125:\n        /* \"#utility.yul\":3774:3860   */\n      swap1\n      pop\n        /* \"#utility.yul\":3554:3867   */\n      swap3\n      swap2\n      pop\n      pop\n      jump\t// out\n        /* \"#utility.yul\":3873:4292   */\n    tag_47:\n        /* \"#utility.yul\":4039:4043   */\n      0x00\n        /* \"#utility.yul\":4077:4079   */\n      0x20\n        /* \"#utility.yul\":4066:4075   */\n      dup3\n        /* \"#utility.yul\":4062:4080   */\n      add\n        /* \"#utility.yul\":4054:4080   */\n      swap1\n      pop\n        /* \"#utility.yul\":4126:4135   */\n      dup2\n        /* \"#utility.yul\":4120:4124   */\n      dup2\n        /* \"#utility.yul\":4116:4136   */\n      sub\n        /* \"#utility.yul\":4112:4113   */\n      0x00\n        /* \"#utility.yul\":4101:4110   */\n      dup4\n        /* \"#utility.yul\":4097:4114   */\n      add\n        /* \"#utility.yul\":4090:4137   */\n      mstore\n        /* \"#utility.yul\":4154:4285   */\n      tag_127\n        /* \"#utility.yul\":4280:4284   */\n      dup2\n        /* \"#utility.yul\":4154:4285   */\n      tag_103\n      jump\t// in\n    tag_127:\n        /* \"#utility.yul\":4146:4285   */\n      swap1\n      pop\n        /* \"#utility.yul\":3873:4292   */\n      swap2\n      swap1\n      pop\n      jump\t// out\n        /* \"#utility.yul\":4298:4717   */\n    tag_43:\n        /* \"#utility.yul\":4464:4468   */\n      0x00\n        /* \"#utility.yul\":4502:4504   */\n      0x20\n        /* \"#utility.yul\":4491:4500   */\n      dup3\n        /* \"#utility.yul\":4487:4505   */\n      add\n        /* \"#utility.yul\":4479:4505   */\n      swap1\n      pop\n        /* \"#utility.yul\":4551:4560   */\n      dup2\n        /* \"#utility.yul\":4545:4549   */\n      dup2\n        /* \"#utility.yul\":4541:4561   */\n      sub\n        /* \"#utility.yul\":4537:4538   */\n      0x00\n        /* \"#utility.yul\":4526:4535   */\n      dup4\n        /* \"#utility.yul\":4522:4539   */\n      add\n        /* \"#utility.yul\":4515:4562   */\n      mstore\n        /* \"#utility.yul\":4579:4710   */\n      tag_129\n        /* \"#utility.yul\":4705:4709   */\n      dup2\n        /* \"#utility.yul\":4579:4710   */\n      tag_108\n      jump\t// in\n    tag_129:\n        /* \"#utility.yul\":4571:4710   */\n      swap1\n      pop\n        /* \"#utility.yul\":4298:4717   */\n      swap2\n      swap1\n      pop\n      jump\t// out\n        /* \"#utility.yul\":4723:5142   */\n    tag_56:\n        /* \"#utility.yul\":4889:4893   */\n      0x00\n        /* \"#utility.yul\":4927:4929   */\n      0x20\n        /* \"#utility.yul\":4916:4925   */\n      dup3\n        /* \"#utility.yul\":4912:4930   */\n      add\n        /* \"#utility.yul\":4904:4930   */\n      swap1\n      pop\n        /* \"#utility.yul\":4976:4985   */\n      dup2\n        /* \"#utility.yul\":4970:4974   */\n      dup2\n        /* \"#utility.yul\":4966:4986   */\n      sub\n        /* \"#utility.yul\":4962:4963   */\n      0x00\n        /* \"#utility.yul\":4951:4960   */\n      dup4\n        /* \"#utility.yul\":4947:4964   */\n      add\n        /* \"#utility.yul\":4940:4987   */\n      mstore\n        /* \"#utility.yul\":5004:5135   */\n      tag_131\n        /* \"#utility.yul\":5130:5134   */\n      dup2\n        /* \"#utility.yul\":5004:5135   */\n      tag_113\n      jump\t// in\n    tag_131:\n        /* \"#utility.yul\":4996:5135   */\n      swap1\n      pop\n        /* \"#utility.yul\":4723:5142   */\n      swap2\n      swap1\n      pop\n      jump\t// out\n        /* \"#utility.yul\":5148:5370   */\n    tag_27:\n        /* \"#utility.yul\":5241:5245   */\n      0x00\n        /* \"#utility.yul\":5279:5281   */\n      0x20\n        /* \"#utility.yul\":5268:5277   */\n      dup3\n        /* \"#utility.yul\":5264:5282   */\n      add\n        /* \"#utility.yul\":5256:5282   */\n      swap1\n      pop\n        /* \"#utility.yul\":5292:5363   */\n      tag_133\n        /* \"#utility.yul\":5360:5361   */\n      0x00\n        /* \"#utility.yul\":5349:5358   */\n      dup4\n        /* \"#utility.yul\":5345:5362   */\n      add\n        /* \"#utility.yul\":5336:5342   */\n      dup5\n        /* \"#utility.yul\":5292:5363   */\n      tag_118\n      jump\t// in\n    tag_133:\n        /* \"#utility.yul\":5148:5370   */\n      swap3\n      swap2\n      pop\n      pop\n      jump\t// out\n        /* \"#utility.yul\":5457:5556   */\n    tag_96:\n        /* \"#utility.yul\":5509:5515   */\n      0x00\n        /* \"#utility.yul\":5543:5548   */\n      dup2\n        /* \"#utility.yul\":5537:5549   */\n      mload\n        /* \"#utility.yul\":5527:5549   */\n      swap1\n      pop\n        /* \"#utility.yul\":5457:5556   */\n      swap2\n      swap1\n      pop\n      jump\t// out\n        /* \"#utility.yul\":5562:5731   */\n    tag_98:\n        /* \"#utility.yul\":5646:5657   */\n      0x00\n        /* \"#utility.yul\":5680:5686   */\n      dup3\n        /* \"#utility.yul\":5675:5678   */\n      dup3\n        /* \"#utility.yul\":5668:5687   */\n      mstore\n        /* \"#utility.yul\":5720:5724   */\n      0x20\n        /* \"#utility.yul\":5715:5718   */\n      dup3\n        /* \"#utility.yul\":5711:5725   */\n      add\n        /* \"#utility.yul\":5696:5725   */\n      swap1\n      pop\n        /* \"#utility.yul\":5562:5731   */\n      swap3\n      swap2\n      pop\n      pop\n      jump\t// out\n        /* \"#utility.yul\":5737:6042   */\n    tag_60:\n        /* \"#utility.yul\":5777:5780   */\n      0x00\n        /* \"#utility.yul\":5796:5816   */\n      tag_139\n        /* \"#utility.yul\":5814:5815   */\n      dup3\n        /* \"#utility.yul\":5796:5816   */\n      tag_121\n      jump\t// in\n    tag_139:\n        /* \"#utility.yul\":5791:5816   */\n      swap2\n      pop\n        /* \"#utility.yul\":5830:5850   */\n      tag_140\n        /* \"#utility.yul\":5848:5849   */\n      dup4\n        /* \"#utility.yul\":5830:5850   */\n      tag_121\n      jump\t// in\n    tag_140:\n        /* \"#utility.yul\":5825:5850   */\n      swap3\n      pop\n        /* \"#utility.yul\":5984:5985   */\n      dup3\n        /* \"#utility.yul\":5916:5982   */\n      0xffffffffffffffffffffffffffffffffffffffffffffffffffffffffffffffff\n        /* \"#utility.yul\":5912:5986   */\n      sub\n        /* \"#utility.yul\":5909:5910   */\n      dup3\n        /* \"#utility.yul\":5906:5987   */\n      gt\n        /* \"#utility.yul\":5903:6010   */\n      iszero\n      tag_141\n      jumpi\n        /* \"#utility.yul\":5990:6008   */\n      tag_142\n      tag_143\n      jump\t// in\n    tag_142:\n        /* \"#utility.yul\":5903:6010   */\n    tag_141:\n        /* \"#utility.yul\":6034:6035   */\n      dup3\n        /* \"#utility.yul\":6031:6032   */\n      dup3\n        /* \"#utility.yul\":6027:6036   */\n      add\n        /* \"#utility.yul\":6020:6036   */\n      swap1\n      pop\n        /* \"#utility.yul\":5737:6042   */\n      swap3\n      swap2\n      pop\n      pop\n      jump\t// out\n        /* \"#utility.yul\":6048:6144   */\n    tag_92:\n        /* \"#utility.yul\":6085:6092   */\n      0x00\n        /* \"#utility.yul\":6114:6138   */\n      tag_145\n        /* \"#utility.yul\":6132:6137   */\n      dup3\n        /* \"#utility.yul\":6114:6138   */\n      tag_146\n      jump\t// in\n    tag_145:\n        /* \"#utility.yul\":6103:6138   */\n      swap1\n      pop\n        /* \"#utility.yul\":6048:6144   */\n      swap2\n      swap1\n      pop\n      jump\t// out\n        /* \"#utility.yul\":6150:6276   */\n    tag_146:\n        /* \"#utility.yul\":6187:6194   */\n      0x00\n        /* \"#utility.yul\":6227:6269   */\n      0xffffffffffffffffffffffffffffffffffffffff\n        /* \"#utility.yul\":6220:6225   */\n      dup3\n        /* \"#utility.yul\":6216:6270   */\n      and\n        /* \"#utility.yul\":6205:6270   */\n      swap1\n      pop\n        /* \"#utility.yul\":6150:6276   */\n      swap2\n      swap1\n      pop\n      jump\t// out\n        /* \"#utility.yul\":6282:6359   */\n    tag_121:\n        /* \"#utility.yul\":6319:6326   */\n      0x00\n        /* \"#utility.yul\":6348:6353   */\n      dup2\n        /* \"#utility.yul\":6337:6353   */\n      swap1\n      pop\n        /* \"#utility.yul\":6282:6359   */\n      swap2\n      swap1\n      pop\n      jump\t// out\n        /* \"#utility.yul\":6365:6672   */\n    tag_100:\n        /* \"#utility.yul\":6433:6434   */\n      0x00\n        /* \"#utility.yul\":6443:6556   */\n    tag_150:\n        /* \"#utility.yul\":6457:6463   */\n      dup4\n        /* \"#utility.yul\":6454:6455   */\n      dup2\n        /* \"#utility.yul\":6451:6464   */\n      lt\n        /* \"#utility.yul\":6443:6556   */\n      iszero\n      tag_152\n      jumpi\n        /* \"#utility.yul\":6542:6543   */\n      dup1\n        /* \"#utility.yul\":6537:6540   */\n      dup3\n        /* \"#utility.yul\":6533:6544   */\n      add\n        /* \"#utility.yul\":6527:6545   */\n      mload\n        /* \"#utility.yul\":6523:6524   */\n      dup2\n        /* \"#utility.yul\":6518:6521   */\n      dup5\n        /* \"#utility.yul\":6514:6525   */\n      add\n        /* \"#utility.yul\":6507:6546   */\n      mstore\n        /* \"#utility.yul\":6479:6481   */\n      0x20\n        /* \"#utility.yul\":6476:6477   */\n      dup2\n        /* \"#utility.yul\":6472:6482   */\n      add\n        /* \"#utility.yul\":6467:6482   */\n      swap1\n      pop\n        /* \"#utility.yul\":6443:6556   */\n      jump(tag_150)\n    tag_152:\n        /* \"#utility.yul\":6574:6580   */\n      dup4\n        /* \"#utility.yul\":6571:6572   */\n      dup2\n        /* \"#utility.yul\":6568:6581   */\n      gt\n        /* \"#utility.yul\":6565:6666   */\n      iszero\n      tag_153\n      jumpi\n        /* \"#utility.yul\":6654:6655   */\n      0x00\n        /* \"#utility.yul\":6645:6651   */\n      dup5\n        /* \"#utility.yul\":6640:6643   */\n      dup5\n        /* \"#utility.yul\":6636:6652   */\n      add\n        /* \"#utility.yul\":6629:6656   */\n      mstore\n        /* \"#utility.yul\":6565:6666   */\n    tag_153:\n        /* \"#utility.yul\":6414:6672   */\n      pop\n        /* \"#utility.yul\":6365:6672   */\n      pop\n      pop\n      pop\n      jump\t// out\n        /* \"#utility.yul\":6678:6998   */\n    tag_32:\n        /* \"#utility.yul\":6722:6728   */\n      0x00\n        /* \"#utility.yul\":6759:6760   */\n      0x02\n        /* \"#utility.yul\":6753:6757   */\n      dup3\n        /* \"#utility.yul\":6749:6761   */\n      div\n        /* \"#utility.yul\":6739:6761   */\n      swap1\n      pop\n        /* \"#utility.yul\":6806:6807   */\n      0x01\n        /* \"#utility.yul\":6800:6804   */\n      dup3\n        /* \"#utility.yul\":6796:6808   */\n      and\n        /* \"#utility.yul\":6827:6845   */\n      dup1\n        /* \"#utility.yul\":6817:6898   */\n      tag_155\n      jumpi\n        /* \"#utility.yul\":6883:6887   */\n      0x7f\n        /* \"#utility.yul\":6875:6881   */\n      dup3\n        /* \"#utility.yul\":6871:6888   */\n      and\n        /* \"#utility.yul\":6861:6888   */\n      swap2\n      pop\n        /* \"#utility.yul\":6817:6898   */\n    tag_155:\n        /* \"#utility.yul\":6945:6947   */\n      0x20\n        /* \"#utility.yul\":6937:6943   */\n      dup3\n        /* \"#utility.yul\":6934:6948   */\n      lt\n        /* \"#utility.yul\":6914:6932   */\n      dup2\n        /* \"#utility.yul\":6911:6949   */\n      eq\n        /* \"#utility.yul\":6908:6992   */\n      iszero\n      tag_156\n      jumpi\n        /* \"#utility.yul\":6964:6982   */\n      tag_157\n      tag_158\n      jump\t// in\n    tag_157:\n        /* \"#utility.yul\":6908:6992   */\n    tag_156:\n        /* \"#utility.yul\":6729:6998   */\n      pop\n        /* \"#utility.yul\":6678:6998   */\n      swap2\n      swap1\n      pop\n      jump\t// out\n        /* \"#utility.yul\":7004:7184   */\n    tag_143:\n        /* \"#utility.yul\":7052:7129   */\n      0x4e487b7100000000000000000000000000000000000000000000000000000000\n        /* \"#utility.yul\":7049:7050   */\n      0x00\n        /* \"#utility.yul\":7042:7130   */\n      mstore\n        /* \"#utility.yul\":7149:7153   */\n      0x11\n        /* \"#utility.yul\":7146:7147   */\n      0x04\n        /* \"#utility.yul\":7139:7154   */\n      mstore\n        /* \"#utility.yul\":7173:7177   */\n      0x24\n        /* \"#utility.yul\":7170:7171   */\n      0x00\n        /* \"#utility.yul\":7163:7178   */\n      revert\n        /* \"#utility.yul\":7190:7370   */\n    tag_158:\n        /* \"#utility.yul\":7238:7315   */\n      0x4e487b7100000000000000000000000000000000000000000000000000000000\n        /* \"#utility.yul\":7235:7236   */\n      0x00\n        /* \"#utility.yul\":7228:7316   */\n      mstore\n        /* \"#utility.yul\":7335:7339   */\n      0x22\n        /* \"#utility.yul\":7332:7333   */\n      0x04\n        /* \"#utility.yul\":7325:7340   */\n      mstore\n        /* \"#utility.yul\":7359:7363   */\n      0x24\n        /* \"#utility.yul\":7356:7357   */\n      0x00\n        /* \"#utility.yul\":7349:7364   */\n      revert\n        /* \"#utility.yul\":7499:7616   */\n    tag_77:\n        /* \"#utility.yul\":7608:7609   */\n      0x00\n        /* \"#utility.yul\":7605:7606   */\n      dup1\n        /* \"#utility.yul\":7598:7610   */\n      revert\n        /* \"#utility.yul\":7622:7724   */\n    tag_102:\n        /* \"#utility.yul\":7663:7669   */\n      0x00\n        /* \"#utility.yul\":7714:7716   */\n      0x1f\n        /* \"#utility.yul\":7710:7717   */\n      not\n        /* \"#utility.yul\":7705:7707   */\n      0x1f\n        /* \"#utility.yul\":7698:7703   */\n      dup4\n        /* \"#utility.yul\":7694:7708   */\n      add\n        /* \"#utility.yul\":7690:7718   */\n      and\n        /* \"#utility.yul\":7680:7718   */\n      swap1\n      pop\n        /* \"#utility.yul\":7622:7724   */\n      swap2\n      swap1\n      pop\n      jump\t// out\n        /* \"#utility.yul\":7730:7959   */\n    tag_107:\n        /* \"#utility.yul\":7870:7904   */\n      0x4552433732313a2062616c616e636520717565727920666f7220746865207a65\n        /* \"#utility.yul\":7866:7867   */\n      0x00\n        /* \"#utility.yul\":7858:7864   */\n      dup3\n        /* \"#utility.yul\":7854:7868   */\n      add\n        /* \"#utility.yul\":7847:7905   */\n      mstore\n        /* \"#utility.yul\":7939:7951   */\n      0x726f206164647265737300000000000000000000000000000000000000000000\n        /* \"#utility.yul\":7934:7936   */\n      0x20\n        /* \"#utility.yul\":7926:7932   */\n      dup3\n        /* \"#utility.yul\":7922:7937   */\n      add\n        /* \"#utility.yul\":7915:7952   */\n      mstore\n        /* \"#utility.yul\":7730:7959   */\n      pop\n      jump\t// out\n        /* \"#utility.yul\":7965:8193   */\n    tag_112:\n        /* \"#utility.yul\":8105:8139   */\n      0x4552433732313a206f776e657220717565727920666f72206e6f6e6578697374\n        /* \"#utility.yul\":8101:8102   */\n      0x00\n        /* \"#utility.yul\":8093:8099   */\n      dup3\n        /* \"#utility.yul\":8089:8103   */\n      add\n        /* \"#utility.yul\":8082:8140   */\n      mstore\n        /* \"#utility.yul\":8174:8185   */\n      0x656e7420746f6b656e0000000000000000000000000000000000000000000000\n        /* \"#utility.yul\":8169:8171   */\n      0x20\n        /* \"#utility.yul\":8161:8167   */\n      dup3\n        /* \"#utility.yul\":8157:8172   */\n      add\n        /* \"#utility.yul\":8150:8186   */\n      mstore\n        /* \"#utility.yul\":7965:8193   */\n      pop\n      jump\t// out\n        /* \"#utility.yul\":8199:8381   */\n    tag_117:\n        /* \"#utility.yul\":8339:8373   */\n      0x4552433732313a206d696e7420746f20746865207a65726f2061646472657373\n        /* \"#utility.yul\":8335:8336   */\n      0x00\n        /* \"#utility.yul\":8327:8333   */\n      dup3\n        /* \"#utility.yul\":8323:8337   */\n      add\n        /* \"#utility.yul\":8316:8374   */\n      mstore\n        /* \"#utility.yul\":8199:8381   */\n      pop\n      jump\t// out\n        /* \"#utility.yul\":8387:8509   */\n    tag_69:\n        /* \"#utility.yul\":8460:8484   */\n      tag_169\n        /* \"#utility.yul\":8478:8483   */\n      dup2\n        /* \"#utility.yul\":8460:8484   */\n      tag_92\n      jump\t// in\n    tag_169:\n        /* \"#utility.yul\":8453:8458   */\n      dup2\n        /* \"#utility.yul\":8450:8485   */\n      eq\n        /* \"#utility.yul\":8440:8503   */\n      tag_170\n      jumpi\n        /* \"#utility.yul\":8499:8500   */\n      0x00\n        /* \"#utility.yul\":8496:8497   */\n      dup1\n        /* \"#utility.yul\":8489:8501   */\n      revert\n        /* \"#utility.yul\":8440:8503   */\n    tag_170:\n        /* \"#utility.yul\":8387:8509   */\n      pop\n      jump\t// out\n        /* \"#utility.yul\":8515:8637   */\n    tag_73:\n        /* \"#utility.yul\":8588:8612   */\n      tag_172\n        /* \"#utility.yul\":8606:8611   */\n      dup2\n        /* \"#utility.yul\":8588:8612   */\n      tag_121\n      jump\t// in\n    tag_172:\n        /* \"#utility.yul\":8581:8586   */\n      dup2\n        /* \"#utility.yul\":8578:8613   */\n      eq\n        /* \"#utility.yul\":8568:8631   */\n      tag_173\n      jumpi\n        /* \"#utility.yul\":8627:8628   */\n      0x00\n        /* \"#utility.yul\":8624:8625   */\n      dup1\n        /* \"#utility.yul\":8617:8629   */\n      revert\n        /* \"#utility.yul\":8568:8631   */\n    tag_173:\n        /* \"#utility.yul\":8515:8637   */\n      pop\n      jump\t// out\n\n    auxdata: 0xa2646970667358221220f3fa34280d3fb7a24afbc7f3a3963d3061f3863926f582b3a119d846cb9a3fb664736f6c63430008070033\n}\n",
				"bytecode": {
					"linkReferences": {},
					"object": "608060405234801561001057600080fd5b506040518060400160405280600e81526020017f426c75655375726765546f6b656e0000000000000000000000000000000000008152506000908051906020019061005c9291906100ae565b506040518060400160405280600381526020017f4253540000000000000000000000000000000000000000000000000000000000815250600190805190602001906100a89291906100ae565b506101b2565b8280546100ba90610151565b90600052602060002090601f0160209004810192826100dc5760008555610123565b82601f106100f557805160ff1916838001178555610123565b82800160010185558215610123579182015b82811115610122578251825591602001919060010190610107565b5b5090506101309190610134565b5090565b5b8082111561014d576000816000905550600101610135565b5090565b6000600282049050600182168061016957607f821691505b6020821081141561017d5761017c610183565b5b50919050565b7f4e487b7100000000000000000000000000000000000000000000000000000000600052602260045260246000fd5b610a46806101c16000396000f3fe608060405234801561001057600080fd5b50600436106100575760003560e01c806306fdde031461005c578063156e29f61461007a5780636352211e1461009657806370a08231146100c657806395d89b41146100f6575b600080fd5b610064610114565b60405161007191906106f7565b60405180910390f35b610094600480360381019061008f919061059c565b6101a2565b005b6100b060048036038101906100ab91906105ef565b6101b2565b6040516100bd91906106dc565b60405180910390f35b6100e060048036038101906100db919061056f565b610264565b6040516100ed9190610779565b60405180910390f35b6100fe61031c565b60405161010b91906106f7565b60405180910390f35b6000805461012190610875565b80601f016020809104026020016040519081016040528092919081815260200182805461014d90610875565b801561019a5780601f1061016f5761010080835404028352916020019161019a565b820191906000526020600020905b81548152906001019060200180831161017d57829003601f168201915b505050505081565b6101ad8383836103aa565b505050565b6000806002600084815260200190815260200160002060009054906101000a900473ffffffffffffffffffffffffffffffffffffffff169050600073ffffffffffffffffffffffffffffffffffffffff168173ffffffffffffffffffffffffffffffffffffffff16141561025b576040517f08c379a000000000000000000000000000000000000000000000000000000000815260040161025290610739565b60405180910390fd5b80915050919050565b60008073ffffffffffffffffffffffffffffffffffffffff168273ffffffffffffffffffffffffffffffffffffffff1614156102d5576040517f08c379a00000000000000000000000000000000000000000000000000000000081526004016102cc90610719565b60405180910390fd5b600360008373ffffffffffffffffffffffffffffffffffffffff1673ffffffffffffffffffffffffffffffffffffffff168152602001908152602001600020549050919050565b6001805461032990610875565b80601f016020809104026020016040519081016040528092919081815260200182805461035590610875565b80156103a25780601f10610377576101008083540402835291602001916103a2565b820191906000526020600020905b81548152906001019060200180831161038557829003601f168201915b505050505081565b600073ffffffffffffffffffffffffffffffffffffffff168373ffffffffffffffffffffffffffffffffffffffff16141561041a576040517f08c379a000000000000000000000000000000000000000000000000000000000815260040161041190610759565b60405180910390fd5b6104266000848461053b565b80600360008573ffffffffffffffffffffffffffffffffffffffff1673ffffffffffffffffffffffffffffffffffffffff168152602001908152602001600020600082825461047591906107b0565b92505081905550826002600084815260200190815260200160002060006101000a81548173ffffffffffffffffffffffffffffffffffffffff021916908373ffffffffffffffffffffffffffffffffffffffff160217905550818373ffffffffffffffffffffffffffffffffffffffff16600073ffffffffffffffffffffffffffffffffffffffff167fddf252ad1be2c89b69c2b068fc378daa952ba7f163c4a11628f55a4df523b3ef60405160405180910390a461053660008484610540565b505050565b505050565b505050565b600081359050610554816109e2565b92915050565b600081359050610569816109f9565b92915050565b60006020828403121561058557610584610905565b5b600061059384828501610545565b91505092915050565b6000806000606084860312156105b5576105b4610905565b5b60006105c386828701610545565b93505060206105d48682870161055a565b92505060406105e58682870161055a565b9150509250925092565b60006020828403121561060557610604610905565b5b60006106138482850161055a565b91505092915050565b61062581610806565b82525050565b600061063682610794565b610640818561079f565b9350610650818560208601610842565b6106598161090a565b840191505092915050565b6000610671602a8361079f565b915061067c8261091b565b604082019050919050565b600061069460298361079f565b915061069f8261096a565b604082019050919050565b60006106b760208361079f565b91506106c2826109b9565b602082019050919050565b6106d681610838565b82525050565b60006020820190506106f1600083018461061c565b92915050565b60006020820190508181036000830152610711818461062b565b905092915050565b6000602082019050818103600083015261073281610664565b9050919050565b6000602082019050818103600083015261075281610687565b9050919050565b60006020820190508181036000830152610772816106aa565b9050919050565b600060208201905061078e60008301846106cd565b92915050565b600081519050919050565b600082825260208201905092915050565b60006107bb82610838565b91506107c683610838565b9250827fffffffffffffffffffffffffffffffffffffffffffffffffffffffffffffffff038211156107fb576107fa6108a7565b5b828201905092915050565b600061081182610818565b9050919050565b600073ffffffffffffffffffffffffffffffffffffffff82169050919050565b6000819050919050565b60005b83811015610860578082015181840152602081019050610845565b8381111561086f576000848401525b50505050565b6000600282049050600182168061088d57607f821691505b602082108114156108a1576108a06108d6565b5b50919050565b7f4e487b7100000000000000000000000000000000000000000000000000000000600052601160045260246000fd5b7f4e487b7100000000000000000000000000000000000000000000000000000000600052602260045260246000fd5b600080fd5b6000601f19601f8301169050919050565b7f4552433732313a2062616c616e636520717565727920666f7220746865207a6560008201527f726f206164647265737300000000000000000000000000000000000000000000602082015250565b7f4552433732313a206f776e657220717565727920666f72206e6f6e657869737460008201527f656e7420746f6b656e0000000000000000000000000000000000000000000000602082015250565b7f4552433732313a206d696e7420746f20746865207a65726f2061646472657373600082015250565b6109eb81610806565b81146109f657600080fd5b50565b610a0281610838565b8114610a0d57600080fd5b5056fea2646970667358221220f3fa34280d3fb7a24afbc7f3a3963d3061f3863926f582b3a119d846cb9a3fb664736f6c63430008070033",
					"opcodes": "PUSH1 0x80 PUSH1 0x40 MSTORE CALLVALUE DUP1 ISZERO PUSH2 0x10 JUMPI PUSH1 0x0 DUP1 REVERT JUMPDEST POP PUSH1 0x40 MLOAD DUP1 PUSH1 0x40 ADD PUSH1 0x40 MSTORE DUP1 PUSH1 0xE DUP2 MSTORE PUSH1 0x20 ADD PUSH32 0x426C75655375726765546F6B656E000000000000000000000000000000000000 DUP2 MSTORE POP PUSH1 0x0 SWAP1 DUP1 MLOAD SWAP1 PUSH1 0x20 ADD SWAP1 PUSH2 0x5C SWAP3 SWAP2 SWAP1 PUSH2 0xAE JUMP JUMPDEST POP PUSH1 0x40 MLOAD DUP1 PUSH1 0x40 ADD PUSH1 0x40 MSTORE DUP1 PUSH1 0x3 DUP2 MSTORE PUSH1 0x20 ADD PUSH32 0x4253540000000000000000000000000000000000000000000000000000000000 DUP2 MSTORE POP PUSH1 0x1 SWAP1 DUP1 MLOAD SWAP1 PUSH1 0x20 ADD SWAP1 PUSH2 0xA8 SWAP3 SWAP2 SWAP1 PUSH2 0xAE JUMP JUMPDEST POP PUSH2 0x1B2 JUMP JUMPDEST DUP3 DUP1 SLOAD PUSH2 0xBA SWAP1 PUSH2 0x151 JUMP JUMPDEST SWAP1 PUSH1 0x0 MSTORE PUSH1 0x20 PUSH1 0x0 KECCAK256 SWAP1 PUSH1 0x1F ADD PUSH1 0x20 SWAP1 DIV DUP2 ADD SWAP3 DUP3 PUSH2 0xDC JUMPI PUSH1 0x0 DUP6 SSTORE PUSH2 0x123 JUMP JUMPDEST DUP3 PUSH1 0x1F LT PUSH2 0xF5 JUMPI DUP1 MLOAD PUSH1 0xFF NOT AND DUP4 DUP1 ADD OR DUP6 SSTORE PUSH2 0x123 JUMP JUMPDEST DUP3 DUP1 ADD PUSH1 0x1 ADD DUP6 SSTORE DUP3 ISZERO PUSH2 0x123 JUMPI SWAP2 DUP3 ADD JUMPDEST DUP3 DUP2 GT ISZERO PUSH2 0x122 JUMPI DUP3 MLOAD DUP3 SSTORE SWAP2 PUSH1 0x20 ADD SWAP2 SWAP1 PUSH1 0x1 ADD SWAP1 PUSH2 0x107 JUMP JUMPDEST JUMPDEST POP SWAP1 POP PUSH2 0x130 SWAP2 SWAP1 PUSH2 0x134 JUMP JUMPDEST POP SWAP1 JUMP JUMPDEST JUMPDEST DUP1 DUP3 GT ISZERO PUSH2 0x14D JUMPI PUSH1 0x0 DUP2 PUSH1 0x0 SWAP1 SSTORE POP PUSH1 0x1 ADD PUSH2 0x135 JUMP JUMPDEST POP SWAP1 JUMP JUMPDEST PUSH1 0x0 PUSH1 0x2 DUP3 DIV SWAP1 POP PUSH1 0x1 DUP3 AND DUP1 PUSH2 0x169 JUMPI PUSH1 0x7F DUP3 AND SWAP2 POP JUMPDEST PUSH1 0x20 DUP3 LT DUP2 EQ ISZERO PUSH2 0x17D JUMPI PUSH2 0x17C PUSH2 0x183 JUMP JUMPDEST JUMPDEST POP SWAP2 SWAP1 POP JUMP JUMPDEST PUSH32 0x4E487B7100000000000000000000000000000000000000000000000000000000 PUSH1 0x0 MSTORE PUSH1 0x22 PUSH1 0x4 MSTORE PUSH1 0x24 PUSH1 0x0 REVERT JUMPDEST PUSH2 0xA46 DUP1 PUSH2 0x1C1 PUSH1 0x0 CODECOPY PUSH1 0x0 RETURN INVALID PUSH1 0x80 PUSH1 0x40 MSTORE CALLVALUE DUP1 ISZERO PUSH2 0x10 JUMPI PUSH1 0x0 DUP1 REVERT JUMPDEST POP PUSH1 0x4 CALLDATASIZE LT PUSH2 0x57 JUMPI PUSH1 0x0 CALLDATALOAD PUSH1 0xE0 SHR DUP1 PUSH4 0x6FDDE03 EQ PUSH2 0x5C JUMPI DUP1 PUSH4 0x156E29F6 EQ PUSH2 0x7A JUMPI DUP1 PUSH4 0x6352211E EQ PUSH2 0x96 JUMPI DUP1 PUSH4 0x70A08231 EQ PUSH2 0xC6 JUMPI DUP1 PUSH4 0x95D89B41 EQ PUSH2 0xF6 JUMPI JUMPDEST PUSH1 0x0 DUP1 REVERT JUMPDEST PUSH2 0x64 PUSH2 0x114 JUMP JUMPDEST PUSH1 0x40 MLOAD PUSH2 0x71 SWAP2 SWAP1 PUSH2 0x6F7 JUMP JUMPDEST PUSH1 0x40 MLOAD DUP1 SWAP2 SUB SWAP1 RETURN JUMPDEST PUSH2 0x94 PUSH1 0x4 DUP1 CALLDATASIZE SUB DUP2 ADD SWAP1 PUSH2 0x8F SWAP2 SWAP1 PUSH2 0x59C JUMP JUMPDEST PUSH2 0x1A2 JUMP JUMPDEST STOP JUMPDEST PUSH2 0xB0 PUSH1 0x4 DUP1 CALLDATASIZE SUB DUP2 ADD SWAP1 PUSH2 0xAB SWAP2 SWAP1 PUSH2 0x5EF JUMP JUMPDEST PUSH2 0x1B2 JUMP JUMPDEST PUSH1 0x40 MLOAD PUSH2 0xBD SWAP2 SWAP1 PUSH2 0x6DC JUMP JUMPDEST PUSH1 0x40 MLOAD DUP1 SWAP2 SUB SWAP1 RETURN JUMPDEST PUSH2 0xE0 PUSH1 0x4 DUP1 CALLDATASIZE SUB DUP2 ADD SWAP1 PUSH2 0xDB SWAP2 SWAP1 PUSH2 0x56F JUMP JUMPDEST PUSH2 0x264 JUMP JUMPDEST PUSH1 0x40 MLOAD PUSH2 0xED SWAP2 SWAP1 PUSH2 0x779 JUMP JUMPDEST PUSH1 0x40 MLOAD DUP1 SWAP2 SUB SWAP1 RETURN JUMPDEST PUSH2 0xFE PUSH2 0x31C JUMP JUMPDEST PUSH1 0x40 MLOAD PUSH2 0x10B SWAP2 SWAP1 PUSH2 0x6F7 JUMP JUMPDEST PUSH1 0x40 MLOAD DUP1 SWAP2 SUB SWAP1 RETURN JUMPDEST PUSH1 0x0 DUP1 SLOAD PUSH2 0x121 SWAP1 PUSH2 0x875 JUMP JUMPDEST DUP1 PUSH1 0x1F ADD PUSH1 0x20 DUP1 SWAP2 DIV MUL PUSH1 0x20 ADD PUSH1 0x40 MLOAD SWAP1 DUP2 ADD PUSH1 0x40 MSTORE DUP1 SWAP3 SWAP2 SWAP1 DUP2 DUP2 MSTORE PUSH1 0x20 ADD DUP3 DUP1 SLOAD PUSH2 0x14D SWAP1 PUSH2 0x875 JUMP JUMPDEST DUP1 ISZERO PUSH2 0x19A JUMPI DUP1 PUSH1 0x1F LT PUSH2 0x16F JUMPI PUSH2 0x100 DUP1 DUP4 SLOAD DIV MUL DUP4 MSTORE SWAP2 PUSH1 0x20 ADD SWAP2 PUSH2 0x19A JUMP JUMPDEST DUP3 ADD SWAP2 SWAP1 PUSH1 0x0 MSTORE PUSH1 0x20 PUSH1 0x0 KECCAK256 SWAP1 JUMPDEST DUP2 SLOAD DUP2 MSTORE SWAP1 PUSH1 0x1 ADD SWAP1 PUSH1 0x20 ADD DUP1 DUP4 GT PUSH2 0x17D JUMPI DUP3 SWAP1 SUB PUSH1 0x1F AND DUP3 ADD SWAP2 JUMPDEST POP POP POP POP POP DUP2 JUMP JUMPDEST PUSH2 0x1AD DUP4 DUP4 DUP4 PUSH2 0x3AA JUMP JUMPDEST POP POP POP JUMP JUMPDEST PUSH1 0x0 DUP1 PUSH1 0x2 PUSH1 0x0 DUP5 DUP2 MSTORE PUSH1 0x20 ADD SWAP1 DUP2 MSTORE PUSH1 0x20 ADD PUSH1 0x0 KECCAK256 PUSH1 0x0 SWAP1 SLOAD SWAP1 PUSH2 0x100 EXP SWAP1 DIV PUSH20 0xFFFFFFFFFFFFFFFFFFFFFFFFFFFFFFFFFFFFFFFF AND SWAP1 POP PUSH1 0x0 PUSH20 0xFFFFFFFFFFFFFFFFFFFFFFFFFFFFFFFFFFFFFFFF AND DUP2 PUSH20 0xFFFFFFFFFFFFFFFFFFFFFFFFFFFFFFFFFFFFFFFF AND EQ ISZERO PUSH2 0x25B JUMPI PUSH1 0x40 MLOAD PUSH32 0x8C379A000000000000000000000000000000000000000000000000000000000 DUP2 MSTORE PUSH1 0x4 ADD PUSH2 0x252 SWAP1 PUSH2 0x739 JUMP JUMPDEST PUSH1 0x40 MLOAD DUP1 SWAP2 SUB SWAP1 REVERT JUMPDEST DUP1 SWAP2 POP POP SWAP2 SWAP1 POP JUMP JUMPDEST PUSH1 0x0 DUP1 PUSH20 0xFFFFFFFFFFFFFFFFFFFFFFFFFFFFFFFFFFFFFFFF AND DUP3 PUSH20 0xFFFFFFFFFFFFFFFFFFFFFFFFFFFFFFFFFFFFFFFF AND EQ ISZERO PUSH2 0x2D5 JUMPI PUSH1 0x40 MLOAD PUSH32 0x8C379A000000000000000000000000000000000000000000000000000000000 DUP2 MSTORE PUSH1 0x4 ADD PUSH2 0x2CC SWAP1 PUSH2 0x719 JUMP JUMPDEST PUSH1 0x40 MLOAD DUP1 SWAP2 SUB SWAP1 REVERT JUMPDEST PUSH1 0x3 PUSH1 0x0 DUP4 PUSH20 0xFFFFFFFFFFFFFFFFFFFFFFFFFFFFFFFFFFFFFFFF AND PUSH20 0xFFFFFFFFFFFFFFFFFFFFFFFFFFFFFFFFFFFFFFFF AND DUP2 MSTORE PUSH1 0x20 ADD SWAP1 DUP2 MSTORE PUSH1 0x20 ADD PUSH1 0x0 KECCAK256 SLOAD SWAP1 POP SWAP2 SWAP1 POP JUMP JUMPDEST PUSH1 0x1 DUP1 SLOAD PUSH2 0x329 SWAP1 PUSH2 0x875 JUMP JUMPDEST DUP1 PUSH1 0x1F ADD PUSH1 0x20 DUP1 SWAP2 DIV MUL PUSH1 0x20 ADD PUSH1 0x40 MLOAD SWAP1 DUP2 ADD PUSH1 0x40 MSTORE DUP1 SWAP3 SWAP2 SWAP1 DUP2 DUP2 MSTORE PUSH1 0x20 ADD DUP3 DUP1 SLOAD PUSH2 0x355 SWAP1 PUSH2 0x875 JUMP JUMPDEST DUP1 ISZERO PUSH2 0x3A2 JUMPI DUP1 PUSH1 0x1F LT PUSH2 0x377 JUMPI PUSH2 0x100 DUP1 DUP4 SLOAD DIV MUL DUP4 MSTORE SWAP2 PUSH1 0x20 ADD SWAP2 PUSH2 0x3A2 JUMP JUMPDEST DUP3 ADD SWAP2 SWAP1 PUSH1 0x0 MSTORE PUSH1 0x20 PUSH1 0x0 KECCAK256 SWAP1 JUMPDEST DUP2 SLOAD DUP2 MSTORE SWAP1 PUSH1 0x1 ADD SWAP1 PUSH1 0x20 ADD DUP1 DUP4 GT PUSH2 0x385 JUMPI DUP3 SWAP1 SUB PUSH1 0x1F AND DUP3 ADD SWAP2 JUMPDEST POP POP POP POP POP DUP2 JUMP JUMPDEST PUSH1 0x0 PUSH20 0xFFFFFFFFFFFFFFFFFFFFFFFFFFFFFFFFFFFFFFFF AND DUP4 PUSH20 0xFFFFFFFFFFFFFFFFFFFFFFFFFFFFFFFFFFFFFFFF AND EQ ISZERO PUSH2 0x41A JUMPI PUSH1 0x40 MLOAD PUSH32 0x8C379A000000000000000000000000000000000000000000000000000000000 DUP2 MSTORE PUSH1 0x4 ADD PUSH2 0x411 SWAP1 PUSH2 0x759 JUMP JUMPDEST PUSH1 0x40 MLOAD DUP1 SWAP2 SUB SWAP1 REVERT JUMPDEST PUSH2 0x426 PUSH1 0x0 DUP5 DUP5 PUSH2 0x53B JUMP JUMPDEST DUP1 PUSH1 0x3 PUSH1 0x0 DUP6 PUSH20 0xFFFFFFFFFFFFFFFFFFFFFFFFFFFFFFFFFFFFFFFF AND PUSH20 0xFFFFFFFFFFFFFFFFFFFFFFFFFFFFFFFFFFFFFFFF AND DUP2 MSTORE PUSH1 0x20 ADD SWAP1 DUP2 MSTORE PUSH1 0x20 ADD PUSH1 0x0 KECCAK256 PUSH1 0x0 DUP3 DUP3 SLOAD PUSH2 0x475 SWAP2 SWAP1 PUSH2 0x7B0 JUMP JUMPDEST SWAP3 POP POP DUP2 SWAP1 SSTORE POP DUP3 PUSH1 0x2 PUSH1 0x0 DUP5 DUP2 MSTORE PUSH1 0x20 ADD SWAP1 DUP2 MSTORE PUSH1 0x20 ADD PUSH1 0x0 KECCAK256 PUSH1 0x0 PUSH2 0x100 EXP DUP2 SLOAD DUP2 PUSH20 0xFFFFFFFFFFFFFFFFFFFFFFFFFFFFFFFFFFFFFFFF MUL NOT AND SWAP1 DUP4 PUSH20 0xFFFFFFFFFFFFFFFFFFFFFFFFFFFFFFFFFFFFFFFF AND MUL OR SWAP1 SSTORE POP DUP2 DUP4 PUSH20 0xFFFFFFFFFFFFFFFFFFFFFFFFFFFFFFFFFFFFFFFF AND PUSH1 0x0 PUSH20 0xFFFFFFFFFFFFFFFFFFFFFFFFFFFFFFFFFFFFFFFF AND PUSH32 0xDDF252AD1BE2C89B69C2B068FC378DAA952BA7F163C4A11628F55A4DF523B3EF PUSH1 0x40 MLOAD PUSH1 0x40 MLOAD DUP1 SWAP2 SUB SWAP1 LOG4 PUSH2 0x536 PUSH1 0x0 DUP5 DUP5 PUSH2 0x540 JUMP JUMPDEST POP POP POP JUMP JUMPDEST POP POP POP JUMP JUMPDEST POP POP POP JUMP JUMPDEST PUSH1 0x0 DUP2 CALLDATALOAD SWAP1 POP PUSH2 0x554 DUP2 PUSH2 0x9E2 JUMP JUMPDEST SWAP3 SWAP2 POP POP JUMP JUMPDEST PUSH1 0x0 DUP2 CALLDATALOAD SWAP1 POP PUSH2 0x569 DUP2 PUSH2 0x9F9 JUMP JUMPDEST SWAP3 SWAP2 POP POP JUMP JUMPDEST PUSH1 0x0 PUSH1 0x20 DUP3 DUP5 SUB SLT ISZERO PUSH2 0x585 JUMPI PUSH2 0x584 PUSH2 0x905 JUMP JUMPDEST JUMPDEST PUSH1 0x0 PUSH2 0x593 DUP5 DUP3 DUP6 ADD PUSH2 0x545 JUMP JUMPDEST SWAP2 POP POP SWAP3 SWAP2 POP POP JUMP JUMPDEST PUSH1 0x0 DUP1 PUSH1 0x0 PUSH1 0x60 DUP5 DUP7 SUB SLT ISZERO PUSH2 0x5B5 JUMPI PUSH2 0x5B4 PUSH2 0x905 JUMP JUMPDEST JUMPDEST PUSH1 0x0 PUSH2 0x5C3 DUP7 DUP3 DUP8 ADD PUSH2 0x545 JUMP JUMPDEST SWAP4 POP POP PUSH1 0x20 PUSH2 0x5D4 DUP7 DUP3 DUP8 ADD PUSH2 0x55A JUMP JUMPDEST SWAP3 POP POP PUSH1 0x40 PUSH2 0x5E5 DUP7 DUP3 DUP8 ADD PUSH2 0x55A JUMP JUMPDEST SWAP2 POP POP SWAP3 POP SWAP3 POP SWAP3 JUMP JUMPDEST PUSH1 0x0 PUSH1 0x20 DUP3 DUP5 SUB SLT ISZERO PUSH2 0x605 JUMPI PUSH2 0x604 PUSH2 0x905 JUMP JUMPDEST JUMPDEST PUSH1 0x0 PUSH2 0x613 DUP5 DUP3 DUP6 ADD PUSH2 0x55A JUMP JUMPDEST SWAP2 POP POP SWAP3 SWAP2 POP POP JUMP JUMPDEST PUSH2 0x625 DUP2 PUSH2 0x806 JUMP JUMPDEST DUP3 MSTORE POP POP JUMP JUMPDEST PUSH1 0x0 PUSH2 0x636 DUP3 PUSH2 0x794 JUMP JUMPDEST PUSH2 0x640 DUP2 DUP6 PUSH2 0x79F JUMP JUMPDEST SWAP4 POP PUSH2 0x650 DUP2 DUP6 PUSH1 0x20 DUP7 ADD PUSH2 0x842 JUMP JUMPDEST PUSH2 0x659 DUP2 PUSH2 0x90A JUMP JUMPDEST DUP5 ADD SWAP2 POP POP SWAP3 SWAP2 POP POP JUMP JUMPDEST PUSH1 0x0 PUSH2 0x671 PUSH1 0x2A DUP4 PUSH2 0x79F JUMP JUMPDEST SWAP2 POP PUSH2 0x67C DUP3 PUSH2 0x91B JUMP JUMPDEST PUSH1 0x40 DUP3 ADD SWAP1 POP SWAP2 SWAP1 POP JUMP JUMPDEST PUSH1 0x0 PUSH2 0x694 PUSH1 0x29 DUP4 PUSH2 0x79F JUMP JUMPDEST SWAP2 POP PUSH2 0x69F DUP3 PUSH2 0x96A JUMP JUMPDEST PUSH1 0x40 DUP3 ADD SWAP1 POP SWAP2 SWAP1 POP JUMP JUMPDEST PUSH1 0x0 PUSH2 0x6B7 PUSH1 0x20 DUP4 PUSH2 0x79F JUMP JUMPDEST SWAP2 POP PUSH2 0x6C2 DUP3 PUSH2 0x9B9 JUMP JUMPDEST PUSH1 0x20 DUP3 ADD SWAP1 POP SWAP2 SWAP1 POP JUMP JUMPDEST PUSH2 0x6D6 DUP2 PUSH2 0x838 JUMP JUMPDEST DUP3 MSTORE POP POP JUMP JUMPDEST PUSH1 0x0 PUSH1 0x20 DUP3 ADD SWAP1 POP PUSH2 0x6F1 PUSH1 0x0 DUP4 ADD DUP5 PUSH2 0x61C JUMP JUMPDEST SWAP3 SWAP2 POP POP JUMP JUMPDEST PUSH1 0x0 PUSH1 0x20 DUP3 ADD SWAP1 POP DUP2 DUP2 SUB PUSH1 0x0 DUP4 ADD MSTORE PUSH2 0x711 DUP2 DUP5 PUSH2 0x62B JUMP JUMPDEST SWAP1 POP SWAP3 SWAP2 POP POP JUMP JUMPDEST PUSH1 0x0 PUSH1 0x20 DUP3 ADD SWAP1 POP DUP2 DUP2 SUB PUSH1 0x0 DUP4 ADD MSTORE PUSH2 0x732 DUP2 PUSH2 0x664 JUMP JUMPDEST SWAP1 POP SWAP2 SWAP1 POP JUMP JUMPDEST PUSH1 0x0 PUSH1 0x20 DUP3 ADD SWAP1 POP DUP2 DUP2 SUB PUSH1 0x0 DUP4 ADD MSTORE PUSH2 0x752 DUP2 PUSH2 0x687 JUMP JUMPDEST SWAP1 POP SWAP2 SWAP1 POP JUMP JUMPDEST PUSH1 0x0 PUSH1 0x20 DUP3 ADD SWAP1 POP DUP2 DUP2 SUB PUSH1 0x0 DUP4 ADD MSTORE PUSH2 0x772 DUP2 PUSH2 0x6AA JUMP JUMPDEST SWAP1 POP SWAP2 SWAP1 POP JUMP JUMPDEST PUSH1 0x0 PUSH1 0x20 DUP3 ADD SWAP1 POP PUSH2 0x78E PUSH1 0x0 DUP4 ADD DUP5 PUSH2 0x6CD JUMP JUMPDEST SWAP3 SWAP2 POP POP JUMP JUMPDEST PUSH1 0x0 DUP2 MLOAD SWAP1 POP SWAP2 SWAP1 POP JUMP JUMPDEST PUSH1 0x0 DUP3 DUP3 MSTORE PUSH1 0x20 DUP3 ADD SWAP1 POP SWAP3 SWAP2 POP POP JUMP JUMPDEST PUSH1 0x0 PUSH2 0x7BB DUP3 PUSH2 0x838 JUMP JUMPDEST SWAP2 POP PUSH2 0x7C6 DUP4 PUSH2 0x838 JUMP JUMPDEST SWAP3 POP DUP3 PUSH32 0xFFFFFFFFFFFFFFFFFFFFFFFFFFFFFFFFFFFFFFFFFFFFFFFFFFFFFFFFFFFFFFFF SUB DUP3 GT ISZERO PUSH2 0x7FB JUMPI PUSH2 0x7FA PUSH2 0x8A7 JUMP JUMPDEST JUMPDEST DUP3 DUP3 ADD SWAP1 POP SWAP3 SWAP2 POP POP JUMP JUMPDEST PUSH1 0x0 PUSH2 0x811 DUP3 PUSH2 0x818 JUMP JUMPDEST SWAP1 POP SWAP2 SWAP1 POP JUMP JUMPDEST PUSH1 0x0 PUSH20 0xFFFFFFFFFFFFFFFFFFFFFFFFFFFFFFFFFFFFFFFF DUP3 AND SWAP1 POP SWAP2 SWAP1 POP JUMP JUMPDEST PUSH1 0x0 DUP2 SWAP1 POP SWAP2 SWAP1 POP JUMP JUMPDEST PUSH1 0x0 JUMPDEST DUP4 DUP2 LT ISZERO PUSH2 0x860 JUMPI DUP1 DUP3 ADD MLOAD DUP2 DUP5 ADD MSTORE PUSH1 0x20 DUP2 ADD SWAP1 POP PUSH2 0x845 JUMP JUMPDEST DUP4 DUP2 GT ISZERO PUSH2 0x86F JUMPI PUSH1 0x0 DUP5 DUP5 ADD MSTORE JUMPDEST POP POP POP POP JUMP JUMPDEST PUSH1 0x0 PUSH1 0x2 DUP3 DIV SWAP1 POP PUSH1 0x1 DUP3 AND DUP1 PUSH2 0x88D JUMPI PUSH1 0x7F DUP3 AND SWAP2 POP JUMPDEST PUSH1 0x20 DUP3 LT DUP2 EQ ISZERO PUSH2 0x8A1 JUMPI PUSH2 0x8A0 PUSH2 0x8D6 JUMP JUMPDEST JUMPDEST POP SWAP2 SWAP1 POP JUMP JUMPDEST PUSH32 0x4E487B7100000000000000000000000000000000000000000000000000000000 PUSH1 0x0 MSTORE PUSH1 0x11 PUSH1 0x4 MSTORE PUSH1 0x24 PUSH1 0x0 REVERT JUMPDEST PUSH32 0x4E487B7100000000000000000000000000000000000000000000000000000000 PUSH1 0x0 MSTORE PUSH1 0x22 PUSH1 0x4 MSTORE PUSH1 0x24 PUSH1 0x0 REVERT JUMPDEST PUSH1 0x0 DUP1 REVERT JUMPDEST PUSH1 0x0 PUSH1 0x1F NOT PUSH1 0x1F DUP4 ADD AND SWAP1 POP SWAP2 SWAP1 POP JUMP JUMPDEST PUSH32 0x4552433732313A2062616C616E636520717565727920666F7220746865207A65 PUSH1 0x0 DUP3 ADD MSTORE PUSH32 0x726F206164647265737300000000000000000000000000000000000000000000 PUSH1 0x20 DUP3 ADD MSTORE POP JUMP JUMPDEST PUSH32 0x4552433732313A206F776E657220717565727920666F72206E6F6E6578697374 PUSH1 0x0 DUP3 ADD MSTORE PUSH32 0x656E7420746F6B656E0000000000000000000000000000000000000000000000 PUSH1 0x20 DUP3 ADD MSTORE POP JUMP JUMPDEST PUSH32 0x4552433732313A206D696E7420746F20746865207A65726F2061646472657373 PUSH1 0x0 DUP3 ADD MSTORE POP JUMP JUMPDEST PUSH2 0x9EB DUP2 PUSH2 0x806 JUMP JUMPDEST DUP2 EQ PUSH2 0x9F6 JUMPI PUSH1 0x0 DUP1 REVERT JUMPDEST POP JUMP JUMPDEST PUSH2 0xA02 DUP2 PUSH2 0x838 JUMP JUMPDEST DUP2 EQ PUSH2 0xA0D JUMPI PUSH1 0x0 DUP1 REVERT JUMPDEST POP JUMP INVALID LOG2 PUSH5 0x6970667358 0x22 SLT KECCAK256 RETURN STATICCALL CALLVALUE 0x28 0xD EXTCODEHASH 0xB7 LOG2 0x4A 0xFB 0xC7 RETURN LOG3 SWAP7 RETURNDATASIZE ADDRESS PUSH2 0xF386 CODECOPY 0x26 CREATE2 DUP3 0xB3 LOG1 NOT 0xD8 CHAINID 0xCB SWAP11 EXTCODEHASH 0xB6 PUSH5 0x736F6C6343 STOP ADDMOD SMOD STOP CALLER "
				},
				"gasEstimates": {
					"creation": {
						"codeDepositCost": "526000",
						"executionCost": "infinite",
						"totalCost": "infinite"
					},
					"external": {
						"balanceOf(address)": "2923",
						"mint(address,uint256,uint256)": "infinite",
						"name()": "infinite",
						"ownerOf(uint256)": "2999",
						"symbol()": "infinite"
					},
					"internal": {
						"_afterTokenTransfer(address,address,uint256)": "15",
						"_baseURI()": "infinite",
						"_beforeTokenTransfer(address,address,uint256)": "15",
						"_exists(uint256)": "infinite",
						"_mint(address,uint256,uint256)": "infinite"
					}
				},
				"methodIdentifiers": {
					"balanceOf(address)": "70a08231",
					"mint(address,uint256,uint256)": "156e29f6",
					"name()": "06fdde03",
					"ownerOf(uint256)": "6352211e",
					"symbol()": "95d89b41"
				}
			},
			"userdoc": {
				"kind": "user",
				"methods": {},
				"version": 1
			}
		}
	}
}