{
	"contracts/BS_ERC20.sol": {
		"BlueSurgeToken": {
			"abi": [
				{
					"inputs": [],
					"stateMutability": "nonpayable",
					"type": "constructor"
				},
				{
					"anonymous": false,
					"inputs": [
						{
							"indexed": true,
							"internalType": "address",
							"name": "owner",
							"type": "address"
						},
						{
							"indexed": true,
							"internalType": "address",
							"name": "spender",
							"type": "address"
						},
						{
							"indexed": false,
							"internalType": "uint256",
							"name": "value",
							"type": "uint256"
						}
					],
					"name": "Approval",
					"type": "event"
				},
				{
					"anonymous": false,
					"inputs": [
						{
							"indexed": true,
							"internalType": "address",
							"name": "from",
							"type": "address"
						},
						{
							"indexed": true,
							"internalType": "address",
							"name": "to",
							"type": "address"
						},
						{
							"indexed": false,
							"internalType": "uint256",
							"name": "value",
							"type": "uint256"
						}
					],
					"name": "Transfer",
					"type": "event"
				},
				{
					"inputs": [
						{
							"internalType": "address",
							"name": "",
							"type": "address"
						},
						{
							"internalType": "address",
							"name": "",
							"type": "address"
						}
					],
					"name": "allowance",
					"outputs": [
						{
							"internalType": "uint256",
							"name": "",
							"type": "uint256"
						}
					],
					"stateMutability": "view",
					"type": "function"
				},
				{
					"inputs": [
						{
							"internalType": "address",
							"name": "",
							"type": "address"
						}
					],
					"name": "balanceOf",
					"outputs": [
						{
							"internalType": "uint256",
							"name": "",
							"type": "uint256"
						}
					],
					"stateMutability": "view",
					"type": "function"
				},
				{
					"inputs": [
						{
							"internalType": "address",
							"name": "_reciever",
							"type": "address"
						},
						{
							"internalType": "uint256",
							"name": "_value",
							"type": "uint256"
						}
					],
					"name": "buyToken",
					"outputs": [
						{
							"internalType": "bool",
							"name": "success",
							"type": "bool"
						}
					],
					"stateMutability": "payable",
					"type": "function"
				},
				{
					"inputs": [],
					"name": "decimals",
					"outputs": [
						{
							"internalType": "uint256",
							"name": "",
							"type": "uint256"
						}
					],
					"stateMutability": "view",
					"type": "function"
				},
				{
					"inputs": [],
					"name": "name",
					"outputs": [
						{
							"internalType": "string",
							"name": "",
							"type": "string"
						}
					],
					"stateMutability": "view",
					"type": "function"
				},
				{
					"inputs": [],
					"name": "symbol",
					"outputs": [
						{
							"internalType": "string",
							"name": "",
							"type": "string"
						}
					],
					"stateMutability": "view",
					"type": "function"
				},
				{
					"inputs": [],
					"name": "totalSupply",
					"outputs": [
						{
							"internalType": "uint256",
							"name": "",
							"type": "uint256"
						}
					],
					"stateMutability": "view",
					"type": "function"
				},
				{
					"inputs": [
						{
							"internalType": "address",
							"name": "_to",
							"type": "address"
						},
						{
							"internalType": "uint256",
							"name": "_value",
							"type": "uint256"
						}
					],
					"name": "transfer",
					"outputs": [
						{
							"internalType": "bool",
							"name": "success",
							"type": "bool"
						}
					],
					"stateMutability": "nonpayable",
					"type": "function"
				}
			],
			"devdoc": {
				"kind": "dev",
				"methods": {},
				"version": 1
			},
			"evm": {
				"assembly": "    /* \"contracts/BS_ERC20.sol\":61:1702  contract BlueSurgeToken {\r... */\n  mstore(0x40, 0x80)\n    /* \"contracts/BS_ERC20.sol\":254:258  1000 */\n  0x03e8\n    /* \"contracts/BS_ERC20.sol\":230:258  uint256 private price = 1000 */\n  0x04\n  sstore\n    /* \"contracts/BS_ERC20.sol\":657:841  constructor() {\r... */\n  callvalue\n  dup1\n  iszero\n  tag_1\n  jumpi\n  0x00\n  dup1\n  revert\ntag_1:\n  pop\n    /* \"contracts/BS_ERC20.sol\":682:705  name = \"BlueSurgeToken\" */\n  mload(0x40)\n  dup1\n  0x40\n  add\n  0x40\n  mstore\n  dup1\n  0x0e\n  dup2\n  mstore\n  0x20\n  add\n  0x426c75655375726765546f6b656e000000000000000000000000000000000000\n  dup2\n  mstore\n  pop\n    /* \"contracts/BS_ERC20.sol\":682:686  name */\n  0x00\n    /* \"contracts/BS_ERC20.sol\":682:705  name = \"BlueSurgeToken\" */\n  swap1\n  dup1\n  mload\n  swap1\n  0x20\n  add\n  swap1\n  tag_4\n  swap3\n  swap2\n  swap1\n  tag_5\n  jump\t// in\ntag_4:\n  pop\n    /* \"contracts/BS_ERC20.sol\":716:730  symbol = \"BST\" */\n  mload(0x40)\n  dup1\n  0x40\n  add\n  0x40\n  mstore\n  dup1\n  0x03\n  dup2\n  mstore\n  0x20\n  add\n  0x4253540000000000000000000000000000000000000000000000000000000000\n  dup2\n  mstore\n  pop\n    /* \"contracts/BS_ERC20.sol\":716:722  symbol */\n  0x01\n    /* \"contracts/BS_ERC20.sol\":716:730  symbol = \"BST\" */\n  swap1\n  dup1\n  mload\n  swap1\n  0x20\n  add\n  swap1\n  tag_6\n  swap3\n  swap2\n  swap1\n  tag_5\n  jump\t// in\ntag_6:\n  pop\n    /* \"contracts/BS_ERC20.sol\":752:754  18 */\n  0x12\n    /* \"contracts/BS_ERC20.sol\":741:749  decimals */\n  0x02\n    /* \"contracts/BS_ERC20.sol\":741:754  decimals = 18 */\n  dup2\n  swap1\n  sstore\n  pop\n    /* \"contracts/BS_ERC20.sol\":779:786  1000000 */\n  0x0f4240\n    /* \"contracts/BS_ERC20.sol\":765:776  totalSupply */\n  0x03\n    /* \"contracts/BS_ERC20.sol\":765:786  totalSupply = 1000000 */\n  dup2\n  swap1\n  sstore\n  pop\n    /* \"contracts/BS_ERC20.sol\":822:833  totalSupply */\n  sload(0x03)\n    /* \"contracts/BS_ERC20.sol\":798:807  balanceOf */\n  0x05\n    /* \"contracts/BS_ERC20.sol\":798:819  balanceOf[msg.sender] */\n  0x00\n    /* \"contracts/BS_ERC20.sol\":808:818  msg.sender */\n  caller\n    /* \"contracts/BS_ERC20.sol\":798:819  balanceOf[msg.sender] */\n  0xffffffffffffffffffffffffffffffffffffffff\n  and\n  0xffffffffffffffffffffffffffffffffffffffff\n  and\n  dup2\n  mstore\n  0x20\n  add\n  swap1\n  dup2\n  mstore\n  0x20\n  add\n  0x00\n  keccak256\n    /* \"contracts/BS_ERC20.sol\":798:833  balanceOf[msg.sender] = totalSupply */\n  dup2\n  swap1\n  sstore\n  pop\n    /* \"contracts/BS_ERC20.sol\":61:1702  contract BlueSurgeToken {\r... */\n  jump(tag_7)\ntag_5:\n  dup3\n  dup1\n  sload\n  tag_8\n  swap1\n  tag_9\n  jump\t// in\ntag_8:\n  swap1\n  0x00\n  mstore\n  keccak256(0x00, 0x20)\n  swap1\n  0x1f\n  add\n  0x20\n  swap1\n  div\n  dup2\n  add\n  swap3\n  dup3\n  tag_11\n  jumpi\n  0x00\n  dup6\n  sstore\n  jump(tag_10)\ntag_11:\n  dup3\n  0x1f\n  lt\n  tag_12\n  jumpi\n  dup1\n  mload\n  not(0xff)\n  and\n  dup4\n  dup1\n  add\n  or\n  dup6\n  sstore\n  jump(tag_10)\ntag_12:\n  dup3\n  dup1\n  add\n  0x01\n  add\n  dup6\n  sstore\n  dup3\n  iszero\n  tag_10\n  jumpi\n  swap2\n  dup3\n  add\ntag_13:\n  dup3\n  dup2\n  gt\n  iszero\n  tag_14\n  jumpi\n  dup3\n  mload\n  dup3\n  sstore\n  swap2\n  0x20\n  add\n  swap2\n  swap1\n  0x01\n  add\n  swap1\n  jump(tag_13)\ntag_14:\ntag_10:\n  pop\n  swap1\n  pop\n  tag_15\n  swap2\n  swap1\n  tag_16\n  jump\t// in\ntag_15:\n  pop\n  swap1\n  jump\t// out\ntag_16:\ntag_17:\n  dup1\n  dup3\n  gt\n  iszero\n  tag_18\n  jumpi\n  0x00\n  dup2\n  0x00\n  swap1\n  sstore\n  pop\n  0x01\n  add\n  jump(tag_17)\ntag_18:\n  pop\n  swap1\n  jump\t// out\n    /* \"#utility.yul\":7:327   */\ntag_9:\n    /* \"#utility.yul\":51:57   */\n  0x00\n    /* \"#utility.yul\":88:89   */\n  0x02\n    /* \"#utility.yul\":82:86   */\n  dup3\n    /* \"#utility.yul\":78:90   */\n  div\n    /* \"#utility.yul\":68:90   */\n  swap1\n  pop\n    /* \"#utility.yul\":135:136   */\n  0x01\n    /* \"#utility.yul\":129:133   */\n  dup3\n    /* \"#utility.yul\":125:137   */\n  and\n    /* \"#utility.yul\":156:174   */\n  dup1\n    /* \"#utility.yul\":146:227   */\n  tag_21\n  jumpi\n    /* \"#utility.yul\":212:216   */\n  0x7f\n    /* \"#utility.yul\":204:210   */\n  dup3\n    /* \"#utility.yul\":200:217   */\n  and\n    /* \"#utility.yul\":190:217   */\n  swap2\n  pop\n    /* \"#utility.yul\":146:227   */\ntag_21:\n    /* \"#utility.yul\":274:276   */\n  0x20\n    /* \"#utility.yul\":266:272   */\n  dup3\n    /* \"#utility.yul\":263:277   */\n  lt\n    /* \"#utility.yul\":243:261   */\n  dup2\n    /* \"#utility.yul\":240:278   */\n  eq\n    /* \"#utility.yul\":237:321   */\n  iszero\n  tag_22\n  jumpi\n    /* \"#utility.yul\":293:311   */\n  tag_23\n  tag_24\n  jump\t// in\ntag_23:\n    /* \"#utility.yul\":237:321   */\ntag_22:\n    /* \"#utility.yul\":58:327   */\n  pop\n    /* \"#utility.yul\":7:327   */\n  swap2\n  swap1\n  pop\n  jump\t// out\n    /* \"#utility.yul\":333:513   */\ntag_24:\n    /* \"#utility.yul\":381:458   */\n  0x4e487b7100000000000000000000000000000000000000000000000000000000\n    /* \"#utility.yul\":378:379   */\n  0x00\n    /* \"#utility.yul\":371:459   */\n  mstore\n    /* \"#utility.yul\":478:482   */\n  0x22\n    /* \"#utility.yul\":475:476   */\n  0x04\n    /* \"#utility.yul\":468:483   */\n  mstore\n    /* \"#utility.yul\":502:506   */\n  0x24\n    /* \"#utility.yul\":499:500   */\n  0x00\n    /* \"#utility.yul\":492:507   */\n  revert\n    /* \"contracts/BS_ERC20.sol\":61:1702  contract BlueSurgeToken {\r... */\ntag_7:\n  dataSize(sub_0)\n  dup1\n  dataOffset(sub_0)\n  0x00\n  codecopy\n  0x00\n  return\nstop\n\nsub_0: assembly {\n        /* \"contracts/BS_ERC20.sol\":61:1702  contract BlueSurgeToken {\r... */\n      mstore(0x40, 0x80)\n      jumpi(tag_1, lt(calldatasize, 0x04))\n      shr(0xe0, calldataload(0x00))\n      dup1\n      0x70a08231\n      gt\n      tag_10\n      jumpi\n      dup1\n      0x70a08231\n      eq\n      tag_6\n      jumpi\n      dup1\n      0x95d89b41\n      eq\n      tag_7\n      jumpi\n      dup1\n      0xa9059cbb\n      eq\n      tag_8\n      jumpi\n      dup1\n      0xdd62ed3e\n      eq\n      tag_9\n      jumpi\n      jump(tag_1)\n    tag_10:\n      dup1\n      0x06fdde03\n      eq\n      tag_2\n      jumpi\n      dup1\n      0x18160ddd\n      eq\n      tag_3\n      jumpi\n      dup1\n      0x313ce567\n      eq\n      tag_4\n      jumpi\n      dup1\n      0x68f8fc10\n      eq\n      tag_5\n      jumpi\n    tag_1:\n      0x00\n      dup1\n      revert\n        /* \"contracts/BS_ERC20.sol\":115:133  string public name */\n    tag_2:\n      callvalue\n      dup1\n      iszero\n      tag_11\n      jumpi\n      0x00\n      dup1\n      revert\n    tag_11:\n      pop\n      tag_12\n      tag_13\n      jump\t// in\n    tag_12:\n      mload(0x40)\n      tag_14\n      swap2\n      swap1\n      tag_15\n      jump\t// in\n    tag_14:\n      mload(0x40)\n      dup1\n      swap2\n      sub\n      swap1\n      return\n        /* \"contracts/BS_ERC20.sol\":197:223  uint256 public totalSupply */\n    tag_3:\n      callvalue\n      dup1\n      iszero\n      tag_16\n      jumpi\n      0x00\n      dup1\n      revert\n    tag_16:\n      pop\n      tag_17\n      tag_18\n      jump\t// in\n    tag_17:\n      mload(0x40)\n      tag_19\n      swap2\n      swap1\n      tag_20\n      jump\t// in\n    tag_19:\n      mload(0x40)\n      dup1\n      swap2\n      sub\n      swap1\n      return\n        /* \"contracts/BS_ERC20.sol\":167:190  uint256 public decimals */\n    tag_4:\n      callvalue\n      dup1\n      iszero\n      tag_21\n      jumpi\n      0x00\n      dup1\n      revert\n    tag_21:\n      pop\n      tag_22\n      tag_23\n      jump\t// in\n    tag_22:\n      mload(0x40)\n      tag_24\n      swap2\n      swap1\n      tag_20\n      jump\t// in\n    tag_24:\n      mload(0x40)\n      dup1\n      swap2\n      sub\n      swap1\n      return\n        /* \"contracts/BS_ERC20.sol\":1063:1300  function buyToken(address _reciever, uint256 _value) external payable returns (bool success) {\r... */\n    tag_5:\n      tag_25\n      0x04\n      dup1\n      calldatasize\n      sub\n      dup2\n      add\n      swap1\n      tag_26\n      swap2\n      swap1\n      tag_27\n      jump\t// in\n    tag_26:\n      tag_28\n      jump\t// in\n    tag_25:\n      mload(0x40)\n      tag_29\n      swap2\n      swap1\n      tag_30\n      jump\t// in\n    tag_29:\n      mload(0x40)\n      dup1\n      swap2\n      sub\n      swap1\n      return\n        /* \"contracts/BS_ERC20.sol\":319:363  mapping(address => uint256) public balanceOf */\n    tag_6:\n      callvalue\n      dup1\n      iszero\n      tag_31\n      jumpi\n      0x00\n      dup1\n      revert\n    tag_31:\n      pop\n      tag_32\n      0x04\n      dup1\n      calldatasize\n      sub\n      dup2\n      add\n      swap1\n      tag_33\n      swap2\n      swap1\n      tag_34\n      jump\t// in\n    tag_33:\n      tag_35\n      jump\t// in\n    tag_32:\n      mload(0x40)\n      tag_36\n      swap2\n      swap1\n      tag_20\n      jump\t// in\n    tag_36:\n      mload(0x40)\n      dup1\n      swap2\n      sub\n      swap1\n      return\n        /* \"contracts/BS_ERC20.sol\":140:160  string public symbol */\n    tag_7:\n      callvalue\n      dup1\n      iszero\n      tag_37\n      jumpi\n      0x00\n      dup1\n      revert\n    tag_37:\n      pop\n      tag_38\n      tag_39\n      jump\t// in\n    tag_38:\n      mload(0x40)\n      tag_40\n      swap2\n      swap1\n      tag_15\n      jump\t// in\n    tag_40:\n      mload(0x40)\n      dup1\n      swap2\n      sub\n      swap1\n      return\n        /* \"contracts/BS_ERC20.sol\":850:1055  function transfer(address _to, uint256 _value) external returns (bool success) {\r... */\n    tag_8:\n      callvalue\n      dup1\n      iszero\n      tag_41\n      jumpi\n      0x00\n      dup1\n      revert\n    tag_41:\n      pop\n      tag_42\n      0x04\n      dup1\n      calldatasize\n      sub\n      dup2\n      add\n      swap1\n      tag_43\n      swap2\n      swap1\n      tag_27\n      jump\t// in\n    tag_43:\n      tag_44\n      jump\t// in\n    tag_42:\n      mload(0x40)\n      tag_45\n      swap2\n      swap1\n      tag_30\n      jump\t// in\n    tag_45:\n      mload(0x40)\n      dup1\n      swap2\n      sub\n      swap1\n      return\n        /* \"contracts/BS_ERC20.sol\":370:434  mapping(address => mapping(address => uint256)) public allowance */\n    tag_9:\n      callvalue\n      dup1\n      iszero\n      tag_46\n      jumpi\n      0x00\n      dup1\n      revert\n    tag_46:\n      pop\n      tag_47\n      0x04\n      dup1\n      calldatasize\n      sub\n      dup2\n      add\n      swap1\n      tag_48\n      swap2\n      swap1\n      tag_49\n      jump\t// in\n    tag_48:\n      tag_50\n      jump\t// in\n    tag_47:\n      mload(0x40)\n      tag_51\n      swap2\n      swap1\n      tag_20\n      jump\t// in\n    tag_51:\n      mload(0x40)\n      dup1\n      swap2\n      sub\n      swap1\n      return\n        /* \"contracts/BS_ERC20.sol\":115:133  string public name */\n    tag_13:\n      0x00\n      dup1\n      sload\n      tag_52\n      swap1\n      tag_53\n      jump\t// in\n    tag_52:\n      dup1\n      0x1f\n      add\n      0x20\n      dup1\n      swap2\n      div\n      mul\n      0x20\n      add\n      mload(0x40)\n      swap1\n      dup2\n      add\n      0x40\n      mstore\n      dup1\n      swap3\n      swap2\n      swap1\n      dup2\n      dup2\n      mstore\n      0x20\n      add\n      dup3\n      dup1\n      sload\n      tag_54\n      swap1\n      tag_53\n      jump\t// in\n    tag_54:\n      dup1\n      iszero\n      tag_55\n      jumpi\n      dup1\n      0x1f\n      lt\n      tag_56\n      jumpi\n      0x0100\n      dup1\n      dup4\n      sload\n      div\n      mul\n      dup4\n      mstore\n      swap2\n      0x20\n      add\n      swap2\n      jump(tag_55)\n    tag_56:\n      dup3\n      add\n      swap2\n      swap1\n      0x00\n      mstore\n      keccak256(0x00, 0x20)\n      swap1\n    tag_57:\n      dup2\n      sload\n      dup2\n      mstore\n      swap1\n      0x01\n      add\n      swap1\n      0x20\n      add\n      dup1\n      dup4\n      gt\n      tag_57\n      jumpi\n      dup3\n      swap1\n      sub\n      0x1f\n      and\n      dup3\n      add\n      swap2\n    tag_55:\n      pop\n      pop\n      pop\n      pop\n      pop\n      dup2\n      jump\t// out\n        /* \"contracts/BS_ERC20.sol\":197:223  uint256 public totalSupply */\n    tag_18:\n      sload(0x03)\n      dup2\n      jump\t// out\n        /* \"contracts/BS_ERC20.sol\":167:190  uint256 public decimals */\n    tag_23:\n      sload(0x02)\n      dup2\n      jump\t// out\n        /* \"contracts/BS_ERC20.sol\":1063:1300  function buyToken(address _reciever, uint256 _value) external payable returns (bool success) {\r... */\n    tag_28:\n        /* \"contracts/BS_ERC20.sol\":1142:1154  bool success */\n      0x00\n        /* \"contracts/BS_ERC20.sol\":1207:1212  price */\n      sload(0x04)\n        /* \"contracts/BS_ERC20.sol\":1200:1206  _value */\n      dup3\n        /* \"contracts/BS_ERC20.sol\":1200:1212  _value/price */\n      tag_59\n      swap2\n      swap1\n      tag_60\n      jump\t// in\n    tag_59:\n        /* \"contracts/BS_ERC20.sol\":1175:1184  balanceOf */\n      0x05\n        /* \"contracts/BS_ERC20.sol\":1175:1196  balanceOf[msg.sender] */\n      0x00\n        /* \"contracts/BS_ERC20.sol\":1185:1195  msg.sender */\n      caller\n        /* \"contracts/BS_ERC20.sol\":1175:1196  balanceOf[msg.sender] */\n      0xffffffffffffffffffffffffffffffffffffffff\n      and\n      0xffffffffffffffffffffffffffffffffffffffff\n      and\n      dup2\n      mstore\n      0x20\n      add\n      swap1\n      dup2\n      mstore\n      0x20\n      add\n      0x00\n      keccak256\n      sload\n        /* \"contracts/BS_ERC20.sol\":1175:1212  balanceOf[msg.sender] >= _value/price */\n      lt\n      iszero\n        /* \"contracts/BS_ERC20.sol\":1167:1213  require(balanceOf[msg.sender] >= _value/price) */\n      tag_61\n      jumpi\n      0x00\n      dup1\n      revert\n    tag_61:\n        /* \"contracts/BS_ERC20.sol\":1224:1270  _transfer(msg.sender, _reciever, _value/price) */\n      tag_62\n        /* \"contracts/BS_ERC20.sol\":1234:1244  msg.sender */\n      caller\n        /* \"contracts/BS_ERC20.sol\":1246:1255  _reciever */\n      dup5\n        /* \"contracts/BS_ERC20.sol\":1264:1269  price */\n      sload(0x04)\n        /* \"contracts/BS_ERC20.sol\":1257:1263  _value */\n      dup6\n        /* \"contracts/BS_ERC20.sol\":1257:1269  _value/price */\n      tag_63\n      swap2\n      swap1\n      tag_60\n      jump\t// in\n    tag_63:\n        /* \"contracts/BS_ERC20.sol\":1224:1233  _transfer */\n      tag_64\n        /* \"contracts/BS_ERC20.sol\":1224:1270  _transfer(msg.sender, _reciever, _value/price) */\n      jump\t// in\n    tag_62:\n        /* \"contracts/BS_ERC20.sol\":1288:1292  true */\n      0x01\n        /* \"contracts/BS_ERC20.sol\":1281:1292  return true */\n      swap1\n      pop\n        /* \"contracts/BS_ERC20.sol\":1063:1300  function buyToken(address _reciever, uint256 _value) external payable returns (bool success) {\r... */\n      swap3\n      swap2\n      pop\n      pop\n      jump\t// out\n        /* \"contracts/BS_ERC20.sol\":319:363  mapping(address => uint256) public balanceOf */\n    tag_35:\n      mstore(0x20, 0x05)\n      dup1\n      0x00\n      mstore\n      keccak256(0x00, 0x40)\n      0x00\n      swap2\n      pop\n      swap1\n      pop\n      sload\n      dup2\n      jump\t// out\n        /* \"contracts/BS_ERC20.sol\":140:160  string public symbol */\n    tag_39:\n      0x01\n      dup1\n      sload\n      tag_65\n      swap1\n      tag_53\n      jump\t// in\n    tag_65:\n      dup1\n      0x1f\n      add\n      0x20\n      dup1\n      swap2\n      div\n      mul\n      0x20\n      add\n      mload(0x40)\n      swap1\n      dup2\n      add\n      0x40\n      mstore\n      dup1\n      swap3\n      swap2\n      swap1\n      dup2\n      dup2\n      mstore\n      0x20\n      add\n      dup3\n      dup1\n      sload\n      tag_66\n      swap1\n      tag_53\n      jump\t// in\n    tag_66:\n      dup1\n      iszero\n      tag_67\n      jumpi\n      dup1\n      0x1f\n      lt\n      tag_68\n      jumpi\n      0x0100\n      dup1\n      dup4\n      sload\n      div\n      mul\n      dup4\n      mstore\n      swap2\n      0x20\n      add\n      swap2\n      jump(tag_67)\n    tag_68:\n      dup3\n      add\n      swap2\n      swap1\n      0x00\n      mstore\n      keccak256(0x00, 0x20)\n      swap1\n    tag_69:\n      dup2\n      sload\n      dup2\n      mstore\n      swap1\n      0x01\n      add\n      swap1\n      0x20\n      add\n      dup1\n      dup4\n      gt\n      tag_69\n      jumpi\n      dup3\n      swap1\n      sub\n      0x1f\n      and\n      dup3\n      add\n      swap2\n    tag_67:\n      pop\n      pop\n      pop\n      pop\n      pop\n      dup2\n      jump\t// out\n        /* \"contracts/BS_ERC20.sol\":850:1055  function transfer(address _to, uint256 _value) external returns (bool success) {\r... */\n    tag_44:\n        /* \"contracts/BS_ERC20.sol\":915:927  bool success */\n      0x00\n        /* \"contracts/BS_ERC20.sol\":973:979  _value */\n      dup2\n        /* \"contracts/BS_ERC20.sol\":948:957  balanceOf */\n      0x05\n        /* \"contracts/BS_ERC20.sol\":948:969  balanceOf[msg.sender] */\n      0x00\n        /* \"contracts/BS_ERC20.sol\":958:968  msg.sender */\n      caller\n        /* \"contracts/BS_ERC20.sol\":948:969  balanceOf[msg.sender] */\n      0xffffffffffffffffffffffffffffffffffffffff\n      and\n      0xffffffffffffffffffffffffffffffffffffffff\n      and\n      dup2\n      mstore\n      0x20\n      add\n      swap1\n      dup2\n      mstore\n      0x20\n      add\n      0x00\n      keccak256\n      sload\n        /* \"contracts/BS_ERC20.sol\":948:979  balanceOf[msg.sender] >= _value */\n      lt\n      iszero\n        /* \"contracts/BS_ERC20.sol\":940:980  require(balanceOf[msg.sender] >= _value) */\n      tag_71\n      jumpi\n      0x00\n      dup1\n      revert\n    tag_71:\n        /* \"contracts/BS_ERC20.sol\":991:1025  _transfer(msg.sender, _to, _value) */\n      tag_72\n        /* \"contracts/BS_ERC20.sol\":1001:1011  msg.sender */\n      caller\n        /* \"contracts/BS_ERC20.sol\":1013:1016  _to */\n      dup5\n        /* \"contracts/BS_ERC20.sol\":1018:1024  _value */\n      dup5\n        /* \"contracts/BS_ERC20.sol\":991:1000  _transfer */\n      tag_64\n        /* \"contracts/BS_ERC20.sol\":991:1025  _transfer(msg.sender, _to, _value) */\n      jump\t// in\n    tag_72:\n        /* \"contracts/BS_ERC20.sol\":1043:1047  true */\n      0x01\n        /* \"contracts/BS_ERC20.sol\":1036:1047  return true */\n      swap1\n      pop\n        /* \"contracts/BS_ERC20.sol\":850:1055  function transfer(address _to, uint256 _value) external returns (bool success) {\r... */\n      swap3\n      swap2\n      pop\n      pop\n      jump\t// out\n        /* \"contracts/BS_ERC20.sol\":370:434  mapping(address => mapping(address => uint256)) public allowance */\n    tag_50:\n      mstore(0x20, 0x06)\n      dup2\n      0x00\n      mstore\n      mstore(0x20, keccak256(0x00, 0x40))\n      dup1\n      0x00\n      mstore\n      keccak256(0x00, 0x40)\n      0x00\n      swap2\n      pop\n      swap2\n      pop\n      pop\n      sload\n      dup2\n      jump\t// out\n        /* \"contracts/BS_ERC20.sol\":1344:1699  function _transfer(address _from, address _to, uint256 _value) internal {\r... */\n    tag_64:\n        /* \"contracts/BS_ERC20.sol\":1534:1535  0 */\n      0x00\n        /* \"contracts/BS_ERC20.sol\":1519:1536  _to != address(0) */\n      0xffffffffffffffffffffffffffffffffffffffff\n      and\n        /* \"contracts/BS_ERC20.sol\":1519:1522  _to */\n      dup3\n        /* \"contracts/BS_ERC20.sol\":1519:1536  _to != address(0) */\n      0xffffffffffffffffffffffffffffffffffffffff\n      and\n      eq\n      iszero\n        /* \"contracts/BS_ERC20.sol\":1511:1537  require(_to != address(0)) */\n      tag_74\n      jumpi\n      0x00\n      dup1\n      revert\n    tag_74:\n        /* \"contracts/BS_ERC20.sol\":1587:1593  _value */\n      dup1\n        /* \"contracts/BS_ERC20.sol\":1567:1576  balanceOf */\n      0x05\n        /* \"contracts/BS_ERC20.sol\":1567:1583  balanceOf[_from] */\n      0x00\n        /* \"contracts/BS_ERC20.sol\":1577:1582  _from */\n      dup6\n        /* \"contracts/BS_ERC20.sol\":1567:1583  balanceOf[_from] */\n      0xffffffffffffffffffffffffffffffffffffffff\n      and\n      0xffffffffffffffffffffffffffffffffffffffff\n      and\n      dup2\n      mstore\n      0x20\n      add\n      swap1\n      dup2\n      mstore\n      0x20\n      add\n      0x00\n      keccak256\n      sload\n        /* \"contracts/BS_ERC20.sol\":1567:1594  balanceOf[_from] - (_value) */\n      tag_75\n      swap2\n      swap1\n      tag_76\n      jump\t// in\n    tag_75:\n        /* \"contracts/BS_ERC20.sol\":1548:1557  balanceOf */\n      0x05\n        /* \"contracts/BS_ERC20.sol\":1548:1564  balanceOf[_from] */\n      0x00\n        /* \"contracts/BS_ERC20.sol\":1558:1563  _from */\n      dup6\n        /* \"contracts/BS_ERC20.sol\":1548:1564  balanceOf[_from] */\n      0xffffffffffffffffffffffffffffffffffffffff\n      and\n      0xffffffffffffffffffffffffffffffffffffffff\n      and\n      dup2\n      mstore\n      0x20\n      add\n      swap1\n      dup2\n      mstore\n      0x20\n      add\n      0x00\n      keccak256\n        /* \"contracts/BS_ERC20.sol\":1548:1594  balanceOf[_from] = balanceOf[_from] - (_value) */\n      dup2\n      swap1\n      sstore\n      pop\n        /* \"contracts/BS_ERC20.sol\":1640:1646  _value */\n      dup1\n        /* \"contracts/BS_ERC20.sol\":1622:1631  balanceOf */\n      0x05\n        /* \"contracts/BS_ERC20.sol\":1622:1636  balanceOf[_to] */\n      0x00\n        /* \"contracts/BS_ERC20.sol\":1632:1635  _to */\n      dup5\n        /* \"contracts/BS_ERC20.sol\":1622:1636  balanceOf[_to] */\n      0xffffffffffffffffffffffffffffffffffffffff\n      and\n      0xffffffffffffffffffffffffffffffffffffffff\n      and\n      dup2\n      mstore\n      0x20\n      add\n      swap1\n      dup2\n      mstore\n      0x20\n      add\n      0x00\n      keccak256\n      sload\n        /* \"contracts/BS_ERC20.sol\":1622:1647  balanceOf[_to] + (_value) */\n      tag_77\n      swap2\n      swap1\n      tag_78\n      jump\t// in\n    tag_77:\n        /* \"contracts/BS_ERC20.sol\":1605:1614  balanceOf */\n      0x05\n        /* \"contracts/BS_ERC20.sol\":1605:1619  balanceOf[_to] */\n      0x00\n        /* \"contracts/BS_ERC20.sol\":1615:1618  _to */\n      dup5\n        /* \"contracts/BS_ERC20.sol\":1605:1619  balanceOf[_to] */\n      0xffffffffffffffffffffffffffffffffffffffff\n      and\n      0xffffffffffffffffffffffffffffffffffffffff\n      and\n      dup2\n      mstore\n      0x20\n      add\n      swap1\n      dup2\n      mstore\n      0x20\n      add\n      0x00\n      keccak256\n        /* \"contracts/BS_ERC20.sol\":1605:1647  balanceOf[_to] = balanceOf[_to] + (_value) */\n      dup2\n      swap1\n      sstore\n      pop\n        /* \"contracts/BS_ERC20.sol\":1679:1682  _to */\n      dup2\n        /* \"contracts/BS_ERC20.sol\":1663:1691  Transfer(_from, _to, _value) */\n      0xffffffffffffffffffffffffffffffffffffffff\n      and\n        /* \"contracts/BS_ERC20.sol\":1672:1677  _from */\n      dup4\n        /* \"contracts/BS_ERC20.sol\":1663:1691  Transfer(_from, _to, _value) */\n      0xffffffffffffffffffffffffffffffffffffffff\n      and\n      0xddf252ad1be2c89b69c2b068fc378daa952ba7f163c4a11628f55a4df523b3ef\n        /* \"contracts/BS_ERC20.sol\":1684:1690  _value */\n      dup4\n        /* \"contracts/BS_ERC20.sol\":1663:1691  Transfer(_from, _to, _value) */\n      mload(0x40)\n      tag_79\n      swap2\n      swap1\n      tag_20\n      jump\t// in\n    tag_79:\n      mload(0x40)\n      dup1\n      swap2\n      sub\n      swap1\n      log3\n        /* \"contracts/BS_ERC20.sol\":1344:1699  function _transfer(address _from, address _to, uint256 _value) internal {\r... */\n      pop\n      pop\n      pop\n      jump\t// out\n        /* \"#utility.yul\":7:146   */\n    tag_81:\n        /* \"#utility.yul\":53:58   */\n      0x00\n        /* \"#utility.yul\":91:97   */\n      dup2\n        /* \"#utility.yul\":78:98   */\n      calldataload\n        /* \"#utility.yul\":69:98   */\n      swap1\n      pop\n        /* \"#utility.yul\":107:140   */\n      tag_83\n        /* \"#utility.yul\":134:139   */\n      dup2\n        /* \"#utility.yul\":107:140   */\n      tag_84\n      jump\t// in\n    tag_83:\n        /* \"#utility.yul\":7:146   */\n      swap3\n      swap2\n      pop\n      pop\n      jump\t// out\n        /* \"#utility.yul\":152:291   */\n    tag_85:\n        /* \"#utility.yul\":198:203   */\n      0x00\n        /* \"#utility.yul\":236:242   */\n      dup2\n        /* \"#utility.yul\":223:243   */\n      calldataload\n        /* \"#utility.yul\":214:243   */\n      swap1\n      pop\n        /* \"#utility.yul\":252:285   */\n      tag_87\n        /* \"#utility.yul\":279:284   */\n      dup2\n        /* \"#utility.yul\":252:285   */\n      tag_88\n      jump\t// in\n    tag_87:\n        /* \"#utility.yul\":152:291   */\n      swap3\n      swap2\n      pop\n      pop\n      jump\t// out\n        /* \"#utility.yul\":297:626   */\n    tag_34:\n        /* \"#utility.yul\":356:362   */\n      0x00\n        /* \"#utility.yul\":405:407   */\n      0x20\n        /* \"#utility.yul\":393:402   */\n      dup3\n        /* \"#utility.yul\":384:391   */\n      dup5\n        /* \"#utility.yul\":380:403   */\n      sub\n        /* \"#utility.yul\":376:408   */\n      slt\n        /* \"#utility.yul\":373:492   */\n      iszero\n      tag_90\n      jumpi\n        /* \"#utility.yul\":411:490   */\n      tag_91\n      tag_92\n      jump\t// in\n    tag_91:\n        /* \"#utility.yul\":373:492   */\n    tag_90:\n        /* \"#utility.yul\":531:532   */\n      0x00\n        /* \"#utility.yul\":556:609   */\n      tag_93\n        /* \"#utility.yul\":601:608   */\n      dup5\n        /* \"#utility.yul\":592:598   */\n      dup3\n        /* \"#utility.yul\":581:590   */\n      dup6\n        /* \"#utility.yul\":577:599   */\n      add\n        /* \"#utility.yul\":556:609   */\n      tag_81\n      jump\t// in\n    tag_93:\n        /* \"#utility.yul\":546:609   */\n      swap2\n      pop\n        /* \"#utility.yul\":502:619   */\n      pop\n        /* \"#utility.yul\":297:626   */\n      swap3\n      swap2\n      pop\n      pop\n      jump\t// out\n        /* \"#utility.yul\":632:1106   */\n    tag_49:\n        /* \"#utility.yul\":700:706   */\n      0x00\n        /* \"#utility.yul\":708:714   */\n      dup1\n        /* \"#utility.yul\":757:759   */\n      0x40\n        /* \"#utility.yul\":745:754   */\n      dup4\n        /* \"#utility.yul\":736:743   */\n      dup6\n        /* \"#utility.yul\":732:755   */\n      sub\n        /* \"#utility.yul\":728:760   */\n      slt\n        /* \"#utility.yul\":725:844   */\n      iszero\n      tag_95\n      jumpi\n        /* \"#utility.yul\":763:842   */\n      tag_96\n      tag_92\n      jump\t// in\n    tag_96:\n        /* \"#utility.yul\":725:844   */\n    tag_95:\n        /* \"#utility.yul\":883:884   */\n      0x00\n        /* \"#utility.yul\":908:961   */\n      tag_97\n        /* \"#utility.yul\":953:960   */\n      dup6\n        /* \"#utility.yul\":944:950   */\n      dup3\n        /* \"#utility.yul\":933:942   */\n      dup7\n        /* \"#utility.yul\":929:951   */\n      add\n        /* \"#utility.yul\":908:961   */\n      tag_81\n      jump\t// in\n    tag_97:\n        /* \"#utility.yul\":898:961   */\n      swap3\n      pop\n        /* \"#utility.yul\":854:971   */\n      pop\n        /* \"#utility.yul\":1010:1012   */\n      0x20\n        /* \"#utility.yul\":1036:1089   */\n      tag_98\n        /* \"#utility.yul\":1081:1088   */\n      dup6\n        /* \"#utility.yul\":1072:1078   */\n      dup3\n        /* \"#utility.yul\":1061:1070   */\n      dup7\n        /* \"#utility.yul\":1057:1079   */\n      add\n        /* \"#utility.yul\":1036:1089   */\n      tag_81\n      jump\t// in\n    tag_98:\n        /* \"#utility.yul\":1026:1089   */\n      swap2\n      pop\n        /* \"#utility.yul\":981:1099   */\n      pop\n        /* \"#utility.yul\":632:1106   */\n      swap3\n      pop\n      swap3\n      swap1\n      pop\n      jump\t// out\n        /* \"#utility.yul\":1112:1586   */\n    tag_27:\n        /* \"#utility.yul\":1180:1186   */\n      0x00\n        /* \"#utility.yul\":1188:1194   */\n      dup1\n        /* \"#utility.yul\":1237:1239   */\n      0x40\n        /* \"#utility.yul\":1225:1234   */\n      dup4\n        /* \"#utility.yul\":1216:1223   */\n      dup6\n        /* \"#utility.yul\":1212:1235   */\n      sub\n        /* \"#utility.yul\":1208:1240   */\n      slt\n        /* \"#utility.yul\":1205:1324   */\n      iszero\n      tag_100\n      jumpi\n        /* \"#utility.yul\":1243:1322   */\n      tag_101\n      tag_92\n      jump\t// in\n    tag_101:\n        /* \"#utility.yul\":1205:1324   */\n    tag_100:\n        /* \"#utility.yul\":1363:1364   */\n      0x00\n        /* \"#utility.yul\":1388:1441   */\n      tag_102\n        /* \"#utility.yul\":1433:1440   */\n      dup6\n        /* \"#utility.yul\":1424:1430   */\n      dup3\n        /* \"#utility.yul\":1413:1422   */\n      dup7\n        /* \"#utility.yul\":1409:1431   */\n      add\n        /* \"#utility.yul\":1388:1441   */\n      tag_81\n      jump\t// in\n    tag_102:\n        /* \"#utility.yul\":1378:1441   */\n      swap3\n      pop\n        /* \"#utility.yul\":1334:1451   */\n      pop\n        /* \"#utility.yul\":1490:1492   */\n      0x20\n        /* \"#utility.yul\":1516:1569   */\n      tag_103\n        /* \"#utility.yul\":1561:1568   */\n      dup6\n        /* \"#utility.yul\":1552:1558   */\n      dup3\n        /* \"#utility.yul\":1541:1550   */\n      dup7\n        /* \"#utility.yul\":1537:1559   */\n      add\n        /* \"#utility.yul\":1516:1569   */\n      tag_85\n      jump\t// in\n    tag_103:\n        /* \"#utility.yul\":1506:1569   */\n      swap2\n      pop\n        /* \"#utility.yul\":1461:1579   */\n      pop\n        /* \"#utility.yul\":1112:1586   */\n      swap3\n      pop\n      swap3\n      swap1\n      pop\n      jump\t// out\n        /* \"#utility.yul\":1592:1701   */\n    tag_104:\n        /* \"#utility.yul\":1673:1694   */\n      tag_106\n        /* \"#utility.yul\":1688:1693   */\n      dup2\n        /* \"#utility.yul\":1673:1694   */\n      tag_107\n      jump\t// in\n    tag_106:\n        /* \"#utility.yul\":1668:1671   */\n      dup3\n        /* \"#utility.yul\":1661:1695   */\n      mstore\n        /* \"#utility.yul\":1592:1701   */\n      pop\n      pop\n      jump\t// out\n        /* \"#utility.yul\":1707:2071   */\n    tag_108:\n        /* \"#utility.yul\":1795:1798   */\n      0x00\n        /* \"#utility.yul\":1823:1862   */\n      tag_110\n        /* \"#utility.yul\":1856:1861   */\n      dup3\n        /* \"#utility.yul\":1823:1862   */\n      tag_111\n      jump\t// in\n    tag_110:\n        /* \"#utility.yul\":1878:1949   */\n      tag_112\n        /* \"#utility.yul\":1942:1948   */\n      dup2\n        /* \"#utility.yul\":1937:1940   */\n      dup6\n        /* \"#utility.yul\":1878:1949   */\n      tag_113\n      jump\t// in\n    tag_112:\n        /* \"#utility.yul\":1871:1949   */\n      swap4\n      pop\n        /* \"#utility.yul\":1958:2010   */\n      tag_114\n        /* \"#utility.yul\":2003:2009   */\n      dup2\n        /* \"#utility.yul\":1998:2001   */\n      dup6\n        /* \"#utility.yul\":1991:1995   */\n      0x20\n        /* \"#utility.yul\":1984:1989   */\n      dup7\n        /* \"#utility.yul\":1980:1996   */\n      add\n        /* \"#utility.yul\":1958:2010   */\n      tag_115\n      jump\t// in\n    tag_114:\n        /* \"#utility.yul\":2035:2064   */\n      tag_116\n        /* \"#utility.yul\":2057:2063   */\n      dup2\n        /* \"#utility.yul\":2035:2064   */\n      tag_117\n      jump\t// in\n    tag_116:\n        /* \"#utility.yul\":2030:2033   */\n      dup5\n        /* \"#utility.yul\":2026:2065   */\n      add\n        /* \"#utility.yul\":2019:2065   */\n      swap2\n      pop\n        /* \"#utility.yul\":1799:2071   */\n      pop\n        /* \"#utility.yul\":1707:2071   */\n      swap3\n      swap2\n      pop\n      pop\n      jump\t// out\n        /* \"#utility.yul\":2077:2195   */\n    tag_118:\n        /* \"#utility.yul\":2164:2188   */\n      tag_120\n        /* \"#utility.yul\":2182:2187   */\n      dup2\n        /* \"#utility.yul\":2164:2188   */\n      tag_121\n      jump\t// in\n    tag_120:\n        /* \"#utility.yul\":2159:2162   */\n      dup3\n        /* \"#utility.yul\":2152:2189   */\n      mstore\n        /* \"#utility.yul\":2077:2195   */\n      pop\n      pop\n      jump\t// out\n        /* \"#utility.yul\":2201:2411   */\n    tag_30:\n        /* \"#utility.yul\":2288:2292   */\n      0x00\n        /* \"#utility.yul\":2326:2328   */\n      0x20\n        /* \"#utility.yul\":2315:2324   */\n      dup3\n        /* \"#utility.yul\":2311:2329   */\n      add\n        /* \"#utility.yul\":2303:2329   */\n      swap1\n      pop\n        /* \"#utility.yul\":2339:2404   */\n      tag_123\n        /* \"#utility.yul\":2401:2402   */\n      0x00\n        /* \"#utility.yul\":2390:2399   */\n      dup4\n        /* \"#utility.yul\":2386:2403   */\n      add\n        /* \"#utility.yul\":2377:2383   */\n      dup5\n        /* \"#utility.yul\":2339:2404   */\n      tag_104\n      jump\t// in\n    tag_123:\n        /* \"#utility.yul\":2201:2411   */\n      swap3\n      swap2\n      pop\n      pop\n      jump\t// out\n        /* \"#utility.yul\":2417:2730   */\n    tag_15:\n        /* \"#utility.yul\":2530:2534   */\n      0x00\n        /* \"#utility.yul\":2568:2570   */\n      0x20\n        /* \"#utility.yul\":2557:2566   */\n      dup3\n        /* \"#utility.yul\":2553:2571   */\n      add\n        /* \"#utility.yul\":2545:2571   */\n      swap1\n      pop\n        /* \"#utility.yul\":2617:2626   */\n      dup2\n        /* \"#utility.yul\":2611:2615   */\n      dup2\n        /* \"#utility.yul\":2607:2627   */\n      sub\n        /* \"#utility.yul\":2603:2604   */\n      0x00\n        /* \"#utility.yul\":2592:2601   */\n      dup4\n        /* \"#utility.yul\":2588:2605   */\n      add\n        /* \"#utility.yul\":2581:2628   */\n      mstore\n        /* \"#utility.yul\":2645:2723   */\n      tag_125\n        /* \"#utility.yul\":2718:2722   */\n      dup2\n        /* \"#utility.yul\":2709:2715   */\n      dup5\n        /* \"#utility.yul\":2645:2723   */\n      tag_108\n      jump\t// in\n    tag_125:\n        /* \"#utility.yul\":2637:2723   */\n      swap1\n      pop\n        /* \"#utility.yul\":2417:2730   */\n      swap3\n      swap2\n      pop\n      pop\n      jump\t// out\n        /* \"#utility.yul\":2736:2958   */\n    tag_20:\n        /* \"#utility.yul\":2829:2833   */\n      0x00\n        /* \"#utility.yul\":2867:2869   */\n      0x20\n        /* \"#utility.yul\":2856:2865   */\n      dup3\n        /* \"#utility.yul\":2852:2870   */\n      add\n        /* \"#utility.yul\":2844:2870   */\n      swap1\n      pop\n        /* \"#utility.yul\":2880:2951   */\n      tag_127\n        /* \"#utility.yul\":2948:2949   */\n      0x00\n        /* \"#utility.yul\":2937:2946   */\n      dup4\n        /* \"#utility.yul\":2933:2950   */\n      add\n        /* \"#utility.yul\":2924:2930   */\n      dup5\n        /* \"#utility.yul\":2880:2951   */\n      tag_118\n      jump\t// in\n    tag_127:\n        /* \"#utility.yul\":2736:2958   */\n      swap3\n      swap2\n      pop\n      pop\n      jump\t// out\n        /* \"#utility.yul\":3045:3144   */\n    tag_111:\n        /* \"#utility.yul\":3097:3103   */\n      0x00\n        /* \"#utility.yul\":3131:3136   */\n      dup2\n        /* \"#utility.yul\":3125:3137   */\n      mload\n        /* \"#utility.yul\":3115:3137   */\n      swap1\n      pop\n        /* \"#utility.yul\":3045:3144   */\n      swap2\n      swap1\n      pop\n      jump\t// out\n        /* \"#utility.yul\":3150:3319   */\n    tag_113:\n        /* \"#utility.yul\":3234:3245   */\n      0x00\n        /* \"#utility.yul\":3268:3274   */\n      dup3\n        /* \"#utility.yul\":3263:3266   */\n      dup3\n        /* \"#utility.yul\":3256:3275   */\n      mstore\n        /* \"#utility.yul\":3308:3312   */\n      0x20\n        /* \"#utility.yul\":3303:3306   */\n      dup3\n        /* \"#utility.yul\":3299:3313   */\n      add\n        /* \"#utility.yul\":3284:3313   */\n      swap1\n      pop\n        /* \"#utility.yul\":3150:3319   */\n      swap3\n      swap2\n      pop\n      pop\n      jump\t// out\n        /* \"#utility.yul\":3325:3630   */\n    tag_78:\n        /* \"#utility.yul\":3365:3368   */\n      0x00\n        /* \"#utility.yul\":3384:3404   */\n      tag_133\n        /* \"#utility.yul\":3402:3403   */\n      dup3\n        /* \"#utility.yul\":3384:3404   */\n      tag_121\n      jump\t// in\n    tag_133:\n        /* \"#utility.yul\":3379:3404   */\n      swap2\n      pop\n        /* \"#utility.yul\":3418:3438   */\n      tag_134\n        /* \"#utility.yul\":3436:3437   */\n      dup4\n        /* \"#utility.yul\":3418:3438   */\n      tag_121\n      jump\t// in\n    tag_134:\n        /* \"#utility.yul\":3413:3438   */\n      swap3\n      pop\n        /* \"#utility.yul\":3572:3573   */\n      dup3\n        /* \"#utility.yul\":3504:3570   */\n      0xffffffffffffffffffffffffffffffffffffffffffffffffffffffffffffffff\n        /* \"#utility.yul\":3500:3574   */\n      sub\n        /* \"#utility.yul\":3497:3498   */\n      dup3\n        /* \"#utility.yul\":3494:3575   */\n      gt\n        /* \"#utility.yul\":3491:3598   */\n      iszero\n      tag_135\n      jumpi\n        /* \"#utility.yul\":3578:3596   */\n      tag_136\n      tag_137\n      jump\t// in\n    tag_136:\n        /* \"#utility.yul\":3491:3598   */\n    tag_135:\n        /* \"#utility.yul\":3622:3623   */\n      dup3\n        /* \"#utility.yul\":3619:3620   */\n      dup3\n        /* \"#utility.yul\":3615:3624   */\n      add\n        /* \"#utility.yul\":3608:3624   */\n      swap1\n      pop\n        /* \"#utility.yul\":3325:3630   */\n      swap3\n      swap2\n      pop\n      pop\n      jump\t// out\n        /* \"#utility.yul\":3636:3821   */\n    tag_60:\n        /* \"#utility.yul\":3676:3677   */\n      0x00\n        /* \"#utility.yul\":3693:3713   */\n      tag_139\n        /* \"#utility.yul\":3711:3712   */\n      dup3\n        /* \"#utility.yul\":3693:3713   */\n      tag_121\n      jump\t// in\n    tag_139:\n        /* \"#utility.yul\":3688:3713   */\n      swap2\n      pop\n        /* \"#utility.yul\":3727:3747   */\n      tag_140\n        /* \"#utility.yul\":3745:3746   */\n      dup4\n        /* \"#utility.yul\":3727:3747   */\n      tag_121\n      jump\t// in\n    tag_140:\n        /* \"#utility.yul\":3722:3747   */\n      swap3\n      pop\n        /* \"#utility.yul\":3766:3767   */\n      dup3\n        /* \"#utility.yul\":3756:3791   */\n      tag_141\n      jumpi\n        /* \"#utility.yul\":3771:3789   */\n      tag_142\n      tag_143\n      jump\t// in\n    tag_142:\n        /* \"#utility.yul\":3756:3791   */\n    tag_141:\n        /* \"#utility.yul\":3813:3814   */\n      dup3\n        /* \"#utility.yul\":3810:3811   */\n      dup3\n        /* \"#utility.yul\":3806:3815   */\n      div\n        /* \"#utility.yul\":3801:3815   */\n      swap1\n      pop\n        /* \"#utility.yul\":3636:3821   */\n      swap3\n      swap2\n      pop\n      pop\n      jump\t// out\n        /* \"#utility.yul\":3827:4018   */\n    tag_76:\n        /* \"#utility.yul\":3867:3871   */\n      0x00\n        /* \"#utility.yul\":3887:3907   */\n      tag_145\n        /* \"#utility.yul\":3905:3906   */\n      dup3\n        /* \"#utility.yul\":3887:3907   */\n      tag_121\n      jump\t// in\n    tag_145:\n        /* \"#utility.yul\":3882:3907   */\n      swap2\n      pop\n        /* \"#utility.yul\":3921:3941   */\n      tag_146\n        /* \"#utility.yul\":3939:3940   */\n      dup4\n        /* \"#utility.yul\":3921:3941   */\n      tag_121\n      jump\t// in\n    tag_146:\n        /* \"#utility.yul\":3916:3941   */\n      swap3\n      pop\n        /* \"#utility.yul\":3960:3961   */\n      dup3\n        /* \"#utility.yul\":3957:3958   */\n      dup3\n        /* \"#utility.yul\":3954:3962   */\n      lt\n        /* \"#utility.yul\":3951:3985   */\n      iszero\n      tag_147\n      jumpi\n        /* \"#utility.yul\":3965:3983   */\n      tag_148\n      tag_137\n      jump\t// in\n    tag_148:\n        /* \"#utility.yul\":3951:3985   */\n    tag_147:\n        /* \"#utility.yul\":4010:4011   */\n      dup3\n        /* \"#utility.yul\":4007:4008   */\n      dup3\n        /* \"#utility.yul\":4003:4012   */\n      sub\n        /* \"#utility.yul\":3995:4012   */\n      swap1\n      pop\n        /* \"#utility.yul\":3827:4018   */\n      swap3\n      swap2\n      pop\n      pop\n      jump\t// out\n        /* \"#utility.yul\":4024:4120   */\n    tag_149:\n        /* \"#utility.yul\":4061:4068   */\n      0x00\n        /* \"#utility.yul\":4090:4114   */\n      tag_151\n        /* \"#utility.yul\":4108:4113   */\n      dup3\n        /* \"#utility.yul\":4090:4114   */\n      tag_152\n      jump\t// in\n    tag_151:\n        /* \"#utility.yul\":4079:4114   */\n      swap1\n      pop\n        /* \"#utility.yul\":4024:4120   */\n      swap2\n      swap1\n      pop\n      jump\t// out\n        /* \"#utility.yul\":4126:4216   */\n    tag_107:\n        /* \"#utility.yul\":4160:4167   */\n      0x00\n        /* \"#utility.yul\":4203:4208   */\n      dup2\n        /* \"#utility.yul\":4196:4209   */\n      iszero\n        /* \"#utility.yul\":4189:4210   */\n      iszero\n        /* \"#utility.yul\":4178:4210   */\n      swap1\n      pop\n        /* \"#utility.yul\":4126:4216   */\n      swap2\n      swap1\n      pop\n      jump\t// out\n        /* \"#utility.yul\":4222:4348   */\n    tag_152:\n        /* \"#utility.yul\":4259:4266   */\n      0x00\n        /* \"#utility.yul\":4299:4341   */\n      0xffffffffffffffffffffffffffffffffffffffff\n        /* \"#utility.yul\":4292:4297   */\n      dup3\n        /* \"#utility.yul\":4288:4342   */\n      and\n        /* \"#utility.yul\":4277:4342   */\n      swap1\n      pop\n        /* \"#utility.yul\":4222:4348   */\n      swap2\n      swap1\n      pop\n      jump\t// out\n        /* \"#utility.yul\":4354:4431   */\n    tag_121:\n        /* \"#utility.yul\":4391:4398   */\n      0x00\n        /* \"#utility.yul\":4420:4425   */\n      dup2\n        /* \"#utility.yul\":4409:4425   */\n      swap1\n      pop\n        /* \"#utility.yul\":4354:4431   */\n      swap2\n      swap1\n      pop\n      jump\t// out\n        /* \"#utility.yul\":4437:4744   */\n    tag_115:\n        /* \"#utility.yul\":4505:4506   */\n      0x00\n        /* \"#utility.yul\":4515:4628   */\n    tag_157:\n        /* \"#utility.yul\":4529:4535   */\n      dup4\n        /* \"#utility.yul\":4526:4527   */\n      dup2\n        /* \"#utility.yul\":4523:4536   */\n      lt\n        /* \"#utility.yul\":4515:4628   */\n      iszero\n      tag_159\n      jumpi\n        /* \"#utility.yul\":4614:4615   */\n      dup1\n        /* \"#utility.yul\":4609:4612   */\n      dup3\n        /* \"#utility.yul\":4605:4616   */\n      add\n        /* \"#utility.yul\":4599:4617   */\n      mload\n        /* \"#utility.yul\":4595:4596   */\n      dup2\n        /* \"#utility.yul\":4590:4593   */\n      dup5\n        /* \"#utility.yul\":4586:4597   */\n      add\n        /* \"#utility.yul\":4579:4618   */\n      mstore\n        /* \"#utility.yul\":4551:4553   */\n      0x20\n        /* \"#utility.yul\":4548:4549   */\n      dup2\n        /* \"#utility.yul\":4544:4554   */\n      add\n        /* \"#utility.yul\":4539:4554   */\n      swap1\n      pop\n        /* \"#utility.yul\":4515:4628   */\n      jump(tag_157)\n    tag_159:\n        /* \"#utility.yul\":4646:4652   */\n      dup4\n        /* \"#utility.yul\":4643:4644   */\n      dup2\n        /* \"#utility.yul\":4640:4653   */\n      gt\n        /* \"#utility.yul\":4637:4738   */\n      iszero\n      tag_160\n      jumpi\n        /* \"#utility.yul\":4726:4727   */\n      0x00\n        /* \"#utility.yul\":4717:4723   */\n      dup5\n        /* \"#utility.yul\":4712:4715   */\n      dup5\n        /* \"#utility.yul\":4708:4724   */\n      add\n        /* \"#utility.yul\":4701:4728   */\n      mstore\n        /* \"#utility.yul\":4637:4738   */\n    tag_160:\n        /* \"#utility.yul\":4486:4744   */\n      pop\n        /* \"#utility.yul\":4437:4744   */\n      pop\n      pop\n      pop\n      jump\t// out\n        /* \"#utility.yul\":4750:5070   */\n    tag_53:\n        /* \"#utility.yul\":4794:4800   */\n      0x00\n        /* \"#utility.yul\":4831:4832   */\n      0x02\n        /* \"#utility.yul\":4825:4829   */\n      dup3\n        /* \"#utility.yul\":4821:4833   */\n      div\n        /* \"#utility.yul\":4811:4833   */\n      swap1\n      pop\n        /* \"#utility.yul\":4878:4879   */\n      0x01\n        /* \"#utility.yul\":4872:4876   */\n      dup3\n        /* \"#utility.yul\":4868:4880   */\n      and\n        /* \"#utility.yul\":4899:4917   */\n      dup1\n        /* \"#utility.yul\":4889:4970   */\n      tag_162\n      jumpi\n        /* \"#utility.yul\":4955:4959   */\n      0x7f\n        /* \"#utility.yul\":4947:4953   */\n      dup3\n        /* \"#utility.yul\":4943:4960   */\n      and\n        /* \"#utility.yul\":4933:4960   */\n      swap2\n      pop\n        /* \"#utility.yul\":4889:4970   */\n    tag_162:\n        /* \"#utility.yul\":5017:5019   */\n      0x20\n        /* \"#utility.yul\":5009:5015   */\n      dup3\n        /* \"#utility.yul\":5006:5020   */\n      lt\n        /* \"#utility.yul\":4986:5004   */\n      dup2\n        /* \"#utility.yul\":4983:5021   */\n      eq\n        /* \"#utility.yul\":4980:5064   */\n      iszero\n      tag_163\n      jumpi\n        /* \"#utility.yul\":5036:5054   */\n      tag_164\n      tag_165\n      jump\t// in\n    tag_164:\n        /* \"#utility.yul\":4980:5064   */\n    tag_163:\n        /* \"#utility.yul\":4801:5070   */\n      pop\n        /* \"#utility.yul\":4750:5070   */\n      swap2\n      swap1\n      pop\n      jump\t// out\n        /* \"#utility.yul\":5076:5256   */\n    tag_137:\n        /* \"#utility.yul\":5124:5201   */\n      0x4e487b7100000000000000000000000000000000000000000000000000000000\n        /* \"#utility.yul\":5121:5122   */\n      0x00\n        /* \"#utility.yul\":5114:5202   */\n      mstore\n        /* \"#utility.yul\":5221:5225   */\n      0x11\n        /* \"#utility.yul\":5218:5219   */\n      0x04\n        /* \"#utility.yul\":5211:5226   */\n      mstore\n        /* \"#utility.yul\":5245:5249   */\n      0x24\n        /* \"#utility.yul\":5242:5243   */\n      0x00\n        /* \"#utility.yul\":5235:5250   */\n      revert\n        /* \"#utility.yul\":5262:5442   */\n    tag_143:\n        /* \"#utility.yul\":5310:5387   */\n      0x4e487b7100000000000000000000000000000000000000000000000000000000\n        /* \"#utility.yul\":5307:5308   */\n      0x00\n        /* \"#utility.yul\":5300:5388   */\n      mstore\n        /* \"#utility.yul\":5407:5411   */\n      0x12\n        /* \"#utility.yul\":5404:5405   */\n      0x04\n        /* \"#utility.yul\":5397:5412   */\n      mstore\n        /* \"#utility.yul\":5431:5435   */\n      0x24\n        /* \"#utility.yul\":5428:5429   */\n      0x00\n        /* \"#utility.yul\":5421:5436   */\n      revert\n        /* \"#utility.yul\":5448:5628   */\n    tag_165:\n        /* \"#utility.yul\":5496:5573   */\n      0x4e487b7100000000000000000000000000000000000000000000000000000000\n        /* \"#utility.yul\":5493:5494   */\n      0x00\n        /* \"#utility.yul\":5486:5574   */\n      mstore\n        /* \"#utility.yul\":5593:5597   */\n      0x22\n        /* \"#utility.yul\":5590:5591   */\n      0x04\n        /* \"#utility.yul\":5583:5598   */\n      mstore\n        /* \"#utility.yul\":5617:5621   */\n      0x24\n        /* \"#utility.yul\":5614:5615   */\n      0x00\n        /* \"#utility.yul\":5607:5622   */\n      revert\n        /* \"#utility.yul\":5757:5874   */\n    tag_92:\n        /* \"#utility.yul\":5866:5867   */\n      0x00\n        /* \"#utility.yul\":5863:5864   */\n      dup1\n        /* \"#utility.yul\":5856:5868   */\n      revert\n        /* \"#utility.yul\":5880:5982   */\n    tag_117:\n        /* \"#utility.yul\":5921:5927   */\n      0x00\n        /* \"#utility.yul\":5972:5974   */\n      0x1f\n        /* \"#utility.yul\":5968:5975   */\n      not\n        /* \"#utility.yul\":5963:5965   */\n      0x1f\n        /* \"#utility.yul\":5956:5961   */\n      dup4\n        /* \"#utility.yul\":5952:5966   */\n      add\n        /* \"#utility.yul\":5948:5976   */\n      and\n        /* \"#utility.yul\":5938:5976   */\n      swap1\n      pop\n        /* \"#utility.yul\":5880:5982   */\n      swap2\n      swap1\n      pop\n      jump\t// out\n        /* \"#utility.yul\":5988:6110   */\n    tag_84:\n        /* \"#utility.yul\":6061:6085   */\n      tag_174\n        /* \"#utility.yul\":6079:6084   */\n      dup2\n        /* \"#utility.yul\":6061:6085   */\n      tag_149\n      jump\t// in\n    tag_174:\n        /* \"#utility.yul\":6054:6059   */\n      dup2\n        /* \"#utility.yul\":6051:6086   */\n      eq\n        /* \"#utility.yul\":6041:6104   */\n      tag_175\n      jumpi\n        /* \"#utility.yul\":6100:6101   */\n      0x00\n        /* \"#utility.yul\":6097:6098   */\n      dup1\n        /* \"#utility.yul\":6090:6102   */\n      revert\n        /* \"#utility.yul\":6041:6104   */\n    tag_175:\n        /* \"#utility.yul\":5988:6110   */\n      pop\n      jump\t// out\n        /* \"#utility.yul\":6116:6238   */\n    tag_88:\n        /* \"#utility.yul\":6189:6213   */\n      tag_177\n        /* \"#utility.yul\":6207:6212   */\n      dup2\n        /* \"#utility.yul\":6189:6213   */\n      tag_121\n      jump\t// in\n    tag_177:\n        /* \"#utility.yul\":6182:6187   */\n      dup2\n        /* \"#utility.yul\":6179:6214   */\n      eq\n        /* \"#utility.yul\":6169:6232   */\n      tag_178\n      jumpi\n        /* \"#utility.yul\":6228:6229   */\n      0x00\n        /* \"#utility.yul\":6225:6226   */\n      dup1\n        /* \"#utility.yul\":6218:6230   */\n      revert\n        /* \"#utility.yul\":6169:6232   */\n    tag_178:\n        /* \"#utility.yul\":6116:6238   */\n      pop\n      jump\t// out\n\n    auxdata: 0xa2646970667358221220667c8ade6a11c4286b9518b8ab5bb820f592803e3c1977c3a3375e236763468664736f6c63430008070033\n}\n",
				"bytecode": {
					"linkReferences": {},
					"object": "60806040526103e860045534801561001657600080fd5b506040518060400160405280600e81526020017f426c75655375726765546f6b656e0000000000000000000000000000000000008152506000908051906020019061006292919061010c565b506040518060400160405280600381526020017f4253540000000000000000000000000000000000000000000000000000000000815250600190805190602001906100ae92919061010c565b506012600281905550620f4240600381905550600354600560003373ffffffffffffffffffffffffffffffffffffffff1673ffffffffffffffffffffffffffffffffffffffff16815260200190815260200160002081905550610210565b828054610118906101af565b90600052602060002090601f01602090048101928261013a5760008555610181565b82601f1061015357805160ff1916838001178555610181565b82800160010185558215610181579182015b82811115610180578251825591602001919060010190610165565b5b50905061018e9190610192565b5090565b5b808211156101ab576000816000905550600101610193565b5090565b600060028204905060018216806101c757607f821691505b602082108114156101db576101da6101e1565b5b50919050565b7f4e487b7100000000000000000000000000000000000000000000000000000000600052602260045260246000fd5b610a298061021f6000396000f3fe60806040526004361061007b5760003560e01c806370a082311161004e57806370a082311461013157806395d89b411461016e578063a9059cbb14610199578063dd62ed3e146101d65761007b565b806306fdde031461008057806318160ddd146100ab578063313ce567146100d657806368f8fc1014610101575b600080fd5b34801561008c57600080fd5b50610095610213565b6040516100a29190610761565b60405180910390f35b3480156100b757600080fd5b506100c06102a1565b6040516100cd9190610783565b60405180910390f35b3480156100e257600080fd5b506100eb6102a7565b6040516100f89190610783565b60405180910390f35b61011b600480360381019061011691906106af565b6102ad565b6040516101289190610746565b60405180910390f35b34801561013d57600080fd5b5061015860048036038101906101539190610642565b61032a565b6040516101659190610783565b60405180910390f35b34801561017a57600080fd5b50610183610342565b6040516101909190610761565b60405180910390f35b3480156101a557600080fd5b506101c060048036038101906101bb91906106af565b6103d0565b6040516101cd9190610746565b60405180910390f35b3480156101e257600080fd5b506101fd60048036038101906101f8919061066f565b610433565b60405161020a9190610783565b60405180910390f35b60008054610220906108f0565b80601f016020809104026020016040519081016040528092919081815260200182805461024c906108f0565b80156102995780601f1061026e57610100808354040283529160200191610299565b820191906000526020600020905b81548152906001019060200180831161027c57829003601f168201915b505050505081565b60035481565b60025481565b6000600454826102bd9190610810565b600560003373ffffffffffffffffffffffffffffffffffffffff1673ffffffffffffffffffffffffffffffffffffffff16815260200190815260200160002054101561030857600080fd5b61032033846004548561031b9190610810565b610458565b6001905092915050565b60056020528060005260406000206000915090505481565b6001805461034f906108f0565b80601f016020809104026020016040519081016040528092919081815260200182805461037b906108f0565b80156103c85780601f1061039d576101008083540402835291602001916103c8565b820191906000526020600020905b8154815290600101906020018083116103ab57829003601f168201915b505050505081565b600081600560003373ffffffffffffffffffffffffffffffffffffffff1673ffffffffffffffffffffffffffffffffffffffff16815260200190815260200160002054101561041e57600080fd5b610429338484610458565b6001905092915050565b6006602052816000526040600020602052806000526040600020600091509150505481565b600073ffffffffffffffffffffffffffffffffffffffff168273ffffffffffffffffffffffffffffffffffffffff16141561049257600080fd5b80600560008573ffffffffffffffffffffffffffffffffffffffff1673ffffffffffffffffffffffffffffffffffffffff168152602001908152602001600020546104dd9190610841565b600560008573ffffffffffffffffffffffffffffffffffffffff1673ffffffffffffffffffffffffffffffffffffffff1681526020019081526020016000208190555080600560008473ffffffffffffffffffffffffffffffffffffffff1673ffffffffffffffffffffffffffffffffffffffff1681526020019081526020016000205461056b91906107ba565b600560008473ffffffffffffffffffffffffffffffffffffffff1673ffffffffffffffffffffffffffffffffffffffff168152602001908152602001600020819055508173ffffffffffffffffffffffffffffffffffffffff168373ffffffffffffffffffffffffffffffffffffffff167fddf252ad1be2c89b69c2b068fc378daa952ba7f163c4a11628f55a4df523b3ef8360405161060b9190610783565b60405180910390a3505050565b600081359050610627816109c5565b92915050565b60008135905061063c816109dc565b92915050565b600060208284031215610658576106576109af565b5b600061066684828501610618565b91505092915050565b60008060408385031215610686576106856109af565b5b600061069485828601610618565b92505060206106a585828601610618565b9150509250929050565b600080604083850312156106c6576106c56109af565b5b60006106d485828601610618565b92505060206106e58582860161062d565b9150509250929050565b6106f881610887565b82525050565b60006107098261079e565b61071381856107a9565b93506107238185602086016108bd565b61072c816109b4565b840191505092915050565b610740816108b3565b82525050565b600060208201905061075b60008301846106ef565b92915050565b6000602082019050818103600083015261077b81846106fe565b905092915050565b60006020820190506107986000830184610737565b92915050565b600081519050919050565b600082825260208201905092915050565b60006107c5826108b3565b91506107d0836108b3565b9250827fffffffffffffffffffffffffffffffffffffffffffffffffffffffffffffffff0382111561080557610804610922565b5b828201905092915050565b600061081b826108b3565b9150610826836108b3565b92508261083657610835610951565b5b828204905092915050565b600061084c826108b3565b9150610857836108b3565b92508282101561086a57610869610922565b5b828203905092915050565b600061088082610893565b9050919050565b60008115159050919050565b600073ffffffffffffffffffffffffffffffffffffffff82169050919050565b6000819050919050565b60005b838110156108db5780820151818401526020810190506108c0565b838111156108ea576000848401525b50505050565b6000600282049050600182168061090857607f821691505b6020821081141561091c5761091b610980565b5b50919050565b7f4e487b7100000000000000000000000000000000000000000000000000000000600052601160045260246000fd5b7f4e487b7100000000000000000000000000000000000000000000000000000000600052601260045260246000fd5b7f4e487b7100000000000000000000000000000000000000000000000000000000600052602260045260246000fd5b600080fd5b6000601f19601f8301169050919050565b6109ce81610875565b81146109d957600080fd5b50565b6109e5816108b3565b81146109f057600080fd5b5056fea2646970667358221220667c8ade6a11c4286b9518b8ab5bb820f592803e3c1977c3a3375e236763468664736f6c63430008070033",
					"opcodes": "PUSH1 0x80 PUSH1 0x40 MSTORE PUSH2 0x3E8 PUSH1 0x4 SSTORE CALLVALUE DUP1 ISZERO PUSH2 0x16 JUMPI PUSH1 0x0 DUP1 REVERT JUMPDEST POP PUSH1 0x40 MLOAD DUP1 PUSH1 0x40 ADD PUSH1 0x40 MSTORE DUP1 PUSH1 0xE DUP2 MSTORE PUSH1 0x20 ADD PUSH32 0x426C75655375726765546F6B656E000000000000000000000000000000000000 DUP2 MSTORE POP PUSH1 0x0 SWAP1 DUP1 MLOAD SWAP1 PUSH1 0x20 ADD SWAP1 PUSH2 0x62 SWAP3 SWAP2 SWAP1 PUSH2 0x10C JUMP JUMPDEST POP PUSH1 0x40 MLOAD DUP1 PUSH1 0x40 ADD PUSH1 0x40 MSTORE DUP1 PUSH1 0x3 DUP2 MSTORE PUSH1 0x20 ADD PUSH32 0x4253540000000000000000000000000000000000000000000000000000000000 DUP2 MSTORE POP PUSH1 0x1 SWAP1 DUP1 MLOAD SWAP1 PUSH1 0x20 ADD SWAP1 PUSH2 0xAE SWAP3 SWAP2 SWAP1 PUSH2 0x10C JUMP JUMPDEST POP PUSH1 0x12 PUSH1 0x2 DUP2 SWAP1 SSTORE POP PUSH3 0xF4240 PUSH1 0x3 DUP2 SWAP1 SSTORE POP PUSH1 0x3 SLOAD PUSH1 0x5 PUSH1 0x0 CALLER PUSH20 0xFFFFFFFFFFFFFFFFFFFFFFFFFFFFFFFFFFFFFFFF AND PUSH20 0xFFFFFFFFFFFFFFFFFFFFFFFFFFFFFFFFFFFFFFFF AND DUP2 MSTORE PUSH1 0x20 ADD SWAP1 DUP2 MSTORE PUSH1 0x20 ADD PUSH1 0x0 KECCAK256 DUP2 SWAP1 SSTORE POP PUSH2 0x210 JUMP JUMPDEST DUP3 DUP1 SLOAD PUSH2 0x118 SWAP1 PUSH2 0x1AF JUMP JUMPDEST SWAP1 PUSH1 0x0 MSTORE PUSH1 0x20 PUSH1 0x0 KECCAK256 SWAP1 PUSH1 0x1F ADD PUSH1 0x20 SWAP1 DIV DUP2 ADD SWAP3 DUP3 PUSH2 0x13A JUMPI PUSH1 0x0 DUP6 SSTORE PUSH2 0x181 JUMP JUMPDEST DUP3 PUSH1 0x1F LT PUSH2 0x153 JUMPI DUP1 MLOAD PUSH1 0xFF NOT AND DUP4 DUP1 ADD OR DUP6 SSTORE PUSH2 0x181 JUMP JUMPDEST DUP3 DUP1 ADD PUSH1 0x1 ADD DUP6 SSTORE DUP3 ISZERO PUSH2 0x181 JUMPI SWAP2 DUP3 ADD JUMPDEST DUP3 DUP2 GT ISZERO PUSH2 0x180 JUMPI DUP3 MLOAD DUP3 SSTORE SWAP2 PUSH1 0x20 ADD SWAP2 SWAP1 PUSH1 0x1 ADD SWAP1 PUSH2 0x165 JUMP JUMPDEST JUMPDEST POP SWAP1 POP PUSH2 0x18E SWAP2 SWAP1 PUSH2 0x192 JUMP JUMPDEST POP SWAP1 JUMP JUMPDEST JUMPDEST DUP1 DUP3 GT ISZERO PUSH2 0x1AB JUMPI PUSH1 0x0 DUP2 PUSH1 0x0 SWAP1 SSTORE POP PUSH1 0x1 ADD PUSH2 0x193 JUMP JUMPDEST POP SWAP1 JUMP JUMPDEST PUSH1 0x0 PUSH1 0x2 DUP3 DIV SWAP1 POP PUSH1 0x1 DUP3 AND DUP1 PUSH2 0x1C7 JUMPI PUSH1 0x7F DUP3 AND SWAP2 POP JUMPDEST PUSH1 0x20 DUP3 LT DUP2 EQ ISZERO PUSH2 0x1DB JUMPI PUSH2 0x1DA PUSH2 0x1E1 JUMP JUMPDEST JUMPDEST POP SWAP2 SWAP1 POP JUMP JUMPDEST PUSH32 0x4E487B7100000000000000000000000000000000000000000000000000000000 PUSH1 0x0 MSTORE PUSH1 0x22 PUSH1 0x4 MSTORE PUSH1 0x24 PUSH1 0x0 REVERT JUMPDEST PUSH2 0xA29 DUP1 PUSH2 0x21F PUSH1 0x0 CODECOPY PUSH1 0x0 RETURN INVALID PUSH1 0x80 PUSH1 0x40 MSTORE PUSH1 0x4 CALLDATASIZE LT PUSH2 0x7B JUMPI PUSH1 0x0 CALLDATALOAD PUSH1 0xE0 SHR DUP1 PUSH4 0x70A08231 GT PUSH2 0x4E JUMPI DUP1 PUSH4 0x70A08231 EQ PUSH2 0x131 JUMPI DUP1 PUSH4 0x95D89B41 EQ PUSH2 0x16E JUMPI DUP1 PUSH4 0xA9059CBB EQ PUSH2 0x199 JUMPI DUP1 PUSH4 0xDD62ED3E EQ PUSH2 0x1D6 JUMPI PUSH2 0x7B JUMP JUMPDEST DUP1 PUSH4 0x6FDDE03 EQ PUSH2 0x80 JUMPI DUP1 PUSH4 0x18160DDD EQ PUSH2 0xAB JUMPI DUP1 PUSH4 0x313CE567 EQ PUSH2 0xD6 JUMPI DUP1 PUSH4 0x68F8FC10 EQ PUSH2 0x101 JUMPI JUMPDEST PUSH1 0x0 DUP1 REVERT JUMPDEST CALLVALUE DUP1 ISZERO PUSH2 0x8C JUMPI PUSH1 0x0 DUP1 REVERT JUMPDEST POP PUSH2 0x95 PUSH2 0x213 JUMP JUMPDEST PUSH1 0x40 MLOAD PUSH2 0xA2 SWAP2 SWAP1 PUSH2 0x761 JUMP JUMPDEST PUSH1 0x40 MLOAD DUP1 SWAP2 SUB SWAP1 RETURN JUMPDEST CALLVALUE DUP1 ISZERO PUSH2 0xB7 JUMPI PUSH1 0x0 DUP1 REVERT JUMPDEST POP PUSH2 0xC0 PUSH2 0x2A1 JUMP JUMPDEST PUSH1 0x40 MLOAD PUSH2 0xCD SWAP2 SWAP1 PUSH2 0x783 JUMP JUMPDEST PUSH1 0x40 MLOAD DUP1 SWAP2 SUB SWAP1 RETURN JUMPDEST CALLVALUE DUP1 ISZERO PUSH2 0xE2 JUMPI PUSH1 0x0 DUP1 REVERT JUMPDEST POP PUSH2 0xEB PUSH2 0x2A7 JUMP JUMPDEST PUSH1 0x40 MLOAD PUSH2 0xF8 SWAP2 SWAP1 PUSH2 0x783 JUMP JUMPDEST PUSH1 0x40 MLOAD DUP1 SWAP2 SUB SWAP1 RETURN JUMPDEST PUSH2 0x11B PUSH1 0x4 DUP1 CALLDATASIZE SUB DUP2 ADD SWAP1 PUSH2 0x116 SWAP2 SWAP1 PUSH2 0x6AF JUMP JUMPDEST PUSH2 0x2AD JUMP JUMPDEST PUSH1 0x40 MLOAD PUSH2 0x128 SWAP2 SWAP1 PUSH2 0x746 JUMP JUMPDEST PUSH1 0x40 MLOAD DUP1 SWAP2 SUB SWAP1 RETURN JUMPDEST CALLVALUE DUP1 ISZERO PUSH2 0x13D JUMPI PUSH1 0x0 DUP1 REVERT JUMPDEST POP PUSH2 0x158 PUSH1 0x4 DUP1 CALLDATASIZE SUB DUP2 ADD SWAP1 PUSH2 0x153 SWAP2 SWAP1 PUSH2 0x642 JUMP JUMPDEST PUSH2 0x32A JUMP JUMPDEST PUSH1 0x40 MLOAD PUSH2 0x165 SWAP2 SWAP1 PUSH2 0x783 JUMP JUMPDEST PUSH1 0x40 MLOAD DUP1 SWAP2 SUB SWAP1 RETURN JUMPDEST CALLVALUE DUP1 ISZERO PUSH2 0x17A JUMPI PUSH1 0x0 DUP1 REVERT JUMPDEST POP PUSH2 0x183 PUSH2 0x342 JUMP JUMPDEST PUSH1 0x40 MLOAD PUSH2 0x190 SWAP2 SWAP1 PUSH2 0x761 JUMP JUMPDEST PUSH1 0x40 MLOAD DUP1 SWAP2 SUB SWAP1 RETURN JUMPDEST CALLVALUE DUP1 ISZERO PUSH2 0x1A5 JUMPI PUSH1 0x0 DUP1 REVERT JUMPDEST POP PUSH2 0x1C0 PUSH1 0x4 DUP1 CALLDATASIZE SUB DUP2 ADD SWAP1 PUSH2 0x1BB SWAP2 SWAP1 PUSH2 0x6AF JUMP JUMPDEST PUSH2 0x3D0 JUMP JUMPDEST PUSH1 0x40 MLOAD PUSH2 0x1CD SWAP2 SWAP1 PUSH2 0x746 JUMP JUMPDEST PUSH1 0x40 MLOAD DUP1 SWAP2 SUB SWAP1 RETURN JUMPDEST CALLVALUE DUP1 ISZERO PUSH2 0x1E2 JUMPI PUSH1 0x0 DUP1 REVERT JUMPDEST POP PUSH2 0x1FD PUSH1 0x4 DUP1 CALLDATASIZE SUB DUP2 ADD SWAP1 PUSH2 0x1F8 SWAP2 SWAP1 PUSH2 0x66F JUMP JUMPDEST PUSH2 0x433 JUMP JUMPDEST PUSH1 0x40 MLOAD PUSH2 0x20A SWAP2 SWAP1 PUSH2 0x783 JUMP JUMPDEST PUSH1 0x40 MLOAD DUP1 SWAP2 SUB SWAP1 RETURN JUMPDEST PUSH1 0x0 DUP1 SLOAD PUSH2 0x220 SWAP1 PUSH2 0x8F0 JUMP JUMPDEST DUP1 PUSH1 0x1F ADD PUSH1 0x20 DUP1 SWAP2 DIV MUL PUSH1 0x20 ADD PUSH1 0x40 MLOAD SWAP1 DUP2 ADD PUSH1 0x40 MSTORE DUP1 SWAP3 SWAP2 SWAP1 DUP2 DUP2 MSTORE PUSH1 0x20 ADD DUP3 DUP1 SLOAD PUSH2 0x24C SWAP1 PUSH2 0x8F0 JUMP JUMPDEST DUP1 ISZERO PUSH2 0x299 JUMPI DUP1 PUSH1 0x1F LT PUSH2 0x26E JUMPI PUSH2 0x100 DUP1 DUP4 SLOAD DIV MUL DUP4 MSTORE SWAP2 PUSH1 0x20 ADD SWAP2 PUSH2 0x299 JUMP JUMPDEST DUP3 ADD SWAP2 SWAP1 PUSH1 0x0 MSTORE PUSH1 0x20 PUSH1 0x0 KECCAK256 SWAP1 JUMPDEST DUP2 SLOAD DUP2 MSTORE SWAP1 PUSH1 0x1 ADD SWAP1 PUSH1 0x20 ADD DUP1 DUP4 GT PUSH2 0x27C JUMPI DUP3 SWAP1 SUB PUSH1 0x1F AND DUP3 ADD SWAP2 JUMPDEST POP POP POP POP POP DUP2 JUMP JUMPDEST PUSH1 0x3 SLOAD DUP2 JUMP JUMPDEST PUSH1 0x2 SLOAD DUP2 JUMP JUMPDEST PUSH1 0x0 PUSH1 0x4 SLOAD DUP3 PUSH2 0x2BD SWAP2 SWAP1 PUSH2 0x810 JUMP JUMPDEST PUSH1 0x5 PUSH1 0x0 CALLER PUSH20 0xFFFFFFFFFFFFFFFFFFFFFFFFFFFFFFFFFFFFFFFF AND PUSH20 0xFFFFFFFFFFFFFFFFFFFFFFFFFFFFFFFFFFFFFFFF AND DUP2 MSTORE PUSH1 0x20 ADD SWAP1 DUP2 MSTORE PUSH1 0x20 ADD PUSH1 0x0 KECCAK256 SLOAD LT ISZERO PUSH2 0x308 JUMPI PUSH1 0x0 DUP1 REVERT JUMPDEST PUSH2 0x320 CALLER DUP5 PUSH1 0x4 SLOAD DUP6 PUSH2 0x31B SWAP2 SWAP1 PUSH2 0x810 JUMP JUMPDEST PUSH2 0x458 JUMP JUMPDEST PUSH1 0x1 SWAP1 POP SWAP3 SWAP2 POP POP JUMP JUMPDEST PUSH1 0x5 PUSH1 0x20 MSTORE DUP1 PUSH1 0x0 MSTORE PUSH1 0x40 PUSH1 0x0 KECCAK256 PUSH1 0x0 SWAP2 POP SWAP1 POP SLOAD DUP2 JUMP JUMPDEST PUSH1 0x1 DUP1 SLOAD PUSH2 0x34F SWAP1 PUSH2 0x8F0 JUMP JUMPDEST DUP1 PUSH1 0x1F ADD PUSH1 0x20 DUP1 SWAP2 DIV MUL PUSH1 0x20 ADD PUSH1 0x40 MLOAD SWAP1 DUP2 ADD PUSH1 0x40 MSTORE DUP1 SWAP3 SWAP2 SWAP1 DUP2 DUP2 MSTORE PUSH1 0x20 ADD DUP3 DUP1 SLOAD PUSH2 0x37B SWAP1 PUSH2 0x8F0 JUMP JUMPDEST DUP1 ISZERO PUSH2 0x3C8 JUMPI DUP1 PUSH1 0x1F LT PUSH2 0x39D JUMPI PUSH2 0x100 DUP1 DUP4 SLOAD DIV MUL DUP4 MSTORE SWAP2 PUSH1 0x20 ADD SWAP2 PUSH2 0x3C8 JUMP JUMPDEST DUP3 ADD SWAP2 SWAP1 PUSH1 0x0 MSTORE PUSH1 0x20 PUSH1 0x0 KECCAK256 SWAP1 JUMPDEST DUP2 SLOAD DUP2 MSTORE SWAP1 PUSH1 0x1 ADD SWAP1 PUSH1 0x20 ADD DUP1 DUP4 GT PUSH2 0x3AB JUMPI DUP3 SWAP1 SUB PUSH1 0x1F AND DUP3 ADD SWAP2 JUMPDEST POP POP POP POP POP DUP2 JUMP JUMPDEST PUSH1 0x0 DUP2 PUSH1 0x5 PUSH1 0x0 CALLER PUSH20 0xFFFFFFFFFFFFFFFFFFFFFFFFFFFFFFFFFFFFFFFF AND PUSH20 0xFFFFFFFFFFFFFFFFFFFFFFFFFFFFFFFFFFFFFFFF AND DUP2 MSTORE PUSH1 0x20 ADD SWAP1 DUP2 MSTORE PUSH1 0x20 ADD PUSH1 0x0 KECCAK256 SLOAD LT ISZERO PUSH2 0x41E JUMPI PUSH1 0x0 DUP1 REVERT JUMPDEST PUSH2 0x429 CALLER DUP5 DUP5 PUSH2 0x458 JUMP JUMPDEST PUSH1 0x1 SWAP1 POP SWAP3 SWAP2 POP POP JUMP JUMPDEST PUSH1 0x6 PUSH1 0x20 MSTORE DUP2 PUSH1 0x0 MSTORE PUSH1 0x40 PUSH1 0x0 KECCAK256 PUSH1 0x20 MSTORE DUP1 PUSH1 0x0 MSTORE PUSH1 0x40 PUSH1 0x0 KECCAK256 PUSH1 0x0 SWAP2 POP SWAP2 POP POP SLOAD DUP2 JUMP JUMPDEST PUSH1 0x0 PUSH20 0xFFFFFFFFFFFFFFFFFFFFFFFFFFFFFFFFFFFFFFFF AND DUP3 PUSH20 0xFFFFFFFFFFFFFFFFFFFFFFFFFFFFFFFFFFFFFFFF AND EQ ISZERO PUSH2 0x492 JUMPI PUSH1 0x0 DUP1 REVERT JUMPDEST DUP1 PUSH1 0x5 PUSH1 0x0 DUP6 PUSH20 0xFFFFFFFFFFFFFFFFFFFFFFFFFFFFFFFFFFFFFFFF AND PUSH20 0xFFFFFFFFFFFFFFFFFFFFFFFFFFFFFFFFFFFFFFFF AND DUP2 MSTORE PUSH1 0x20 ADD SWAP1 DUP2 MSTORE PUSH1 0x20 ADD PUSH1 0x0 KECCAK256 SLOAD PUSH2 0x4DD SWAP2 SWAP1 PUSH2 0x841 JUMP JUMPDEST PUSH1 0x5 PUSH1 0x0 DUP6 PUSH20 0xFFFFFFFFFFFFFFFFFFFFFFFFFFFFFFFFFFFFFFFF AND PUSH20 0xFFFFFFFFFFFFFFFFFFFFFFFFFFFFFFFFFFFFFFFF AND DUP2 MSTORE PUSH1 0x20 ADD SWAP1 DUP2 MSTORE PUSH1 0x20 ADD PUSH1 0x0 KECCAK256 DUP2 SWAP1 SSTORE POP DUP1 PUSH1 0x5 PUSH1 0x0 DUP5 PUSH20 0xFFFFFFFFFFFFFFFFFFFFFFFFFFFFFFFFFFFFFFFF AND PUSH20 0xFFFFFFFFFFFFFFFFFFFFFFFFFFFFFFFFFFFFFFFF AND DUP2 MSTORE PUSH1 0x20 ADD SWAP1 DUP2 MSTORE PUSH1 0x20 ADD PUSH1 0x0 KECCAK256 SLOAD PUSH2 0x56B SWAP2 SWAP1 PUSH2 0x7BA JUMP JUMPDEST PUSH1 0x5 PUSH1 0x0 DUP5 PUSH20 0xFFFFFFFFFFFFFFFFFFFFFFFFFFFFFFFFFFFFFFFF AND PUSH20 0xFFFFFFFFFFFFFFFFFFFFFFFFFFFFFFFFFFFFFFFF AND DUP2 MSTORE PUSH1 0x20 ADD SWAP1 DUP2 MSTORE PUSH1 0x20 ADD PUSH1 0x0 KECCAK256 DUP2 SWAP1 SSTORE POP DUP2 PUSH20 0xFFFFFFFFFFFFFFFFFFFFFFFFFFFFFFFFFFFFFFFF AND DUP4 PUSH20 0xFFFFFFFFFFFFFFFFFFFFFFFFFFFFFFFFFFFFFFFF AND PUSH32 0xDDF252AD1BE2C89B69C2B068FC378DAA952BA7F163C4A11628F55A4DF523B3EF DUP4 PUSH1 0x40 MLOAD PUSH2 0x60B SWAP2 SWAP1 PUSH2 0x783 JUMP JUMPDEST PUSH1 0x40 MLOAD DUP1 SWAP2 SUB SWAP1 LOG3 POP POP POP JUMP JUMPDEST PUSH1 0x0 DUP2 CALLDATALOAD SWAP1 POP PUSH2 0x627 DUP2 PUSH2 0x9C5 JUMP JUMPDEST SWAP3 SWAP2 POP POP JUMP JUMPDEST PUSH1 0x0 DUP2 CALLDATALOAD SWAP1 POP PUSH2 0x63C DUP2 PUSH2 0x9DC JUMP JUMPDEST SWAP3 SWAP2 POP POP JUMP JUMPDEST PUSH1 0x0 PUSH1 0x20 DUP3 DUP5 SUB SLT ISZERO PUSH2 0x658 JUMPI PUSH2 0x657 PUSH2 0x9AF JUMP JUMPDEST JUMPDEST PUSH1 0x0 PUSH2 0x666 DUP5 DUP3 DUP6 ADD PUSH2 0x618 JUMP JUMPDEST SWAP2 POP POP SWAP3 SWAP2 POP POP JUMP JUMPDEST PUSH1 0x0 DUP1 PUSH1 0x40 DUP4 DUP6 SUB SLT ISZERO PUSH2 0x686 JUMPI PUSH2 0x685 PUSH2 0x9AF JUMP JUMPDEST JUMPDEST PUSH1 0x0 PUSH2 0x694 DUP6 DUP3 DUP7 ADD PUSH2 0x618 JUMP JUMPDEST SWAP3 POP POP PUSH1 0x20 PUSH2 0x6A5 DUP6 DUP3 DUP7 ADD PUSH2 0x618 JUMP JUMPDEST SWAP2 POP POP SWAP3 POP SWAP3 SWAP1 POP JUMP JUMPDEST PUSH1 0x0 DUP1 PUSH1 0x40 DUP4 DUP6 SUB SLT ISZERO PUSH2 0x6C6 JUMPI PUSH2 0x6C5 PUSH2 0x9AF JUMP JUMPDEST JUMPDEST PUSH1 0x0 PUSH2 0x6D4 DUP6 DUP3 DUP7 ADD PUSH2 0x618 JUMP JUMPDEST SWAP3 POP POP PUSH1 0x20 PUSH2 0x6E5 DUP6 DUP3 DUP7 ADD PUSH2 0x62D JUMP JUMPDEST SWAP2 POP POP SWAP3 POP SWAP3 SWAP1 POP JUMP JUMPDEST PUSH2 0x6F8 DUP2 PUSH2 0x887 JUMP JUMPDEST DUP3 MSTORE POP POP JUMP JUMPDEST PUSH1 0x0 PUSH2 0x709 DUP3 PUSH2 0x79E JUMP JUMPDEST PUSH2 0x713 DUP2 DUP6 PUSH2 0x7A9 JUMP JUMPDEST SWAP4 POP PUSH2 0x723 DUP2 DUP6 PUSH1 0x20 DUP7 ADD PUSH2 0x8BD JUMP JUMPDEST PUSH2 0x72C DUP2 PUSH2 0x9B4 JUMP JUMPDEST DUP5 ADD SWAP2 POP POP SWAP3 SWAP2 POP POP JUMP JUMPDEST PUSH2 0x740 DUP2 PUSH2 0x8B3 JUMP JUMPDEST DUP3 MSTORE POP POP JUMP JUMPDEST PUSH1 0x0 PUSH1 0x20 DUP3 ADD SWAP1 POP PUSH2 0x75B PUSH1 0x0 DUP4 ADD DUP5 PUSH2 0x6EF JUMP JUMPDEST SWAP3 SWAP2 POP POP JUMP JUMPDEST PUSH1 0x0 PUSH1 0x20 DUP3 ADD SWAP1 POP DUP2 DUP2 SUB PUSH1 0x0 DUP4 ADD MSTORE PUSH2 0x77B DUP2 DUP5 PUSH2 0x6FE JUMP JUMPDEST SWAP1 POP SWAP3 SWAP2 POP POP JUMP JUMPDEST PUSH1 0x0 PUSH1 0x20 DUP3 ADD SWAP1 POP PUSH2 0x798 PUSH1 0x0 DUP4 ADD DUP5 PUSH2 0x737 JUMP JUMPDEST SWAP3 SWAP2 POP POP JUMP JUMPDEST PUSH1 0x0 DUP2 MLOAD SWAP1 POP SWAP2 SWAP1 POP JUMP JUMPDEST PUSH1 0x0 DUP3 DUP3 MSTORE PUSH1 0x20 DUP3 ADD SWAP1 POP SWAP3 SWAP2 POP POP JUMP JUMPDEST PUSH1 0x0 PUSH2 0x7C5 DUP3 PUSH2 0x8B3 JUMP JUMPDEST SWAP2 POP PUSH2 0x7D0 DUP4 PUSH2 0x8B3 JUMP JUMPDEST SWAP3 POP DUP3 PUSH32 0xFFFFFFFFFFFFFFFFFFFFFFFFFFFFFFFFFFFFFFFFFFFFFFFFFFFFFFFFFFFFFFFF SUB DUP3 GT ISZERO PUSH2 0x805 JUMPI PUSH2 0x804 PUSH2 0x922 JUMP JUMPDEST JUMPDEST DUP3 DUP3 ADD SWAP1 POP SWAP3 SWAP2 POP POP JUMP JUMPDEST PUSH1 0x0 PUSH2 0x81B DUP3 PUSH2 0x8B3 JUMP JUMPDEST SWAP2 POP PUSH2 0x826 DUP4 PUSH2 0x8B3 JUMP JUMPDEST SWAP3 POP DUP3 PUSH2 0x836 JUMPI PUSH2 0x835 PUSH2 0x951 JUMP JUMPDEST JUMPDEST DUP3 DUP3 DIV SWAP1 POP SWAP3 SWAP2 POP POP JUMP JUMPDEST PUSH1 0x0 PUSH2 0x84C DUP3 PUSH2 0x8B3 JUMP JUMPDEST SWAP2 POP PUSH2 0x857 DUP4 PUSH2 0x8B3 JUMP JUMPDEST SWAP3 POP DUP3 DUP3 LT ISZERO PUSH2 0x86A JUMPI PUSH2 0x869 PUSH2 0x922 JUMP JUMPDEST JUMPDEST DUP3 DUP3 SUB SWAP1 POP SWAP3 SWAP2 POP POP JUMP JUMPDEST PUSH1 0x0 PUSH2 0x880 DUP3 PUSH2 0x893 JUMP JUMPDEST SWAP1 POP SWAP2 SWAP1 POP JUMP JUMPDEST PUSH1 0x0 DUP2 ISZERO ISZERO SWAP1 POP SWAP2 SWAP1 POP JUMP JUMPDEST PUSH1 0x0 PUSH20 0xFFFFFFFFFFFFFFFFFFFFFFFFFFFFFFFFFFFFFFFF DUP3 AND SWAP1 POP SWAP2 SWAP1 POP JUMP JUMPDEST PUSH1 0x0 DUP2 SWAP1 POP SWAP2 SWAP1 POP JUMP JUMPDEST PUSH1 0x0 JUMPDEST DUP4 DUP2 LT ISZERO PUSH2 0x8DB JUMPI DUP1 DUP3 ADD MLOAD DUP2 DUP5 ADD MSTORE PUSH1 0x20 DUP2 ADD SWAP1 POP PUSH2 0x8C0 JUMP JUMPDEST DUP4 DUP2 GT ISZERO PUSH2 0x8EA JUMPI PUSH1 0x0 DUP5 DUP5 ADD MSTORE JUMPDEST POP POP POP POP JUMP JUMPDEST PUSH1 0x0 PUSH1 0x2 DUP3 DIV SWAP1 POP PUSH1 0x1 DUP3 AND DUP1 PUSH2 0x908 JUMPI PUSH1 0x7F DUP3 AND SWAP2 POP JUMPDEST PUSH1 0x20 DUP3 LT DUP2 EQ ISZERO PUSH2 0x91C JUMPI PUSH2 0x91B PUSH2 0x980 JUMP JUMPDEST JUMPDEST POP SWAP2 SWAP1 POP JUMP JUMPDEST PUSH32 0x4E487B7100000000000000000000000000000000000000000000000000000000 PUSH1 0x0 MSTORE PUSH1 0x11 PUSH1 0x4 MSTORE PUSH1 0x24 PUSH1 0x0 REVERT JUMPDEST PUSH32 0x4E487B7100000000000000000000000000000000000000000000000000000000 PUSH1 0x0 MSTORE PUSH1 0x12 PUSH1 0x4 MSTORE PUSH1 0x24 PUSH1 0x0 REVERT JUMPDEST PUSH32 0x4E487B7100000000000000000000000000000000000000000000000000000000 PUSH1 0x0 MSTORE PUSH1 0x22 PUSH1 0x4 MSTORE PUSH1 0x24 PUSH1 0x0 REVERT JUMPDEST PUSH1 0x0 DUP1 REVERT JUMPDEST PUSH1 0x0 PUSH1 0x1F NOT PUSH1 0x1F DUP4 ADD AND SWAP1 POP SWAP2 SWAP1 POP JUMP JUMPDEST PUSH2 0x9CE DUP2 PUSH2 0x875 JUMP JUMPDEST DUP2 EQ PUSH2 0x9D9 JUMPI PUSH1 0x0 DUP1 REVERT JUMPDEST POP JUMP JUMPDEST PUSH2 0x9E5 DUP2 PUSH2 0x8B3 JUMP JUMPDEST DUP2 EQ PUSH2 0x9F0 JUMPI PUSH1 0x0 DUP1 REVERT JUMPDEST POP JUMP INVALID LOG2 PUSH5 0x6970667358 0x22 SLT KECCAK256 PUSH7 0x7C8ADE6A11C428 PUSH12 0x9518B8AB5BB820F592803E3C NOT PUSH24 0xC3A3375E236763468664736F6C6343000807003300000000 "
				},
				"gasEstimates": {
					"creation": {
						"codeDepositCost": "520200",
						"executionCost": "infinite",
						"totalCost": "infinite"
					},
					"external": {
						"allowance(address,address)": "infinite",
						"balanceOf(address)": "2814",
						"buyToken(address,uint256)": "infinite",
						"decimals()": "2474",
						"name()": "infinite",
						"symbol()": "infinite",
						"totalSupply()": "2452",
						"transfer(address,uint256)": "infinite"
					},
					"internal": {
						"_transfer(address,address,uint256)": "infinite"
					}
				},
				"methodIdentifiers": {
					"allowance(address,address)": "dd62ed3e",
					"balanceOf(address)": "70a08231",
					"buyToken(address,uint256)": "68f8fc10",
					"decimals()": "313ce567",
					"name()": "06fdde03",
					"symbol()": "95d89b41",
					"totalSupply()": "18160ddd",
					"transfer(address,uint256)": "a9059cbb"
				}
			},
			"userdoc": {
				"kind": "user",
				"methods": {},
				"version": 1
			}
		}
	}
}