{
	"contracts/BS_ERC721.sol": {
		"BlueSurgeNFT": {
			"abi": [
				{
					"inputs": [],
					"stateMutability": "nonpayable",
					"type": "constructor"
				},
				{
					"anonymous": false,
					"inputs": [
						{
							"indexed": true,
							"internalType": "address",
							"name": "from",
							"type": "address"
						},
						{
							"indexed": true,
							"internalType": "address",
							"name": "to",
							"type": "address"
						},
						{
							"indexed": true,
							"internalType": "uint256",
							"name": "tokenId",
							"type": "uint256"
						}
					],
					"name": "Transfer",
					"type": "event"
				},
				{
					"inputs": [
						{
							"internalType": "address",
							"name": "owner",
							"type": "address"
						}
					],
					"name": "balanceOf",
					"outputs": [
						{
							"internalType": "uint256",
							"name": "",
							"type": "uint256"
						}
					],
					"stateMutability": "view",
					"type": "function"
				},
				{
					"inputs": [
						{
							"internalType": "address",
							"name": "_to",
							"type": "address"
						},
						{
							"internalType": "uint256",
							"name": "_tokenId",
							"type": "uint256"
						},
						{
							"internalType": "uint256",
							"name": "_tokenNo",
							"type": "uint256"
						}
					],
					"name": "mint",
					"outputs": [],
					"stateMutability": "nonpayable",
					"type": "function"
				},
				{
					"inputs": [],
					"name": "name",
					"outputs": [
						{
							"internalType": "string",
							"name": "",
							"type": "string"
						}
					],
					"stateMutability": "view",
					"type": "function"
				},
				{
					"inputs": [
						{
							"internalType": "uint256",
							"name": "tokenId",
							"type": "uint256"
						}
					],
					"name": "ownerOf",
					"outputs": [
						{
							"internalType": "address",
							"name": "",
							"type": "address"
						}
					],
					"stateMutability": "view",
					"type": "function"
				},
				{
					"inputs": [],
					"name": "symbol",
					"outputs": [
						{
							"internalType": "string",
							"name": "",
							"type": "string"
						}
					],
					"stateMutability": "view",
					"type": "function"
				}
			],
			"devdoc": {
				"kind": "dev",
				"methods": {},
				"version": 1
			},
			"evm": {
				"assembly": "    /* \"contracts/BS_ERC721.sol\":63:1994  contract BlueSurgeNFT{\r... */\n  mstore(0x40, 0x80)\n    /* \"contracts/BS_ERC721.sol\":271:352  constructor() {\r... */\n  callvalue\n  dup1\n  iszero\n  tag_1\n  jumpi\n  0x00\n  dup1\n  revert\ntag_1:\n  pop\n    /* \"contracts/BS_ERC721.sol\":296:319  name = \"BlueSurgeToken\" */\n  mload(0x40)\n  dup1\n  0x40\n  add\n  0x40\n  mstore\n  dup1\n  0x0e\n  dup2\n  mstore\n  0x20\n  add\n  0x426c75655375726765546f6b656e000000000000000000000000000000000000\n  dup2\n  mstore\n  pop\n    /* \"contracts/BS_ERC721.sol\":296:300  name */\n  0x00\n    /* \"contracts/BS_ERC721.sol\":296:319  name = \"BlueSurgeToken\" */\n  swap1\n  dup1\n  mload\n  swap1\n  0x20\n  add\n  swap1\n  tag_4\n  swap3\n  swap2\n  swap1\n  tag_5\n  jump\t// in\ntag_4:\n  pop\n    /* \"contracts/BS_ERC721.sol\":330:344  symbol = \"BST\" */\n  mload(0x40)\n  dup1\n  0x40\n  add\n  0x40\n  mstore\n  dup1\n  0x03\n  dup2\n  mstore\n  0x20\n  add\n  0x4253540000000000000000000000000000000000000000000000000000000000\n  dup2\n  mstore\n  pop\n    /* \"contracts/BS_ERC721.sol\":330:336  symbol */\n  0x01\n    /* \"contracts/BS_ERC721.sol\":330:344  symbol = \"BST\" */\n  swap1\n  dup1\n  mload\n  swap1\n  0x20\n  add\n  swap1\n  tag_6\n  swap3\n  swap2\n  swap1\n  tag_5\n  jump\t// in\ntag_6:\n  pop\n    /* \"contracts/BS_ERC721.sol\":63:1994  contract BlueSurgeNFT{\r... */\n  jump(tag_7)\ntag_5:\n  dup3\n  dup1\n  sload\n  tag_8\n  swap1\n  tag_9\n  jump\t// in\ntag_8:\n  swap1\n  0x00\n  mstore\n  keccak256(0x00, 0x20)\n  swap1\n  0x1f\n  add\n  0x20\n  swap1\n  div\n  dup2\n  add\n  swap3\n  dup3\n  tag_11\n  jumpi\n  0x00\n  dup6\n  sstore\n  jump(tag_10)\ntag_11:\n  dup3\n  0x1f\n  lt\n  tag_12\n  jumpi\n  dup1\n  mload\n  not(0xff)\n  and\n  dup4\n  dup1\n  add\n  or\n  dup6\n  sstore\n  jump(tag_10)\ntag_12:\n  dup3\n  dup1\n  add\n  0x01\n  add\n  dup6\n  sstore\n  dup3\n  iszero\n  tag_10\n  jumpi\n  swap2\n  dup3\n  add\ntag_13:\n  dup3\n  dup2\n  gt\n  iszero\n  tag_14\n  jumpi\n  dup3\n  mload\n  dup3\n  sstore\n  swap2\n  0x20\n  add\n  swap2\n  swap1\n  0x01\n  add\n  swap1\n  jump(tag_13)\ntag_14:\ntag_10:\n  pop\n  swap1\n  pop\n  tag_15\n  swap2\n  swap1\n  tag_16\n  jump\t// in\ntag_15:\n  pop\n  swap1\n  jump\t// out\ntag_16:\ntag_17:\n  dup1\n  dup3\n  gt\n  iszero\n  tag_18\n  jumpi\n  0x00\n  dup2\n  0x00\n  swap1\n  sstore\n  pop\n  0x01\n  add\n  jump(tag_17)\ntag_18:\n  pop\n  swap1\n  jump\t// out\n    /* \"#utility.yul\":7:327   */\ntag_9:\n    /* \"#utility.yul\":51:57   */\n  0x00\n    /* \"#utility.yul\":88:89   */\n  0x02\n    /* \"#utility.yul\":82:86   */\n  dup3\n    /* \"#utility.yul\":78:90   */\n  div\n    /* \"#utility.yul\":68:90   */\n  swap1\n  pop\n    /* \"#utility.yul\":135:136   */\n  0x01\n    /* \"#utility.yul\":129:133   */\n  dup3\n    /* \"#utility.yul\":125:137   */\n  and\n    /* \"#utility.yul\":156:174   */\n  dup1\n    /* \"#utility.yul\":146:227   */\n  tag_21\n  jumpi\n    /* \"#utility.yul\":212:216   */\n  0x7f\n    /* \"#utility.yul\":204:210   */\n  dup3\n    /* \"#utility.yul\":200:217   */\n  and\n    /* \"#utility.yul\":190:217   */\n  swap2\n  pop\n    /* \"#utility.yul\":146:227   */\ntag_21:\n    /* \"#utility.yul\":274:276   */\n  0x20\n    /* \"#utility.yul\":266:272   */\n  dup3\n    /* \"#utility.yul\":263:277   */\n  lt\n    /* \"#utility.yul\":243:261   */\n  dup2\n    /* \"#utility.yul\":240:278   */\n  eq\n    /* \"#utility.yul\":237:321   */\n  iszero\n  tag_22\n  jumpi\n    /* \"#utility.yul\":293:311   */\n  tag_23\n  tag_24\n  jump\t// in\ntag_23:\n    /* \"#utility.yul\":237:321   */\ntag_22:\n    /* \"#utility.yul\":58:327   */\n  pop\n    /* \"#utility.yul\":7:327   */\n  swap2\n  swap1\n  pop\n  jump\t// out\n    /* \"#utility.yul\":333:513   */\ntag_24:\n    /* \"#utility.yul\":381:458   */\n  0x4e487b7100000000000000000000000000000000000000000000000000000000\n    /* \"#utility.yul\":378:379   */\n  0x00\n    /* \"#utility.yul\":371:459   */\n  mstore\n    /* \"#utility.yul\":478:482   */\n  0x22\n    /* \"#utility.yul\":475:476   */\n  0x04\n    /* \"#utility.yul\":468:483   */\n  mstore\n    /* \"#utility.yul\":502:506   */\n  0x24\n    /* \"#utility.yul\":499:500   */\n  0x00\n    /* \"#utility.yul\":492:507   */\n  revert\n    /* \"contracts/BS_ERC721.sol\":63:1994  contract BlueSurgeNFT{\r... */\ntag_7:\n  dataSize(sub_0)\n  dup1\n  dataOffset(sub_0)\n  0x00\n  codecopy\n  0x00\n  return\nstop\n\nsub_0: assembly {\n        /* \"contracts/BS_ERC721.sol\":63:1994  contract BlueSurgeNFT{\r... */\n      mstore(0x40, 0x80)\n      callvalue\n      dup1\n      iszero\n      tag_1\n      jumpi\n      0x00\n      dup1\n      revert\n    tag_1:\n      pop\n      jumpi(tag_2, lt(calldatasize, 0x04))\n      shr(0xe0, calldataload(0x00))\n      dup1\n      0x06fdde03\n      eq\n      tag_3\n      jumpi\n      dup1\n      0x156e29f6\n      eq\n      tag_4\n      jumpi\n      dup1\n      0x6352211e\n      eq\n      tag_5\n      jumpi\n      dup1\n      0x70a08231\n      eq\n      tag_6\n      jumpi\n      dup1\n      0x95d89b41\n      eq\n      tag_7\n      jumpi\n    tag_2:\n      0x00\n      dup1\n      revert\n        /* \"contracts/BS_ERC721.sol\":113:131  string public name */\n    tag_3:\n      tag_8\n      tag_9\n      jump\t// in\n    tag_8:\n      mload(0x40)\n      tag_10\n      swap2\n      swap1\n      tag_11\n      jump\t// in\n    tag_10:\n      mload(0x40)\n      dup1\n      swap2\n      sub\n      swap1\n      return\n        /* \"contracts/BS_ERC721.sol\":365:477  function mint(address _to, uint256 _tokenId, uint _tokenNo) external {\r... */\n    tag_4:\n      tag_12\n      0x04\n      dup1\n      calldatasize\n      sub\n      dup2\n      add\n      swap1\n      tag_13\n      swap2\n      swap1\n      tag_14\n      jump\t// in\n    tag_13:\n      tag_15\n      jump\t// in\n    tag_12:\n      stop\n        /* \"contracts/BS_ERC721.sol\":593:823  function ownerOf(uint256 tokenId) public view virtual returns (address) {\r... */\n    tag_5:\n      tag_16\n      0x04\n      dup1\n      calldatasize\n      sub\n      dup2\n      add\n      swap1\n      tag_17\n      swap2\n      swap1\n      tag_18\n      jump\t// in\n    tag_17:\n      tag_19\n      jump\t// in\n    tag_16:\n      mload(0x40)\n      tag_20\n      swap2\n      swap1\n      tag_21\n      jump\t// in\n    tag_20:\n      mload(0x40)\n      dup1\n      swap2\n      sub\n      swap1\n      return\n        /* \"contracts/BS_ERC721.sol\":831:1030  function balanceOf(address owner) public view virtual returns (uint256) {\r... */\n    tag_6:\n      tag_22\n      0x04\n      dup1\n      calldatasize\n      sub\n      dup2\n      add\n      swap1\n      tag_23\n      swap2\n      swap1\n      tag_24\n      jump\t// in\n    tag_23:\n      tag_25\n      jump\t// in\n    tag_22:\n      mload(0x40)\n      tag_26\n      swap2\n      swap1\n      tag_27\n      jump\t// in\n    tag_26:\n      mload(0x40)\n      dup1\n      swap2\n      sub\n      swap1\n      return\n        /* \"contracts/BS_ERC721.sol\":138:158  string public symbol */\n    tag_7:\n      tag_28\n      tag_29\n      jump\t// in\n    tag_28:\n      mload(0x40)\n      tag_30\n      swap2\n      swap1\n      tag_11\n      jump\t// in\n    tag_30:\n      mload(0x40)\n      dup1\n      swap2\n      sub\n      swap1\n      return\n        /* \"contracts/BS_ERC721.sol\":113:131  string public name */\n    tag_9:\n      0x00\n      dup1\n      sload\n      tag_31\n      swap1\n      tag_32\n      jump\t// in\n    tag_31:\n      dup1\n      0x1f\n      add\n      0x20\n      dup1\n      swap2\n      div\n      mul\n      0x20\n      add\n      mload(0x40)\n      swap1\n      dup2\n      add\n      0x40\n      mstore\n      dup1\n      swap3\n      swap2\n      swap1\n      dup2\n      dup2\n      mstore\n      0x20\n      add\n      dup3\n      dup1\n      sload\n      tag_33\n      swap1\n      tag_32\n      jump\t// in\n    tag_33:\n      dup1\n      iszero\n      tag_34\n      jumpi\n      dup1\n      0x1f\n      lt\n      tag_35\n      jumpi\n      0x0100\n      dup1\n      dup4\n      sload\n      div\n      mul\n      dup4\n      mstore\n      swap2\n      0x20\n      add\n      swap2\n      jump(tag_34)\n    tag_35:\n      dup3\n      add\n      swap2\n      swap1\n      0x00\n      mstore\n      keccak256(0x00, 0x20)\n      swap1\n    tag_36:\n      dup2\n      sload\n      dup2\n      mstore\n      swap1\n      0x01\n      add\n      swap1\n      0x20\n      add\n      dup1\n      dup4\n      gt\n      tag_36\n      jumpi\n      dup3\n      swap1\n      sub\n      0x1f\n      and\n      dup3\n      add\n      swap2\n    tag_34:\n      pop\n      pop\n      pop\n      pop\n      pop\n      dup2\n      jump\t// out\n        /* \"contracts/BS_ERC721.sol\":365:477  function mint(address _to, uint256 _tokenId, uint _tokenNo) external {\r... */\n    tag_15:\n        /* \"contracts/BS_ERC721.sol\":441:471  _mint(_to, _tokenId, _tokenNo) */\n      tag_38\n        /* \"contracts/BS_ERC721.sol\":447:450  _to */\n      dup4\n        /* \"contracts/BS_ERC721.sol\":452:460  _tokenId */\n      dup4\n        /* \"contracts/BS_ERC721.sol\":462:470  _tokenNo */\n      dup4\n        /* \"contracts/BS_ERC721.sol\":441:446  _mint */\n      tag_39\n        /* \"contracts/BS_ERC721.sol\":441:471  _mint(_to, _tokenId, _tokenNo) */\n      jump\t// in\n    tag_38:\n        /* \"contracts/BS_ERC721.sol\":365:477  function mint(address _to, uint256 _tokenId, uint _tokenNo) external {\r... */\n      pop\n      pop\n      pop\n      jump\t// out\n        /* \"contracts/BS_ERC721.sol\":593:823  function ownerOf(uint256 tokenId) public view virtual returns (address) {\r... */\n    tag_19:\n        /* \"contracts/BS_ERC721.sol\":656:663  address */\n      0x00\n        /* \"contracts/BS_ERC721.sol\":676:689  address owner */\n      dup1\n        /* \"contracts/BS_ERC721.sol\":692:699  _owners */\n      0x02\n        /* \"contracts/BS_ERC721.sol\":692:708  _owners[tokenId] */\n      0x00\n        /* \"contracts/BS_ERC721.sol\":700:707  tokenId */\n      dup5\n        /* \"contracts/BS_ERC721.sol\":692:708  _owners[tokenId] */\n      dup2\n      mstore\n      0x20\n      add\n      swap1\n      dup2\n      mstore\n      0x20\n      add\n      0x00\n      keccak256\n      0x00\n      swap1\n      sload\n      swap1\n      0x0100\n      exp\n      swap1\n      div\n      0xffffffffffffffffffffffffffffffffffffffff\n      and\n        /* \"contracts/BS_ERC721.sol\":676:708  address owner = _owners[tokenId] */\n      swap1\n      pop\n        /* \"contracts/BS_ERC721.sol\":744:745  0 */\n      0x00\n        /* \"contracts/BS_ERC721.sol\":727:746  owner != address(0) */\n      0xffffffffffffffffffffffffffffffffffffffff\n      and\n        /* \"contracts/BS_ERC721.sol\":727:732  owner */\n      dup2\n        /* \"contracts/BS_ERC721.sol\":727:746  owner != address(0) */\n      0xffffffffffffffffffffffffffffffffffffffff\n      and\n      eq\n      iszero\n        /* \"contracts/BS_ERC721.sol\":719:792  require(owner != address(0), \"ERC721: owner query for nonexistent token\") */\n      tag_41\n      jumpi\n      mload(0x40)\n      0x08c379a000000000000000000000000000000000000000000000000000000000\n      dup2\n      mstore\n      0x04\n      add\n      tag_42\n      swap1\n      tag_43\n      jump\t// in\n    tag_42:\n      mload(0x40)\n      dup1\n      swap2\n      sub\n      swap1\n      revert\n    tag_41:\n        /* \"contracts/BS_ERC721.sol\":810:815  owner */\n      dup1\n        /* \"contracts/BS_ERC721.sol\":803:815  return owner */\n      swap2\n      pop\n      pop\n        /* \"contracts/BS_ERC721.sol\":593:823  function ownerOf(uint256 tokenId) public view virtual returns (address) {\r... */\n      swap2\n      swap1\n      pop\n      jump\t// out\n        /* \"contracts/BS_ERC721.sol\":831:1030  function balanceOf(address owner) public view virtual returns (uint256) {\r... */\n    tag_25:\n        /* \"contracts/BS_ERC721.sol\":894:901  uint256 */\n      0x00\n        /* \"contracts/BS_ERC721.sol\":939:940  0 */\n      dup1\n        /* \"contracts/BS_ERC721.sol\":922:941  owner != address(0) */\n      0xffffffffffffffffffffffffffffffffffffffff\n      and\n        /* \"contracts/BS_ERC721.sol\":922:927  owner */\n      dup3\n        /* \"contracts/BS_ERC721.sol\":922:941  owner != address(0) */\n      0xffffffffffffffffffffffffffffffffffffffff\n      and\n      eq\n      iszero\n        /* \"contracts/BS_ERC721.sol\":914:988  require(owner != address(0), \"ERC721: balance query for the zero address\") */\n      tag_45\n      jumpi\n      mload(0x40)\n      0x08c379a000000000000000000000000000000000000000000000000000000000\n      dup2\n      mstore\n      0x04\n      add\n      tag_46\n      swap1\n      tag_47\n      jump\t// in\n    tag_46:\n      mload(0x40)\n      dup1\n      swap2\n      sub\n      swap1\n      revert\n    tag_45:\n        /* \"contracts/BS_ERC721.sol\":1006:1015  _balances */\n      0x03\n        /* \"contracts/BS_ERC721.sol\":1006:1022  _balances[owner] */\n      0x00\n        /* \"contracts/BS_ERC721.sol\":1016:1021  owner */\n      dup4\n        /* \"contracts/BS_ERC721.sol\":1006:1022  _balances[owner] */\n      0xffffffffffffffffffffffffffffffffffffffff\n      and\n      0xffffffffffffffffffffffffffffffffffffffff\n      and\n      dup2\n      mstore\n      0x20\n      add\n      swap1\n      dup2\n      mstore\n      0x20\n      add\n      0x00\n      keccak256\n      sload\n        /* \"contracts/BS_ERC721.sol\":999:1022  return _balances[owner] */\n      swap1\n      pop\n        /* \"contracts/BS_ERC721.sol\":831:1030  function balanceOf(address owner) public view virtual returns (uint256) {\r... */\n      swap2\n      swap1\n      pop\n      jump\t// out\n        /* \"contracts/BS_ERC721.sol\":138:158  string public symbol */\n    tag_29:\n      0x01\n      dup1\n      sload\n      tag_48\n      swap1\n      tag_32\n      jump\t// in\n    tag_48:\n      dup1\n      0x1f\n      add\n      0x20\n      dup1\n      swap2\n      div\n      mul\n      0x20\n      add\n      mload(0x40)\n      swap1\n      dup2\n      add\n      0x40\n      mstore\n      dup1\n      swap3\n      swap2\n      swap1\n      dup2\n      dup2\n      mstore\n      0x20\n      add\n      dup3\n      dup1\n      sload\n      tag_49\n      swap1\n      tag_32\n      jump\t// in\n    tag_49:\n      dup1\n      iszero\n      tag_50\n      jumpi\n      dup1\n      0x1f\n      lt\n      tag_51\n      jumpi\n      0x0100\n      dup1\n      dup4\n      sload\n      div\n      mul\n      dup4\n      mstore\n      swap2\n      0x20\n      add\n      swap2\n      jump(tag_50)\n    tag_51:\n      dup3\n      add\n      swap2\n      swap1\n      0x00\n      mstore\n      keccak256(0x00, 0x20)\n      swap1\n    tag_52:\n      dup2\n      sload\n      dup2\n      mstore\n      swap1\n      0x01\n      add\n      swap1\n      0x20\n      add\n      dup1\n      dup4\n      gt\n      tag_52\n      jumpi\n      dup3\n      swap1\n      sub\n      0x1f\n      and\n      dup3\n      add\n      swap2\n    tag_50:\n      pop\n      pop\n      pop\n      pop\n      pop\n      dup2\n      jump\t// out\n        /* \"contracts/BS_ERC721.sol\":1263:1722  function _mint(address to, uint256 tokenId, uint tokenNo) internal virtual {\r... */\n    tag_39:\n        /* \"contracts/BS_ERC721.sol\":1371:1372  0 */\n      0x00\n        /* \"contracts/BS_ERC721.sol\":1357:1373  to != address(0) */\n      0xffffffffffffffffffffffffffffffffffffffff\n      and\n        /* \"contracts/BS_ERC721.sol\":1357:1359  to */\n      dup4\n        /* \"contracts/BS_ERC721.sol\":1357:1373  to != address(0) */\n      0xffffffffffffffffffffffffffffffffffffffff\n      and\n      eq\n      iszero\n        /* \"contracts/BS_ERC721.sol\":1349:1410  require(to != address(0), \"ERC721: mint to the zero address\") */\n      tag_54\n      jumpi\n      mload(0x40)\n      0x08c379a000000000000000000000000000000000000000000000000000000000\n      dup2\n      mstore\n      0x04\n      add\n      tag_55\n      swap1\n      tag_56\n      jump\t// in\n    tag_55:\n      mload(0x40)\n      dup1\n      swap2\n      sub\n      swap1\n      revert\n    tag_54:\n        /* \"contracts/BS_ERC721.sol\":1430:1446  _exists(tokenId) */\n      tag_57\n        /* \"contracts/BS_ERC721.sol\":1438:1445  tokenId */\n      dup3\n        /* \"contracts/BS_ERC721.sol\":1430:1437  _exists */\n      tag_58\n        /* \"contracts/BS_ERC721.sol\":1430:1446  _exists(tokenId) */\n      jump\t// in\n    tag_57:\n        /* \"contracts/BS_ERC721.sol\":1429:1446  !_exists(tokenId) */\n      iszero\n        /* \"contracts/BS_ERC721.sol\":1421:1479  require(!_exists(tokenId), \"ERC721: token already minted\") */\n      tag_59\n      jumpi\n      mload(0x40)\n      0x08c379a000000000000000000000000000000000000000000000000000000000\n      dup2\n      mstore\n      0x04\n      add\n      tag_60\n      swap1\n      tag_61\n      jump\t// in\n    tag_60:\n      mload(0x40)\n      dup1\n      swap2\n      sub\n      swap1\n      revert\n    tag_59:\n        /* \"contracts/BS_ERC721.sol\":1492:1537  _beforeTokenTransfer(address(0), to, tokenId) */\n      tag_62\n        /* \"contracts/BS_ERC721.sol\":1521:1522  0 */\n      0x00\n        /* \"contracts/BS_ERC721.sol\":1525:1527  to */\n      dup5\n        /* \"contracts/BS_ERC721.sol\":1529:1536  tokenId */\n      dup5\n        /* \"contracts/BS_ERC721.sol\":1492:1512  _beforeTokenTransfer */\n      tag_63\n        /* \"contracts/BS_ERC721.sol\":1492:1537  _beforeTokenTransfer(address(0), to, tokenId) */\n      jump\t// in\n    tag_62:\n        /* \"contracts/BS_ERC721.sol\":1567:1574  tokenNo */\n      dup1\n        /* \"contracts/BS_ERC721.sol\":1550:1559  _balances */\n      0x03\n        /* \"contracts/BS_ERC721.sol\":1550:1563  _balances[to] */\n      0x00\n        /* \"contracts/BS_ERC721.sol\":1560:1562  to */\n      dup6\n        /* \"contracts/BS_ERC721.sol\":1550:1563  _balances[to] */\n      0xffffffffffffffffffffffffffffffffffffffff\n      and\n      0xffffffffffffffffffffffffffffffffffffffff\n      and\n      dup2\n      mstore\n      0x20\n      add\n      swap1\n      dup2\n      mstore\n      0x20\n      add\n      0x00\n      keccak256\n      0x00\n        /* \"contracts/BS_ERC721.sol\":1550:1574  _balances[to] += tokenNo */\n      dup3\n      dup3\n      sload\n      tag_64\n      swap2\n      swap1\n      tag_65\n      jump\t// in\n    tag_64:\n      swap3\n      pop\n      pop\n      dup2\n      swap1\n      sstore\n      pop\n        /* \"contracts/BS_ERC721.sol\":1604:1606  to */\n      dup3\n        /* \"contracts/BS_ERC721.sol\":1585:1592  _owners */\n      0x02\n        /* \"contracts/BS_ERC721.sol\":1585:1601  _owners[tokenId] */\n      0x00\n        /* \"contracts/BS_ERC721.sol\":1593:1600  tokenId */\n      dup5\n        /* \"contracts/BS_ERC721.sol\":1585:1601  _owners[tokenId] */\n      dup2\n      mstore\n      0x20\n      add\n      swap1\n      dup2\n      mstore\n      0x20\n      add\n      0x00\n      keccak256\n      0x00\n        /* \"contracts/BS_ERC721.sol\":1585:1606  _owners[tokenId] = to */\n      0x0100\n      exp\n      dup2\n      sload\n      dup2\n      0xffffffffffffffffffffffffffffffffffffffff\n      mul\n      not\n      and\n      swap1\n      dup4\n      0xffffffffffffffffffffffffffffffffffffffff\n      and\n      mul\n      or\n      swap1\n      sstore\n      pop\n        /* \"contracts/BS_ERC721.sol\":1649:1656  tokenId */\n      dup2\n        /* \"contracts/BS_ERC721.sol\":1645:1647  to */\n      dup4\n        /* \"contracts/BS_ERC721.sol\":1624:1657  Transfer(address(0), to, tokenId) */\n      0xffffffffffffffffffffffffffffffffffffffff\n      and\n        /* \"contracts/BS_ERC721.sol\":1641:1642  0 */\n      0x00\n        /* \"contracts/BS_ERC721.sol\":1624:1657  Transfer(address(0), to, tokenId) */\n      0xffffffffffffffffffffffffffffffffffffffff\n      and\n      0xddf252ad1be2c89b69c2b068fc378daa952ba7f163c4a11628f55a4df523b3ef\n      mload(0x40)\n      mload(0x40)\n      dup1\n      swap2\n      sub\n      swap1\n      log4\n        /* \"contracts/BS_ERC721.sol\":1670:1714  _afterTokenTransfer(address(0), to, tokenId) */\n      tag_66\n        /* \"contracts/BS_ERC721.sol\":1698:1699  0 */\n      0x00\n        /* \"contracts/BS_ERC721.sol\":1702:1704  to */\n      dup5\n        /* \"contracts/BS_ERC721.sol\":1706:1713  tokenId */\n      dup5\n        /* \"contracts/BS_ERC721.sol\":1670:1689  _afterTokenTransfer */\n      tag_67\n        /* \"contracts/BS_ERC721.sol\":1670:1714  _afterTokenTransfer(address(0), to, tokenId) */\n      jump\t// in\n    tag_66:\n        /* \"contracts/BS_ERC721.sol\":1263:1722  function _mint(address to, uint256 tokenId, uint tokenNo) internal virtual {\r... */\n      pop\n      pop\n      pop\n      jump\t// out\n        /* \"contracts/BS_ERC721.sol\":1038:1165  function _exists(uint256 tokenId) internal view virtual returns (bool) {\r... */\n    tag_58:\n        /* \"contracts/BS_ERC721.sol\":1103:1107  bool */\n      0x00\n        /* \"contracts/BS_ERC721.sol\":1155:1156  0 */\n      dup1\n        /* \"contracts/BS_ERC721.sol\":1127:1157  _owners[tokenId] != address(0) */\n      0xffffffffffffffffffffffffffffffffffffffff\n      and\n        /* \"contracts/BS_ERC721.sol\":1127:1134  _owners */\n      0x02\n        /* \"contracts/BS_ERC721.sol\":1127:1143  _owners[tokenId] */\n      0x00\n        /* \"contracts/BS_ERC721.sol\":1135:1142  tokenId */\n      dup5\n        /* \"contracts/BS_ERC721.sol\":1127:1143  _owners[tokenId] */\n      dup2\n      mstore\n      0x20\n      add\n      swap1\n      dup2\n      mstore\n      0x20\n      add\n      0x00\n      keccak256\n      0x00\n      swap1\n      sload\n      swap1\n      0x0100\n      exp\n      swap1\n      div\n      0xffffffffffffffffffffffffffffffffffffffff\n      and\n        /* \"contracts/BS_ERC721.sol\":1127:1157  _owners[tokenId] != address(0) */\n      0xffffffffffffffffffffffffffffffffffffffff\n      and\n      eq\n      iszero\n        /* \"contracts/BS_ERC721.sol\":1120:1157  return _owners[tokenId] != address(0) */\n      swap1\n      pop\n        /* \"contracts/BS_ERC721.sol\":1038:1165  function _exists(uint256 tokenId) internal view virtual returns (bool) {\r... */\n      swap2\n      swap1\n      pop\n      jump\t// out\n        /* \"contracts/BS_ERC721.sol\":1730:1856  function _beforeTokenTransfer(\r... */\n    tag_63:\n      pop\n      pop\n      pop\n      jump\t// out\n        /* \"contracts/BS_ERC721.sol\":1864:1989  function _afterTokenTransfer(\r... */\n    tag_67:\n      pop\n      pop\n      pop\n      jump\t// out\n        /* \"#utility.yul\":7:146   */\n    tag_72:\n        /* \"#utility.yul\":53:58   */\n      0x00\n        /* \"#utility.yul\":91:97   */\n      dup2\n        /* \"#utility.yul\":78:98   */\n      calldataload\n        /* \"#utility.yul\":69:98   */\n      swap1\n      pop\n        /* \"#utility.yul\":107:140   */\n      tag_74\n        /* \"#utility.yul\":134:139   */\n      dup2\n        /* \"#utility.yul\":107:140   */\n      tag_75\n      jump\t// in\n    tag_74:\n        /* \"#utility.yul\":7:146   */\n      swap3\n      swap2\n      pop\n      pop\n      jump\t// out\n        /* \"#utility.yul\":152:291   */\n    tag_76:\n        /* \"#utility.yul\":198:203   */\n      0x00\n        /* \"#utility.yul\":236:242   */\n      dup2\n        /* \"#utility.yul\":223:243   */\n      calldataload\n        /* \"#utility.yul\":214:243   */\n      swap1\n      pop\n        /* \"#utility.yul\":252:285   */\n      tag_78\n        /* \"#utility.yul\":279:284   */\n      dup2\n        /* \"#utility.yul\":252:285   */\n      tag_79\n      jump\t// in\n    tag_78:\n        /* \"#utility.yul\":152:291   */\n      swap3\n      swap2\n      pop\n      pop\n      jump\t// out\n        /* \"#utility.yul\":297:626   */\n    tag_24:\n        /* \"#utility.yul\":356:362   */\n      0x00\n        /* \"#utility.yul\":405:407   */\n      0x20\n        /* \"#utility.yul\":393:402   */\n      dup3\n        /* \"#utility.yul\":384:391   */\n      dup5\n        /* \"#utility.yul\":380:403   */\n      sub\n        /* \"#utility.yul\":376:408   */\n      slt\n        /* \"#utility.yul\":373:492   */\n      iszero\n      tag_81\n      jumpi\n        /* \"#utility.yul\":411:490   */\n      tag_82\n      tag_83\n      jump\t// in\n    tag_82:\n        /* \"#utility.yul\":373:492   */\n    tag_81:\n        /* \"#utility.yul\":531:532   */\n      0x00\n        /* \"#utility.yul\":556:609   */\n      tag_84\n        /* \"#utility.yul\":601:608   */\n      dup5\n        /* \"#utility.yul\":592:598   */\n      dup3\n        /* \"#utility.yul\":581:590   */\n      dup6\n        /* \"#utility.yul\":577:599   */\n      add\n        /* \"#utility.yul\":556:609   */\n      tag_72\n      jump\t// in\n    tag_84:\n        /* \"#utility.yul\":546:609   */\n      swap2\n      pop\n        /* \"#utility.yul\":502:619   */\n      pop\n        /* \"#utility.yul\":297:626   */\n      swap3\n      swap2\n      pop\n      pop\n      jump\t// out\n        /* \"#utility.yul\":632:1251   */\n    tag_14:\n        /* \"#utility.yul\":709:715   */\n      0x00\n        /* \"#utility.yul\":717:723   */\n      dup1\n        /* \"#utility.yul\":725:731   */\n      0x00\n        /* \"#utility.yul\":774:776   */\n      0x60\n        /* \"#utility.yul\":762:771   */\n      dup5\n        /* \"#utility.yul\":753:760   */\n      dup7\n        /* \"#utility.yul\":749:772   */\n      sub\n        /* \"#utility.yul\":745:777   */\n      slt\n        /* \"#utility.yul\":742:861   */\n      iszero\n      tag_86\n      jumpi\n        /* \"#utility.yul\":780:859   */\n      tag_87\n      tag_83\n      jump\t// in\n    tag_87:\n        /* \"#utility.yul\":742:861   */\n    tag_86:\n        /* \"#utility.yul\":900:901   */\n      0x00\n        /* \"#utility.yul\":925:978   */\n      tag_88\n        /* \"#utility.yul\":970:977   */\n      dup7\n        /* \"#utility.yul\":961:967   */\n      dup3\n        /* \"#utility.yul\":950:959   */\n      dup8\n        /* \"#utility.yul\":946:968   */\n      add\n        /* \"#utility.yul\":925:978   */\n      tag_72\n      jump\t// in\n    tag_88:\n        /* \"#utility.yul\":915:978   */\n      swap4\n      pop\n        /* \"#utility.yul\":871:988   */\n      pop\n        /* \"#utility.yul\":1027:1029   */\n      0x20\n        /* \"#utility.yul\":1053:1106   */\n      tag_89\n        /* \"#utility.yul\":1098:1105   */\n      dup7\n        /* \"#utility.yul\":1089:1095   */\n      dup3\n        /* \"#utility.yul\":1078:1087   */\n      dup8\n        /* \"#utility.yul\":1074:1096   */\n      add\n        /* \"#utility.yul\":1053:1106   */\n      tag_76\n      jump\t// in\n    tag_89:\n        /* \"#utility.yul\":1043:1106   */\n      swap3\n      pop\n        /* \"#utility.yul\":998:1116   */\n      pop\n        /* \"#utility.yul\":1155:1157   */\n      0x40\n        /* \"#utility.yul\":1181:1234   */\n      tag_90\n        /* \"#utility.yul\":1226:1233   */\n      dup7\n        /* \"#utility.yul\":1217:1223   */\n      dup3\n        /* \"#utility.yul\":1206:1215   */\n      dup8\n        /* \"#utility.yul\":1202:1224   */\n      add\n        /* \"#utility.yul\":1181:1234   */\n      tag_76\n      jump\t// in\n    tag_90:\n        /* \"#utility.yul\":1171:1234   */\n      swap2\n      pop\n        /* \"#utility.yul\":1126:1244   */\n      pop\n        /* \"#utility.yul\":632:1251   */\n      swap3\n      pop\n      swap3\n      pop\n      swap3\n      jump\t// out\n        /* \"#utility.yul\":1257:1586   */\n    tag_18:\n        /* \"#utility.yul\":1316:1322   */\n      0x00\n        /* \"#utility.yul\":1365:1367   */\n      0x20\n        /* \"#utility.yul\":1353:1362   */\n      dup3\n        /* \"#utility.yul\":1344:1351   */\n      dup5\n        /* \"#utility.yul\":1340:1363   */\n      sub\n        /* \"#utility.yul\":1336:1368   */\n      slt\n        /* \"#utility.yul\":1333:1452   */\n      iszero\n      tag_92\n      jumpi\n        /* \"#utility.yul\":1371:1450   */\n      tag_93\n      tag_83\n      jump\t// in\n    tag_93:\n        /* \"#utility.yul\":1333:1452   */\n    tag_92:\n        /* \"#utility.yul\":1491:1492   */\n      0x00\n        /* \"#utility.yul\":1516:1569   */\n      tag_94\n        /* \"#utility.yul\":1561:1568   */\n      dup5\n        /* \"#utility.yul\":1552:1558   */\n      dup3\n        /* \"#utility.yul\":1541:1550   */\n      dup6\n        /* \"#utility.yul\":1537:1559   */\n      add\n        /* \"#utility.yul\":1516:1569   */\n      tag_76\n      jump\t// in\n    tag_94:\n        /* \"#utility.yul\":1506:1569   */\n      swap2\n      pop\n        /* \"#utility.yul\":1462:1579   */\n      pop\n        /* \"#utility.yul\":1257:1586   */\n      swap3\n      swap2\n      pop\n      pop\n      jump\t// out\n        /* \"#utility.yul\":1592:1710   */\n    tag_95:\n        /* \"#utility.yul\":1679:1703   */\n      tag_97\n        /* \"#utility.yul\":1697:1702   */\n      dup2\n        /* \"#utility.yul\":1679:1703   */\n      tag_98\n      jump\t// in\n    tag_97:\n        /* \"#utility.yul\":1674:1677   */\n      dup3\n        /* \"#utility.yul\":1667:1704   */\n      mstore\n        /* \"#utility.yul\":1592:1710   */\n      pop\n      pop\n      jump\t// out\n        /* \"#utility.yul\":1716:2080   */\n    tag_99:\n        /* \"#utility.yul\":1804:1807   */\n      0x00\n        /* \"#utility.yul\":1832:1871   */\n      tag_101\n        /* \"#utility.yul\":1865:1870   */\n      dup3\n        /* \"#utility.yul\":1832:1871   */\n      tag_102\n      jump\t// in\n    tag_101:\n        /* \"#utility.yul\":1887:1958   */\n      tag_103\n        /* \"#utility.yul\":1951:1957   */\n      dup2\n        /* \"#utility.yul\":1946:1949   */\n      dup6\n        /* \"#utility.yul\":1887:1958   */\n      tag_104\n      jump\t// in\n    tag_103:\n        /* \"#utility.yul\":1880:1958   */\n      swap4\n      pop\n        /* \"#utility.yul\":1967:2019   */\n      tag_105\n        /* \"#utility.yul\":2012:2018   */\n      dup2\n        /* \"#utility.yul\":2007:2010   */\n      dup6\n        /* \"#utility.yul\":2000:2004   */\n      0x20\n        /* \"#utility.yul\":1993:1998   */\n      dup7\n        /* \"#utility.yul\":1989:2005   */\n      add\n        /* \"#utility.yul\":1967:2019   */\n      tag_106\n      jump\t// in\n    tag_105:\n        /* \"#utility.yul\":2044:2073   */\n      tag_107\n        /* \"#utility.yul\":2066:2072   */\n      dup2\n        /* \"#utility.yul\":2044:2073   */\n      tag_108\n      jump\t// in\n    tag_107:\n        /* \"#utility.yul\":2039:2042   */\n      dup5\n        /* \"#utility.yul\":2035:2074   */\n      add\n        /* \"#utility.yul\":2028:2074   */\n      swap2\n      pop\n        /* \"#utility.yul\":1808:2080   */\n      pop\n        /* \"#utility.yul\":1716:2080   */\n      swap3\n      swap2\n      pop\n      pop\n      jump\t// out\n        /* \"#utility.yul\":2086:2452   */\n    tag_109:\n        /* \"#utility.yul\":2228:2231   */\n      0x00\n        /* \"#utility.yul\":2249:2316   */\n      tag_111\n        /* \"#utility.yul\":2313:2315   */\n      0x1c\n        /* \"#utility.yul\":2308:2311   */\n      dup4\n        /* \"#utility.yul\":2249:2316   */\n      tag_104\n      jump\t// in\n    tag_111:\n        /* \"#utility.yul\":2242:2316   */\n      swap2\n      pop\n        /* \"#utility.yul\":2325:2418   */\n      tag_112\n        /* \"#utility.yul\":2414:2417   */\n      dup3\n        /* \"#utility.yul\":2325:2418   */\n      tag_113\n      jump\t// in\n    tag_112:\n        /* \"#utility.yul\":2443:2445   */\n      0x20\n        /* \"#utility.yul\":2438:2441   */\n      dup3\n        /* \"#utility.yul\":2434:2446   */\n      add\n        /* \"#utility.yul\":2427:2446   */\n      swap1\n      pop\n        /* \"#utility.yul\":2086:2452   */\n      swap2\n      swap1\n      pop\n      jump\t// out\n        /* \"#utility.yul\":2458:2824   */\n    tag_114:\n        /* \"#utility.yul\":2600:2603   */\n      0x00\n        /* \"#utility.yul\":2621:2688   */\n      tag_116\n        /* \"#utility.yul\":2685:2687   */\n      0x2a\n        /* \"#utility.yul\":2680:2683   */\n      dup4\n        /* \"#utility.yul\":2621:2688   */\n      tag_104\n      jump\t// in\n    tag_116:\n        /* \"#utility.yul\":2614:2688   */\n      swap2\n      pop\n        /* \"#utility.yul\":2697:2790   */\n      tag_117\n        /* \"#utility.yul\":2786:2789   */\n      dup3\n        /* \"#utility.yul\":2697:2790   */\n      tag_118\n      jump\t// in\n    tag_117:\n        /* \"#utility.yul\":2815:2817   */\n      0x40\n        /* \"#utility.yul\":2810:2813   */\n      dup3\n        /* \"#utility.yul\":2806:2818   */\n      add\n        /* \"#utility.yul\":2799:2818   */\n      swap1\n      pop\n        /* \"#utility.yul\":2458:2824   */\n      swap2\n      swap1\n      pop\n      jump\t// out\n        /* \"#utility.yul\":2830:3196   */\n    tag_119:\n        /* \"#utility.yul\":2972:2975   */\n      0x00\n        /* \"#utility.yul\":2993:3060   */\n      tag_121\n        /* \"#utility.yul\":3057:3059   */\n      0x29\n        /* \"#utility.yul\":3052:3055   */\n      dup4\n        /* \"#utility.yul\":2993:3060   */\n      tag_104\n      jump\t// in\n    tag_121:\n        /* \"#utility.yul\":2986:3060   */\n      swap2\n      pop\n        /* \"#utility.yul\":3069:3162   */\n      tag_122\n        /* \"#utility.yul\":3158:3161   */\n      dup3\n        /* \"#utility.yul\":3069:3162   */\n      tag_123\n      jump\t// in\n    tag_122:\n        /* \"#utility.yul\":3187:3189   */\n      0x40\n        /* \"#utility.yul\":3182:3185   */\n      dup3\n        /* \"#utility.yul\":3178:3190   */\n      add\n        /* \"#utility.yul\":3171:3190   */\n      swap1\n      pop\n        /* \"#utility.yul\":2830:3196   */\n      swap2\n      swap1\n      pop\n      jump\t// out\n        /* \"#utility.yul\":3202:3568   */\n    tag_124:\n        /* \"#utility.yul\":3344:3347   */\n      0x00\n        /* \"#utility.yul\":3365:3432   */\n      tag_126\n        /* \"#utility.yul\":3429:3431   */\n      0x20\n        /* \"#utility.yul\":3424:3427   */\n      dup4\n        /* \"#utility.yul\":3365:3432   */\n      tag_104\n      jump\t// in\n    tag_126:\n        /* \"#utility.yul\":3358:3432   */\n      swap2\n      pop\n        /* \"#utility.yul\":3441:3534   */\n      tag_127\n        /* \"#utility.yul\":3530:3533   */\n      dup3\n        /* \"#utility.yul\":3441:3534   */\n      tag_128\n      jump\t// in\n    tag_127:\n        /* \"#utility.yul\":3559:3561   */\n      0x20\n        /* \"#utility.yul\":3554:3557   */\n      dup3\n        /* \"#utility.yul\":3550:3562   */\n      add\n        /* \"#utility.yul\":3543:3562   */\n      swap1\n      pop\n        /* \"#utility.yul\":3202:3568   */\n      swap2\n      swap1\n      pop\n      jump\t// out\n        /* \"#utility.yul\":3574:3692   */\n    tag_129:\n        /* \"#utility.yul\":3661:3685   */\n      tag_131\n        /* \"#utility.yul\":3679:3684   */\n      dup2\n        /* \"#utility.yul\":3661:3685   */\n      tag_132\n      jump\t// in\n    tag_131:\n        /* \"#utility.yul\":3656:3659   */\n      dup3\n        /* \"#utility.yul\":3649:3686   */\n      mstore\n        /* \"#utility.yul\":3574:3692   */\n      pop\n      pop\n      jump\t// out\n        /* \"#utility.yul\":3698:3920   */\n    tag_21:\n        /* \"#utility.yul\":3791:3795   */\n      0x00\n        /* \"#utility.yul\":3829:3831   */\n      0x20\n        /* \"#utility.yul\":3818:3827   */\n      dup3\n        /* \"#utility.yul\":3814:3832   */\n      add\n        /* \"#utility.yul\":3806:3832   */\n      swap1\n      pop\n        /* \"#utility.yul\":3842:3913   */\n      tag_134\n        /* \"#utility.yul\":3910:3911   */\n      0x00\n        /* \"#utility.yul\":3899:3908   */\n      dup4\n        /* \"#utility.yul\":3895:3912   */\n      add\n        /* \"#utility.yul\":3886:3892   */\n      dup5\n        /* \"#utility.yul\":3842:3913   */\n      tag_95\n      jump\t// in\n    tag_134:\n        /* \"#utility.yul\":3698:3920   */\n      swap3\n      swap2\n      pop\n      pop\n      jump\t// out\n        /* \"#utility.yul\":3926:4239   */\n    tag_11:\n        /* \"#utility.yul\":4039:4043   */\n      0x00\n        /* \"#utility.yul\":4077:4079   */\n      0x20\n        /* \"#utility.yul\":4066:4075   */\n      dup3\n        /* \"#utility.yul\":4062:4080   */\n      add\n        /* \"#utility.yul\":4054:4080   */\n      swap1\n      pop\n        /* \"#utility.yul\":4126:4135   */\n      dup2\n        /* \"#utility.yul\":4120:4124   */\n      dup2\n        /* \"#utility.yul\":4116:4136   */\n      sub\n        /* \"#utility.yul\":4112:4113   */\n      0x00\n        /* \"#utility.yul\":4101:4110   */\n      dup4\n        /* \"#utility.yul\":4097:4114   */\n      add\n        /* \"#utility.yul\":4090:4137   */\n      mstore\n        /* \"#utility.yul\":4154:4232   */\n      tag_136\n        /* \"#utility.yul\":4227:4231   */\n      dup2\n        /* \"#utility.yul\":4218:4224   */\n      dup5\n        /* \"#utility.yul\":4154:4232   */\n      tag_99\n      jump\t// in\n    tag_136:\n        /* \"#utility.yul\":4146:4232   */\n      swap1\n      pop\n        /* \"#utility.yul\":3926:4239   */\n      swap3\n      swap2\n      pop\n      pop\n      jump\t// out\n        /* \"#utility.yul\":4245:4664   */\n    tag_61:\n        /* \"#utility.yul\":4411:4415   */\n      0x00\n        /* \"#utility.yul\":4449:4451   */\n      0x20\n        /* \"#utility.yul\":4438:4447   */\n      dup3\n        /* \"#utility.yul\":4434:4452   */\n      add\n        /* \"#utility.yul\":4426:4452   */\n      swap1\n      pop\n        /* \"#utility.yul\":4498:4507   */\n      dup2\n        /* \"#utility.yul\":4492:4496   */\n      dup2\n        /* \"#utility.yul\":4488:4508   */\n      sub\n        /* \"#utility.yul\":4484:4485   */\n      0x00\n        /* \"#utility.yul\":4473:4482   */\n      dup4\n        /* \"#utility.yul\":4469:4486   */\n      add\n        /* \"#utility.yul\":4462:4509   */\n      mstore\n        /* \"#utility.yul\":4526:4657   */\n      tag_138\n        /* \"#utility.yul\":4652:4656   */\n      dup2\n        /* \"#utility.yul\":4526:4657   */\n      tag_109\n      jump\t// in\n    tag_138:\n        /* \"#utility.yul\":4518:4657   */\n      swap1\n      pop\n        /* \"#utility.yul\":4245:4664   */\n      swap2\n      swap1\n      pop\n      jump\t// out\n        /* \"#utility.yul\":4670:5089   */\n    tag_47:\n        /* \"#utility.yul\":4836:4840   */\n      0x00\n        /* \"#utility.yul\":4874:4876   */\n      0x20\n        /* \"#utility.yul\":4863:4872   */\n      dup3\n        /* \"#utility.yul\":4859:4877   */\n      add\n        /* \"#utility.yul\":4851:4877   */\n      swap1\n      pop\n        /* \"#utility.yul\":4923:4932   */\n      dup2\n        /* \"#utility.yul\":4917:4921   */\n      dup2\n        /* \"#utility.yul\":4913:4933   */\n      sub\n        /* \"#utility.yul\":4909:4910   */\n      0x00\n        /* \"#utility.yul\":4898:4907   */\n      dup4\n        /* \"#utility.yul\":4894:4911   */\n      add\n        /* \"#utility.yul\":4887:4934   */\n      mstore\n        /* \"#utility.yul\":4951:5082   */\n      tag_140\n        /* \"#utility.yul\":5077:5081   */\n      dup2\n        /* \"#utility.yul\":4951:5082   */\n      tag_114\n      jump\t// in\n    tag_140:\n        /* \"#utility.yul\":4943:5082   */\n      swap1\n      pop\n        /* \"#utility.yul\":4670:5089   */\n      swap2\n      swap1\n      pop\n      jump\t// out\n        /* \"#utility.yul\":5095:5514   */\n    tag_43:\n        /* \"#utility.yul\":5261:5265   */\n      0x00\n        /* \"#utility.yul\":5299:5301   */\n      0x20\n        /* \"#utility.yul\":5288:5297   */\n      dup3\n        /* \"#utility.yul\":5284:5302   */\n      add\n        /* \"#utility.yul\":5276:5302   */\n      swap1\n      pop\n        /* \"#utility.yul\":5348:5357   */\n      dup2\n        /* \"#utility.yul\":5342:5346   */\n      dup2\n        /* \"#utility.yul\":5338:5358   */\n      sub\n        /* \"#utility.yul\":5334:5335   */\n      0x00\n        /* \"#utility.yul\":5323:5332   */\n      dup4\n        /* \"#utility.yul\":5319:5336   */\n      add\n        /* \"#utility.yul\":5312:5359   */\n      mstore\n        /* \"#utility.yul\":5376:5507   */\n      tag_142\n        /* \"#utility.yul\":5502:5506   */\n      dup2\n        /* \"#utility.yul\":5376:5507   */\n      tag_119\n      jump\t// in\n    tag_142:\n        /* \"#utility.yul\":5368:5507   */\n      swap1\n      pop\n        /* \"#utility.yul\":5095:5514   */\n      swap2\n      swap1\n      pop\n      jump\t// out\n        /* \"#utility.yul\":5520:5939   */\n    tag_56:\n        /* \"#utility.yul\":5686:5690   */\n      0x00\n        /* \"#utility.yul\":5724:5726   */\n      0x20\n        /* \"#utility.yul\":5713:5722   */\n      dup3\n        /* \"#utility.yul\":5709:5727   */\n      add\n        /* \"#utility.yul\":5701:5727   */\n      swap1\n      pop\n        /* \"#utility.yul\":5773:5782   */\n      dup2\n        /* \"#utility.yul\":5767:5771   */\n      dup2\n        /* \"#utility.yul\":5763:5783   */\n      sub\n        /* \"#utility.yul\":5759:5760   */\n      0x00\n        /* \"#utility.yul\":5748:5757   */\n      dup4\n        /* \"#utility.yul\":5744:5761   */\n      add\n        /* \"#utility.yul\":5737:5784   */\n      mstore\n        /* \"#utility.yul\":5801:5932   */\n      tag_144\n        /* \"#utility.yul\":5927:5931   */\n      dup2\n        /* \"#utility.yul\":5801:5932   */\n      tag_124\n      jump\t// in\n    tag_144:\n        /* \"#utility.yul\":5793:5932   */\n      swap1\n      pop\n        /* \"#utility.yul\":5520:5939   */\n      swap2\n      swap1\n      pop\n      jump\t// out\n        /* \"#utility.yul\":5945:6167   */\n    tag_27:\n        /* \"#utility.yul\":6038:6042   */\n      0x00\n        /* \"#utility.yul\":6076:6078   */\n      0x20\n        /* \"#utility.yul\":6065:6074   */\n      dup3\n        /* \"#utility.yul\":6061:6079   */\n      add\n        /* \"#utility.yul\":6053:6079   */\n      swap1\n      pop\n        /* \"#utility.yul\":6089:6160   */\n      tag_146\n        /* \"#utility.yul\":6157:6158   */\n      0x00\n        /* \"#utility.yul\":6146:6155   */\n      dup4\n        /* \"#utility.yul\":6142:6159   */\n      add\n        /* \"#utility.yul\":6133:6139   */\n      dup5\n        /* \"#utility.yul\":6089:6160   */\n      tag_129\n      jump\t// in\n    tag_146:\n        /* \"#utility.yul\":5945:6167   */\n      swap3\n      swap2\n      pop\n      pop\n      jump\t// out\n        /* \"#utility.yul\":6254:6353   */\n    tag_102:\n        /* \"#utility.yul\":6306:6312   */\n      0x00\n        /* \"#utility.yul\":6340:6345   */\n      dup2\n        /* \"#utility.yul\":6334:6346   */\n      mload\n        /* \"#utility.yul\":6324:6346   */\n      swap1\n      pop\n        /* \"#utility.yul\":6254:6353   */\n      swap2\n      swap1\n      pop\n      jump\t// out\n        /* \"#utility.yul\":6359:6528   */\n    tag_104:\n        /* \"#utility.yul\":6443:6454   */\n      0x00\n        /* \"#utility.yul\":6477:6483   */\n      dup3\n        /* \"#utility.yul\":6472:6475   */\n      dup3\n        /* \"#utility.yul\":6465:6484   */\n      mstore\n        /* \"#utility.yul\":6517:6521   */\n      0x20\n        /* \"#utility.yul\":6512:6515   */\n      dup3\n        /* \"#utility.yul\":6508:6522   */\n      add\n        /* \"#utility.yul\":6493:6522   */\n      swap1\n      pop\n        /* \"#utility.yul\":6359:6528   */\n      swap3\n      swap2\n      pop\n      pop\n      jump\t// out\n        /* \"#utility.yul\":6534:6839   */\n    tag_65:\n        /* \"#utility.yul\":6574:6577   */\n      0x00\n        /* \"#utility.yul\":6593:6613   */\n      tag_152\n        /* \"#utility.yul\":6611:6612   */\n      dup3\n        /* \"#utility.yul\":6593:6613   */\n      tag_132\n      jump\t// in\n    tag_152:\n        /* \"#utility.yul\":6588:6613   */\n      swap2\n      pop\n        /* \"#utility.yul\":6627:6647   */\n      tag_153\n        /* \"#utility.yul\":6645:6646   */\n      dup4\n        /* \"#utility.yul\":6627:6647   */\n      tag_132\n      jump\t// in\n    tag_153:\n        /* \"#utility.yul\":6622:6647   */\n      swap3\n      pop\n        /* \"#utility.yul\":6781:6782   */\n      dup3\n        /* \"#utility.yul\":6713:6779   */\n      0xffffffffffffffffffffffffffffffffffffffffffffffffffffffffffffffff\n        /* \"#utility.yul\":6709:6783   */\n      sub\n        /* \"#utility.yul\":6706:6707   */\n      dup3\n        /* \"#utility.yul\":6703:6784   */\n      gt\n        /* \"#utility.yul\":6700:6807   */\n      iszero\n      tag_154\n      jumpi\n        /* \"#utility.yul\":6787:6805   */\n      tag_155\n      tag_156\n      jump\t// in\n    tag_155:\n        /* \"#utility.yul\":6700:6807   */\n    tag_154:\n        /* \"#utility.yul\":6831:6832   */\n      dup3\n        /* \"#utility.yul\":6828:6829   */\n      dup3\n        /* \"#utility.yul\":6824:6833   */\n      add\n        /* \"#utility.yul\":6817:6833   */\n      swap1\n      pop\n        /* \"#utility.yul\":6534:6839   */\n      swap3\n      swap2\n      pop\n      pop\n      jump\t// out\n        /* \"#utility.yul\":6845:6941   */\n    tag_98:\n        /* \"#utility.yul\":6882:6889   */\n      0x00\n        /* \"#utility.yul\":6911:6935   */\n      tag_158\n        /* \"#utility.yul\":6929:6934   */\n      dup3\n        /* \"#utility.yul\":6911:6935   */\n      tag_159\n      jump\t// in\n    tag_158:\n        /* \"#utility.yul\":6900:6935   */\n      swap1\n      pop\n        /* \"#utility.yul\":6845:6941   */\n      swap2\n      swap1\n      pop\n      jump\t// out\n        /* \"#utility.yul\":6947:7073   */\n    tag_159:\n        /* \"#utility.yul\":6984:6991   */\n      0x00\n        /* \"#utility.yul\":7024:7066   */\n      0xffffffffffffffffffffffffffffffffffffffff\n        /* \"#utility.yul\":7017:7022   */\n      dup3\n        /* \"#utility.yul\":7013:7067   */\n      and\n        /* \"#utility.yul\":7002:7067   */\n      swap1\n      pop\n        /* \"#utility.yul\":6947:7073   */\n      swap2\n      swap1\n      pop\n      jump\t// out\n        /* \"#utility.yul\":7079:7156   */\n    tag_132:\n        /* \"#utility.yul\":7116:7123   */\n      0x00\n        /* \"#utility.yul\":7145:7150   */\n      dup2\n        /* \"#utility.yul\":7134:7150   */\n      swap1\n      pop\n        /* \"#utility.yul\":7079:7156   */\n      swap2\n      swap1\n      pop\n      jump\t// out\n        /* \"#utility.yul\":7162:7469   */\n    tag_106:\n        /* \"#utility.yul\":7230:7231   */\n      0x00\n        /* \"#utility.yul\":7240:7353   */\n    tag_163:\n        /* \"#utility.yul\":7254:7260   */\n      dup4\n        /* \"#utility.yul\":7251:7252   */\n      dup2\n        /* \"#utility.yul\":7248:7261   */\n      lt\n        /* \"#utility.yul\":7240:7353   */\n      iszero\n      tag_165\n      jumpi\n        /* \"#utility.yul\":7339:7340   */\n      dup1\n        /* \"#utility.yul\":7334:7337   */\n      dup3\n        /* \"#utility.yul\":7330:7341   */\n      add\n        /* \"#utility.yul\":7324:7342   */\n      mload\n        /* \"#utility.yul\":7320:7321   */\n      dup2\n        /* \"#utility.yul\":7315:7318   */\n      dup5\n        /* \"#utility.yul\":7311:7322   */\n      add\n        /* \"#utility.yul\":7304:7343   */\n      mstore\n        /* \"#utility.yul\":7276:7278   */\n      0x20\n        /* \"#utility.yul\":7273:7274   */\n      dup2\n        /* \"#utility.yul\":7269:7279   */\n      add\n        /* \"#utility.yul\":7264:7279   */\n      swap1\n      pop\n        /* \"#utility.yul\":7240:7353   */\n      jump(tag_163)\n    tag_165:\n        /* \"#utility.yul\":7371:7377   */\n      dup4\n        /* \"#utility.yul\":7368:7369   */\n      dup2\n        /* \"#utility.yul\":7365:7378   */\n      gt\n        /* \"#utility.yul\":7362:7463   */\n      iszero\n      tag_166\n      jumpi\n        /* \"#utility.yul\":7451:7452   */\n      0x00\n        /* \"#utility.yul\":7442:7448   */\n      dup5\n        /* \"#utility.yul\":7437:7440   */\n      dup5\n        /* \"#utility.yul\":7433:7449   */\n      add\n        /* \"#utility.yul\":7426:7453   */\n      mstore\n        /* \"#utility.yul\":7362:7463   */\n    tag_166:\n        /* \"#utility.yul\":7211:7469   */\n      pop\n        /* \"#utility.yul\":7162:7469   */\n      pop\n      pop\n      pop\n      jump\t// out\n        /* \"#utility.yul\":7475:7795   */\n    tag_32:\n        /* \"#utility.yul\":7519:7525   */\n      0x00\n        /* \"#utility.yul\":7556:7557   */\n      0x02\n        /* \"#utility.yul\":7550:7554   */\n      dup3\n        /* \"#utility.yul\":7546:7558   */\n      div\n        /* \"#utility.yul\":7536:7558   */\n      swap1\n      pop\n        /* \"#utility.yul\":7603:7604   */\n      0x01\n        /* \"#utility.yul\":7597:7601   */\n      dup3\n        /* \"#utility.yul\":7593:7605   */\n      and\n        /* \"#utility.yul\":7624:7642   */\n      dup1\n        /* \"#utility.yul\":7614:7695   */\n      tag_168\n      jumpi\n        /* \"#utility.yul\":7680:7684   */\n      0x7f\n        /* \"#utility.yul\":7672:7678   */\n      dup3\n        /* \"#utility.yul\":7668:7685   */\n      and\n        /* \"#utility.yul\":7658:7685   */\n      swap2\n      pop\n        /* \"#utility.yul\":7614:7695   */\n    tag_168:\n        /* \"#utility.yul\":7742:7744   */\n      0x20\n        /* \"#utility.yul\":7734:7740   */\n      dup3\n        /* \"#utility.yul\":7731:7745   */\n      lt\n        /* \"#utility.yul\":7711:7729   */\n      dup2\n        /* \"#utility.yul\":7708:7746   */\n      eq\n        /* \"#utility.yul\":7705:7789   */\n      iszero\n      tag_169\n      jumpi\n        /* \"#utility.yul\":7761:7779   */\n      tag_170\n      tag_171\n      jump\t// in\n    tag_170:\n        /* \"#utility.yul\":7705:7789   */\n    tag_169:\n        /* \"#utility.yul\":7526:7795   */\n      pop\n        /* \"#utility.yul\":7475:7795   */\n      swap2\n      swap1\n      pop\n      jump\t// out\n        /* \"#utility.yul\":7801:7981   */\n    tag_156:\n        /* \"#utility.yul\":7849:7926   */\n      0x4e487b7100000000000000000000000000000000000000000000000000000000\n        /* \"#utility.yul\":7846:7847   */\n      0x00\n        /* \"#utility.yul\":7839:7927   */\n      mstore\n        /* \"#utility.yul\":7946:7950   */\n      0x11\n        /* \"#utility.yul\":7943:7944   */\n      0x04\n        /* \"#utility.yul\":7936:7951   */\n      mstore\n        /* \"#utility.yul\":7970:7974   */\n      0x24\n        /* \"#utility.yul\":7967:7968   */\n      0x00\n        /* \"#utility.yul\":7960:7975   */\n      revert\n        /* \"#utility.yul\":7987:8167   */\n    tag_171:\n        /* \"#utility.yul\":8035:8112   */\n      0x4e487b7100000000000000000000000000000000000000000000000000000000\n        /* \"#utility.yul\":8032:8033   */\n      0x00\n        /* \"#utility.yul\":8025:8113   */\n      mstore\n        /* \"#utility.yul\":8132:8136   */\n      0x22\n        /* \"#utility.yul\":8129:8130   */\n      0x04\n        /* \"#utility.yul\":8122:8137   */\n      mstore\n        /* \"#utility.yul\":8156:8160   */\n      0x24\n        /* \"#utility.yul\":8153:8154   */\n      0x00\n        /* \"#utility.yul\":8146:8161   */\n      revert\n        /* \"#utility.yul\":8296:8413   */\n    tag_83:\n        /* \"#utility.yul\":8405:8406   */\n      0x00\n        /* \"#utility.yul\":8402:8403   */\n      dup1\n        /* \"#utility.yul\":8395:8407   */\n      revert\n        /* \"#utility.yul\":8419:8521   */\n    tag_108:\n        /* \"#utility.yul\":8460:8466   */\n      0x00\n        /* \"#utility.yul\":8511:8513   */\n      0x1f\n        /* \"#utility.yul\":8507:8514   */\n      not\n        /* \"#utility.yul\":8502:8504   */\n      0x1f\n        /* \"#utility.yul\":8495:8500   */\n      dup4\n        /* \"#utility.yul\":8491:8505   */\n      add\n        /* \"#utility.yul\":8487:8515   */\n      and\n        /* \"#utility.yul\":8477:8515   */\n      swap1\n      pop\n        /* \"#utility.yul\":8419:8521   */\n      swap2\n      swap1\n      pop\n      jump\t// out\n        /* \"#utility.yul\":8527:8705   */\n    tag_113:\n        /* \"#utility.yul\":8667:8697   */\n      0x4552433732313a20746f6b656e20616c7265616479206d696e74656400000000\n        /* \"#utility.yul\":8663:8664   */\n      0x00\n        /* \"#utility.yul\":8655:8661   */\n      dup3\n        /* \"#utility.yul\":8651:8665   */\n      add\n        /* \"#utility.yul\":8644:8698   */\n      mstore\n        /* \"#utility.yul\":8527:8705   */\n      pop\n      jump\t// out\n        /* \"#utility.yul\":8711:8940   */\n    tag_118:\n        /* \"#utility.yul\":8851:8885   */\n      0x4552433732313a2062616c616e636520717565727920666f7220746865207a65\n        /* \"#utility.yul\":8847:8848   */\n      0x00\n        /* \"#utility.yul\":8839:8845   */\n      dup3\n        /* \"#utility.yul\":8835:8849   */\n      add\n        /* \"#utility.yul\":8828:8886   */\n      mstore\n        /* \"#utility.yul\":8920:8932   */\n      0x726f206164647265737300000000000000000000000000000000000000000000\n        /* \"#utility.yul\":8915:8917   */\n      0x20\n        /* \"#utility.yul\":8907:8913   */\n      dup3\n        /* \"#utility.yul\":8903:8918   */\n      add\n        /* \"#utility.yul\":8896:8933   */\n      mstore\n        /* \"#utility.yul\":8711:8940   */\n      pop\n      jump\t// out\n        /* \"#utility.yul\":8946:9174   */\n    tag_123:\n        /* \"#utility.yul\":9086:9120   */\n      0x4552433732313a206f776e657220717565727920666f72206e6f6e6578697374\n        /* \"#utility.yul\":9082:9083   */\n      0x00\n        /* \"#utility.yul\":9074:9080   */\n      dup3\n        /* \"#utility.yul\":9070:9084   */\n      add\n        /* \"#utility.yul\":9063:9121   */\n      mstore\n        /* \"#utility.yul\":9155:9166   */\n      0x656e7420746f6b656e0000000000000000000000000000000000000000000000\n        /* \"#utility.yul\":9150:9152   */\n      0x20\n        /* \"#utility.yul\":9142:9148   */\n      dup3\n        /* \"#utility.yul\":9138:9153   */\n      add\n        /* \"#utility.yul\":9131:9167   */\n      mstore\n        /* \"#utility.yul\":8946:9174   */\n      pop\n      jump\t// out\n        /* \"#utility.yul\":9180:9362   */\n    tag_128:\n        /* \"#utility.yul\":9320:9354   */\n      0x4552433732313a206d696e7420746f20746865207a65726f2061646472657373\n        /* \"#utility.yul\":9316:9317   */\n      0x00\n        /* \"#utility.yul\":9308:9314   */\n      dup3\n        /* \"#utility.yul\":9304:9318   */\n      add\n        /* \"#utility.yul\":9297:9355   */\n      mstore\n        /* \"#utility.yul\":9180:9362   */\n      pop\n      jump\t// out\n        /* \"#utility.yul\":9368:9490   */\n    tag_75:\n        /* \"#utility.yul\":9441:9465   */\n      tag_183\n        /* \"#utility.yul\":9459:9464   */\n      dup2\n        /* \"#utility.yul\":9441:9465   */\n      tag_98\n      jump\t// in\n    tag_183:\n        /* \"#utility.yul\":9434:9439   */\n      dup2\n        /* \"#utility.yul\":9431:9466   */\n      eq\n        /* \"#utility.yul\":9421:9484   */\n      tag_184\n      jumpi\n        /* \"#utility.yul\":9480:9481   */\n      0x00\n        /* \"#utility.yul\":9477:9478   */\n      dup1\n        /* \"#utility.yul\":9470:9482   */\n      revert\n        /* \"#utility.yul\":9421:9484   */\n    tag_184:\n        /* \"#utility.yul\":9368:9490   */\n      pop\n      jump\t// out\n        /* \"#utility.yul\":9496:9618   */\n    tag_79:\n        /* \"#utility.yul\":9569:9593   */\n      tag_186\n        /* \"#utility.yul\":9587:9592   */\n      dup2\n        /* \"#utility.yul\":9569:9593   */\n      tag_132\n      jump\t// in\n    tag_186:\n        /* \"#utility.yul\":9562:9567   */\n      dup2\n        /* \"#utility.yul\":9559:9594   */\n      eq\n        /* \"#utility.yul\":9549:9612   */\n      tag_187\n      jumpi\n        /* \"#utility.yul\":9608:9609   */\n      0x00\n        /* \"#utility.yul\":9605:9606   */\n      dup1\n        /* \"#utility.yul\":9598:9610   */\n      revert\n        /* \"#utility.yul\":9549:9612   */\n    tag_187:\n        /* \"#utility.yul\":9496:9618   */\n      pop\n      jump\t// out\n\n    auxdata: 0xa26469706673582212207d07010dc59118743dc4c7a8476b6ef00c51ebf78af7feddb98f74bbe4d5e90f64736f6c63430008070033\n}\n",
				"bytecode": {
					"linkReferences": {},
					"object": "60806040523480156200001157600080fd5b506040518060400160405280600e81526020017f426c75655375726765546f6b656e000000000000000000000000000000000000815250600090805190602001906200005f929190620000b4565b506040518060400160405280600381526020017f425354000000000000000000000000000000000000000000000000000000000081525060019080519060200190620000ad929190620000b4565b50620001c9565b828054620000c29062000164565b90600052602060002090601f016020900481019282620000e6576000855562000132565b82601f106200010157805160ff191683800117855562000132565b8280016001018555821562000132579182015b828111156200013157825182559160200191906001019062000114565b5b50905062000141919062000145565b5090565b5b808211156200016057600081600090555060010162000146565b5090565b600060028204905060018216806200017d57607f821691505b602082108114156200019457620001936200019a565b5b50919050565b7f4e487b7100000000000000000000000000000000000000000000000000000000600052602260045260246000fd5b610b6780620001d96000396000f3fe608060405234801561001057600080fd5b50600436106100575760003560e01c806306fdde031461005c578063156e29f61461007a5780636352211e1461009657806370a08231146100c657806395d89b41146100f6575b600080fd5b610064610114565b60405161007191906107cf565b60405180910390f35b610094600480360381019061008f9190610651565b6101a2565b005b6100b060048036038101906100ab91906106a4565b6101b2565b6040516100bd91906107b4565b60405180910390f35b6100e060048036038101906100db9190610624565b610264565b6040516100ed9190610871565b60405180910390f35b6100fe61031c565b60405161010b91906107cf565b60405180910390f35b600080546101219061096d565b80601f016020809104026020016040519081016040528092919081815260200182805461014d9061096d565b801561019a5780601f1061016f5761010080835404028352916020019161019a565b820191906000526020600020905b81548152906001019060200180831161017d57829003601f168201915b505050505081565b6101ad8383836103aa565b505050565b6000806002600084815260200190815260200160002060009054906101000a900473ffffffffffffffffffffffffffffffffffffffff169050600073ffffffffffffffffffffffffffffffffffffffff168173ffffffffffffffffffffffffffffffffffffffff16141561025b576040517f08c379a000000000000000000000000000000000000000000000000000000000815260040161025290610831565b60405180910390fd5b80915050919050565b60008073ffffffffffffffffffffffffffffffffffffffff168273ffffffffffffffffffffffffffffffffffffffff1614156102d5576040517f08c379a00000000000000000000000000000000000000000000000000000000081526004016102cc90610811565b60405180910390fd5b600360008373ffffffffffffffffffffffffffffffffffffffff1673ffffffffffffffffffffffffffffffffffffffff168152602001908152602001600020549050919050565b600180546103299061096d565b80601f01602080910402602001604051908101604052809291908181526020018280546103559061096d565b80156103a25780601f10610377576101008083540402835291602001916103a2565b820191906000526020600020905b81548152906001019060200180831161038557829003601f168201915b505050505081565b600073ffffffffffffffffffffffffffffffffffffffff168373ffffffffffffffffffffffffffffffffffffffff16141561041a576040517f08c379a000000000000000000000000000000000000000000000000000000000815260040161041190610851565b60405180910390fd5b61042382610584565b15610463576040517f08c379a000000000000000000000000000000000000000000000000000000000815260040161045a906107f1565b60405180910390fd5b61046f600084846105f0565b80600360008573ffffffffffffffffffffffffffffffffffffffff1673ffffffffffffffffffffffffffffffffffffffff16815260200190815260200160002060008282546104be91906108a8565b92505081905550826002600084815260200190815260200160002060006101000a81548173ffffffffffffffffffffffffffffffffffffffff021916908373ffffffffffffffffffffffffffffffffffffffff160217905550818373ffffffffffffffffffffffffffffffffffffffff16600073ffffffffffffffffffffffffffffffffffffffff167fddf252ad1be2c89b69c2b068fc378daa952ba7f163c4a11628f55a4df523b3ef60405160405180910390a461057f600084846105f5565b505050565b60008073ffffffffffffffffffffffffffffffffffffffff166002600084815260200190815260200160002060009054906101000a900473ffffffffffffffffffffffffffffffffffffffff1673ffffffffffffffffffffffffffffffffffffffff1614159050919050565b505050565b505050565b60008135905061060981610b03565b92915050565b60008135905061061e81610b1a565b92915050565b60006020828403121561063a576106396109fd565b5b6000610648848285016105fa565b91505092915050565b60008060006060848603121561066a576106696109fd565b5b6000610678868287016105fa565b93505060206106898682870161060f565b925050604061069a8682870161060f565b9150509250925092565b6000602082840312156106ba576106b96109fd565b5b60006106c88482850161060f565b91505092915050565b6106da816108fe565b82525050565b60006106eb8261088c565b6106f58185610897565b935061070581856020860161093a565b61070e81610a02565b840191505092915050565b6000610726601c83610897565b915061073182610a13565b602082019050919050565b6000610749602a83610897565b915061075482610a3c565b604082019050919050565b600061076c602983610897565b915061077782610a8b565b604082019050919050565b600061078f602083610897565b915061079a82610ada565b602082019050919050565b6107ae81610930565b82525050565b60006020820190506107c960008301846106d1565b92915050565b600060208201905081810360008301526107e981846106e0565b905092915050565b6000602082019050818103600083015261080a81610719565b9050919050565b6000602082019050818103600083015261082a8161073c565b9050919050565b6000602082019050818103600083015261084a8161075f565b9050919050565b6000602082019050818103600083015261086a81610782565b9050919050565b600060208201905061088660008301846107a5565b92915050565b600081519050919050565b600082825260208201905092915050565b60006108b382610930565b91506108be83610930565b9250827fffffffffffffffffffffffffffffffffffffffffffffffffffffffffffffffff038211156108f3576108f261099f565b5b828201905092915050565b600061090982610910565b9050919050565b600073ffffffffffffffffffffffffffffffffffffffff82169050919050565b6000819050919050565b60005b8381101561095857808201518184015260208101905061093d565b83811115610967576000848401525b50505050565b6000600282049050600182168061098557607f821691505b60208210811415610999576109986109ce565b5b50919050565b7f4e487b7100000000000000000000000000000000000000000000000000000000600052601160045260246000fd5b7f4e487b7100000000000000000000000000000000000000000000000000000000600052602260045260246000fd5b600080fd5b6000601f19601f8301169050919050565b7f4552433732313a20746f6b656e20616c7265616479206d696e74656400000000600082015250565b7f4552433732313a2062616c616e636520717565727920666f7220746865207a6560008201527f726f206164647265737300000000000000000000000000000000000000000000602082015250565b7f4552433732313a206f776e657220717565727920666f72206e6f6e657869737460008201527f656e7420746f6b656e0000000000000000000000000000000000000000000000602082015250565b7f4552433732313a206d696e7420746f20746865207a65726f2061646472657373600082015250565b610b0c816108fe565b8114610b1757600080fd5b50565b610b2381610930565b8114610b2e57600080fd5b5056fea26469706673582212207d07010dc59118743dc4c7a8476b6ef00c51ebf78af7feddb98f74bbe4d5e90f64736f6c63430008070033",
					"opcodes": "PUSH1 0x80 PUSH1 0x40 MSTORE CALLVALUE DUP1 ISZERO PUSH3 0x11 JUMPI PUSH1 0x0 DUP1 REVERT JUMPDEST POP PUSH1 0x40 MLOAD DUP1 PUSH1 0x40 ADD PUSH1 0x40 MSTORE DUP1 PUSH1 0xE DUP2 MSTORE PUSH1 0x20 ADD PUSH32 0x426C75655375726765546F6B656E000000000000000000000000000000000000 DUP2 MSTORE POP PUSH1 0x0 SWAP1 DUP1 MLOAD SWAP1 PUSH1 0x20 ADD SWAP1 PUSH3 0x5F SWAP3 SWAP2 SWAP1 PUSH3 0xB4 JUMP JUMPDEST POP PUSH1 0x40 MLOAD DUP1 PUSH1 0x40 ADD PUSH1 0x40 MSTORE DUP1 PUSH1 0x3 DUP2 MSTORE PUSH1 0x20 ADD PUSH32 0x4253540000000000000000000000000000000000000000000000000000000000 DUP2 MSTORE POP PUSH1 0x1 SWAP1 DUP1 MLOAD SWAP1 PUSH1 0x20 ADD SWAP1 PUSH3 0xAD SWAP3 SWAP2 SWAP1 PUSH3 0xB4 JUMP JUMPDEST POP PUSH3 0x1C9 JUMP JUMPDEST DUP3 DUP1 SLOAD PUSH3 0xC2 SWAP1 PUSH3 0x164 JUMP JUMPDEST SWAP1 PUSH1 0x0 MSTORE PUSH1 0x20 PUSH1 0x0 KECCAK256 SWAP1 PUSH1 0x1F ADD PUSH1 0x20 SWAP1 DIV DUP2 ADD SWAP3 DUP3 PUSH3 0xE6 JUMPI PUSH1 0x0 DUP6 SSTORE PUSH3 0x132 JUMP JUMPDEST DUP3 PUSH1 0x1F LT PUSH3 0x101 JUMPI DUP1 MLOAD PUSH1 0xFF NOT AND DUP4 DUP1 ADD OR DUP6 SSTORE PUSH3 0x132 JUMP JUMPDEST DUP3 DUP1 ADD PUSH1 0x1 ADD DUP6 SSTORE DUP3 ISZERO PUSH3 0x132 JUMPI SWAP2 DUP3 ADD JUMPDEST DUP3 DUP2 GT ISZERO PUSH3 0x131 JUMPI DUP3 MLOAD DUP3 SSTORE SWAP2 PUSH1 0x20 ADD SWAP2 SWAP1 PUSH1 0x1 ADD SWAP1 PUSH3 0x114 JUMP JUMPDEST JUMPDEST POP SWAP1 POP PUSH3 0x141 SWAP2 SWAP1 PUSH3 0x145 JUMP JUMPDEST POP SWAP1 JUMP JUMPDEST JUMPDEST DUP1 DUP3 GT ISZERO PUSH3 0x160 JUMPI PUSH1 0x0 DUP2 PUSH1 0x0 SWAP1 SSTORE POP PUSH1 0x1 ADD PUSH3 0x146 JUMP JUMPDEST POP SWAP1 JUMP JUMPDEST PUSH1 0x0 PUSH1 0x2 DUP3 DIV SWAP1 POP PUSH1 0x1 DUP3 AND DUP1 PUSH3 0x17D JUMPI PUSH1 0x7F DUP3 AND SWAP2 POP JUMPDEST PUSH1 0x20 DUP3 LT DUP2 EQ ISZERO PUSH3 0x194 JUMPI PUSH3 0x193 PUSH3 0x19A JUMP JUMPDEST JUMPDEST POP SWAP2 SWAP1 POP JUMP JUMPDEST PUSH32 0x4E487B7100000000000000000000000000000000000000000000000000000000 PUSH1 0x0 MSTORE PUSH1 0x22 PUSH1 0x4 MSTORE PUSH1 0x24 PUSH1 0x0 REVERT JUMPDEST PUSH2 0xB67 DUP1 PUSH3 0x1D9 PUSH1 0x0 CODECOPY PUSH1 0x0 RETURN INVALID PUSH1 0x80 PUSH1 0x40 MSTORE CALLVALUE DUP1 ISZERO PUSH2 0x10 JUMPI PUSH1 0x0 DUP1 REVERT JUMPDEST POP PUSH1 0x4 CALLDATASIZE LT PUSH2 0x57 JUMPI PUSH1 0x0 CALLDATALOAD PUSH1 0xE0 SHR DUP1 PUSH4 0x6FDDE03 EQ PUSH2 0x5C JUMPI DUP1 PUSH4 0x156E29F6 EQ PUSH2 0x7A JUMPI DUP1 PUSH4 0x6352211E EQ PUSH2 0x96 JUMPI DUP1 PUSH4 0x70A08231 EQ PUSH2 0xC6 JUMPI DUP1 PUSH4 0x95D89B41 EQ PUSH2 0xF6 JUMPI JUMPDEST PUSH1 0x0 DUP1 REVERT JUMPDEST PUSH2 0x64 PUSH2 0x114 JUMP JUMPDEST PUSH1 0x40 MLOAD PUSH2 0x71 SWAP2 SWAP1 PUSH2 0x7CF JUMP JUMPDEST PUSH1 0x40 MLOAD DUP1 SWAP2 SUB SWAP1 RETURN JUMPDEST PUSH2 0x94 PUSH1 0x4 DUP1 CALLDATASIZE SUB DUP2 ADD SWAP1 PUSH2 0x8F SWAP2 SWAP1 PUSH2 0x651 JUMP JUMPDEST PUSH2 0x1A2 JUMP JUMPDEST STOP JUMPDEST PUSH2 0xB0 PUSH1 0x4 DUP1 CALLDATASIZE SUB DUP2 ADD SWAP1 PUSH2 0xAB SWAP2 SWAP1 PUSH2 0x6A4 JUMP JUMPDEST PUSH2 0x1B2 JUMP JUMPDEST PUSH1 0x40 MLOAD PUSH2 0xBD SWAP2 SWAP1 PUSH2 0x7B4 JUMP JUMPDEST PUSH1 0x40 MLOAD DUP1 SWAP2 SUB SWAP1 RETURN JUMPDEST PUSH2 0xE0 PUSH1 0x4 DUP1 CALLDATASIZE SUB DUP2 ADD SWAP1 PUSH2 0xDB SWAP2 SWAP1 PUSH2 0x624 JUMP JUMPDEST PUSH2 0x264 JUMP JUMPDEST PUSH1 0x40 MLOAD PUSH2 0xED SWAP2 SWAP1 PUSH2 0x871 JUMP JUMPDEST PUSH1 0x40 MLOAD DUP1 SWAP2 SUB SWAP1 RETURN JUMPDEST PUSH2 0xFE PUSH2 0x31C JUMP JUMPDEST PUSH1 0x40 MLOAD PUSH2 0x10B SWAP2 SWAP1 PUSH2 0x7CF JUMP JUMPDEST PUSH1 0x40 MLOAD DUP1 SWAP2 SUB SWAP1 RETURN JUMPDEST PUSH1 0x0 DUP1 SLOAD PUSH2 0x121 SWAP1 PUSH2 0x96D JUMP JUMPDEST DUP1 PUSH1 0x1F ADD PUSH1 0x20 DUP1 SWAP2 DIV MUL PUSH1 0x20 ADD PUSH1 0x40 MLOAD SWAP1 DUP2 ADD PUSH1 0x40 MSTORE DUP1 SWAP3 SWAP2 SWAP1 DUP2 DUP2 MSTORE PUSH1 0x20 ADD DUP3 DUP1 SLOAD PUSH2 0x14D SWAP1 PUSH2 0x96D JUMP JUMPDEST DUP1 ISZERO PUSH2 0x19A JUMPI DUP1 PUSH1 0x1F LT PUSH2 0x16F JUMPI PUSH2 0x100 DUP1 DUP4 SLOAD DIV MUL DUP4 MSTORE SWAP2 PUSH1 0x20 ADD SWAP2 PUSH2 0x19A JUMP JUMPDEST DUP3 ADD SWAP2 SWAP1 PUSH1 0x0 MSTORE PUSH1 0x20 PUSH1 0x0 KECCAK256 SWAP1 JUMPDEST DUP2 SLOAD DUP2 MSTORE SWAP1 PUSH1 0x1 ADD SWAP1 PUSH1 0x20 ADD DUP1 DUP4 GT PUSH2 0x17D JUMPI DUP3 SWAP1 SUB PUSH1 0x1F AND DUP3 ADD SWAP2 JUMPDEST POP POP POP POP POP DUP2 JUMP JUMPDEST PUSH2 0x1AD DUP4 DUP4 DUP4 PUSH2 0x3AA JUMP JUMPDEST POP POP POP JUMP JUMPDEST PUSH1 0x0 DUP1 PUSH1 0x2 PUSH1 0x0 DUP5 DUP2 MSTORE PUSH1 0x20 ADD SWAP1 DUP2 MSTORE PUSH1 0x20 ADD PUSH1 0x0 KECCAK256 PUSH1 0x0 SWAP1 SLOAD SWAP1 PUSH2 0x100 EXP SWAP1 DIV PUSH20 0xFFFFFFFFFFFFFFFFFFFFFFFFFFFFFFFFFFFFFFFF AND SWAP1 POP PUSH1 0x0 PUSH20 0xFFFFFFFFFFFFFFFFFFFFFFFFFFFFFFFFFFFFFFFF AND DUP2 PUSH20 0xFFFFFFFFFFFFFFFFFFFFFFFFFFFFFFFFFFFFFFFF AND EQ ISZERO PUSH2 0x25B JUMPI PUSH1 0x40 MLOAD PUSH32 0x8C379A000000000000000000000000000000000000000000000000000000000 DUP2 MSTORE PUSH1 0x4 ADD PUSH2 0x252 SWAP1 PUSH2 0x831 JUMP JUMPDEST PUSH1 0x40 MLOAD DUP1 SWAP2 SUB SWAP1 REVERT JUMPDEST DUP1 SWAP2 POP POP SWAP2 SWAP1 POP JUMP JUMPDEST PUSH1 0x0 DUP1 PUSH20 0xFFFFFFFFFFFFFFFFFFFFFFFFFFFFFFFFFFFFFFFF AND DUP3 PUSH20 0xFFFFFFFFFFFFFFFFFFFFFFFFFFFFFFFFFFFFFFFF AND EQ ISZERO PUSH2 0x2D5 JUMPI PUSH1 0x40 MLOAD PUSH32 0x8C379A000000000000000000000000000000000000000000000000000000000 DUP2 MSTORE PUSH1 0x4 ADD PUSH2 0x2CC SWAP1 PUSH2 0x811 JUMP JUMPDEST PUSH1 0x40 MLOAD DUP1 SWAP2 SUB SWAP1 REVERT JUMPDEST PUSH1 0x3 PUSH1 0x0 DUP4 PUSH20 0xFFFFFFFFFFFFFFFFFFFFFFFFFFFFFFFFFFFFFFFF AND PUSH20 0xFFFFFFFFFFFFFFFFFFFFFFFFFFFFFFFFFFFFFFFF AND DUP2 MSTORE PUSH1 0x20 ADD SWAP1 DUP2 MSTORE PUSH1 0x20 ADD PUSH1 0x0 KECCAK256 SLOAD SWAP1 POP SWAP2 SWAP1 POP JUMP JUMPDEST PUSH1 0x1 DUP1 SLOAD PUSH2 0x329 SWAP1 PUSH2 0x96D JUMP JUMPDEST DUP1 PUSH1 0x1F ADD PUSH1 0x20 DUP1 SWAP2 DIV MUL PUSH1 0x20 ADD PUSH1 0x40 MLOAD SWAP1 DUP2 ADD PUSH1 0x40 MSTORE DUP1 SWAP3 SWAP2 SWAP1 DUP2 DUP2 MSTORE PUSH1 0x20 ADD DUP3 DUP1 SLOAD PUSH2 0x355 SWAP1 PUSH2 0x96D JUMP JUMPDEST DUP1 ISZERO PUSH2 0x3A2 JUMPI DUP1 PUSH1 0x1F LT PUSH2 0x377 JUMPI PUSH2 0x100 DUP1 DUP4 SLOAD DIV MUL DUP4 MSTORE SWAP2 PUSH1 0x20 ADD SWAP2 PUSH2 0x3A2 JUMP JUMPDEST DUP3 ADD SWAP2 SWAP1 PUSH1 0x0 MSTORE PUSH1 0x20 PUSH1 0x0 KECCAK256 SWAP1 JUMPDEST DUP2 SLOAD DUP2 MSTORE SWAP1 PUSH1 0x1 ADD SWAP1 PUSH1 0x20 ADD DUP1 DUP4 GT PUSH2 0x385 JUMPI DUP3 SWAP1 SUB PUSH1 0x1F AND DUP3 ADD SWAP2 JUMPDEST POP POP POP POP POP DUP2 JUMP JUMPDEST PUSH1 0x0 PUSH20 0xFFFFFFFFFFFFFFFFFFFFFFFFFFFFFFFFFFFFFFFF AND DUP4 PUSH20 0xFFFFFFFFFFFFFFFFFFFFFFFFFFFFFFFFFFFFFFFF AND EQ ISZERO PUSH2 0x41A JUMPI PUSH1 0x40 MLOAD PUSH32 0x8C379A000000000000000000000000000000000000000000000000000000000 DUP2 MSTORE PUSH1 0x4 ADD PUSH2 0x411 SWAP1 PUSH2 0x851 JUMP JUMPDEST PUSH1 0x40 MLOAD DUP1 SWAP2 SUB SWAP1 REVERT JUMPDEST PUSH2 0x423 DUP3 PUSH2 0x584 JUMP JUMPDEST ISZERO PUSH2 0x463 JUMPI PUSH1 0x40 MLOAD PUSH32 0x8C379A000000000000000000000000000000000000000000000000000000000 DUP2 MSTORE PUSH1 0x4 ADD PUSH2 0x45A SWAP1 PUSH2 0x7F1 JUMP JUMPDEST PUSH1 0x40 MLOAD DUP1 SWAP2 SUB SWAP1 REVERT JUMPDEST PUSH2 0x46F PUSH1 0x0 DUP5 DUP5 PUSH2 0x5F0 JUMP JUMPDEST DUP1 PUSH1 0x3 PUSH1 0x0 DUP6 PUSH20 0xFFFFFFFFFFFFFFFFFFFFFFFFFFFFFFFFFFFFFFFF AND PUSH20 0xFFFFFFFFFFFFFFFFFFFFFFFFFFFFFFFFFFFFFFFF AND DUP2 MSTORE PUSH1 0x20 ADD SWAP1 DUP2 MSTORE PUSH1 0x20 ADD PUSH1 0x0 KECCAK256 PUSH1 0x0 DUP3 DUP3 SLOAD PUSH2 0x4BE SWAP2 SWAP1 PUSH2 0x8A8 JUMP JUMPDEST SWAP3 POP POP DUP2 SWAP1 SSTORE POP DUP3 PUSH1 0x2 PUSH1 0x0 DUP5 DUP2 MSTORE PUSH1 0x20 ADD SWAP1 DUP2 MSTORE PUSH1 0x20 ADD PUSH1 0x0 KECCAK256 PUSH1 0x0 PUSH2 0x100 EXP DUP2 SLOAD DUP2 PUSH20 0xFFFFFFFFFFFFFFFFFFFFFFFFFFFFFFFFFFFFFFFF MUL NOT AND SWAP1 DUP4 PUSH20 0xFFFFFFFFFFFFFFFFFFFFFFFFFFFFFFFFFFFFFFFF AND MUL OR SWAP1 SSTORE POP DUP2 DUP4 PUSH20 0xFFFFFFFFFFFFFFFFFFFFFFFFFFFFFFFFFFFFFFFF AND PUSH1 0x0 PUSH20 0xFFFFFFFFFFFFFFFFFFFFFFFFFFFFFFFFFFFFFFFF AND PUSH32 0xDDF252AD1BE2C89B69C2B068FC378DAA952BA7F163C4A11628F55A4DF523B3EF PUSH1 0x40 MLOAD PUSH1 0x40 MLOAD DUP1 SWAP2 SUB SWAP1 LOG4 PUSH2 0x57F PUSH1 0x0 DUP5 DUP5 PUSH2 0x5F5 JUMP JUMPDEST POP POP POP JUMP JUMPDEST PUSH1 0x0 DUP1 PUSH20 0xFFFFFFFFFFFFFFFFFFFFFFFFFFFFFFFFFFFFFFFF AND PUSH1 0x2 PUSH1 0x0 DUP5 DUP2 MSTORE PUSH1 0x20 ADD SWAP1 DUP2 MSTORE PUSH1 0x20 ADD PUSH1 0x0 KECCAK256 PUSH1 0x0 SWAP1 SLOAD SWAP1 PUSH2 0x100 EXP SWAP1 DIV PUSH20 0xFFFFFFFFFFFFFFFFFFFFFFFFFFFFFFFFFFFFFFFF AND PUSH20 0xFFFFFFFFFFFFFFFFFFFFFFFFFFFFFFFFFFFFFFFF AND EQ ISZERO SWAP1 POP SWAP2 SWAP1 POP JUMP JUMPDEST POP POP POP JUMP JUMPDEST POP POP POP JUMP JUMPDEST PUSH1 0x0 DUP2 CALLDATALOAD SWAP1 POP PUSH2 0x609 DUP2 PUSH2 0xB03 JUMP JUMPDEST SWAP3 SWAP2 POP POP JUMP JUMPDEST PUSH1 0x0 DUP2 CALLDATALOAD SWAP1 POP PUSH2 0x61E DUP2 PUSH2 0xB1A JUMP JUMPDEST SWAP3 SWAP2 POP POP JUMP JUMPDEST PUSH1 0x0 PUSH1 0x20 DUP3 DUP5 SUB SLT ISZERO PUSH2 0x63A JUMPI PUSH2 0x639 PUSH2 0x9FD JUMP JUMPDEST JUMPDEST PUSH1 0x0 PUSH2 0x648 DUP5 DUP3 DUP6 ADD PUSH2 0x5FA JUMP JUMPDEST SWAP2 POP POP SWAP3 SWAP2 POP POP JUMP JUMPDEST PUSH1 0x0 DUP1 PUSH1 0x0 PUSH1 0x60 DUP5 DUP7 SUB SLT ISZERO PUSH2 0x66A JUMPI PUSH2 0x669 PUSH2 0x9FD JUMP JUMPDEST JUMPDEST PUSH1 0x0 PUSH2 0x678 DUP7 DUP3 DUP8 ADD PUSH2 0x5FA JUMP JUMPDEST SWAP4 POP POP PUSH1 0x20 PUSH2 0x689 DUP7 DUP3 DUP8 ADD PUSH2 0x60F JUMP JUMPDEST SWAP3 POP POP PUSH1 0x40 PUSH2 0x69A DUP7 DUP3 DUP8 ADD PUSH2 0x60F JUMP JUMPDEST SWAP2 POP POP SWAP3 POP SWAP3 POP SWAP3 JUMP JUMPDEST PUSH1 0x0 PUSH1 0x20 DUP3 DUP5 SUB SLT ISZERO PUSH2 0x6BA JUMPI PUSH2 0x6B9 PUSH2 0x9FD JUMP JUMPDEST JUMPDEST PUSH1 0x0 PUSH2 0x6C8 DUP5 DUP3 DUP6 ADD PUSH2 0x60F JUMP JUMPDEST SWAP2 POP POP SWAP3 SWAP2 POP POP JUMP JUMPDEST PUSH2 0x6DA DUP2 PUSH2 0x8FE JUMP JUMPDEST DUP3 MSTORE POP POP JUMP JUMPDEST PUSH1 0x0 PUSH2 0x6EB DUP3 PUSH2 0x88C JUMP JUMPDEST PUSH2 0x6F5 DUP2 DUP6 PUSH2 0x897 JUMP JUMPDEST SWAP4 POP PUSH2 0x705 DUP2 DUP6 PUSH1 0x20 DUP7 ADD PUSH2 0x93A JUMP JUMPDEST PUSH2 0x70E DUP2 PUSH2 0xA02 JUMP JUMPDEST DUP5 ADD SWAP2 POP POP SWAP3 SWAP2 POP POP JUMP JUMPDEST PUSH1 0x0 PUSH2 0x726 PUSH1 0x1C DUP4 PUSH2 0x897 JUMP JUMPDEST SWAP2 POP PUSH2 0x731 DUP3 PUSH2 0xA13 JUMP JUMPDEST PUSH1 0x20 DUP3 ADD SWAP1 POP SWAP2 SWAP1 POP JUMP JUMPDEST PUSH1 0x0 PUSH2 0x749 PUSH1 0x2A DUP4 PUSH2 0x897 JUMP JUMPDEST SWAP2 POP PUSH2 0x754 DUP3 PUSH2 0xA3C JUMP JUMPDEST PUSH1 0x40 DUP3 ADD SWAP1 POP SWAP2 SWAP1 POP JUMP JUMPDEST PUSH1 0x0 PUSH2 0x76C PUSH1 0x29 DUP4 PUSH2 0x897 JUMP JUMPDEST SWAP2 POP PUSH2 0x777 DUP3 PUSH2 0xA8B JUMP JUMPDEST PUSH1 0x40 DUP3 ADD SWAP1 POP SWAP2 SWAP1 POP JUMP JUMPDEST PUSH1 0x0 PUSH2 0x78F PUSH1 0x20 DUP4 PUSH2 0x897 JUMP JUMPDEST SWAP2 POP PUSH2 0x79A DUP3 PUSH2 0xADA JUMP JUMPDEST PUSH1 0x20 DUP3 ADD SWAP1 POP SWAP2 SWAP1 POP JUMP JUMPDEST PUSH2 0x7AE DUP2 PUSH2 0x930 JUMP JUMPDEST DUP3 MSTORE POP POP JUMP JUMPDEST PUSH1 0x0 PUSH1 0x20 DUP3 ADD SWAP1 POP PUSH2 0x7C9 PUSH1 0x0 DUP4 ADD DUP5 PUSH2 0x6D1 JUMP JUMPDEST SWAP3 SWAP2 POP POP JUMP JUMPDEST PUSH1 0x0 PUSH1 0x20 DUP3 ADD SWAP1 POP DUP2 DUP2 SUB PUSH1 0x0 DUP4 ADD MSTORE PUSH2 0x7E9 DUP2 DUP5 PUSH2 0x6E0 JUMP JUMPDEST SWAP1 POP SWAP3 SWAP2 POP POP JUMP JUMPDEST PUSH1 0x0 PUSH1 0x20 DUP3 ADD SWAP1 POP DUP2 DUP2 SUB PUSH1 0x0 DUP4 ADD MSTORE PUSH2 0x80A DUP2 PUSH2 0x719 JUMP JUMPDEST SWAP1 POP SWAP2 SWAP1 POP JUMP JUMPDEST PUSH1 0x0 PUSH1 0x20 DUP3 ADD SWAP1 POP DUP2 DUP2 SUB PUSH1 0x0 DUP4 ADD MSTORE PUSH2 0x82A DUP2 PUSH2 0x73C JUMP JUMPDEST SWAP1 POP SWAP2 SWAP1 POP JUMP JUMPDEST PUSH1 0x0 PUSH1 0x20 DUP3 ADD SWAP1 POP DUP2 DUP2 SUB PUSH1 0x0 DUP4 ADD MSTORE PUSH2 0x84A DUP2 PUSH2 0x75F JUMP JUMPDEST SWAP1 POP SWAP2 SWAP1 POP JUMP JUMPDEST PUSH1 0x0 PUSH1 0x20 DUP3 ADD SWAP1 POP DUP2 DUP2 SUB PUSH1 0x0 DUP4 ADD MSTORE PUSH2 0x86A DUP2 PUSH2 0x782 JUMP JUMPDEST SWAP1 POP SWAP2 SWAP1 POP JUMP JUMPDEST PUSH1 0x0 PUSH1 0x20 DUP3 ADD SWAP1 POP PUSH2 0x886 PUSH1 0x0 DUP4 ADD DUP5 PUSH2 0x7A5 JUMP JUMPDEST SWAP3 SWAP2 POP POP JUMP JUMPDEST PUSH1 0x0 DUP2 MLOAD SWAP1 POP SWAP2 SWAP1 POP JUMP JUMPDEST PUSH1 0x0 DUP3 DUP3 MSTORE PUSH1 0x20 DUP3 ADD SWAP1 POP SWAP3 SWAP2 POP POP JUMP JUMPDEST PUSH1 0x0 PUSH2 0x8B3 DUP3 PUSH2 0x930 JUMP JUMPDEST SWAP2 POP PUSH2 0x8BE DUP4 PUSH2 0x930 JUMP JUMPDEST SWAP3 POP DUP3 PUSH32 0xFFFFFFFFFFFFFFFFFFFFFFFFFFFFFFFFFFFFFFFFFFFFFFFFFFFFFFFFFFFFFFFF SUB DUP3 GT ISZERO PUSH2 0x8F3 JUMPI PUSH2 0x8F2 PUSH2 0x99F JUMP JUMPDEST JUMPDEST DUP3 DUP3 ADD SWAP1 POP SWAP3 SWAP2 POP POP JUMP JUMPDEST PUSH1 0x0 PUSH2 0x909 DUP3 PUSH2 0x910 JUMP JUMPDEST SWAP1 POP SWAP2 SWAP1 POP JUMP JUMPDEST PUSH1 0x0 PUSH20 0xFFFFFFFFFFFFFFFFFFFFFFFFFFFFFFFFFFFFFFFF DUP3 AND SWAP1 POP SWAP2 SWAP1 POP JUMP JUMPDEST PUSH1 0x0 DUP2 SWAP1 POP SWAP2 SWAP1 POP JUMP JUMPDEST PUSH1 0x0 JUMPDEST DUP4 DUP2 LT ISZERO PUSH2 0x958 JUMPI DUP1 DUP3 ADD MLOAD DUP2 DUP5 ADD MSTORE PUSH1 0x20 DUP2 ADD SWAP1 POP PUSH2 0x93D JUMP JUMPDEST DUP4 DUP2 GT ISZERO PUSH2 0x967 JUMPI PUSH1 0x0 DUP5 DUP5 ADD MSTORE JUMPDEST POP POP POP POP JUMP JUMPDEST PUSH1 0x0 PUSH1 0x2 DUP3 DIV SWAP1 POP PUSH1 0x1 DUP3 AND DUP1 PUSH2 0x985 JUMPI PUSH1 0x7F DUP3 AND SWAP2 POP JUMPDEST PUSH1 0x20 DUP3 LT DUP2 EQ ISZERO PUSH2 0x999 JUMPI PUSH2 0x998 PUSH2 0x9CE JUMP JUMPDEST JUMPDEST POP SWAP2 SWAP1 POP JUMP JUMPDEST PUSH32 0x4E487B7100000000000000000000000000000000000000000000000000000000 PUSH1 0x0 MSTORE PUSH1 0x11 PUSH1 0x4 MSTORE PUSH1 0x24 PUSH1 0x0 REVERT JUMPDEST PUSH32 0x4E487B7100000000000000000000000000000000000000000000000000000000 PUSH1 0x0 MSTORE PUSH1 0x22 PUSH1 0x4 MSTORE PUSH1 0x24 PUSH1 0x0 REVERT JUMPDEST PUSH1 0x0 DUP1 REVERT JUMPDEST PUSH1 0x0 PUSH1 0x1F NOT PUSH1 0x1F DUP4 ADD AND SWAP1 POP SWAP2 SWAP1 POP JUMP JUMPDEST PUSH32 0x4552433732313A20746F6B656E20616C7265616479206D696E74656400000000 PUSH1 0x0 DUP3 ADD MSTORE POP JUMP JUMPDEST PUSH32 0x4552433732313A2062616C616E636520717565727920666F7220746865207A65 PUSH1 0x0 DUP3 ADD MSTORE PUSH32 0x726F206164647265737300000000000000000000000000000000000000000000 PUSH1 0x20 DUP3 ADD MSTORE POP JUMP JUMPDEST PUSH32 0x4552433732313A206F776E657220717565727920666F72206E6F6E6578697374 PUSH1 0x0 DUP3 ADD MSTORE PUSH32 0x656E7420746F6B656E0000000000000000000000000000000000000000000000 PUSH1 0x20 DUP3 ADD MSTORE POP JUMP JUMPDEST PUSH32 0x4552433732313A206D696E7420746F20746865207A65726F2061646472657373 PUSH1 0x0 DUP3 ADD MSTORE POP JUMP JUMPDEST PUSH2 0xB0C DUP2 PUSH2 0x8FE JUMP JUMPDEST DUP2 EQ PUSH2 0xB17 JUMPI PUSH1 0x0 DUP1 REVERT JUMPDEST POP JUMP JUMPDEST PUSH2 0xB23 DUP2 PUSH2 0x930 JUMP JUMPDEST DUP2 EQ PUSH2 0xB2E JUMPI PUSH1 0x0 DUP1 REVERT JUMPDEST POP JUMP INVALID LOG2 PUSH5 0x6970667358 0x22 SLT KECCAK256 PUSH30 0x7010DC59118743DC4C7A8476B6EF00C51EBF78AF7FEDDB98F74BBE4D5E9 0xF PUSH5 0x736F6C6343 STOP ADDMOD SMOD STOP CALLER "
				},
				"gasEstimates": {
					"creation": {
						"codeDepositCost": "583800",
						"executionCost": "infinite",
						"totalCost": "infinite"
					},
					"external": {
						"balanceOf(address)": "2923",
						"mint(address,uint256,uint256)": "infinite",
						"name()": "infinite",
						"ownerOf(uint256)": "2999",
						"symbol()": "infinite"
					},
					"internal": {
						"_afterTokenTransfer(address,address,uint256)": "15",
						"_baseURI()": "infinite",
						"_beforeTokenTransfer(address,address,uint256)": "15",
						"_exists(uint256)": "2269",
						"_mint(address,uint256,uint256)": "infinite"
					}
				},
				"methodIdentifiers": {
					"balanceOf(address)": "70a08231",
					"mint(address,uint256,uint256)": "156e29f6",
					"name()": "06fdde03",
					"ownerOf(uint256)": "6352211e",
					"symbol()": "95d89b41"
				}
			},
			"userdoc": {
				"kind": "user",
				"methods": {},
				"version": 1
			}
		}
	}
}