{
	"contracts/BS_ERC721.sol": {
		"newNFT": {
			"abi": [
				{
					"inputs": [],
					"stateMutability": "nonpayable",
					"type": "constructor"
				},
				{
					"anonymous": false,
					"inputs": [
						{
							"indexed": true,
							"internalType": "address",
							"name": "from",
							"type": "address"
						},
						{
							"indexed": true,
							"internalType": "address",
							"name": "to",
							"type": "address"
						},
						{
							"indexed": true,
							"internalType": "uint256",
							"name": "tokenId",
							"type": "uint256"
						}
					],
					"name": "Transfer",
					"type": "event"
				},
				{
					"inputs": [
						{
							"internalType": "address",
							"name": "_to",
							"type": "address"
						},
						{
							"internalType": "uint256",
							"name": "_tokenId",
							"type": "uint256"
						},
						{
							"internalType": "string",
							"name": "_uri",
							"type": "string"
						}
					],
					"name": "mint",
					"outputs": [],
					"stateMutability": "nonpayable",
					"type": "function"
				},
				{
					"inputs": [],
					"name": "name",
					"outputs": [
						{
							"internalType": "string",
							"name": "",
							"type": "string"
						}
					],
					"stateMutability": "view",
					"type": "function"
				},
				{
					"inputs": [
						{
							"internalType": "uint256",
							"name": "tokenId",
							"type": "uint256"
						}
					],
					"name": "ownerOf",
					"outputs": [
						{
							"internalType": "address",
							"name": "",
							"type": "address"
						}
					],
					"stateMutability": "view",
					"type": "function"
				},
				{
					"inputs": [],
					"name": "symbol",
					"outputs": [
						{
							"internalType": "string",
							"name": "",
							"type": "string"
						}
					],
					"stateMutability": "view",
					"type": "function"
				}
			],
			"devdoc": {
				"kind": "dev",
				"methods": {},
				"version": 1
			},
			"evm": {
				"assembly": "    /* \"contracts/BS_ERC721.sol\":63:1758  contract newNFT{\r... */\n  mstore(0x40, 0x80)\n    /* \"contracts/BS_ERC721.sol\":265:346  constructor() {\r... */\n  callvalue\n  dup1\n  iszero\n  tag_1\n  jumpi\n  0x00\n  dup1\n  revert\ntag_1:\n  pop\n    /* \"contracts/BS_ERC721.sol\":290:313  name = \"BlueSurgeToken\" */\n  mload(0x40)\n  dup1\n  0x40\n  add\n  0x40\n  mstore\n  dup1\n  0x0e\n  dup2\n  mstore\n  0x20\n  add\n  0x426c75655375726765546f6b656e000000000000000000000000000000000000\n  dup2\n  mstore\n  pop\n    /* \"contracts/BS_ERC721.sol\":290:294  name */\n  0x00\n    /* \"contracts/BS_ERC721.sol\":290:313  name = \"BlueSurgeToken\" */\n  swap1\n  dup1\n  mload\n  swap1\n  0x20\n  add\n  swap1\n  tag_4\n  swap3\n  swap2\n  swap1\n  tag_5\n  jump\t// in\ntag_4:\n  pop\n    /* \"contracts/BS_ERC721.sol\":324:338  symbol = \"BST\" */\n  mload(0x40)\n  dup1\n  0x40\n  add\n  0x40\n  mstore\n  dup1\n  0x03\n  dup2\n  mstore\n  0x20\n  add\n  0x4253540000000000000000000000000000000000000000000000000000000000\n  dup2\n  mstore\n  pop\n    /* \"contracts/BS_ERC721.sol\":324:330  symbol */\n  0x01\n    /* \"contracts/BS_ERC721.sol\":324:338  symbol = \"BST\" */\n  swap1\n  dup1\n  mload\n  swap1\n  0x20\n  add\n  swap1\n  tag_6\n  swap3\n  swap2\n  swap1\n  tag_5\n  jump\t// in\ntag_6:\n  pop\n    /* \"contracts/BS_ERC721.sol\":63:1758  contract newNFT{\r... */\n  jump(tag_7)\ntag_5:\n  dup3\n  dup1\n  sload\n  tag_8\n  swap1\n  tag_9\n  jump\t// in\ntag_8:\n  swap1\n  0x00\n  mstore\n  keccak256(0x00, 0x20)\n  swap1\n  0x1f\n  add\n  0x20\n  swap1\n  div\n  dup2\n  add\n  swap3\n  dup3\n  tag_11\n  jumpi\n  0x00\n  dup6\n  sstore\n  jump(tag_10)\ntag_11:\n  dup3\n  0x1f\n  lt\n  tag_12\n  jumpi\n  dup1\n  mload\n  not(0xff)\n  and\n  dup4\n  dup1\n  add\n  or\n  dup6\n  sstore\n  jump(tag_10)\ntag_12:\n  dup3\n  dup1\n  add\n  0x01\n  add\n  dup6\n  sstore\n  dup3\n  iszero\n  tag_10\n  jumpi\n  swap2\n  dup3\n  add\ntag_13:\n  dup3\n  dup2\n  gt\n  iszero\n  tag_14\n  jumpi\n  dup3\n  mload\n  dup3\n  sstore\n  swap2\n  0x20\n  add\n  swap2\n  swap1\n  0x01\n  add\n  swap1\n  jump(tag_13)\ntag_14:\ntag_10:\n  pop\n  swap1\n  pop\n  tag_15\n  swap2\n  swap1\n  tag_16\n  jump\t// in\ntag_15:\n  pop\n  swap1\n  jump\t// out\ntag_16:\ntag_17:\n  dup1\n  dup3\n  gt\n  iszero\n  tag_18\n  jumpi\n  0x00\n  dup2\n  0x00\n  swap1\n  sstore\n  pop\n  0x01\n  add\n  jump(tag_17)\ntag_18:\n  pop\n  swap1\n  jump\t// out\n    /* \"#utility.yul\":7:327   */\ntag_9:\n    /* \"#utility.yul\":51:57   */\n  0x00\n    /* \"#utility.yul\":88:89   */\n  0x02\n    /* \"#utility.yul\":82:86   */\n  dup3\n    /* \"#utility.yul\":78:90   */\n  div\n    /* \"#utility.yul\":68:90   */\n  swap1\n  pop\n    /* \"#utility.yul\":135:136   */\n  0x01\n    /* \"#utility.yul\":129:133   */\n  dup3\n    /* \"#utility.yul\":125:137   */\n  and\n    /* \"#utility.yul\":156:174   */\n  dup1\n    /* \"#utility.yul\":146:227   */\n  tag_21\n  jumpi\n    /* \"#utility.yul\":212:216   */\n  0x7f\n    /* \"#utility.yul\":204:210   */\n  dup3\n    /* \"#utility.yul\":200:217   */\n  and\n    /* \"#utility.yul\":190:217   */\n  swap2\n  pop\n    /* \"#utility.yul\":146:227   */\ntag_21:\n    /* \"#utility.yul\":274:276   */\n  0x20\n    /* \"#utility.yul\":266:272   */\n  dup3\n    /* \"#utility.yul\":263:277   */\n  lt\n    /* \"#utility.yul\":243:261   */\n  dup2\n    /* \"#utility.yul\":240:278   */\n  eq\n    /* \"#utility.yul\":237:321   */\n  iszero\n  tag_22\n  jumpi\n    /* \"#utility.yul\":293:311   */\n  tag_23\n  tag_24\n  jump\t// in\ntag_23:\n    /* \"#utility.yul\":237:321   */\ntag_22:\n    /* \"#utility.yul\":58:327   */\n  pop\n    /* \"#utility.yul\":7:327   */\n  swap2\n  swap1\n  pop\n  jump\t// out\n    /* \"#utility.yul\":333:513   */\ntag_24:\n    /* \"#utility.yul\":381:458   */\n  0x4e487b7100000000000000000000000000000000000000000000000000000000\n    /* \"#utility.yul\":378:379   */\n  0x00\n    /* \"#utility.yul\":371:459   */\n  mstore\n    /* \"#utility.yul\":478:482   */\n  0x22\n    /* \"#utility.yul\":475:476   */\n  0x04\n    /* \"#utility.yul\":468:483   */\n  mstore\n    /* \"#utility.yul\":502:506   */\n  0x24\n    /* \"#utility.yul\":499:500   */\n  0x00\n    /* \"#utility.yul\":492:507   */\n  revert\n    /* \"contracts/BS_ERC721.sol\":63:1758  contract newNFT{\r... */\ntag_7:\n  dataSize(sub_0)\n  dup1\n  dataOffset(sub_0)\n  0x00\n  codecopy\n  0x00\n  return\nstop\n\nsub_0: assembly {\n        /* \"contracts/BS_ERC721.sol\":63:1758  contract newNFT{\r... */\n      mstore(0x40, 0x80)\n      callvalue\n      dup1\n      iszero\n      tag_1\n      jumpi\n      0x00\n      dup1\n      revert\n    tag_1:\n      pop\n      jumpi(tag_2, lt(calldatasize, 0x04))\n      shr(0xe0, calldataload(0x00))\n      dup1\n      0x06fdde03\n      eq\n      tag_3\n      jumpi\n      dup1\n      0x6352211e\n      eq\n      tag_4\n      jumpi\n      dup1\n      0x95d89b41\n      eq\n      tag_5\n      jumpi\n      dup1\n      0xd3fc9864\n      eq\n      tag_6\n      jumpi\n    tag_2:\n      0x00\n      dup1\n      revert\n        /* \"contracts/BS_ERC721.sol\":107:125  string public name */\n    tag_3:\n      tag_7\n      tag_8\n      jump\t// in\n    tag_7:\n      mload(0x40)\n      tag_9\n      swap2\n      swap1\n      tag_10\n      jump\t// in\n    tag_9:\n      mload(0x40)\n      dup1\n      swap2\n      sub\n      swap1\n      return\n        /* \"contracts/BS_ERC721.sol\":584:814  function ownerOf(uint256 tokenId) public view virtual returns (address) {\r... */\n    tag_4:\n      tag_11\n      0x04\n      dup1\n      calldatasize\n      sub\n      dup2\n      add\n      swap1\n      tag_12\n      swap2\n      swap1\n      tag_13\n      jump\t// in\n    tag_12:\n      tag_14\n      jump\t// in\n    tag_11:\n      mload(0x40)\n      tag_15\n      swap2\n      swap1\n      tag_16\n      jump\t// in\n    tag_15:\n      mload(0x40)\n      dup1\n      swap2\n      sub\n      swap1\n      return\n        /* \"contracts/BS_ERC721.sol\":132:152  string public symbol */\n    tag_5:\n      tag_17\n      tag_18\n      jump\t// in\n    tag_17:\n      mload(0x40)\n      tag_19\n      swap2\n      swap1\n      tag_10\n      jump\t// in\n    tag_19:\n      mload(0x40)\n      dup1\n      swap2\n      sub\n      swap1\n      return\n        /* \"contracts/BS_ERC721.sol\":359:468  function mint(address _to, uint256 _tokenId, string calldata _uri) external {\r... */\n    tag_6:\n      tag_20\n      0x04\n      dup1\n      calldatasize\n      sub\n      dup2\n      add\n      swap1\n      tag_21\n      swap2\n      swap1\n      tag_22\n      jump\t// in\n    tag_21:\n      tag_23\n      jump\t// in\n    tag_20:\n      stop\n        /* \"contracts/BS_ERC721.sol\":107:125  string public name */\n    tag_8:\n      0x00\n      dup1\n      sload\n      tag_24\n      swap1\n      tag_25\n      jump\t// in\n    tag_24:\n      dup1\n      0x1f\n      add\n      0x20\n      dup1\n      swap2\n      div\n      mul\n      0x20\n      add\n      mload(0x40)\n      swap1\n      dup2\n      add\n      0x40\n      mstore\n      dup1\n      swap3\n      swap2\n      swap1\n      dup2\n      dup2\n      mstore\n      0x20\n      add\n      dup3\n      dup1\n      sload\n      tag_26\n      swap1\n      tag_25\n      jump\t// in\n    tag_26:\n      dup1\n      iszero\n      tag_27\n      jumpi\n      dup1\n      0x1f\n      lt\n      tag_28\n      jumpi\n      0x0100\n      dup1\n      dup4\n      sload\n      div\n      mul\n      dup4\n      mstore\n      swap2\n      0x20\n      add\n      swap2\n      jump(tag_27)\n    tag_28:\n      dup3\n      add\n      swap2\n      swap1\n      0x00\n      mstore\n      keccak256(0x00, 0x20)\n      swap1\n    tag_29:\n      dup2\n      sload\n      dup2\n      mstore\n      swap1\n      0x01\n      add\n      swap1\n      0x20\n      add\n      dup1\n      dup4\n      gt\n      tag_29\n      jumpi\n      dup3\n      swap1\n      sub\n      0x1f\n      and\n      dup3\n      add\n      swap2\n    tag_27:\n      pop\n      pop\n      pop\n      pop\n      pop\n      dup2\n      jump\t// out\n        /* \"contracts/BS_ERC721.sol\":584:814  function ownerOf(uint256 tokenId) public view virtual returns (address) {\r... */\n    tag_14:\n        /* \"contracts/BS_ERC721.sol\":647:654  address */\n      0x00\n        /* \"contracts/BS_ERC721.sol\":667:680  address owner */\n      dup1\n        /* \"contracts/BS_ERC721.sol\":683:690  _owners */\n      0x02\n        /* \"contracts/BS_ERC721.sol\":683:699  _owners[tokenId] */\n      0x00\n        /* \"contracts/BS_ERC721.sol\":691:698  tokenId */\n      dup5\n        /* \"contracts/BS_ERC721.sol\":683:699  _owners[tokenId] */\n      dup2\n      mstore\n      0x20\n      add\n      swap1\n      dup2\n      mstore\n      0x20\n      add\n      0x00\n      keccak256\n      0x00\n      swap1\n      sload\n      swap1\n      0x0100\n      exp\n      swap1\n      div\n      0xffffffffffffffffffffffffffffffffffffffff\n      and\n        /* \"contracts/BS_ERC721.sol\":667:699  address owner = _owners[tokenId] */\n      swap1\n      pop\n        /* \"contracts/BS_ERC721.sol\":735:736  0 */\n      0x00\n        /* \"contracts/BS_ERC721.sol\":718:737  owner != address(0) */\n      0xffffffffffffffffffffffffffffffffffffffff\n      and\n        /* \"contracts/BS_ERC721.sol\":718:723  owner */\n      dup2\n        /* \"contracts/BS_ERC721.sol\":718:737  owner != address(0) */\n      0xffffffffffffffffffffffffffffffffffffffff\n      and\n      eq\n      iszero\n        /* \"contracts/BS_ERC721.sol\":710:783  require(owner != address(0), \"ERC721: owner query for nonexistent token\") */\n      tag_31\n      jumpi\n      mload(0x40)\n      0x08c379a000000000000000000000000000000000000000000000000000000000\n      dup2\n      mstore\n      0x04\n      add\n      tag_32\n      swap1\n      tag_33\n      jump\t// in\n    tag_32:\n      mload(0x40)\n      dup1\n      swap2\n      sub\n      swap1\n      revert\n    tag_31:\n        /* \"contracts/BS_ERC721.sol\":801:806  owner */\n      dup1\n        /* \"contracts/BS_ERC721.sol\":794:806  return owner */\n      swap2\n      pop\n      pop\n        /* \"contracts/BS_ERC721.sol\":584:814  function ownerOf(uint256 tokenId) public view virtual returns (address) {\r... */\n      swap2\n      swap1\n      pop\n      jump\t// out\n        /* \"contracts/BS_ERC721.sol\":132:152  string public symbol */\n    tag_18:\n      0x01\n      dup1\n      sload\n      tag_34\n      swap1\n      tag_25\n      jump\t// in\n    tag_34:\n      dup1\n      0x1f\n      add\n      0x20\n      dup1\n      swap2\n      div\n      mul\n      0x20\n      add\n      mload(0x40)\n      swap1\n      dup2\n      add\n      0x40\n      mstore\n      dup1\n      swap3\n      swap2\n      swap1\n      dup2\n      dup2\n      mstore\n      0x20\n      add\n      dup3\n      dup1\n      sload\n      tag_35\n      swap1\n      tag_25\n      jump\t// in\n    tag_35:\n      dup1\n      iszero\n      tag_36\n      jumpi\n      dup1\n      0x1f\n      lt\n      tag_37\n      jumpi\n      0x0100\n      dup1\n      dup4\n      sload\n      div\n      mul\n      dup4\n      mstore\n      swap2\n      0x20\n      add\n      swap2\n      jump(tag_36)\n    tag_37:\n      dup3\n      add\n      swap2\n      swap1\n      0x00\n      mstore\n      keccak256(0x00, 0x20)\n      swap1\n    tag_38:\n      dup2\n      sload\n      dup2\n      mstore\n      swap1\n      0x01\n      add\n      swap1\n      0x20\n      add\n      dup1\n      dup4\n      gt\n      tag_38\n      jumpi\n      dup3\n      swap1\n      sub\n      0x1f\n      and\n      dup3\n      add\n      swap2\n    tag_36:\n      pop\n      pop\n      pop\n      pop\n      pop\n      dup2\n      jump\t// out\n        /* \"contracts/BS_ERC721.sol\":359:468  function mint(address _to, uint256 _tokenId, string calldata _uri) external {\r... */\n    tag_23:\n        /* \"contracts/BS_ERC721.sol\":442:462  _mint(_to, _tokenId) */\n      tag_40\n        /* \"contracts/BS_ERC721.sol\":448:451  _to */\n      dup5\n        /* \"contracts/BS_ERC721.sol\":453:461  _tokenId */\n      dup5\n        /* \"contracts/BS_ERC721.sol\":442:447  _mint */\n      tag_41\n        /* \"contracts/BS_ERC721.sol\":442:462  _mint(_to, _tokenId) */\n      jump\t// in\n    tag_40:\n        /* \"contracts/BS_ERC721.sol\":359:468  function mint(address _to, uint256 _tokenId, string calldata _uri) external {\r... */\n      pop\n      pop\n      pop\n      pop\n      jump\t// out\n        /* \"contracts/BS_ERC721.sol\":1047:1486  function _mint(address to, uint256 tokenId) internal virtual {\r... */\n    tag_41:\n        /* \"contracts/BS_ERC721.sol\":1141:1142  0 */\n      0x00\n        /* \"contracts/BS_ERC721.sol\":1127:1143  to != address(0) */\n      0xffffffffffffffffffffffffffffffffffffffff\n      and\n        /* \"contracts/BS_ERC721.sol\":1127:1129  to */\n      dup3\n        /* \"contracts/BS_ERC721.sol\":1127:1143  to != address(0) */\n      0xffffffffffffffffffffffffffffffffffffffff\n      and\n      eq\n      iszero\n        /* \"contracts/BS_ERC721.sol\":1119:1180  require(to != address(0), \"ERC721: mint to the zero address\") */\n      tag_43\n      jumpi\n      mload(0x40)\n      0x08c379a000000000000000000000000000000000000000000000000000000000\n      dup2\n      mstore\n      0x04\n      add\n      tag_44\n      swap1\n      tag_45\n      jump\t// in\n    tag_44:\n      mload(0x40)\n      dup1\n      swap2\n      sub\n      swap1\n      revert\n    tag_43:\n        /* \"contracts/BS_ERC721.sol\":1200:1216  _exists(tokenId) */\n      tag_46\n        /* \"contracts/BS_ERC721.sol\":1208:1215  tokenId */\n      dup2\n        /* \"contracts/BS_ERC721.sol\":1200:1207  _exists */\n      tag_47\n        /* \"contracts/BS_ERC721.sol\":1200:1216  _exists(tokenId) */\n      jump\t// in\n    tag_46:\n        /* \"contracts/BS_ERC721.sol\":1199:1216  !_exists(tokenId) */\n      iszero\n        /* \"contracts/BS_ERC721.sol\":1191:1249  require(!_exists(tokenId), \"ERC721: token already minted\") */\n      tag_48\n      jumpi\n      mload(0x40)\n      0x08c379a000000000000000000000000000000000000000000000000000000000\n      dup2\n      mstore\n      0x04\n      add\n      tag_49\n      swap1\n      tag_50\n      jump\t// in\n    tag_49:\n      mload(0x40)\n      dup1\n      swap2\n      sub\n      swap1\n      revert\n    tag_48:\n        /* \"contracts/BS_ERC721.sol\":1262:1307  _beforeTokenTransfer(address(0), to, tokenId) */\n      tag_51\n        /* \"contracts/BS_ERC721.sol\":1291:1292  0 */\n      0x00\n        /* \"contracts/BS_ERC721.sol\":1295:1297  to */\n      dup4\n        /* \"contracts/BS_ERC721.sol\":1299:1306  tokenId */\n      dup4\n        /* \"contracts/BS_ERC721.sol\":1262:1282  _beforeTokenTransfer */\n      tag_52\n        /* \"contracts/BS_ERC721.sol\":1262:1307  _beforeTokenTransfer(address(0), to, tokenId) */\n      jump\t// in\n    tag_51:\n        /* \"contracts/BS_ERC721.sol\":1337:1338  1 */\n      0x01\n        /* \"contracts/BS_ERC721.sol\":1320:1329  _balances */\n      0x03\n        /* \"contracts/BS_ERC721.sol\":1320:1333  _balances[to] */\n      0x00\n        /* \"contracts/BS_ERC721.sol\":1330:1332  to */\n      dup5\n        /* \"contracts/BS_ERC721.sol\":1320:1333  _balances[to] */\n      0xffffffffffffffffffffffffffffffffffffffff\n      and\n      0xffffffffffffffffffffffffffffffffffffffff\n      and\n      dup2\n      mstore\n      0x20\n      add\n      swap1\n      dup2\n      mstore\n      0x20\n      add\n      0x00\n      keccak256\n      0x00\n        /* \"contracts/BS_ERC721.sol\":1320:1338  _balances[to] += 1 */\n      dup3\n      dup3\n      sload\n      tag_53\n      swap2\n      swap1\n      tag_54\n      jump\t// in\n    tag_53:\n      swap3\n      pop\n      pop\n      dup2\n      swap1\n      sstore\n      pop\n        /* \"contracts/BS_ERC721.sol\":1368:1370  to */\n      dup2\n        /* \"contracts/BS_ERC721.sol\":1349:1356  _owners */\n      0x02\n        /* \"contracts/BS_ERC721.sol\":1349:1365  _owners[tokenId] */\n      0x00\n        /* \"contracts/BS_ERC721.sol\":1357:1364  tokenId */\n      dup4\n        /* \"contracts/BS_ERC721.sol\":1349:1365  _owners[tokenId] */\n      dup2\n      mstore\n      0x20\n      add\n      swap1\n      dup2\n      mstore\n      0x20\n      add\n      0x00\n      keccak256\n      0x00\n        /* \"contracts/BS_ERC721.sol\":1349:1370  _owners[tokenId] = to */\n      0x0100\n      exp\n      dup2\n      sload\n      dup2\n      0xffffffffffffffffffffffffffffffffffffffff\n      mul\n      not\n      and\n      swap1\n      dup4\n      0xffffffffffffffffffffffffffffffffffffffff\n      and\n      mul\n      or\n      swap1\n      sstore\n      pop\n        /* \"contracts/BS_ERC721.sol\":1413:1420  tokenId */\n      dup1\n        /* \"contracts/BS_ERC721.sol\":1409:1411  to */\n      dup3\n        /* \"contracts/BS_ERC721.sol\":1388:1421  Transfer(address(0), to, tokenId) */\n      0xffffffffffffffffffffffffffffffffffffffff\n      and\n        /* \"contracts/BS_ERC721.sol\":1405:1406  0 */\n      0x00\n        /* \"contracts/BS_ERC721.sol\":1388:1421  Transfer(address(0), to, tokenId) */\n      0xffffffffffffffffffffffffffffffffffffffff\n      and\n      0xddf252ad1be2c89b69c2b068fc378daa952ba7f163c4a11628f55a4df523b3ef\n      mload(0x40)\n      mload(0x40)\n      dup1\n      swap2\n      sub\n      swap1\n      log4\n        /* \"contracts/BS_ERC721.sol\":1434:1478  _afterTokenTransfer(address(0), to, tokenId) */\n      tag_55\n        /* \"contracts/BS_ERC721.sol\":1462:1463  0 */\n      0x00\n        /* \"contracts/BS_ERC721.sol\":1466:1468  to */\n      dup4\n        /* \"contracts/BS_ERC721.sol\":1470:1477  tokenId */\n      dup4\n        /* \"contracts/BS_ERC721.sol\":1434:1453  _afterTokenTransfer */\n      tag_56\n        /* \"contracts/BS_ERC721.sol\":1434:1478  _afterTokenTransfer(address(0), to, tokenId) */\n      jump\t// in\n    tag_55:\n        /* \"contracts/BS_ERC721.sol\":1047:1486  function _mint(address to, uint256 tokenId) internal virtual {\r... */\n      pop\n      pop\n      jump\t// out\n        /* \"contracts/BS_ERC721.sol\":822:949  function _exists(uint256 tokenId) internal view virtual returns (bool) {\r... */\n    tag_47:\n        /* \"contracts/BS_ERC721.sol\":887:891  bool */\n      0x00\n        /* \"contracts/BS_ERC721.sol\":939:940  0 */\n      dup1\n        /* \"contracts/BS_ERC721.sol\":911:941  _owners[tokenId] != address(0) */\n      0xffffffffffffffffffffffffffffffffffffffff\n      and\n        /* \"contracts/BS_ERC721.sol\":911:918  _owners */\n      0x02\n        /* \"contracts/BS_ERC721.sol\":911:927  _owners[tokenId] */\n      0x00\n        /* \"contracts/BS_ERC721.sol\":919:926  tokenId */\n      dup5\n        /* \"contracts/BS_ERC721.sol\":911:927  _owners[tokenId] */\n      dup2\n      mstore\n      0x20\n      add\n      swap1\n      dup2\n      mstore\n      0x20\n      add\n      0x00\n      keccak256\n      0x00\n      swap1\n      sload\n      swap1\n      0x0100\n      exp\n      swap1\n      div\n      0xffffffffffffffffffffffffffffffffffffffff\n      and\n        /* \"contracts/BS_ERC721.sol\":911:941  _owners[tokenId] != address(0) */\n      0xffffffffffffffffffffffffffffffffffffffff\n      and\n      eq\n      iszero\n        /* \"contracts/BS_ERC721.sol\":904:941  return _owners[tokenId] != address(0) */\n      swap1\n      pop\n        /* \"contracts/BS_ERC721.sol\":822:949  function _exists(uint256 tokenId) internal view virtual returns (bool) {\r... */\n      swap2\n      swap1\n      pop\n      jump\t// out\n        /* \"contracts/BS_ERC721.sol\":1494:1620  function _beforeTokenTransfer(\r... */\n    tag_52:\n      pop\n      pop\n      pop\n      jump\t// out\n        /* \"contracts/BS_ERC721.sol\":1628:1753  function _afterTokenTransfer(\r... */\n    tag_56:\n      pop\n      pop\n      pop\n      jump\t// out\n        /* \"#utility.yul\":7:146   */\n    tag_61:\n        /* \"#utility.yul\":53:58   */\n      0x00\n        /* \"#utility.yul\":91:97   */\n      dup2\n        /* \"#utility.yul\":78:98   */\n      calldataload\n        /* \"#utility.yul\":69:98   */\n      swap1\n      pop\n        /* \"#utility.yul\":107:140   */\n      tag_63\n        /* \"#utility.yul\":134:139   */\n      dup2\n        /* \"#utility.yul\":107:140   */\n      tag_64\n      jump\t// in\n    tag_63:\n        /* \"#utility.yul\":7:146   */\n      swap3\n      swap2\n      pop\n      pop\n      jump\t// out\n        /* \"#utility.yul\":166:719   */\n    tag_65:\n        /* \"#utility.yul\":224:232   */\n      0x00\n        /* \"#utility.yul\":234:240   */\n      dup1\n        /* \"#utility.yul\":284:287   */\n      dup4\n        /* \"#utility.yul\":277:281   */\n      0x1f\n        /* \"#utility.yul\":269:275   */\n      dup5\n        /* \"#utility.yul\":265:282   */\n      add\n        /* \"#utility.yul\":261:288   */\n      slt\n        /* \"#utility.yul\":251:373   */\n      tag_67\n      jumpi\n        /* \"#utility.yul\":292:371   */\n      tag_68\n      tag_69\n      jump\t// in\n    tag_68:\n        /* \"#utility.yul\":251:373   */\n    tag_67:\n        /* \"#utility.yul\":405:411   */\n      dup3\n        /* \"#utility.yul\":392:412   */\n      calldataload\n        /* \"#utility.yul\":382:412   */\n      swap1\n      pop\n        /* \"#utility.yul\":435:453   */\n      0xffffffffffffffff\n        /* \"#utility.yul\":427:433   */\n      dup2\n        /* \"#utility.yul\":424:454   */\n      gt\n        /* \"#utility.yul\":421:538   */\n      iszero\n      tag_70\n      jumpi\n        /* \"#utility.yul\":457:536   */\n      tag_71\n      tag_72\n      jump\t// in\n    tag_71:\n        /* \"#utility.yul\":421:538   */\n    tag_70:\n        /* \"#utility.yul\":571:575   */\n      0x20\n        /* \"#utility.yul\":563:569   */\n      dup4\n        /* \"#utility.yul\":559:576   */\n      add\n        /* \"#utility.yul\":547:576   */\n      swap2\n      pop\n        /* \"#utility.yul\":625:628   */\n      dup4\n        /* \"#utility.yul\":617:621   */\n      0x01\n        /* \"#utility.yul\":609:615   */\n      dup3\n        /* \"#utility.yul\":605:622   */\n      mul\n        /* \"#utility.yul\":595:603   */\n      dup4\n        /* \"#utility.yul\":591:623   */\n      add\n        /* \"#utility.yul\":588:629   */\n      gt\n        /* \"#utility.yul\":585:713   */\n      iszero\n      tag_73\n      jumpi\n        /* \"#utility.yul\":632:711   */\n      tag_74\n      tag_75\n      jump\t// in\n    tag_74:\n        /* \"#utility.yul\":585:713   */\n    tag_73:\n        /* \"#utility.yul\":166:719   */\n      swap3\n      pop\n      swap3\n      swap1\n      pop\n      jump\t// out\n        /* \"#utility.yul\":725:864   */\n    tag_76:\n        /* \"#utility.yul\":771:776   */\n      0x00\n        /* \"#utility.yul\":809:815   */\n      dup2\n        /* \"#utility.yul\":796:816   */\n      calldataload\n        /* \"#utility.yul\":787:816   */\n      swap1\n      pop\n        /* \"#utility.yul\":825:858   */\n      tag_78\n        /* \"#utility.yul\":852:857   */\n      dup2\n        /* \"#utility.yul\":825:858   */\n      tag_79\n      jump\t// in\n    tag_78:\n        /* \"#utility.yul\":725:864   */\n      swap3\n      swap2\n      pop\n      pop\n      jump\t// out\n        /* \"#utility.yul\":870:1689   */\n    tag_22:\n        /* \"#utility.yul\":959:965   */\n      0x00\n        /* \"#utility.yul\":967:973   */\n      dup1\n        /* \"#utility.yul\":975:981   */\n      0x00\n        /* \"#utility.yul\":983:989   */\n      dup1\n        /* \"#utility.yul\":1032:1034   */\n      0x60\n        /* \"#utility.yul\":1020:1029   */\n      dup6\n        /* \"#utility.yul\":1011:1018   */\n      dup8\n        /* \"#utility.yul\":1007:1030   */\n      sub\n        /* \"#utility.yul\":1003:1035   */\n      slt\n        /* \"#utility.yul\":1000:1119   */\n      iszero\n      tag_81\n      jumpi\n        /* \"#utility.yul\":1038:1117   */\n      tag_82\n      tag_83\n      jump\t// in\n    tag_82:\n        /* \"#utility.yul\":1000:1119   */\n    tag_81:\n        /* \"#utility.yul\":1158:1159   */\n      0x00\n        /* \"#utility.yul\":1183:1236   */\n      tag_84\n        /* \"#utility.yul\":1228:1235   */\n      dup8\n        /* \"#utility.yul\":1219:1225   */\n      dup3\n        /* \"#utility.yul\":1208:1217   */\n      dup9\n        /* \"#utility.yul\":1204:1226   */\n      add\n        /* \"#utility.yul\":1183:1236   */\n      tag_61\n      jump\t// in\n    tag_84:\n        /* \"#utility.yul\":1173:1236   */\n      swap5\n      pop\n        /* \"#utility.yul\":1129:1246   */\n      pop\n        /* \"#utility.yul\":1285:1287   */\n      0x20\n        /* \"#utility.yul\":1311:1364   */\n      tag_85\n        /* \"#utility.yul\":1356:1363   */\n      dup8\n        /* \"#utility.yul\":1347:1353   */\n      dup3\n        /* \"#utility.yul\":1336:1345   */\n      dup9\n        /* \"#utility.yul\":1332:1354   */\n      add\n        /* \"#utility.yul\":1311:1364   */\n      tag_76\n      jump\t// in\n    tag_85:\n        /* \"#utility.yul\":1301:1364   */\n      swap4\n      pop\n        /* \"#utility.yul\":1256:1374   */\n      pop\n        /* \"#utility.yul\":1441:1443   */\n      0x40\n        /* \"#utility.yul\":1430:1439   */\n      dup6\n        /* \"#utility.yul\":1426:1444   */\n      add\n        /* \"#utility.yul\":1413:1445   */\n      calldataload\n        /* \"#utility.yul\":1472:1490   */\n      0xffffffffffffffff\n        /* \"#utility.yul\":1464:1470   */\n      dup2\n        /* \"#utility.yul\":1461:1491   */\n      gt\n        /* \"#utility.yul\":1458:1575   */\n      iszero\n      tag_86\n      jumpi\n        /* \"#utility.yul\":1494:1573   */\n      tag_87\n      tag_88\n      jump\t// in\n    tag_87:\n        /* \"#utility.yul\":1458:1575   */\n    tag_86:\n        /* \"#utility.yul\":1607:1672   */\n      tag_89\n        /* \"#utility.yul\":1664:1671   */\n      dup8\n        /* \"#utility.yul\":1655:1661   */\n      dup3\n        /* \"#utility.yul\":1644:1653   */\n      dup9\n        /* \"#utility.yul\":1640:1662   */\n      add\n        /* \"#utility.yul\":1607:1672   */\n      tag_65\n      jump\t// in\n    tag_89:\n        /* \"#utility.yul\":1589:1672   */\n      swap3\n      pop\n      swap3\n      pop\n        /* \"#utility.yul\":1384:1682   */\n      pop\n        /* \"#utility.yul\":870:1689   */\n      swap3\n      swap6\n      swap2\n      swap5\n      pop\n      swap3\n      pop\n      jump\t// out\n        /* \"#utility.yul\":1695:2024   */\n    tag_13:\n        /* \"#utility.yul\":1754:1760   */\n      0x00\n        /* \"#utility.yul\":1803:1805   */\n      0x20\n        /* \"#utility.yul\":1791:1800   */\n      dup3\n        /* \"#utility.yul\":1782:1789   */\n      dup5\n        /* \"#utility.yul\":1778:1801   */\n      sub\n        /* \"#utility.yul\":1774:1806   */\n      slt\n        /* \"#utility.yul\":1771:1890   */\n      iszero\n      tag_91\n      jumpi\n        /* \"#utility.yul\":1809:1888   */\n      tag_92\n      tag_83\n      jump\t// in\n    tag_92:\n        /* \"#utility.yul\":1771:1890   */\n    tag_91:\n        /* \"#utility.yul\":1929:1930   */\n      0x00\n        /* \"#utility.yul\":1954:2007   */\n      tag_93\n        /* \"#utility.yul\":1999:2006   */\n      dup5\n        /* \"#utility.yul\":1990:1996   */\n      dup3\n        /* \"#utility.yul\":1979:1988   */\n      dup6\n        /* \"#utility.yul\":1975:1997   */\n      add\n        /* \"#utility.yul\":1954:2007   */\n      tag_76\n      jump\t// in\n    tag_93:\n        /* \"#utility.yul\":1944:2007   */\n      swap2\n      pop\n        /* \"#utility.yul\":1900:2017   */\n      pop\n        /* \"#utility.yul\":1695:2024   */\n      swap3\n      swap2\n      pop\n      pop\n      jump\t// out\n        /* \"#utility.yul\":2030:2148   */\n    tag_94:\n        /* \"#utility.yul\":2117:2141   */\n      tag_96\n        /* \"#utility.yul\":2135:2140   */\n      dup2\n        /* \"#utility.yul\":2117:2141   */\n      tag_97\n      jump\t// in\n    tag_96:\n        /* \"#utility.yul\":2112:2115   */\n      dup3\n        /* \"#utility.yul\":2105:2142   */\n      mstore\n        /* \"#utility.yul\":2030:2148   */\n      pop\n      pop\n      jump\t// out\n        /* \"#utility.yul\":2154:2518   */\n    tag_98:\n        /* \"#utility.yul\":2242:2245   */\n      0x00\n        /* \"#utility.yul\":2270:2309   */\n      tag_100\n        /* \"#utility.yul\":2303:2308   */\n      dup3\n        /* \"#utility.yul\":2270:2309   */\n      tag_101\n      jump\t// in\n    tag_100:\n        /* \"#utility.yul\":2325:2396   */\n      tag_102\n        /* \"#utility.yul\":2389:2395   */\n      dup2\n        /* \"#utility.yul\":2384:2387   */\n      dup6\n        /* \"#utility.yul\":2325:2396   */\n      tag_103\n      jump\t// in\n    tag_102:\n        /* \"#utility.yul\":2318:2396   */\n      swap4\n      pop\n        /* \"#utility.yul\":2405:2457   */\n      tag_104\n        /* \"#utility.yul\":2450:2456   */\n      dup2\n        /* \"#utility.yul\":2445:2448   */\n      dup6\n        /* \"#utility.yul\":2438:2442   */\n      0x20\n        /* \"#utility.yul\":2431:2436   */\n      dup7\n        /* \"#utility.yul\":2427:2443   */\n      add\n        /* \"#utility.yul\":2405:2457   */\n      tag_105\n      jump\t// in\n    tag_104:\n        /* \"#utility.yul\":2482:2511   */\n      tag_106\n        /* \"#utility.yul\":2504:2510   */\n      dup2\n        /* \"#utility.yul\":2482:2511   */\n      tag_107\n      jump\t// in\n    tag_106:\n        /* \"#utility.yul\":2477:2480   */\n      dup5\n        /* \"#utility.yul\":2473:2512   */\n      add\n        /* \"#utility.yul\":2466:2512   */\n      swap2\n      pop\n        /* \"#utility.yul\":2246:2518   */\n      pop\n        /* \"#utility.yul\":2154:2518   */\n      swap3\n      swap2\n      pop\n      pop\n      jump\t// out\n        /* \"#utility.yul\":2524:2890   */\n    tag_108:\n        /* \"#utility.yul\":2666:2669   */\n      0x00\n        /* \"#utility.yul\":2687:2754   */\n      tag_110\n        /* \"#utility.yul\":2751:2753   */\n      0x1c\n        /* \"#utility.yul\":2746:2749   */\n      dup4\n        /* \"#utility.yul\":2687:2754   */\n      tag_103\n      jump\t// in\n    tag_110:\n        /* \"#utility.yul\":2680:2754   */\n      swap2\n      pop\n        /* \"#utility.yul\":2763:2856   */\n      tag_111\n        /* \"#utility.yul\":2852:2855   */\n      dup3\n        /* \"#utility.yul\":2763:2856   */\n      tag_112\n      jump\t// in\n    tag_111:\n        /* \"#utility.yul\":2881:2883   */\n      0x20\n        /* \"#utility.yul\":2876:2879   */\n      dup3\n        /* \"#utility.yul\":2872:2884   */\n      add\n        /* \"#utility.yul\":2865:2884   */\n      swap1\n      pop\n        /* \"#utility.yul\":2524:2890   */\n      swap2\n      swap1\n      pop\n      jump\t// out\n        /* \"#utility.yul\":2896:3262   */\n    tag_113:\n        /* \"#utility.yul\":3038:3041   */\n      0x00\n        /* \"#utility.yul\":3059:3126   */\n      tag_115\n        /* \"#utility.yul\":3123:3125   */\n      0x29\n        /* \"#utility.yul\":3118:3121   */\n      dup4\n        /* \"#utility.yul\":3059:3126   */\n      tag_103\n      jump\t// in\n    tag_115:\n        /* \"#utility.yul\":3052:3126   */\n      swap2\n      pop\n        /* \"#utility.yul\":3135:3228   */\n      tag_116\n        /* \"#utility.yul\":3224:3227   */\n      dup3\n        /* \"#utility.yul\":3135:3228   */\n      tag_117\n      jump\t// in\n    tag_116:\n        /* \"#utility.yul\":3253:3255   */\n      0x40\n        /* \"#utility.yul\":3248:3251   */\n      dup3\n        /* \"#utility.yul\":3244:3256   */\n      add\n        /* \"#utility.yul\":3237:3256   */\n      swap1\n      pop\n        /* \"#utility.yul\":2896:3262   */\n      swap2\n      swap1\n      pop\n      jump\t// out\n        /* \"#utility.yul\":3268:3634   */\n    tag_118:\n        /* \"#utility.yul\":3410:3413   */\n      0x00\n        /* \"#utility.yul\":3431:3498   */\n      tag_120\n        /* \"#utility.yul\":3495:3497   */\n      0x20\n        /* \"#utility.yul\":3490:3493   */\n      dup4\n        /* \"#utility.yul\":3431:3498   */\n      tag_103\n      jump\t// in\n    tag_120:\n        /* \"#utility.yul\":3424:3498   */\n      swap2\n      pop\n        /* \"#utility.yul\":3507:3600   */\n      tag_121\n        /* \"#utility.yul\":3596:3599   */\n      dup3\n        /* \"#utility.yul\":3507:3600   */\n      tag_122\n      jump\t// in\n    tag_121:\n        /* \"#utility.yul\":3625:3627   */\n      0x20\n        /* \"#utility.yul\":3620:3623   */\n      dup3\n        /* \"#utility.yul\":3616:3628   */\n      add\n        /* \"#utility.yul\":3609:3628   */\n      swap1\n      pop\n        /* \"#utility.yul\":3268:3634   */\n      swap2\n      swap1\n      pop\n      jump\t// out\n        /* \"#utility.yul\":3640:3862   */\n    tag_16:\n        /* \"#utility.yul\":3733:3737   */\n      0x00\n        /* \"#utility.yul\":3771:3773   */\n      0x20\n        /* \"#utility.yul\":3760:3769   */\n      dup3\n        /* \"#utility.yul\":3756:3774   */\n      add\n        /* \"#utility.yul\":3748:3774   */\n      swap1\n      pop\n        /* \"#utility.yul\":3784:3855   */\n      tag_124\n        /* \"#utility.yul\":3852:3853   */\n      0x00\n        /* \"#utility.yul\":3841:3850   */\n      dup4\n        /* \"#utility.yul\":3837:3854   */\n      add\n        /* \"#utility.yul\":3828:3834   */\n      dup5\n        /* \"#utility.yul\":3784:3855   */\n      tag_94\n      jump\t// in\n    tag_124:\n        /* \"#utility.yul\":3640:3862   */\n      swap3\n      swap2\n      pop\n      pop\n      jump\t// out\n        /* \"#utility.yul\":3868:4181   */\n    tag_10:\n        /* \"#utility.yul\":3981:3985   */\n      0x00\n        /* \"#utility.yul\":4019:4021   */\n      0x20\n        /* \"#utility.yul\":4008:4017   */\n      dup3\n        /* \"#utility.yul\":4004:4022   */\n      add\n        /* \"#utility.yul\":3996:4022   */\n      swap1\n      pop\n        /* \"#utility.yul\":4068:4077   */\n      dup2\n        /* \"#utility.yul\":4062:4066   */\n      dup2\n        /* \"#utility.yul\":4058:4078   */\n      sub\n        /* \"#utility.yul\":4054:4055   */\n      0x00\n        /* \"#utility.yul\":4043:4052   */\n      dup4\n        /* \"#utility.yul\":4039:4056   */\n      add\n        /* \"#utility.yul\":4032:4079   */\n      mstore\n        /* \"#utility.yul\":4096:4174   */\n      tag_126\n        /* \"#utility.yul\":4169:4173   */\n      dup2\n        /* \"#utility.yul\":4160:4166   */\n      dup5\n        /* \"#utility.yul\":4096:4174   */\n      tag_98\n      jump\t// in\n    tag_126:\n        /* \"#utility.yul\":4088:4174   */\n      swap1\n      pop\n        /* \"#utility.yul\":3868:4181   */\n      swap3\n      swap2\n      pop\n      pop\n      jump\t// out\n        /* \"#utility.yul\":4187:4606   */\n    tag_50:\n        /* \"#utility.yul\":4353:4357   */\n      0x00\n        /* \"#utility.yul\":4391:4393   */\n      0x20\n        /* \"#utility.yul\":4380:4389   */\n      dup3\n        /* \"#utility.yul\":4376:4394   */\n      add\n        /* \"#utility.yul\":4368:4394   */\n      swap1\n      pop\n        /* \"#utility.yul\":4440:4449   */\n      dup2\n        /* \"#utility.yul\":4434:4438   */\n      dup2\n        /* \"#utility.yul\":4430:4450   */\n      sub\n        /* \"#utility.yul\":4426:4427   */\n      0x00\n        /* \"#utility.yul\":4415:4424   */\n      dup4\n        /* \"#utility.yul\":4411:4428   */\n      add\n        /* \"#utility.yul\":4404:4451   */\n      mstore\n        /* \"#utility.yul\":4468:4599   */\n      tag_128\n        /* \"#utility.yul\":4594:4598   */\n      dup2\n        /* \"#utility.yul\":4468:4599   */\n      tag_108\n      jump\t// in\n    tag_128:\n        /* \"#utility.yul\":4460:4599   */\n      swap1\n      pop\n        /* \"#utility.yul\":4187:4606   */\n      swap2\n      swap1\n      pop\n      jump\t// out\n        /* \"#utility.yul\":4612:5031   */\n    tag_33:\n        /* \"#utility.yul\":4778:4782   */\n      0x00\n        /* \"#utility.yul\":4816:4818   */\n      0x20\n        /* \"#utility.yul\":4805:4814   */\n      dup3\n        /* \"#utility.yul\":4801:4819   */\n      add\n        /* \"#utility.yul\":4793:4819   */\n      swap1\n      pop\n        /* \"#utility.yul\":4865:4874   */\n      dup2\n        /* \"#utility.yul\":4859:4863   */\n      dup2\n        /* \"#utility.yul\":4855:4875   */\n      sub\n        /* \"#utility.yul\":4851:4852   */\n      0x00\n        /* \"#utility.yul\":4840:4849   */\n      dup4\n        /* \"#utility.yul\":4836:4853   */\n      add\n        /* \"#utility.yul\":4829:4876   */\n      mstore\n        /* \"#utility.yul\":4893:5024   */\n      tag_130\n        /* \"#utility.yul\":5019:5023   */\n      dup2\n        /* \"#utility.yul\":4893:5024   */\n      tag_113\n      jump\t// in\n    tag_130:\n        /* \"#utility.yul\":4885:5024   */\n      swap1\n      pop\n        /* \"#utility.yul\":4612:5031   */\n      swap2\n      swap1\n      pop\n      jump\t// out\n        /* \"#utility.yul\":5037:5456   */\n    tag_45:\n        /* \"#utility.yul\":5203:5207   */\n      0x00\n        /* \"#utility.yul\":5241:5243   */\n      0x20\n        /* \"#utility.yul\":5230:5239   */\n      dup3\n        /* \"#utility.yul\":5226:5244   */\n      add\n        /* \"#utility.yul\":5218:5244   */\n      swap1\n      pop\n        /* \"#utility.yul\":5290:5299   */\n      dup2\n        /* \"#utility.yul\":5284:5288   */\n      dup2\n        /* \"#utility.yul\":5280:5300   */\n      sub\n        /* \"#utility.yul\":5276:5277   */\n      0x00\n        /* \"#utility.yul\":5265:5274   */\n      dup4\n        /* \"#utility.yul\":5261:5278   */\n      add\n        /* \"#utility.yul\":5254:5301   */\n      mstore\n        /* \"#utility.yul\":5318:5449   */\n      tag_132\n        /* \"#utility.yul\":5444:5448   */\n      dup2\n        /* \"#utility.yul\":5318:5449   */\n      tag_118\n      jump\t// in\n    tag_132:\n        /* \"#utility.yul\":5310:5449   */\n      swap1\n      pop\n        /* \"#utility.yul\":5037:5456   */\n      swap2\n      swap1\n      pop\n      jump\t// out\n        /* \"#utility.yul\":5543:5642   */\n    tag_101:\n        /* \"#utility.yul\":5595:5601   */\n      0x00\n        /* \"#utility.yul\":5629:5634   */\n      dup2\n        /* \"#utility.yul\":5623:5635   */\n      mload\n        /* \"#utility.yul\":5613:5635   */\n      swap1\n      pop\n        /* \"#utility.yul\":5543:5642   */\n      swap2\n      swap1\n      pop\n      jump\t// out\n        /* \"#utility.yul\":5648:5817   */\n    tag_103:\n        /* \"#utility.yul\":5732:5743   */\n      0x00\n        /* \"#utility.yul\":5766:5772   */\n      dup3\n        /* \"#utility.yul\":5761:5764   */\n      dup3\n        /* \"#utility.yul\":5754:5773   */\n      mstore\n        /* \"#utility.yul\":5806:5810   */\n      0x20\n        /* \"#utility.yul\":5801:5804   */\n      dup3\n        /* \"#utility.yul\":5797:5811   */\n      add\n        /* \"#utility.yul\":5782:5811   */\n      swap1\n      pop\n        /* \"#utility.yul\":5648:5817   */\n      swap3\n      swap2\n      pop\n      pop\n      jump\t// out\n        /* \"#utility.yul\":5823:6128   */\n    tag_54:\n        /* \"#utility.yul\":5863:5866   */\n      0x00\n        /* \"#utility.yul\":5882:5902   */\n      tag_138\n        /* \"#utility.yul\":5900:5901   */\n      dup3\n        /* \"#utility.yul\":5882:5902   */\n      tag_139\n      jump\t// in\n    tag_138:\n        /* \"#utility.yul\":5877:5902   */\n      swap2\n      pop\n        /* \"#utility.yul\":5916:5936   */\n      tag_140\n        /* \"#utility.yul\":5934:5935   */\n      dup4\n        /* \"#utility.yul\":5916:5936   */\n      tag_139\n      jump\t// in\n    tag_140:\n        /* \"#utility.yul\":5911:5936   */\n      swap3\n      pop\n        /* \"#utility.yul\":6070:6071   */\n      dup3\n        /* \"#utility.yul\":6002:6068   */\n      0xffffffffffffffffffffffffffffffffffffffffffffffffffffffffffffffff\n        /* \"#utility.yul\":5998:6072   */\n      sub\n        /* \"#utility.yul\":5995:5996   */\n      dup3\n        /* \"#utility.yul\":5992:6073   */\n      gt\n        /* \"#utility.yul\":5989:6096   */\n      iszero\n      tag_141\n      jumpi\n        /* \"#utility.yul\":6076:6094   */\n      tag_142\n      tag_143\n      jump\t// in\n    tag_142:\n        /* \"#utility.yul\":5989:6096   */\n    tag_141:\n        /* \"#utility.yul\":6120:6121   */\n      dup3\n        /* \"#utility.yul\":6117:6118   */\n      dup3\n        /* \"#utility.yul\":6113:6122   */\n      add\n        /* \"#utility.yul\":6106:6122   */\n      swap1\n      pop\n        /* \"#utility.yul\":5823:6128   */\n      swap3\n      swap2\n      pop\n      pop\n      jump\t// out\n        /* \"#utility.yul\":6134:6230   */\n    tag_97:\n        /* \"#utility.yul\":6171:6178   */\n      0x00\n        /* \"#utility.yul\":6200:6224   */\n      tag_145\n        /* \"#utility.yul\":6218:6223   */\n      dup3\n        /* \"#utility.yul\":6200:6224   */\n      tag_146\n      jump\t// in\n    tag_145:\n        /* \"#utility.yul\":6189:6224   */\n      swap1\n      pop\n        /* \"#utility.yul\":6134:6230   */\n      swap2\n      swap1\n      pop\n      jump\t// out\n        /* \"#utility.yul\":6236:6362   */\n    tag_146:\n        /* \"#utility.yul\":6273:6280   */\n      0x00\n        /* \"#utility.yul\":6313:6355   */\n      0xffffffffffffffffffffffffffffffffffffffff\n        /* \"#utility.yul\":6306:6311   */\n      dup3\n        /* \"#utility.yul\":6302:6356   */\n      and\n        /* \"#utility.yul\":6291:6356   */\n      swap1\n      pop\n        /* \"#utility.yul\":6236:6362   */\n      swap2\n      swap1\n      pop\n      jump\t// out\n        /* \"#utility.yul\":6368:6445   */\n    tag_139:\n        /* \"#utility.yul\":6405:6412   */\n      0x00\n        /* \"#utility.yul\":6434:6439   */\n      dup2\n        /* \"#utility.yul\":6423:6439   */\n      swap1\n      pop\n        /* \"#utility.yul\":6368:6445   */\n      swap2\n      swap1\n      pop\n      jump\t// out\n        /* \"#utility.yul\":6451:6758   */\n    tag_105:\n        /* \"#utility.yul\":6519:6520   */\n      0x00\n        /* \"#utility.yul\":6529:6642   */\n    tag_150:\n        /* \"#utility.yul\":6543:6549   */\n      dup4\n        /* \"#utility.yul\":6540:6541   */\n      dup2\n        /* \"#utility.yul\":6537:6550   */\n      lt\n        /* \"#utility.yul\":6529:6642   */\n      iszero\n      tag_152\n      jumpi\n        /* \"#utility.yul\":6628:6629   */\n      dup1\n        /* \"#utility.yul\":6623:6626   */\n      dup3\n        /* \"#utility.yul\":6619:6630   */\n      add\n        /* \"#utility.yul\":6613:6631   */\n      mload\n        /* \"#utility.yul\":6609:6610   */\n      dup2\n        /* \"#utility.yul\":6604:6607   */\n      dup5\n        /* \"#utility.yul\":6600:6611   */\n      add\n        /* \"#utility.yul\":6593:6632   */\n      mstore\n        /* \"#utility.yul\":6565:6567   */\n      0x20\n        /* \"#utility.yul\":6562:6563   */\n      dup2\n        /* \"#utility.yul\":6558:6568   */\n      add\n        /* \"#utility.yul\":6553:6568   */\n      swap1\n      pop\n        /* \"#utility.yul\":6529:6642   */\n      jump(tag_150)\n    tag_152:\n        /* \"#utility.yul\":6660:6666   */\n      dup4\n        /* \"#utility.yul\":6657:6658   */\n      dup2\n        /* \"#utility.yul\":6654:6667   */\n      gt\n        /* \"#utility.yul\":6651:6752   */\n      iszero\n      tag_153\n      jumpi\n        /* \"#utility.yul\":6740:6741   */\n      0x00\n        /* \"#utility.yul\":6731:6737   */\n      dup5\n        /* \"#utility.yul\":6726:6729   */\n      dup5\n        /* \"#utility.yul\":6722:6738   */\n      add\n        /* \"#utility.yul\":6715:6742   */\n      mstore\n        /* \"#utility.yul\":6651:6752   */\n    tag_153:\n        /* \"#utility.yul\":6500:6758   */\n      pop\n        /* \"#utility.yul\":6451:6758   */\n      pop\n      pop\n      pop\n      jump\t// out\n        /* \"#utility.yul\":6764:7084   */\n    tag_25:\n        /* \"#utility.yul\":6808:6814   */\n      0x00\n        /* \"#utility.yul\":6845:6846   */\n      0x02\n        /* \"#utility.yul\":6839:6843   */\n      dup3\n        /* \"#utility.yul\":6835:6847   */\n      div\n        /* \"#utility.yul\":6825:6847   */\n      swap1\n      pop\n        /* \"#utility.yul\":6892:6893   */\n      0x01\n        /* \"#utility.yul\":6886:6890   */\n      dup3\n        /* \"#utility.yul\":6882:6894   */\n      and\n        /* \"#utility.yul\":6913:6931   */\n      dup1\n        /* \"#utility.yul\":6903:6984   */\n      tag_155\n      jumpi\n        /* \"#utility.yul\":6969:6973   */\n      0x7f\n        /* \"#utility.yul\":6961:6967   */\n      dup3\n        /* \"#utility.yul\":6957:6974   */\n      and\n        /* \"#utility.yul\":6947:6974   */\n      swap2\n      pop\n        /* \"#utility.yul\":6903:6984   */\n    tag_155:\n        /* \"#utility.yul\":7031:7033   */\n      0x20\n        /* \"#utility.yul\":7023:7029   */\n      dup3\n        /* \"#utility.yul\":7020:7034   */\n      lt\n        /* \"#utility.yul\":7000:7018   */\n      dup2\n        /* \"#utility.yul\":6997:7035   */\n      eq\n        /* \"#utility.yul\":6994:7078   */\n      iszero\n      tag_156\n      jumpi\n        /* \"#utility.yul\":7050:7068   */\n      tag_157\n      tag_158\n      jump\t// in\n    tag_157:\n        /* \"#utility.yul\":6994:7078   */\n    tag_156:\n        /* \"#utility.yul\":6815:7084   */\n      pop\n        /* \"#utility.yul\":6764:7084   */\n      swap2\n      swap1\n      pop\n      jump\t// out\n        /* \"#utility.yul\":7090:7270   */\n    tag_143:\n        /* \"#utility.yul\":7138:7215   */\n      0x4e487b7100000000000000000000000000000000000000000000000000000000\n        /* \"#utility.yul\":7135:7136   */\n      0x00\n        /* \"#utility.yul\":7128:7216   */\n      mstore\n        /* \"#utility.yul\":7235:7239   */\n      0x11\n        /* \"#utility.yul\":7232:7233   */\n      0x04\n        /* \"#utility.yul\":7225:7240   */\n      mstore\n        /* \"#utility.yul\":7259:7263   */\n      0x24\n        /* \"#utility.yul\":7256:7257   */\n      0x00\n        /* \"#utility.yul\":7249:7264   */\n      revert\n        /* \"#utility.yul\":7276:7456   */\n    tag_158:\n        /* \"#utility.yul\":7324:7401   */\n      0x4e487b7100000000000000000000000000000000000000000000000000000000\n        /* \"#utility.yul\":7321:7322   */\n      0x00\n        /* \"#utility.yul\":7314:7402   */\n      mstore\n        /* \"#utility.yul\":7421:7425   */\n      0x22\n        /* \"#utility.yul\":7418:7419   */\n      0x04\n        /* \"#utility.yul\":7411:7426   */\n      mstore\n        /* \"#utility.yul\":7445:7449   */\n      0x24\n        /* \"#utility.yul\":7442:7443   */\n      0x00\n        /* \"#utility.yul\":7435:7450   */\n      revert\n        /* \"#utility.yul\":7462:7579   */\n    tag_72:\n        /* \"#utility.yul\":7571:7572   */\n      0x00\n        /* \"#utility.yul\":7568:7569   */\n      dup1\n        /* \"#utility.yul\":7561:7573   */\n      revert\n        /* \"#utility.yul\":7585:7702   */\n    tag_69:\n        /* \"#utility.yul\":7694:7695   */\n      0x00\n        /* \"#utility.yul\":7691:7692   */\n      dup1\n        /* \"#utility.yul\":7684:7696   */\n      revert\n        /* \"#utility.yul\":7708:7825   */\n    tag_75:\n        /* \"#utility.yul\":7817:7818   */\n      0x00\n        /* \"#utility.yul\":7814:7815   */\n      dup1\n        /* \"#utility.yul\":7807:7819   */\n      revert\n        /* \"#utility.yul\":7831:7948   */\n    tag_88:\n        /* \"#utility.yul\":7940:7941   */\n      0x00\n        /* \"#utility.yul\":7937:7938   */\n      dup1\n        /* \"#utility.yul\":7930:7942   */\n      revert\n        /* \"#utility.yul\":7954:8071   */\n    tag_83:\n        /* \"#utility.yul\":8063:8064   */\n      0x00\n        /* \"#utility.yul\":8060:8061   */\n      dup1\n        /* \"#utility.yul\":8053:8065   */\n      revert\n        /* \"#utility.yul\":8077:8179   */\n    tag_107:\n        /* \"#utility.yul\":8118:8124   */\n      0x00\n        /* \"#utility.yul\":8169:8171   */\n      0x1f\n        /* \"#utility.yul\":8165:8172   */\n      not\n        /* \"#utility.yul\":8160:8162   */\n      0x1f\n        /* \"#utility.yul\":8153:8158   */\n      dup4\n        /* \"#utility.yul\":8149:8163   */\n      add\n        /* \"#utility.yul\":8145:8173   */\n      and\n        /* \"#utility.yul\":8135:8173   */\n      swap1\n      pop\n        /* \"#utility.yul\":8077:8179   */\n      swap2\n      swap1\n      pop\n      jump\t// out\n        /* \"#utility.yul\":8185:8363   */\n    tag_112:\n        /* \"#utility.yul\":8325:8355   */\n      0x4552433732313a20746f6b656e20616c7265616479206d696e74656400000000\n        /* \"#utility.yul\":8321:8322   */\n      0x00\n        /* \"#utility.yul\":8313:8319   */\n      dup3\n        /* \"#utility.yul\":8309:8323   */\n      add\n        /* \"#utility.yul\":8302:8356   */\n      mstore\n        /* \"#utility.yul\":8185:8363   */\n      pop\n      jump\t// out\n        /* \"#utility.yul\":8369:8597   */\n    tag_117:\n        /* \"#utility.yul\":8509:8543   */\n      0x4552433732313a206f776e657220717565727920666f72206e6f6e6578697374\n        /* \"#utility.yul\":8505:8506   */\n      0x00\n        /* \"#utility.yul\":8497:8503   */\n      dup3\n        /* \"#utility.yul\":8493:8507   */\n      add\n        /* \"#utility.yul\":8486:8544   */\n      mstore\n        /* \"#utility.yul\":8578:8589   */\n      0x656e7420746f6b656e0000000000000000000000000000000000000000000000\n        /* \"#utility.yul\":8573:8575   */\n      0x20\n        /* \"#utility.yul\":8565:8571   */\n      dup3\n        /* \"#utility.yul\":8561:8576   */\n      add\n        /* \"#utility.yul\":8554:8590   */\n      mstore\n        /* \"#utility.yul\":8369:8597   */\n      pop\n      jump\t// out\n        /* \"#utility.yul\":8603:8785   */\n    tag_122:\n        /* \"#utility.yul\":8743:8777   */\n      0x4552433732313a206d696e7420746f20746865207a65726f2061646472657373\n        /* \"#utility.yul\":8739:8740   */\n      0x00\n        /* \"#utility.yul\":8731:8737   */\n      dup3\n        /* \"#utility.yul\":8727:8741   */\n      add\n        /* \"#utility.yul\":8720:8778   */\n      mstore\n        /* \"#utility.yul\":8603:8785   */\n      pop\n      jump\t// out\n        /* \"#utility.yul\":8791:8913   */\n    tag_64:\n        /* \"#utility.yul\":8864:8888   */\n      tag_171\n        /* \"#utility.yul\":8882:8887   */\n      dup2\n        /* \"#utility.yul\":8864:8888   */\n      tag_97\n      jump\t// in\n    tag_171:\n        /* \"#utility.yul\":8857:8862   */\n      dup2\n        /* \"#utility.yul\":8854:8889   */\n      eq\n        /* \"#utility.yul\":8844:8907   */\n      tag_172\n      jumpi\n        /* \"#utility.yul\":8903:8904   */\n      0x00\n        /* \"#utility.yul\":8900:8901   */\n      dup1\n        /* \"#utility.yul\":8893:8905   */\n      revert\n        /* \"#utility.yul\":8844:8907   */\n    tag_172:\n        /* \"#utility.yul\":8791:8913   */\n      pop\n      jump\t// out\n        /* \"#utility.yul\":8919:9041   */\n    tag_79:\n        /* \"#utility.yul\":8992:9016   */\n      tag_174\n        /* \"#utility.yul\":9010:9015   */\n      dup2\n        /* \"#utility.yul\":8992:9016   */\n      tag_139\n      jump\t// in\n    tag_174:\n        /* \"#utility.yul\":8985:8990   */\n      dup2\n        /* \"#utility.yul\":8982:9017   */\n      eq\n        /* \"#utility.yul\":8972:9035   */\n      tag_175\n      jumpi\n        /* \"#utility.yul\":9031:9032   */\n      0x00\n        /* \"#utility.yul\":9028:9029   */\n      dup1\n        /* \"#utility.yul\":9021:9033   */\n      revert\n        /* \"#utility.yul\":8972:9035   */\n    tag_175:\n        /* \"#utility.yul\":8919:9041   */\n      pop\n      jump\t// out\n\n    auxdata: 0xa2646970667358221220f4c413a8ed12238abf10d1a37e6d88cb07cc09d5be969461a222e4f749ba63fd64736f6c63430008070033\n}\n",
				"bytecode": {
					"linkReferences": {},
					"object": "608060405234801561001057600080fd5b506040518060400160405280600e81526020017f426c75655375726765546f6b656e0000000000000000000000000000000000008152506000908051906020019061005c9291906100ae565b506040518060400160405280600381526020017f4253540000000000000000000000000000000000000000000000000000000000815250600190805190602001906100a89291906100ae565b506101b2565b8280546100ba90610151565b90600052602060002090601f0160209004810192826100dc5760008555610123565b82601f106100f557805160ff1916838001178555610123565b82800160010185558215610123579182015b82811115610122578251825591602001919060010190610107565b5b5090506101309190610134565b5090565b5b8082111561014d576000816000905550600101610135565b5090565b6000600282049050600182168061016957607f821691505b6020821081141561017d5761017c610183565b5b50919050565b7f4e487b7100000000000000000000000000000000000000000000000000000000600052602260045260246000fd5b610a16806101c16000396000f3fe608060405234801561001057600080fd5b506004361061004c5760003560e01c806306fdde03146100515780636352211e1461006f57806395d89b411461009f578063d3fc9864146100bd575b600080fd5b6100596100d9565b60405161006691906106f4565b60405180910390f35b610089600480360381019061008491906105fb565b610167565b60405161009691906106d9565b60405180910390f35b6100a7610219565b6040516100b491906106f4565b60405180910390f35b6100d760048036038101906100d29190610587565b6102a7565b005b600080546100e690610857565b80601f016020809104026020016040519081016040528092919081815260200182805461011290610857565b801561015f5780601f106101345761010080835404028352916020019161015f565b820191906000526020600020905b81548152906001019060200180831161014257829003601f168201915b505050505081565b6000806002600084815260200190815260200160002060009054906101000a900473ffffffffffffffffffffffffffffffffffffffff169050600073ffffffffffffffffffffffffffffffffffffffff168173ffffffffffffffffffffffffffffffffffffffff161415610210576040517f08c379a000000000000000000000000000000000000000000000000000000000815260040161020790610736565b60405180910390fd5b80915050919050565b6001805461022690610857565b80601f016020809104026020016040519081016040528092919081815260200182805461025290610857565b801561029f5780601f106102745761010080835404028352916020019161029f565b820191906000526020600020905b81548152906001019060200180831161028257829003601f168201915b505050505081565b6102b184846102b7565b50505050565b600073ffffffffffffffffffffffffffffffffffffffff168273ffffffffffffffffffffffffffffffffffffffff161415610327576040517f08c379a000000000000000000000000000000000000000000000000000000000815260040161031e90610756565b60405180910390fd5b61033081610491565b15610370576040517f08c379a000000000000000000000000000000000000000000000000000000000815260040161036790610716565b60405180910390fd5b61037c600083836104fd565b6001600360008473ffffffffffffffffffffffffffffffffffffffff1673ffffffffffffffffffffffffffffffffffffffff16815260200190815260200160002060008282546103cc9190610792565b92505081905550816002600083815260200190815260200160002060006101000a81548173ffffffffffffffffffffffffffffffffffffffff021916908373ffffffffffffffffffffffffffffffffffffffff160217905550808273ffffffffffffffffffffffffffffffffffffffff16600073ffffffffffffffffffffffffffffffffffffffff167fddf252ad1be2c89b69c2b068fc378daa952ba7f163c4a11628f55a4df523b3ef60405160405180910390a461048d60008383610502565b5050565b60008073ffffffffffffffffffffffffffffffffffffffff166002600084815260200190815260200160002060009054906101000a900473ffffffffffffffffffffffffffffffffffffffff1673ffffffffffffffffffffffffffffffffffffffff1614159050919050565b505050565b505050565b600081359050610516816109b2565b92915050565b60008083601f840112610532576105316108ec565b5b8235905067ffffffffffffffff81111561054f5761054e6108e7565b5b60208301915083600182028301111561056b5761056a6108f1565b5b9250929050565b600081359050610581816109c9565b92915050565b600080600080606085870312156105a1576105a06108fb565b5b60006105af87828801610507565b94505060206105c087828801610572565b935050604085013567ffffffffffffffff8111156105e1576105e06108f6565b5b6105ed8782880161051c565b925092505092959194509250565b600060208284031215610611576106106108fb565b5b600061061f84828501610572565b91505092915050565b610631816107e8565b82525050565b600061064282610776565b61064c8185610781565b935061065c818560208601610824565b61066581610900565b840191505092915050565b600061067d601c83610781565b915061068882610911565b602082019050919050565b60006106a0602983610781565b91506106ab8261093a565b604082019050919050565b60006106c3602083610781565b91506106ce82610989565b602082019050919050565b60006020820190506106ee6000830184610628565b92915050565b6000602082019050818103600083015261070e8184610637565b905092915050565b6000602082019050818103600083015261072f81610670565b9050919050565b6000602082019050818103600083015261074f81610693565b9050919050565b6000602082019050818103600083015261076f816106b6565b9050919050565b600081519050919050565b600082825260208201905092915050565b600061079d8261081a565b91506107a88361081a565b9250827fffffffffffffffffffffffffffffffffffffffffffffffffffffffffffffffff038211156107dd576107dc610889565b5b828201905092915050565b60006107f3826107fa565b9050919050565b600073ffffffffffffffffffffffffffffffffffffffff82169050919050565b6000819050919050565b60005b83811015610842578082015181840152602081019050610827565b83811115610851576000848401525b50505050565b6000600282049050600182168061086f57607f821691505b60208210811415610883576108826108b8565b5b50919050565b7f4e487b7100000000000000000000000000000000000000000000000000000000600052601160045260246000fd5b7f4e487b7100000000000000000000000000000000000000000000000000000000600052602260045260246000fd5b600080fd5b600080fd5b600080fd5b600080fd5b600080fd5b6000601f19601f8301169050919050565b7f4552433732313a20746f6b656e20616c7265616479206d696e74656400000000600082015250565b7f4552433732313a206f776e657220717565727920666f72206e6f6e657869737460008201527f656e7420746f6b656e0000000000000000000000000000000000000000000000602082015250565b7f4552433732313a206d696e7420746f20746865207a65726f2061646472657373600082015250565b6109bb816107e8565b81146109c657600080fd5b50565b6109d28161081a565b81146109dd57600080fd5b5056fea2646970667358221220f4c413a8ed12238abf10d1a37e6d88cb07cc09d5be969461a222e4f749ba63fd64736f6c63430008070033",
					"opcodes": "PUSH1 0x80 PUSH1 0x40 MSTORE CALLVALUE DUP1 ISZERO PUSH2 0x10 JUMPI PUSH1 0x0 DUP1 REVERT JUMPDEST POP PUSH1 0x40 MLOAD DUP1 PUSH1 0x40 ADD PUSH1 0x40 MSTORE DUP1 PUSH1 0xE DUP2 MSTORE PUSH1 0x20 ADD PUSH32 0x426C75655375726765546F6B656E000000000000000000000000000000000000 DUP2 MSTORE POP PUSH1 0x0 SWAP1 DUP1 MLOAD SWAP1 PUSH1 0x20 ADD SWAP1 PUSH2 0x5C SWAP3 SWAP2 SWAP1 PUSH2 0xAE JUMP JUMPDEST POP PUSH1 0x40 MLOAD DUP1 PUSH1 0x40 ADD PUSH1 0x40 MSTORE DUP1 PUSH1 0x3 DUP2 MSTORE PUSH1 0x20 ADD PUSH32 0x4253540000000000000000000000000000000000000000000000000000000000 DUP2 MSTORE POP PUSH1 0x1 SWAP1 DUP1 MLOAD SWAP1 PUSH1 0x20 ADD SWAP1 PUSH2 0xA8 SWAP3 SWAP2 SWAP1 PUSH2 0xAE JUMP JUMPDEST POP PUSH2 0x1B2 JUMP JUMPDEST DUP3 DUP1 SLOAD PUSH2 0xBA SWAP1 PUSH2 0x151 JUMP JUMPDEST SWAP1 PUSH1 0x0 MSTORE PUSH1 0x20 PUSH1 0x0 KECCAK256 SWAP1 PUSH1 0x1F ADD PUSH1 0x20 SWAP1 DIV DUP2 ADD SWAP3 DUP3 PUSH2 0xDC JUMPI PUSH1 0x0 DUP6 SSTORE PUSH2 0x123 JUMP JUMPDEST DUP3 PUSH1 0x1F LT PUSH2 0xF5 JUMPI DUP1 MLOAD PUSH1 0xFF NOT AND DUP4 DUP1 ADD OR DUP6 SSTORE PUSH2 0x123 JUMP JUMPDEST DUP3 DUP1 ADD PUSH1 0x1 ADD DUP6 SSTORE DUP3 ISZERO PUSH2 0x123 JUMPI SWAP2 DUP3 ADD JUMPDEST DUP3 DUP2 GT ISZERO PUSH2 0x122 JUMPI DUP3 MLOAD DUP3 SSTORE SWAP2 PUSH1 0x20 ADD SWAP2 SWAP1 PUSH1 0x1 ADD SWAP1 PUSH2 0x107 JUMP JUMPDEST JUMPDEST POP SWAP1 POP PUSH2 0x130 SWAP2 SWAP1 PUSH2 0x134 JUMP JUMPDEST POP SWAP1 JUMP JUMPDEST JUMPDEST DUP1 DUP3 GT ISZERO PUSH2 0x14D JUMPI PUSH1 0x0 DUP2 PUSH1 0x0 SWAP1 SSTORE POP PUSH1 0x1 ADD PUSH2 0x135 JUMP JUMPDEST POP SWAP1 JUMP JUMPDEST PUSH1 0x0 PUSH1 0x2 DUP3 DIV SWAP1 POP PUSH1 0x1 DUP3 AND DUP1 PUSH2 0x169 JUMPI PUSH1 0x7F DUP3 AND SWAP2 POP JUMPDEST PUSH1 0x20 DUP3 LT DUP2 EQ ISZERO PUSH2 0x17D JUMPI PUSH2 0x17C PUSH2 0x183 JUMP JUMPDEST JUMPDEST POP SWAP2 SWAP1 POP JUMP JUMPDEST PUSH32 0x4E487B7100000000000000000000000000000000000000000000000000000000 PUSH1 0x0 MSTORE PUSH1 0x22 PUSH1 0x4 MSTORE PUSH1 0x24 PUSH1 0x0 REVERT JUMPDEST PUSH2 0xA16 DUP1 PUSH2 0x1C1 PUSH1 0x0 CODECOPY PUSH1 0x0 RETURN INVALID PUSH1 0x80 PUSH1 0x40 MSTORE CALLVALUE DUP1 ISZERO PUSH2 0x10 JUMPI PUSH1 0x0 DUP1 REVERT JUMPDEST POP PUSH1 0x4 CALLDATASIZE LT PUSH2 0x4C JUMPI PUSH1 0x0 CALLDATALOAD PUSH1 0xE0 SHR DUP1 PUSH4 0x6FDDE03 EQ PUSH2 0x51 JUMPI DUP1 PUSH4 0x6352211E EQ PUSH2 0x6F JUMPI DUP1 PUSH4 0x95D89B41 EQ PUSH2 0x9F JUMPI DUP1 PUSH4 0xD3FC9864 EQ PUSH2 0xBD JUMPI JUMPDEST PUSH1 0x0 DUP1 REVERT JUMPDEST PUSH2 0x59 PUSH2 0xD9 JUMP JUMPDEST PUSH1 0x40 MLOAD PUSH2 0x66 SWAP2 SWAP1 PUSH2 0x6F4 JUMP JUMPDEST PUSH1 0x40 MLOAD DUP1 SWAP2 SUB SWAP1 RETURN JUMPDEST PUSH2 0x89 PUSH1 0x4 DUP1 CALLDATASIZE SUB DUP2 ADD SWAP1 PUSH2 0x84 SWAP2 SWAP1 PUSH2 0x5FB JUMP JUMPDEST PUSH2 0x167 JUMP JUMPDEST PUSH1 0x40 MLOAD PUSH2 0x96 SWAP2 SWAP1 PUSH2 0x6D9 JUMP JUMPDEST PUSH1 0x40 MLOAD DUP1 SWAP2 SUB SWAP1 RETURN JUMPDEST PUSH2 0xA7 PUSH2 0x219 JUMP JUMPDEST PUSH1 0x40 MLOAD PUSH2 0xB4 SWAP2 SWAP1 PUSH2 0x6F4 JUMP JUMPDEST PUSH1 0x40 MLOAD DUP1 SWAP2 SUB SWAP1 RETURN JUMPDEST PUSH2 0xD7 PUSH1 0x4 DUP1 CALLDATASIZE SUB DUP2 ADD SWAP1 PUSH2 0xD2 SWAP2 SWAP1 PUSH2 0x587 JUMP JUMPDEST PUSH2 0x2A7 JUMP JUMPDEST STOP JUMPDEST PUSH1 0x0 DUP1 SLOAD PUSH2 0xE6 SWAP1 PUSH2 0x857 JUMP JUMPDEST DUP1 PUSH1 0x1F ADD PUSH1 0x20 DUP1 SWAP2 DIV MUL PUSH1 0x20 ADD PUSH1 0x40 MLOAD SWAP1 DUP2 ADD PUSH1 0x40 MSTORE DUP1 SWAP3 SWAP2 SWAP1 DUP2 DUP2 MSTORE PUSH1 0x20 ADD DUP3 DUP1 SLOAD PUSH2 0x112 SWAP1 PUSH2 0x857 JUMP JUMPDEST DUP1 ISZERO PUSH2 0x15F JUMPI DUP1 PUSH1 0x1F LT PUSH2 0x134 JUMPI PUSH2 0x100 DUP1 DUP4 SLOAD DIV MUL DUP4 MSTORE SWAP2 PUSH1 0x20 ADD SWAP2 PUSH2 0x15F JUMP JUMPDEST DUP3 ADD SWAP2 SWAP1 PUSH1 0x0 MSTORE PUSH1 0x20 PUSH1 0x0 KECCAK256 SWAP1 JUMPDEST DUP2 SLOAD DUP2 MSTORE SWAP1 PUSH1 0x1 ADD SWAP1 PUSH1 0x20 ADD DUP1 DUP4 GT PUSH2 0x142 JUMPI DUP3 SWAP1 SUB PUSH1 0x1F AND DUP3 ADD SWAP2 JUMPDEST POP POP POP POP POP DUP2 JUMP JUMPDEST PUSH1 0x0 DUP1 PUSH1 0x2 PUSH1 0x0 DUP5 DUP2 MSTORE PUSH1 0x20 ADD SWAP1 DUP2 MSTORE PUSH1 0x20 ADD PUSH1 0x0 KECCAK256 PUSH1 0x0 SWAP1 SLOAD SWAP1 PUSH2 0x100 EXP SWAP1 DIV PUSH20 0xFFFFFFFFFFFFFFFFFFFFFFFFFFFFFFFFFFFFFFFF AND SWAP1 POP PUSH1 0x0 PUSH20 0xFFFFFFFFFFFFFFFFFFFFFFFFFFFFFFFFFFFFFFFF AND DUP2 PUSH20 0xFFFFFFFFFFFFFFFFFFFFFFFFFFFFFFFFFFFFFFFF AND EQ ISZERO PUSH2 0x210 JUMPI PUSH1 0x40 MLOAD PUSH32 0x8C379A000000000000000000000000000000000000000000000000000000000 DUP2 MSTORE PUSH1 0x4 ADD PUSH2 0x207 SWAP1 PUSH2 0x736 JUMP JUMPDEST PUSH1 0x40 MLOAD DUP1 SWAP2 SUB SWAP1 REVERT JUMPDEST DUP1 SWAP2 POP POP SWAP2 SWAP1 POP JUMP JUMPDEST PUSH1 0x1 DUP1 SLOAD PUSH2 0x226 SWAP1 PUSH2 0x857 JUMP JUMPDEST DUP1 PUSH1 0x1F ADD PUSH1 0x20 DUP1 SWAP2 DIV MUL PUSH1 0x20 ADD PUSH1 0x40 MLOAD SWAP1 DUP2 ADD PUSH1 0x40 MSTORE DUP1 SWAP3 SWAP2 SWAP1 DUP2 DUP2 MSTORE PUSH1 0x20 ADD DUP3 DUP1 SLOAD PUSH2 0x252 SWAP1 PUSH2 0x857 JUMP JUMPDEST DUP1 ISZERO PUSH2 0x29F JUMPI DUP1 PUSH1 0x1F LT PUSH2 0x274 JUMPI PUSH2 0x100 DUP1 DUP4 SLOAD DIV MUL DUP4 MSTORE SWAP2 PUSH1 0x20 ADD SWAP2 PUSH2 0x29F JUMP JUMPDEST DUP3 ADD SWAP2 SWAP1 PUSH1 0x0 MSTORE PUSH1 0x20 PUSH1 0x0 KECCAK256 SWAP1 JUMPDEST DUP2 SLOAD DUP2 MSTORE SWAP1 PUSH1 0x1 ADD SWAP1 PUSH1 0x20 ADD DUP1 DUP4 GT PUSH2 0x282 JUMPI DUP3 SWAP1 SUB PUSH1 0x1F AND DUP3 ADD SWAP2 JUMPDEST POP POP POP POP POP DUP2 JUMP JUMPDEST PUSH2 0x2B1 DUP5 DUP5 PUSH2 0x2B7 JUMP JUMPDEST POP POP POP POP JUMP JUMPDEST PUSH1 0x0 PUSH20 0xFFFFFFFFFFFFFFFFFFFFFFFFFFFFFFFFFFFFFFFF AND DUP3 PUSH20 0xFFFFFFFFFFFFFFFFFFFFFFFFFFFFFFFFFFFFFFFF AND EQ ISZERO PUSH2 0x327 JUMPI PUSH1 0x40 MLOAD PUSH32 0x8C379A000000000000000000000000000000000000000000000000000000000 DUP2 MSTORE PUSH1 0x4 ADD PUSH2 0x31E SWAP1 PUSH2 0x756 JUMP JUMPDEST PUSH1 0x40 MLOAD DUP1 SWAP2 SUB SWAP1 REVERT JUMPDEST PUSH2 0x330 DUP2 PUSH2 0x491 JUMP JUMPDEST ISZERO PUSH2 0x370 JUMPI PUSH1 0x40 MLOAD PUSH32 0x8C379A000000000000000000000000000000000000000000000000000000000 DUP2 MSTORE PUSH1 0x4 ADD PUSH2 0x367 SWAP1 PUSH2 0x716 JUMP JUMPDEST PUSH1 0x40 MLOAD DUP1 SWAP2 SUB SWAP1 REVERT JUMPDEST PUSH2 0x37C PUSH1 0x0 DUP4 DUP4 PUSH2 0x4FD JUMP JUMPDEST PUSH1 0x1 PUSH1 0x3 PUSH1 0x0 DUP5 PUSH20 0xFFFFFFFFFFFFFFFFFFFFFFFFFFFFFFFFFFFFFFFF AND PUSH20 0xFFFFFFFFFFFFFFFFFFFFFFFFFFFFFFFFFFFFFFFF AND DUP2 MSTORE PUSH1 0x20 ADD SWAP1 DUP2 MSTORE PUSH1 0x20 ADD PUSH1 0x0 KECCAK256 PUSH1 0x0 DUP3 DUP3 SLOAD PUSH2 0x3CC SWAP2 SWAP1 PUSH2 0x792 JUMP JUMPDEST SWAP3 POP POP DUP2 SWAP1 SSTORE POP DUP2 PUSH1 0x2 PUSH1 0x0 DUP4 DUP2 MSTORE PUSH1 0x20 ADD SWAP1 DUP2 MSTORE PUSH1 0x20 ADD PUSH1 0x0 KECCAK256 PUSH1 0x0 PUSH2 0x100 EXP DUP2 SLOAD DUP2 PUSH20 0xFFFFFFFFFFFFFFFFFFFFFFFFFFFFFFFFFFFFFFFF MUL NOT AND SWAP1 DUP4 PUSH20 0xFFFFFFFFFFFFFFFFFFFFFFFFFFFFFFFFFFFFFFFF AND MUL OR SWAP1 SSTORE POP DUP1 DUP3 PUSH20 0xFFFFFFFFFFFFFFFFFFFFFFFFFFFFFFFFFFFFFFFF AND PUSH1 0x0 PUSH20 0xFFFFFFFFFFFFFFFFFFFFFFFFFFFFFFFFFFFFFFFF AND PUSH32 0xDDF252AD1BE2C89B69C2B068FC378DAA952BA7F163C4A11628F55A4DF523B3EF PUSH1 0x40 MLOAD PUSH1 0x40 MLOAD DUP1 SWAP2 SUB SWAP1 LOG4 PUSH2 0x48D PUSH1 0x0 DUP4 DUP4 PUSH2 0x502 JUMP JUMPDEST POP POP JUMP JUMPDEST PUSH1 0x0 DUP1 PUSH20 0xFFFFFFFFFFFFFFFFFFFFFFFFFFFFFFFFFFFFFFFF AND PUSH1 0x2 PUSH1 0x0 DUP5 DUP2 MSTORE PUSH1 0x20 ADD SWAP1 DUP2 MSTORE PUSH1 0x20 ADD PUSH1 0x0 KECCAK256 PUSH1 0x0 SWAP1 SLOAD SWAP1 PUSH2 0x100 EXP SWAP1 DIV PUSH20 0xFFFFFFFFFFFFFFFFFFFFFFFFFFFFFFFFFFFFFFFF AND PUSH20 0xFFFFFFFFFFFFFFFFFFFFFFFFFFFFFFFFFFFFFFFF AND EQ ISZERO SWAP1 POP SWAP2 SWAP1 POP JUMP JUMPDEST POP POP POP JUMP JUMPDEST POP POP POP JUMP JUMPDEST PUSH1 0x0 DUP2 CALLDATALOAD SWAP1 POP PUSH2 0x516 DUP2 PUSH2 0x9B2 JUMP JUMPDEST SWAP3 SWAP2 POP POP JUMP JUMPDEST PUSH1 0x0 DUP1 DUP4 PUSH1 0x1F DUP5 ADD SLT PUSH2 0x532 JUMPI PUSH2 0x531 PUSH2 0x8EC JUMP JUMPDEST JUMPDEST DUP3 CALLDATALOAD SWAP1 POP PUSH8 0xFFFFFFFFFFFFFFFF DUP2 GT ISZERO PUSH2 0x54F JUMPI PUSH2 0x54E PUSH2 0x8E7 JUMP JUMPDEST JUMPDEST PUSH1 0x20 DUP4 ADD SWAP2 POP DUP4 PUSH1 0x1 DUP3 MUL DUP4 ADD GT ISZERO PUSH2 0x56B JUMPI PUSH2 0x56A PUSH2 0x8F1 JUMP JUMPDEST JUMPDEST SWAP3 POP SWAP3 SWAP1 POP JUMP JUMPDEST PUSH1 0x0 DUP2 CALLDATALOAD SWAP1 POP PUSH2 0x581 DUP2 PUSH2 0x9C9 JUMP JUMPDEST SWAP3 SWAP2 POP POP JUMP JUMPDEST PUSH1 0x0 DUP1 PUSH1 0x0 DUP1 PUSH1 0x60 DUP6 DUP8 SUB SLT ISZERO PUSH2 0x5A1 JUMPI PUSH2 0x5A0 PUSH2 0x8FB JUMP JUMPDEST JUMPDEST PUSH1 0x0 PUSH2 0x5AF DUP8 DUP3 DUP9 ADD PUSH2 0x507 JUMP JUMPDEST SWAP5 POP POP PUSH1 0x20 PUSH2 0x5C0 DUP8 DUP3 DUP9 ADD PUSH2 0x572 JUMP JUMPDEST SWAP4 POP POP PUSH1 0x40 DUP6 ADD CALLDATALOAD PUSH8 0xFFFFFFFFFFFFFFFF DUP2 GT ISZERO PUSH2 0x5E1 JUMPI PUSH2 0x5E0 PUSH2 0x8F6 JUMP JUMPDEST JUMPDEST PUSH2 0x5ED DUP8 DUP3 DUP9 ADD PUSH2 0x51C JUMP JUMPDEST SWAP3 POP SWAP3 POP POP SWAP3 SWAP6 SWAP2 SWAP5 POP SWAP3 POP JUMP JUMPDEST PUSH1 0x0 PUSH1 0x20 DUP3 DUP5 SUB SLT ISZERO PUSH2 0x611 JUMPI PUSH2 0x610 PUSH2 0x8FB JUMP JUMPDEST JUMPDEST PUSH1 0x0 PUSH2 0x61F DUP5 DUP3 DUP6 ADD PUSH2 0x572 JUMP JUMPDEST SWAP2 POP POP SWAP3 SWAP2 POP POP JUMP JUMPDEST PUSH2 0x631 DUP2 PUSH2 0x7E8 JUMP JUMPDEST DUP3 MSTORE POP POP JUMP JUMPDEST PUSH1 0x0 PUSH2 0x642 DUP3 PUSH2 0x776 JUMP JUMPDEST PUSH2 0x64C DUP2 DUP6 PUSH2 0x781 JUMP JUMPDEST SWAP4 POP PUSH2 0x65C DUP2 DUP6 PUSH1 0x20 DUP7 ADD PUSH2 0x824 JUMP JUMPDEST PUSH2 0x665 DUP2 PUSH2 0x900 JUMP JUMPDEST DUP5 ADD SWAP2 POP POP SWAP3 SWAP2 POP POP JUMP JUMPDEST PUSH1 0x0 PUSH2 0x67D PUSH1 0x1C DUP4 PUSH2 0x781 JUMP JUMPDEST SWAP2 POP PUSH2 0x688 DUP3 PUSH2 0x911 JUMP JUMPDEST PUSH1 0x20 DUP3 ADD SWAP1 POP SWAP2 SWAP1 POP JUMP JUMPDEST PUSH1 0x0 PUSH2 0x6A0 PUSH1 0x29 DUP4 PUSH2 0x781 JUMP JUMPDEST SWAP2 POP PUSH2 0x6AB DUP3 PUSH2 0x93A JUMP JUMPDEST PUSH1 0x40 DUP3 ADD SWAP1 POP SWAP2 SWAP1 POP JUMP JUMPDEST PUSH1 0x0 PUSH2 0x6C3 PUSH1 0x20 DUP4 PUSH2 0x781 JUMP JUMPDEST SWAP2 POP PUSH2 0x6CE DUP3 PUSH2 0x989 JUMP JUMPDEST PUSH1 0x20 DUP3 ADD SWAP1 POP SWAP2 SWAP1 POP JUMP JUMPDEST PUSH1 0x0 PUSH1 0x20 DUP3 ADD SWAP1 POP PUSH2 0x6EE PUSH1 0x0 DUP4 ADD DUP5 PUSH2 0x628 JUMP JUMPDEST SWAP3 SWAP2 POP POP JUMP JUMPDEST PUSH1 0x0 PUSH1 0x20 DUP3 ADD SWAP1 POP DUP2 DUP2 SUB PUSH1 0x0 DUP4 ADD MSTORE PUSH2 0x70E DUP2 DUP5 PUSH2 0x637 JUMP JUMPDEST SWAP1 POP SWAP3 SWAP2 POP POP JUMP JUMPDEST PUSH1 0x0 PUSH1 0x20 DUP3 ADD SWAP1 POP DUP2 DUP2 SUB PUSH1 0x0 DUP4 ADD MSTORE PUSH2 0x72F DUP2 PUSH2 0x670 JUMP JUMPDEST SWAP1 POP SWAP2 SWAP1 POP JUMP JUMPDEST PUSH1 0x0 PUSH1 0x20 DUP3 ADD SWAP1 POP DUP2 DUP2 SUB PUSH1 0x0 DUP4 ADD MSTORE PUSH2 0x74F DUP2 PUSH2 0x693 JUMP JUMPDEST SWAP1 POP SWAP2 SWAP1 POP JUMP JUMPDEST PUSH1 0x0 PUSH1 0x20 DUP3 ADD SWAP1 POP DUP2 DUP2 SUB PUSH1 0x0 DUP4 ADD MSTORE PUSH2 0x76F DUP2 PUSH2 0x6B6 JUMP JUMPDEST SWAP1 POP SWAP2 SWAP1 POP JUMP JUMPDEST PUSH1 0x0 DUP2 MLOAD SWAP1 POP SWAP2 SWAP1 POP JUMP JUMPDEST PUSH1 0x0 DUP3 DUP3 MSTORE PUSH1 0x20 DUP3 ADD SWAP1 POP SWAP3 SWAP2 POP POP JUMP JUMPDEST PUSH1 0x0 PUSH2 0x79D DUP3 PUSH2 0x81A JUMP JUMPDEST SWAP2 POP PUSH2 0x7A8 DUP4 PUSH2 0x81A JUMP JUMPDEST SWAP3 POP DUP3 PUSH32 0xFFFFFFFFFFFFFFFFFFFFFFFFFFFFFFFFFFFFFFFFFFFFFFFFFFFFFFFFFFFFFFFF SUB DUP3 GT ISZERO PUSH2 0x7DD JUMPI PUSH2 0x7DC PUSH2 0x889 JUMP JUMPDEST JUMPDEST DUP3 DUP3 ADD SWAP1 POP SWAP3 SWAP2 POP POP JUMP JUMPDEST PUSH1 0x0 PUSH2 0x7F3 DUP3 PUSH2 0x7FA JUMP JUMPDEST SWAP1 POP SWAP2 SWAP1 POP JUMP JUMPDEST PUSH1 0x0 PUSH20 0xFFFFFFFFFFFFFFFFFFFFFFFFFFFFFFFFFFFFFFFF DUP3 AND SWAP1 POP SWAP2 SWAP1 POP JUMP JUMPDEST PUSH1 0x0 DUP2 SWAP1 POP SWAP2 SWAP1 POP JUMP JUMPDEST PUSH1 0x0 JUMPDEST DUP4 DUP2 LT ISZERO PUSH2 0x842 JUMPI DUP1 DUP3 ADD MLOAD DUP2 DUP5 ADD MSTORE PUSH1 0x20 DUP2 ADD SWAP1 POP PUSH2 0x827 JUMP JUMPDEST DUP4 DUP2 GT ISZERO PUSH2 0x851 JUMPI PUSH1 0x0 DUP5 DUP5 ADD MSTORE JUMPDEST POP POP POP POP JUMP JUMPDEST PUSH1 0x0 PUSH1 0x2 DUP3 DIV SWAP1 POP PUSH1 0x1 DUP3 AND DUP1 PUSH2 0x86F JUMPI PUSH1 0x7F DUP3 AND SWAP2 POP JUMPDEST PUSH1 0x20 DUP3 LT DUP2 EQ ISZERO PUSH2 0x883 JUMPI PUSH2 0x882 PUSH2 0x8B8 JUMP JUMPDEST JUMPDEST POP SWAP2 SWAP1 POP JUMP JUMPDEST PUSH32 0x4E487B7100000000000000000000000000000000000000000000000000000000 PUSH1 0x0 MSTORE PUSH1 0x11 PUSH1 0x4 MSTORE PUSH1 0x24 PUSH1 0x0 REVERT JUMPDEST PUSH32 0x4E487B7100000000000000000000000000000000000000000000000000000000 PUSH1 0x0 MSTORE PUSH1 0x22 PUSH1 0x4 MSTORE PUSH1 0x24 PUSH1 0x0 REVERT JUMPDEST PUSH1 0x0 DUP1 REVERT JUMPDEST PUSH1 0x0 DUP1 REVERT JUMPDEST PUSH1 0x0 DUP1 REVERT JUMPDEST PUSH1 0x0 DUP1 REVERT JUMPDEST PUSH1 0x0 DUP1 REVERT JUMPDEST PUSH1 0x0 PUSH1 0x1F NOT PUSH1 0x1F DUP4 ADD AND SWAP1 POP SWAP2 SWAP1 POP JUMP JUMPDEST PUSH32 0x4552433732313A20746F6B656E20616C7265616479206D696E74656400000000 PUSH1 0x0 DUP3 ADD MSTORE POP JUMP JUMPDEST PUSH32 0x4552433732313A206F776E657220717565727920666F72206E6F6E6578697374 PUSH1 0x0 DUP3 ADD MSTORE PUSH32 0x656E7420746F6B656E0000000000000000000000000000000000000000000000 PUSH1 0x20 DUP3 ADD MSTORE POP JUMP JUMPDEST PUSH32 0x4552433732313A206D696E7420746F20746865207A65726F2061646472657373 PUSH1 0x0 DUP3 ADD MSTORE POP JUMP JUMPDEST PUSH2 0x9BB DUP2 PUSH2 0x7E8 JUMP JUMPDEST DUP2 EQ PUSH2 0x9C6 JUMPI PUSH1 0x0 DUP1 REVERT JUMPDEST POP JUMP JUMPDEST PUSH2 0x9D2 DUP2 PUSH2 0x81A JUMP JUMPDEST DUP2 EQ PUSH2 0x9DD JUMPI PUSH1 0x0 DUP1 REVERT JUMPDEST POP JUMP INVALID LOG2 PUSH5 0x6970667358 0x22 SLT KECCAK256 DELEGATECALL 0xC4 SGT 0xA8 0xED SLT 0x23 DUP11 0xBF LT 0xD1 LOG3 PUSH31 0x6D88CB07CC09D5BE969461A222E4F749BA63FD64736F6C6343000807003300 "
				},
				"gasEstimates": {
					"creation": {
						"codeDepositCost": "516400",
						"executionCost": "infinite",
						"totalCost": "infinite"
					},
					"external": {
						"mint(address,uint256,string)": "infinite",
						"name()": "infinite",
						"ownerOf(uint256)": "2977",
						"symbol()": "infinite"
					},
					"internal": {
						"_afterTokenTransfer(address,address,uint256)": "15",
						"_baseURI()": "infinite",
						"_beforeTokenTransfer(address,address,uint256)": "15",
						"_exists(uint256)": "2269",
						"_mint(address,uint256)": "infinite"
					}
				},
				"methodIdentifiers": {
					"mint(address,uint256,string)": "d3fc9864",
					"name()": "06fdde03",
					"ownerOf(uint256)": "6352211e",
					"symbol()": "95d89b41"
				}
			},
			"userdoc": {
				"kind": "user",
				"methods": {},
				"version": 1
			}
		}
	}
}